{"abi":[{"type":"constructor","inputs":[{"name":"_paymentToken","type":"address","internalType":"address"},{"name":"_predictionMarket","type":"address","internalType":"address"},{"name":"_oracle","type":"address","internalType":"address"},{"name":"_reputationSystem","type":"address","internalType":"address"},{"name":"_owner","type":"address","internalType":"address"}],"stateMutability":"nonpayable"},{"type":"function","name":"createMarket","inputs":[{"name":"marketType","type":"uint8","internalType":"enum IPredictionMarket.MarketType"},{"name":"question","type":"string","internalType":"string"},{"name":"category","type":"string","internalType":"string"},{"name":"endTime","type":"uint256","internalType":"uint256"},{"name":"initialStake","type":"uint256","internalType":"uint256"},{"name":"initialSide","type":"uint8","internalType":"uint8"},{"name":"initialOutcomeLabel","type":"string","internalType":"string"}],"outputs":[{"name":"marketId","type":"uint256","internalType":"uint256"}],"stateMutability":"nonpayable"},{"type":"function","name":"createMarketWithCreator","inputs":[{"name":"marketType","type":"uint8","internalType":"enum IPredictionMarket.MarketType"},{"name":"question","type":"string","internalType":"string"},{"name":"category","type":"string","internalType":"string"},{"name":"endTime","type":"uint256","internalType":"uint256"},{"name":"initialStake","type":"uint256","internalType":"uint256"},{"name":"initialSide","type":"uint8","internalType":"uint8"},{"name":"initialOutcomeLabel","type":"string","internalType":"string"},{"name":"creatorAddress","type":"address","internalType":"address"}],"outputs":[{"name":"marketId","type":"uint256","internalType":"uint256"}],"stateMutability":"nonpayable"},{"type":"function","name":"creationFee","inputs":[],"outputs":[{"name":"","type":"uint256","internalType":"uint256"}],"stateMutability":"view"},{"type":"function","name":"delegations","inputs":[{"name":"","type":"address","internalType":"address"},{"name":"","type":"address","internalType":"address"}],"outputs":[{"name":"","type":"bool","internalType":"bool"}],"stateMutability":"view"},{"type":"function","name":"getAllMarketIds","inputs":[],"outputs":[{"name":"","type":"uint256[]","internalType":"uint256[]"}],"stateMutability":"view"},{"type":"function","name":"getMarketAddress","inputs":[{"name":"","type":"uint256","internalType":"uint256"}],"outputs":[{"name":"","type":"address","internalType":"address"}],"stateMutability":"view"},{"type":"function","name":"getMarketCount","inputs":[],"outputs":[{"name":"","type":"uint256","internalType":"uint256"}],"stateMutability":"view"},{"type":"function","name":"getMarketId","inputs":[{"name":"index","type":"uint256","internalType":"uint256"}],"outputs":[{"name":"","type":"uint256","internalType":"uint256"}],"stateMutability":"view"},{"type":"function","name":"grantDelegation","inputs":[{"name":"sessionAccount","type":"address","internalType":"address"}],"outputs":[],"stateMutability":"nonpayable"},{"type":"function","name":"hasDelegation","inputs":[{"name":"userAddress","type":"address","internalType":"address"},{"name":"delegateAddress","type":"address","internalType":"address"}],"outputs":[{"name":"","type":"bool","internalType":"bool"}],"stateMutability":"view"},{"type":"function","name":"marketExists","inputs":[{"name":"marketId","type":"uint256","internalType":"uint256"}],"outputs":[{"name":"","type":"bool","internalType":"bool"}],"stateMutability":"view"},{"type":"function","name":"oracle","inputs":[],"outputs":[{"name":"","type":"address","internalType":"contract IOracle"}],"stateMutability":"view"},{"type":"function","name":"owner","inputs":[],"outputs":[{"name":"","type":"address","internalType":"address"}],"stateMutability":"view"},{"type":"function","name":"paymentToken","inputs":[],"outputs":[{"name":"","type":"address","internalType":"contract IERC20"}],"stateMutability":"view"},{"type":"function","name":"predictionMarket","inputs":[],"outputs":[{"name":"","type":"address","internalType":"contract IPredictionMarket"}],"stateMutability":"view"},{"type":"function","name":"renounceOwnership","inputs":[],"outputs":[],"stateMutability":"nonpayable"},{"type":"function","name":"reputationSystem","inputs":[],"outputs":[{"name":"","type":"address","internalType":"contract IReputationSystem"}],"stateMutability":"view"},{"type":"function","name":"revokeDelegation","inputs":[{"name":"sessionAccount","type":"address","internalType":"address"}],"outputs":[],"stateMutability":"nonpayable"},{"type":"function","name":"setCreationFee","inputs":[{"name":"_creationFee","type":"uint256","internalType":"uint256"}],"outputs":[],"stateMutability":"nonpayable"},{"type":"function","name":"setOracle","inputs":[{"name":"_oracle","type":"address","internalType":"address"}],"outputs":[],"stateMutability":"nonpayable"},{"type":"function","name":"transferOwnership","inputs":[{"name":"newOwner","type":"address","internalType":"address"}],"outputs":[],"stateMutability":"nonpayable"},{"type":"function","name":"withdrawFees","inputs":[],"outputs":[],"stateMutability":"nonpayable"},{"type":"event","name":"DelegationGranted","inputs":[{"name":"user","type":"address","indexed":true,"internalType":"address"},{"name":"delegate","type":"address","indexed":true,"internalType":"address"}],"anonymous":false},{"type":"event","name":"DelegationRevoked","inputs":[{"name":"user","type":"address","indexed":true,"internalType":"address"},{"name":"delegate","type":"address","indexed":true,"internalType":"address"}],"anonymous":false},{"type":"event","name":"MarketCreated","inputs":[{"name":"marketId","type":"uint256","indexed":true,"internalType":"uint256"},{"name":"creator","type":"address","indexed":true,"internalType":"address"},{"name":"marketType","type":"uint8","indexed":false,"internalType":"enum IPredictionMarket.MarketType"}],"anonymous":false},{"type":"event","name":"OwnershipTransferred","inputs":[{"name":"previousOwner","type":"address","indexed":true,"internalType":"address"},{"name":"newOwner","type":"address","indexed":true,"internalType":"address"}],"anonymous":false},{"type":"error","name":"OwnableInvalidOwner","inputs":[{"name":"owner","type":"address","internalType":"address"}]},{"type":"error","name":"OwnableUnauthorizedAccount","inputs":[{"name":"account","type":"address","internalType":"address"}]},{"type":"error","name":"ReentrancyGuardReentrantCall","inputs":[]},{"type":"error","name":"SafeERC20FailedOperation","inputs":[{"name":"token","type":"address","internalType":"address"}]}],"bytecode":{"object":"0x60c060405234801561001057600080fd5b506040516115c73803806115c783398101604081905261002f91610135565b806001600160a01b03811661005e57604051631e4fbdf760e01b81526000600482015260240160405180910390fd5b610067816100c9565b5060017f9b779b17422d0df92223018b32b4d1fa46e071723d6817e2486d003becc55f0055506001600160a01b0393841660805291831660a052600180549184166001600160a01b03199283161790556002805492909316911617905561019a565b600080546001600160a01b038381166001600160a01b0319831681178455604051919092169283917f8be0079c531659141344cd1fd0a4f28419497f9722a3daafe3b4186f6b6457e09190a35050565b80516001600160a01b038116811461013057600080fd5b919050565b600080600080600060a0868803121561014d57600080fd5b61015686610119565b945061016460208701610119565b935061017260408701610119565b925061018060608701610119565b915061018e60808701610119565b90509295509295909350565b60805160a0516113d06101f76000396000818161017e01528181610324015281816105e201526108cf0152600081816101bd01528181610440015281816104da0152818161068401528181610890015261097101526113d06000f3fe608060405234801561001057600080fd5b50600436106101425760003560e01c80638da5cb5b116100b8578063dce0b4e41161007c578063dce0b4e414610316578063def114b61461031f578063e9ac057114610346578063ec69a65414610359578063f2fde38b1461037c578063fd69f3c21461038f57600080fd5b80638da5cb5b146102635780638e7a075c14610274578063b7d86225146102c0578063b85ed636146102d3578063c64814dd146102e857600080fd5b80636587eda11161010a5780636587eda1146101fc5780636b87baac1461020f578063715018a6146102225780637adbf9731461022a5780637dc0d1d01461023d578063808d50141461025057600080fd5b80630f610f05146101475780632f1ac04a1461016d5780633013ce29146101b8578063476343ee146101df578063544b1d61146101e9575b600080fd5b61015a610155366004610f06565b610397565b6040519081526020015b60405180910390f35b6101a061017b366004610f06565b507f000000000000000000000000000000000000000000000000000000000000000090565b6040516001600160a01b039091168152602001610164565b6101a07f000000000000000000000000000000000000000000000000000000000000000081565b6101e7610420565b005b61015a6101f7366004610fe9565b610504565b6002546101a0906001600160a01b031681565b61015a61021d3660046110c9565b610762565b6101e7610a4f565b6101e76102383660046111a3565b610a63565b6001546101a0906001600160a01b031681565b6101e761025e3660046111a3565b610ae3565b6000546001600160a01b03166101a0565b6102b06102823660046111c5565b6001600160a01b03918216600090815260066020908152604080832093909416825291909152205460ff1690565b6040519015158152602001610164565b6101e76102ce366004610f06565b610b39565b6102db610b46565b60405161016491906111f8565b6102b06102f63660046111c5565b600660209081526000928352604080842090915290825290205460ff1681565b61015a60035481565b6101a07f000000000000000000000000000000000000000000000000000000000000000081565b6101e76103543660046111a3565b610b9e565b6102b0610367366004610f06565b60009081526005602052604090205460ff1690565b6101e761038a3660046111a3565b610cb4565b60045461015a565b60045460009082106103fb5760405162461bcd60e51b815260206004820152602260248201527f4d61726b6574466163746f72793a20696e646578206f7574206f6620626f756e604482015261647360f01b60648201526084015b60405180910390fd5b6004828154811061040e5761040e61123b565b90600052602060002001549050919050565b610428610cef565b6040516370a0823160e01b81523060048201526000907f00000000000000000000000000000000000000000000000000000000000000006001600160a01b0316906370a0823190602401602060405180830381865afa15801561048f573d6000803e3d6000fd5b505050506040513d601f19601f820116820180604052508101906104b39190611251565b90508015610501576105016104d06000546001600160a01b031690565b6001600160a01b037f0000000000000000000000000000000000000000000000000000000000000000169083610d1c565b50565b600061050e610d56565b600087511161055f5760405162461bcd60e51b815260206004820152601d60248201527f4d61726b6574466163746f72793a20656d707479207175657374696f6e00000060448201526064016103f2565b60008651116105b05760405162461bcd60e51b815260206004820152601d60248201527f4d61726b6574466163746f72793a20656d7074792063617465676f727900000060448201526064016103f2565b33600060ff851660018111156105c8576105c861126a565b60405163217e60c960e11b81529091506001600160a01b037f000000000000000000000000000000000000000000000000000000000000000016906342fcc19290610625908d908d908d908d908d9089908d908c906004016112e4565b6020604051808303816000875af1158015610644573d6000803e3d6000fd5b505050506040513d601f19601f820116820180604052508101906106689190611251565b600354909350156106ae576003546106ae906001600160a01b037f0000000000000000000000000000000000000000000000000000000000000000169033903090610d72565b6004805460018181019092557f8a35acfbc15ff81a39ae7d344fd709f28e8600b4aa8c65c6b64bfe7fe36bd19b0184905560008481526005602052604090819020805460ff1916909217909155516001600160a01b0383169084907f35e090d785d65cf216dcb622fd844d88347017055a0b02c9a74727db2610a76190610736908e90611367565b60405180910390a35050610757600160008051602061137b83398151915255565b979650505050505050565b600061076c610d56565b60008851116107bd5760405162461bcd60e51b815260206004820152601d60248201527f4d61726b6574466163746f72793a20656d707479207175657374696f6e00000060448201526064016103f2565b600087511161080e5760405162461bcd60e51b815260206004820152601d60248201527f4d61726b6574466163746f72793a20656d7074792063617465676f727900000060448201526064016103f2565b6001600160a01b0382166108645760405162461bcd60e51b815260206004820152601e60248201527f4d61726b6574466163746f72793a20696e76616c69642063726561746f72000060448201526064016103f2565b60008460ff16600181111561087b5761087b61126a565b905085156108b8576108b86001600160a01b037f000000000000000000000000000000000000000000000000000000000000000016333089610d72565b60405163217e60c960e11b81526001600160a01b037f000000000000000000000000000000000000000000000000000000000000000016906342fcc19290610912908d908d908d908d908d9089908d908d906004016112e4565b6020604051808303816000875af1158015610931573d6000803e3d6000fd5b505050506040513d601f19601f820116820180604052508101906109559190611251565b6003549092501561099b5760035461099b906001600160a01b037f0000000000000000000000000000000000000000000000000000000000000000169033903090610d72565b6004805460018181019092557f8a35acfbc15ff81a39ae7d344fd709f28e8600b4aa8c65c6b64bfe7fe36bd19b0183905560008381526005602052604090819020805460ff1916909217909155516001600160a01b0384169083907f35e090d785d65cf216dcb622fd844d88347017055a0b02c9a74727db2610a76190610a23908e90611367565b60405180910390a350610a43600160008051602061137b83398151915255565b98975050505050505050565b610a57610cef565b610a616000610dae565b565b610a6b610cef565b6001600160a01b038116610ac15760405162461bcd60e51b815260206004820152601d60248201527f4d61726b6574466163746f72793a20696e76616c6964206f7261636c6500000060448201526064016103f2565b600180546001600160a01b0319166001600160a01b0392909216919091179055565b3360008181526006602090815260408083206001600160a01b0386168085529252808320805460ff19169055519092917f6f0412fa95f7f48ec7dc7631b382833d8eae9cf4082e5e859b94d091a4a846d491a350565b610b41610cef565b600355565b60606004805480602002602001604051908101604052809291908181526020018280548015610b9457602002820191906000526020600020905b815481526020019060010190808311610b80575b5050505050905090565b6001600160a01b038116610bf45760405162461bcd60e51b815260206004820152601f60248201527f4d61726b6574466163746f72793a20696e76616c69642064656c65676174650060448201526064016103f2565b336001600160a01b03821603610c5b5760405162461bcd60e51b815260206004820152602660248201527f4d61726b6574466163746f72793a2063616e6e6f742064656c65676174652074604482015265379039b2b63360d11b60648201526084016103f2565b3360008181526006602090815260408083206001600160a01b0386168085529252808320805460ff19166001179055519092917fa324dbc73b256ae6bed1d2d0cbc5d6a92b9565f61e7a57fffc6099958b750ec091a350565b610cbc610cef565b6001600160a01b038116610ce657604051631e4fbdf760e01b8152600060048201526024016103f2565b61050181610dae565b6000546001600160a01b03163314610a615760405163118cdaa760e01b81523360048201526024016103f2565b610d298383836001610dfe565b610d5157604051635274afe760e01b81526001600160a01b03841660048201526024016103f2565b505050565b610d5e610e64565b600260008051602061137b83398151915255565b610d80848484846001610e94565b610da857604051635274afe760e01b81526001600160a01b03851660048201526024016103f2565b50505050565b600080546001600160a01b038381166001600160a01b0319831681178455604051919092169283917f8be0079c531659141344cd1fd0a4f28419497f9722a3daafe3b4186f6b6457e09190a35050565b60405163a9059cbb60e01b60008181526001600160a01b038616600452602485905291602083604481808b5af192506001600051148316610e58578383151615610e4b573d6000823e3d81fd5b6000873b113d1516831692505b60405250949350505050565b60008051602061137b83398151915254600203610a6157604051633ee5aeb560e01b815260040160405180910390fd5b6040516323b872dd60e01b60008181526001600160a01b038781166004528616602452604485905291602083606481808c5af192506001600051148316610ef4578383151615610ee7573d6000823e3d81fd5b6000883b113d1516831692505b60405250600060605295945050505050565b600060208284031215610f1857600080fd5b5035919050565b803560028110610f2e57600080fd5b919050565b634e487b7160e01b600052604160045260246000fd5b600082601f830112610f5a57600080fd5b813567ffffffffffffffff811115610f7457610f74610f33565b604051601f8201601f19908116603f0116810167ffffffffffffffff81118282101715610fa357610fa3610f33565b604052818152838201602001851015610fbb57600080fd5b816020850160208301376000918101602001919091529392505050565b803560ff81168114610f2e57600080fd5b600080600080600080600060e0888a03121561100457600080fd5b61100d88610f1f565b9650602088013567ffffffffffffffff81111561102957600080fd5b6110358a828b01610f49565b965050604088013567ffffffffffffffff81111561105257600080fd5b61105e8a828b01610f49565b955050606088013593506080880135925061107b60a08901610fd8565b915060c088013567ffffffffffffffff81111561109757600080fd5b6110a38a828b01610f49565b91505092959891949750929550565b80356001600160a01b0381168114610f2e57600080fd5b600080600080600080600080610100898b0312156110e657600080fd5b6110ef89610f1f565b9750602089013567ffffffffffffffff81111561110b57600080fd5b6111178b828c01610f49565b975050604089013567ffffffffffffffff81111561113457600080fd5b6111408b828c01610f49565b965050606089013594506080890135935061115d60a08a01610fd8565b925060c089013567ffffffffffffffff81111561117957600080fd5b6111858b828c01610f49565b92505061119460e08a016110b2565b90509295985092959890939650565b6000602082840312156111b557600080fd5b6111be826110b2565b9392505050565b600080604083850312156111d857600080fd5b6111e1836110b2565b91506111ef602084016110b2565b90509250929050565b602080825282518282018190526000918401906040840190835b81811015611230578351835260209384019390920191600101611212565b509095945050505050565b634e487b7160e01b600052603260045260246000fd5b60006020828403121561126357600080fd5b5051919050565b634e487b7160e01b600052602160045260246000fd5b6002811061050157634e487b7160e01b600052602160045260246000fd5b6000815180845260005b818110156112c4576020818501810151868301820152016112a8565b506000602082860101526020601f19601f83011685010191505092915050565b6112ed89611280565b8881526101006020820152600061130861010083018a61129e565b828103604084015261131a818a61129e565b905087606084015286608084015261133186611280565b8560a084015282810360c0840152611349818661129e565b91505060018060a01b03831660e08301529998505050505050505050565b6020810161137483611280565b9190529056fe9b779b17422d0df92223018b32b4d1fa46e071723d6817e2486d003becc55f00a26469706673582212202268a3ea0fc33acf885fca87ea1228ba487ec85c0028f704a3c1138615916d9764736f6c634300081c0033","linkReferences":{}},"methodIdentifiers":{"createMarket(uint8,string,string,uint256,uint256,uint8,string)":"544b1d61","createMarketWithCreator(uint8,string,string,uint256,uint256,uint8,string,address)":"6b87baac","creationFee()":"dce0b4e4","delegations(address,address)":"c64814dd","getAllMarketIds()":"b85ed636","getMarketAddress(uint256)":"2f1ac04a","getMarketCount()":"fd69f3c2","getMarketId(uint256)":"0f610f05","grantDelegation(address)":"e9ac0571","hasDelegation(address,address)":"8e7a075c","marketExists(uint256)":"ec69a654","oracle()":"7dc0d1d0","owner()":"8da5cb5b","paymentToken()":"3013ce29","predictionMarket()":"def114b6","renounceOwnership()":"715018a6","reputationSystem()":"6587eda1","revokeDelegation(address)":"808d5014","setCreationFee(uint256)":"b7d86225","setOracle(address)":"7adbf973","transferOwnership(address)":"f2fde38b","withdrawFees()":"476343ee"},"id":30}