{"abi":[{"type":"constructor","inputs":[{"name":"_paymentToken","type":"address","internalType":"address"},{"name":"_predictionMarket","type":"address","internalType":"address"},{"name":"_oracle","type":"address","internalType":"address"},{"name":"_reputationSystem","type":"address","internalType":"address"},{"name":"_owner","type":"address","internalType":"address"}],"stateMutability":"nonpayable"},{"type":"function","name":"createMarket","inputs":[{"name":"marketType","type":"uint8","internalType":"enum IPredictionMarket.MarketType"},{"name":"question","type":"string","internalType":"string"},{"name":"category","type":"string","internalType":"string"},{"name":"endTime","type":"uint256","internalType":"uint256"},{"name":"initialStake","type":"uint256","internalType":"uint256"},{"name":"initialSide","type":"uint8","internalType":"uint8"},{"name":"initialOutcomeLabel","type":"string","internalType":"string"}],"outputs":[{"name":"marketId","type":"uint256","internalType":"uint256"}],"stateMutability":"nonpayable"},{"type":"function","name":"creationFee","inputs":[],"outputs":[{"name":"","type":"uint256","internalType":"uint256"}],"stateMutability":"view"},{"type":"function","name":"getAllMarketIds","inputs":[],"outputs":[{"name":"","type":"uint256[]","internalType":"uint256[]"}],"stateMutability":"view"},{"type":"function","name":"getMarketAddress","inputs":[{"name":"marketId","type":"uint256","internalType":"uint256"}],"outputs":[{"name":"","type":"address","internalType":"address"}],"stateMutability":"view"},{"type":"function","name":"getMarketCount","inputs":[],"outputs":[{"name":"","type":"uint256","internalType":"uint256"}],"stateMutability":"view"},{"type":"function","name":"getMarketId","inputs":[{"name":"index","type":"uint256","internalType":"uint256"}],"outputs":[{"name":"","type":"uint256","internalType":"uint256"}],"stateMutability":"view"},{"type":"function","name":"marketExists","inputs":[{"name":"marketId","type":"uint256","internalType":"uint256"}],"outputs":[{"name":"","type":"bool","internalType":"bool"}],"stateMutability":"view"},{"type":"function","name":"oracle","inputs":[],"outputs":[{"name":"","type":"address","internalType":"address"}],"stateMutability":"view"},{"type":"function","name":"owner","inputs":[],"outputs":[{"name":"","type":"address","internalType":"address"}],"stateMutability":"view"},{"type":"function","name":"paymentToken","inputs":[],"outputs":[{"name":"","type":"address","internalType":"contract IERC20"}],"stateMutability":"view"},{"type":"function","name":"predictionMarket","inputs":[],"outputs":[{"name":"","type":"address","internalType":"contract PredictionMarket"}],"stateMutability":"view"},{"type":"function","name":"renounceOwnership","inputs":[],"outputs":[],"stateMutability":"nonpayable"},{"type":"function","name":"reputationSystem","inputs":[],"outputs":[{"name":"","type":"address","internalType":"address"}],"stateMutability":"view"},{"type":"function","name":"setCreationFee","inputs":[{"name":"_creationFee","type":"uint256","internalType":"uint256"}],"outputs":[],"stateMutability":"nonpayable"},{"type":"function","name":"setOracle","inputs":[{"name":"_oracle","type":"address","internalType":"address"}],"outputs":[],"stateMutability":"nonpayable"},{"type":"function","name":"transferOwnership","inputs":[{"name":"newOwner","type":"address","internalType":"address"}],"outputs":[],"stateMutability":"nonpayable"},{"type":"function","name":"withdrawFees","inputs":[],"outputs":[],"stateMutability":"nonpayable"},{"type":"event","name":"OwnershipTransferred","inputs":[{"name":"previousOwner","type":"address","indexed":true,"internalType":"address"},{"name":"newOwner","type":"address","indexed":true,"internalType":"address"}],"anonymous":false},{"type":"error","name":"OwnableInvalidOwner","inputs":[{"name":"owner","type":"address","internalType":"address"}]},{"type":"error","name":"OwnableUnauthorizedAccount","inputs":[{"name":"account","type":"address","internalType":"address"}]},{"type":"error","name":"ReentrancyGuardReentrantCall","inputs":[]},{"type":"error","name":"SafeERC20FailedOperation","inputs":[{"name":"token","type":"address","internalType":"address"}]}],"bytecode":{"object":"0x60e060405234801561001057600080fd5b5060405161150d38038061150d83398101604081905261002f91610132565b806001600160a01b03811661005e57604051631e4fbdf760e01b81526000600482015260240160405180910390fd5b610067816100c6565b5060017f9b779b17422d0df92223018b32b4d1fa46e071723d6817e2486d003becc55f0055506001600160a01b0393841660a052918316608052600180546001600160a01b0319169184169190911790551660c0526000600255610197565b600080546001600160a01b038381166001600160a01b0319831681178455604051919092169283917f8be0079c531659141344cd1fd0a4f28419497f9722a3daafe3b4186f6b6457e09190a35050565b80516001600160a01b038116811461012d57600080fd5b919050565b600080600080600060a0868803121561014a57600080fd5b61015386610116565b945061016160208701610116565b935061016f60408701610116565b925061017d60608701610116565b915061018b60808701610116565b90509295509295909350565b60805160a05160c0516112ec61022160003960006101aa015260008181610166015281816104c40152818161055e015281816107dd015281816108140152610882015260008181610241015281816102a6015281816103b201528181610480015281816108530152818161091f01528181610a8101528181610b230152610bdb01526112ec6000f3fe608060405234801561001057600080fd5b506004361061010b5760003560e01c80637dc0d1d0116100a2578063dce0b4e411610071578063dce0b4e414610233578063def114b61461023c578063ec69a65414610263578063f2fde38b14610286578063fd69f3c21461029957600080fd5b80637dc0d1d0146101e75780638da5cb5b146101fa578063b7d862251461020b578063b85ed6361461021e57600080fd5b8063544b1d61116100de578063544b1d61146101925780636587eda1146101a5578063715018a6146101cc5780637adbf973146101d457600080fd5b80630f610f05146101105780632f1ac04a146101365780633013ce2914610161578063476343ee14610188575b600080fd5b61012361011e366004610e96565b6102a1565b6040519081526020015b60405180910390f35b610149610144366004610e96565b610399565b6040516001600160a01b03909116815260200161012d565b6101497f000000000000000000000000000000000000000000000000000000000000000081565b6101906104a4565b005b6101236101a0366004610f7c565b610588565b6101497f000000000000000000000000000000000000000000000000000000000000000081565b6101906109dc565b6101906101e236600461104b565b6109f0565b600154610149906001600160a01b031681565b6000546001600160a01b0316610149565b610190610219366004610e96565b610a70565b610226610a7d565b60405161012d9190611074565b61012360025481565b6101497f000000000000000000000000000000000000000000000000000000000000000081565b610276610271366004610e96565b610b0a565b604051901515815260200161012d565b61019061029436600461104b565b610b9c565b610123610bd7565b6000807f00000000000000000000000000000000000000000000000000000000000000006001600160a01b031663ec9790826040518163ffffffff1660e01b8152600401602060405180830381865afa158015610302573d6000803e3d6000fd5b505050506040513d601f19601f8201168201806040525081019061032691906110b7565b90508083106103875760405162461bcd60e51b815260206004820152602260248201527f4d61726b6574466163746f72793a20696e646578206f7574206f6620626f756e604482015261647360f01b60648201526084015b60405180910390fd5b6103928360016110d0565b9392505050565b604051633b1a699560e21b8152600481018290526000907f00000000000000000000000000000000000000000000000000000000000000006001600160a01b03169063ec69a65490602401602060405180830381865afa158015610401573d6000803e3d6000fd5b505050506040513d601f19601f8201168201806040525081019061042591906110f1565b61047d5760405162461bcd60e51b8152602060048201526024808201527f4d61726b6574466163746f72793a206d61726b657420646f6573206e6f7420656044820152631e1a5cdd60e21b606482015260840161037e565b507f0000000000000000000000000000000000000000000000000000000000000000919050565b6104ac610c5b565b6040516370a0823160e01b81523060048201526000907f00000000000000000000000000000000000000000000000000000000000000006001600160a01b0316906370a0823190602401602060405180830381865afa158015610513573d6000803e3d6000fd5b505050506040513d601f19601f8201168201806040525081019061053791906110b7565b90508015610585576105856105546000546001600160a01b031690565b6001600160a01b037f0000000000000000000000000000000000000000000000000000000000000000169083610c88565b50565b6000610592610cc2565b60008751116105e35760405162461bcd60e51b815260206004820152601d60248201527f4d61726b6574466163746f72793a20656d707479207175657374696f6e000000604482015260640161037e565b60008651116106345760405162461bcd60e51b815260206004820152601d60248201527f4d61726b6574466163746f72793a20656d7074792063617465676f7279000000604482015260640161037e565b4285116106835760405162461bcd60e51b815260206004820152601f60248201527f4d61726b6574466163746f72793a20696e76616c696420656e642074696d6500604482015260640161037e565b610691426301e133806110d0565b8511156106e05760405162461bcd60e51b815260206004820152601f60248201527f4d61726b6574466163746f72793a20656e642074696d6520746f6f2066617200604482015260640161037e565b6000841161073e5760405162461bcd60e51b815260206004820152602560248201527f4d61726b6574466163746f72793a20696e697469616c207374616b65207265716044820152641d5a5c995960da1b606482015260840161037e565b600188600181111561075257610752611113565b036107c45760008251116107c45760405162461bcd60e51b815260206004820152603360248201527f4d61726b6574466163746f72793a2043726f7764576973646f6d20726571756960448201527272657320696e697469616c206f7574636f6d6560681b606482015260840161037e565b6002541561080757600254610807906001600160a01b037f0000000000000000000000000000000000000000000000000000000000000000169033903090610cf0565b61083c6001600160a01b037f000000000000000000000000000000000000000000000000000000000000000016333087610cf0565b60405163095ea7b360e01b81526001600160a01b037f000000000000000000000000000000000000000000000000000000000000000081166004830152602482018690527f0000000000000000000000000000000000000000000000000000000000000000169063095ea7b3906044016020604051808303816000875af11580156108cb573d6000803e3d6000fd5b505050506040513d601f19601f820116820180604052508101906108ef91906110f1565b50600060ff841615610902576001610905565b60005b60405163217e60c960e11b81529091506001600160a01b037f000000000000000000000000000000000000000000000000000000000000000016906342fcc19290610962908c908c908c908c908c9089908c90339060040161118d565b6020604051808303816000875af1158015610981573d6000803e3d6000fd5b505050506040513d601f19601f820116820180604052508101906109a591906110b7565b9150506109d160017f9b779b17422d0df92223018b32b4d1fa46e071723d6817e2486d003becc55f0055565b979650505050505050565b6109e4610c5b565b6109ee6000610d2c565b565b6109f8610c5b565b6001600160a01b038116610a4e5760405162461bcd60e51b815260206004820152601d60248201527f4d61726b6574466163746f72793a20696e76616c6964206f7261636c65000000604482015260640161037e565b600180546001600160a01b0319166001600160a01b0392909216919091179055565b610a78610c5b565b600255565b60607f00000000000000000000000000000000000000000000000000000000000000006001600160a01b031663b85ed6366040518163ffffffff1660e01b8152600401600060405180830381865afa158015610add573d6000803e3d6000fd5b505050506040513d6000823e601f3d908101601f19168201604052610b059190810190611210565b905090565b604051633b1a699560e21b8152600481018290526000907f00000000000000000000000000000000000000000000000000000000000000006001600160a01b03169063ec69a65490602401602060405180830381865afa158015610b72573d6000803e3d6000fd5b505050506040513d601f19601f82011682018060405250810190610b9691906110f1565b92915050565b610ba4610c5b565b6001600160a01b038116610bce57604051631e4fbdf760e01b81526000600482015260240161037e565b61058581610d2c565b60007f00000000000000000000000000000000000000000000000000000000000000006001600160a01b031663ec9790826040518163ffffffff1660e01b8152600401602060405180830381865afa158015610c37573d6000803e3d6000fd5b505050506040513d601f19601f82011682018060405250810190610b0591906110b7565b6000546001600160a01b031633146109ee5760405163118cdaa760e01b815233600482015260240161037e565b610c958383836001610d7c565b610cbd57604051635274afe760e01b81526001600160a01b038416600482015260240161037e565b505050565b610cca610de2565b60027f9b779b17422d0df92223018b32b4d1fa46e071723d6817e2486d003becc55f0055565b610cfe848484846001610e24565b610d2657604051635274afe760e01b81526001600160a01b038516600482015260240161037e565b50505050565b600080546001600160a01b038381166001600160a01b0319831681178455604051919092169283917f8be0079c531659141344cd1fd0a4f28419497f9722a3daafe3b4186f6b6457e09190a35050565b60405163a9059cbb60e01b60008181526001600160a01b038616600452602485905291602083604481808b5af192506001600051148316610dd6578383151615610dc9573d6000823e3d81fd5b6000873b113d1516831692505b60405250949350505050565b7f9b779b17422d0df92223018b32b4d1fa46e071723d6817e2486d003becc55f00546002036109ee57604051633ee5aeb560e01b815260040160405180910390fd5b6040516323b872dd60e01b60008181526001600160a01b038781166004528616602452604485905291602083606481808c5af192506001600051148316610e84578383151615610e77573d6000823e3d81fd5b6000883b113d1516831692505b60405250600060605295945050505050565b600060208284031215610ea857600080fd5b5035919050565b634e487b7160e01b600052604160045260246000fd5b604051601f8201601f1916810167ffffffffffffffff81118282101715610eee57610eee610eaf565b604052919050565b600082601f830112610f0757600080fd5b813567ffffffffffffffff811115610f2157610f21610eaf565b610f34601f8201601f1916602001610ec5565b818152846020838601011115610f4957600080fd5b816020850160208301376000918101602001919091529392505050565b803560ff81168114610f7757600080fd5b919050565b600080600080600080600060e0888a031215610f9757600080fd5b873560028110610fa657600080fd5b9650602088013567ffffffffffffffff811115610fc257600080fd5b610fce8a828b01610ef6565b965050604088013567ffffffffffffffff811115610feb57600080fd5b610ff78a828b01610ef6565b955050606088013593506080880135925061101460a08901610f66565b915060c088013567ffffffffffffffff81111561103057600080fd5b61103c8a828b01610ef6565b91505092959891949750929550565b60006020828403121561105d57600080fd5b81356001600160a01b038116811461039257600080fd5b602080825282518282018190526000918401906040840190835b818110156110ac57835183526020938401939092019160010161108e565b509095945050505050565b6000602082840312156110c957600080fd5b5051919050565b80820180821115610b9657634e487b7160e01b600052601160045260246000fd5b60006020828403121561110357600080fd5b8151801515811461039257600080fd5b634e487b7160e01b600052602160045260246000fd5b6002811061058557634e487b7160e01b600052602160045260246000fd5b6000815180845260005b8181101561116d57602081850181015186830182015201611151565b506000602082860101526020601f19601f83011685010191505092915050565b61119689611129565b888152610100602082015260006111b161010083018a611147565b82810360408401526111c3818a611147565b90508760608401528660808401526111da86611129565b8560a084015282810360c08401526111f28186611147565b91505060018060a01b03831660e08301529998505050505050505050565b60006020828403121561122257600080fd5b815167ffffffffffffffff81111561123957600080fd5b8201601f8101841361124a57600080fd5b805167ffffffffffffffff81111561126457611264610eaf565b8060051b61127460208201610ec5565b9182526020818401810192908101908784111561129057600080fd5b6020850194505b838510156109d15784518083526020958601959093509091019061129756fea264697066735822122035ad61f22ab93ad563f5fdd70152f792750a70e21bd51055171cdae11073b12e64736f6c634300081c0033","linkReferences":{}},"methodIdentifiers":{"createMarket(uint8,string,string,uint256,uint256,uint8,string)":"544b1d61","creationFee()":"dce0b4e4","getAllMarketIds()":"b85ed636","getMarketAddress(uint256)":"2f1ac04a","getMarketCount()":"fd69f3c2","getMarketId(uint256)":"0f610f05","marketExists(uint256)":"ec69a654","oracle()":"7dc0d1d0","owner()":"8da5cb5b","paymentToken()":"3013ce29","predictionMarket()":"def114b6","renounceOwnership()":"715018a6","reputationSystem()":"6587eda1","setCreationFee(uint256)":"b7d86225","setOracle(address)":"7adbf973","transferOwnership(address)":"f2fde38b","withdrawFees()":"476343ee"},"id":40}