{"abi":[{"type":"constructor","inputs":[{"name":"_paymentToken","type":"address","internalType":"address"},{"name":"_predictionMarket","type":"address","internalType":"address"},{"name":"_oracle","type":"address","internalType":"address"},{"name":"_reputationSystem","type":"address","internalType":"address"},{"name":"_owner","type":"address","internalType":"address"}],"stateMutability":"nonpayable"},{"type":"function","name":"createMarket","inputs":[{"name":"question","type":"string","internalType":"string"},{"name":"category","type":"string","internalType":"string"},{"name":"endTime","type":"uint256","internalType":"uint256"},{"name":"initialStake","type":"uint256","internalType":"uint256"},{"name":"initialSide","type":"uint8","internalType":"uint8"}],"outputs":[{"name":"marketId","type":"uint256","internalType":"uint256"}],"stateMutability":"nonpayable"},{"type":"function","name":"creationFee","inputs":[],"outputs":[{"name":"","type":"uint256","internalType":"uint256"}],"stateMutability":"view"},{"type":"function","name":"getAllMarketIds","inputs":[],"outputs":[{"name":"","type":"uint256[]","internalType":"uint256[]"}],"stateMutability":"view"},{"type":"function","name":"getMarketAddress","inputs":[{"name":"marketId","type":"uint256","internalType":"uint256"}],"outputs":[{"name":"","type":"address","internalType":"address"}],"stateMutability":"view"},{"type":"function","name":"getMarketCount","inputs":[],"outputs":[{"name":"","type":"uint256","internalType":"uint256"}],"stateMutability":"view"},{"type":"function","name":"getMarketId","inputs":[{"name":"index","type":"uint256","internalType":"uint256"}],"outputs":[{"name":"","type":"uint256","internalType":"uint256"}],"stateMutability":"view"},{"type":"function","name":"marketExists","inputs":[{"name":"marketId","type":"uint256","internalType":"uint256"}],"outputs":[{"name":"","type":"bool","internalType":"bool"}],"stateMutability":"view"},{"type":"function","name":"oracle","inputs":[],"outputs":[{"name":"","type":"address","internalType":"address"}],"stateMutability":"view"},{"type":"function","name":"owner","inputs":[],"outputs":[{"name":"","type":"address","internalType":"address"}],"stateMutability":"view"},{"type":"function","name":"paymentToken","inputs":[],"outputs":[{"name":"","type":"address","internalType":"contract IERC20"}],"stateMutability":"view"},{"type":"function","name":"predictionMarket","inputs":[],"outputs":[{"name":"","type":"address","internalType":"contract PredictionMarket"}],"stateMutability":"view"},{"type":"function","name":"renounceOwnership","inputs":[],"outputs":[],"stateMutability":"nonpayable"},{"type":"function","name":"reputationSystem","inputs":[],"outputs":[{"name":"","type":"address","internalType":"address"}],"stateMutability":"view"},{"type":"function","name":"setCreationFee","inputs":[{"name":"_creationFee","type":"uint256","internalType":"uint256"}],"outputs":[],"stateMutability":"nonpayable"},{"type":"function","name":"setOracle","inputs":[{"name":"_oracle","type":"address","internalType":"address"}],"outputs":[],"stateMutability":"nonpayable"},{"type":"function","name":"transferOwnership","inputs":[{"name":"newOwner","type":"address","internalType":"address"}],"outputs":[],"stateMutability":"nonpayable"},{"type":"function","name":"withdrawFees","inputs":[],"outputs":[],"stateMutability":"nonpayable"},{"type":"event","name":"OwnershipTransferred","inputs":[{"name":"previousOwner","type":"address","indexed":true,"internalType":"address"},{"name":"newOwner","type":"address","indexed":true,"internalType":"address"}],"anonymous":false},{"type":"error","name":"OwnableInvalidOwner","inputs":[{"name":"owner","type":"address","internalType":"address"}]},{"type":"error","name":"OwnableUnauthorizedAccount","inputs":[{"name":"account","type":"address","internalType":"address"}]},{"type":"error","name":"ReentrancyGuardReentrantCall","inputs":[]},{"type":"error","name":"SafeERC20FailedOperation","inputs":[{"name":"token","type":"address","internalType":"address"}]}],"bytecode":{"object":"0x60e060405234801561001057600080fd5b506040516113fb3803806113fb83398101604081905261002f91610132565b806001600160a01b03811661005e57604051631e4fbdf760e01b81526000600482015260240160405180910390fd5b610067816100c6565b5060017f9b779b17422d0df92223018b32b4d1fa46e071723d6817e2486d003becc55f0055506001600160a01b0393841660a052918316608052600180546001600160a01b0319169184169190911790551660c0526000600255610197565b600080546001600160a01b038381166001600160a01b0319831681178455604051919092169283917f8be0079c531659141344cd1fd0a4f28419497f9722a3daafe3b4186f6b6457e09190a35050565b80516001600160a01b038116811461012d57600080fd5b919050565b600080600080600060a0868803121561014a57600080fd5b61015386610116565b945061016160208701610116565b935061016f60408701610116565b925061017d60608701610116565b915061018b60808701610116565b90509295509295909350565b60805160a05160c0516111da6102216000396000610197015260008181610166015281816104c40152818161055e0152818161076b015281816107a20152610810015260008181610241015281816102a6015281816103b201528181610480015281816107e1015281816108ad015281816109f501528181610a970152610b4f01526111da6000f3fe608060405234801561001057600080fd5b506004361061010b5760003560e01c80637dc0d1d0116100a2578063dce0b4e411610071578063dce0b4e414610233578063def114b61461023c578063ec69a65414610263578063f2fde38b14610286578063fd69f3c21461029957600080fd5b80637dc0d1d0146101e75780638da5cb5b146101fa578063b7d862251461020b578063b85ed6361461021e57600080fd5b80636587eda1116100de5780636587eda114610192578063715018a6146101b9578063773e245a146101c15780637adbf973146101d457600080fd5b80630f610f05146101105780632f1ac04a146101365780633013ce2914610161578063476343ee14610188575b600080fd5b61012361011e366004610e0a565b6102a1565b6040519081526020015b60405180910390f35b610149610144366004610e0a565b610399565b6040516001600160a01b03909116815260200161012d565b6101497f000000000000000000000000000000000000000000000000000000000000000081565b6101906104a4565b005b6101497f000000000000000000000000000000000000000000000000000000000000000081565b610190610588565b6101236101cf366004610eda565b61059c565b6101906101e2366004610f71565b610964565b600154610149906001600160a01b031681565b6000546001600160a01b0316610149565b610190610219366004610e0a565b6109e4565b6102266109f1565b60405161012d9190610f9a565b61012360025481565b6101497f000000000000000000000000000000000000000000000000000000000000000081565b610276610271366004610e0a565b610a7e565b604051901515815260200161012d565b610190610294366004610f71565b610b10565b610123610b4b565b6000807f00000000000000000000000000000000000000000000000000000000000000006001600160a01b031663ec9790826040518163ffffffff1660e01b8152600401602060405180830381865afa158015610302573d6000803e3d6000fd5b505050506040513d601f19601f820116820180604052508101906103269190610fdd565b90508083106103875760405162461bcd60e51b815260206004820152602260248201527f4d61726b6574466163746f72793a20696e646578206f7574206f6620626f756e604482015261647360f01b60648201526084015b60405180910390fd5b610392836001610ff6565b9392505050565b604051633b1a699560e21b8152600481018290526000907f00000000000000000000000000000000000000000000000000000000000000006001600160a01b03169063ec69a65490602401602060405180830381865afa158015610401573d6000803e3d6000fd5b505050506040513d601f19601f820116820180604052508101906104259190611017565b61047d5760405162461bcd60e51b8152602060048201526024808201527f4d61726b6574466163746f72793a206d61726b657420646f6573206e6f7420656044820152631e1a5cdd60e21b606482015260840161037e565b507f0000000000000000000000000000000000000000000000000000000000000000919050565b6104ac610bcf565b6040516370a0823160e01b81523060048201526000907f00000000000000000000000000000000000000000000000000000000000000006001600160a01b0316906370a0823190602401602060405180830381865afa158015610513573d6000803e3d6000fd5b505050506040513d601f19601f820116820180604052508101906105379190610fdd565b90508015610585576105856105546000546001600160a01b031690565b6001600160a01b037f0000000000000000000000000000000000000000000000000000000000000000169083610bfc565b50565b610590610bcf565b61059a6000610c36565b565b60006105a6610c86565b60008651116105f75760405162461bcd60e51b815260206004820152601d60248201527f4d61726b6574466163746f72793a20656d707479207175657374696f6e000000604482015260640161037e565b60008551116106485760405162461bcd60e51b815260206004820152601d60248201527f4d61726b6574466163746f72793a20656d7074792063617465676f7279000000604482015260640161037e565b4284116106975760405162461bcd60e51b815260206004820152601f60248201527f4d61726b6574466163746f72793a20696e76616c696420656e642074696d6500604482015260640161037e565b6106a5426301e13380610ff6565b8411156106f45760405162461bcd60e51b815260206004820152601f60248201527f4d61726b6574466163746f72793a20656e642074696d6520746f6f2066617200604482015260640161037e565b600083116107525760405162461bcd60e51b815260206004820152602560248201527f4d61726b6574466163746f72793a20696e697469616c207374616b65207265716044820152641d5a5c995960da1b606482015260840161037e565b6002541561079557600254610795906001600160a01b037f0000000000000000000000000000000000000000000000000000000000000000169033903090610cb4565b6107ca6001600160a01b037f000000000000000000000000000000000000000000000000000000000000000016333086610cb4565b60405163095ea7b360e01b81526001600160a01b037f000000000000000000000000000000000000000000000000000000000000000081166004830152602482018590527f0000000000000000000000000000000000000000000000000000000000000000169063095ea7b3906044016020604051808303816000875af1158015610859573d6000803e3d6000fd5b505050506040513d601f19601f8201168201806040525081019061087d9190611017565b50600060ff831615610890576001610893565b60005b604051633e12676d60e21b81529091506001600160a01b037f0000000000000000000000000000000000000000000000000000000000000000169063f8499db4906108ec908a908a908a908a908890339060040161107f565b6020604051808303816000875af115801561090b573d6000803e3d6000fd5b505050506040513d601f19601f8201168201806040525081019061092f9190610fdd565b91505061095b60017f9b779b17422d0df92223018b32b4d1fa46e071723d6817e2486d003becc55f0055565b95945050505050565b61096c610bcf565b6001600160a01b0381166109c25760405162461bcd60e51b815260206004820152601d60248201527f4d61726b6574466163746f72793a20696e76616c6964206f7261636c65000000604482015260640161037e565b600180546001600160a01b0319166001600160a01b0392909216919091179055565b6109ec610bcf565b600255565b60607f00000000000000000000000000000000000000000000000000000000000000006001600160a01b031663b85ed6366040518163ffffffff1660e01b8152600401600060405180830381865afa158015610a51573d6000803e3d6000fd5b505050506040513d6000823e601f3d908101601f19168201604052610a7991908101906110f3565b905090565b604051633b1a699560e21b8152600481018290526000907f00000000000000000000000000000000000000000000000000000000000000006001600160a01b03169063ec69a65490602401602060405180830381865afa158015610ae6573d6000803e3d6000fd5b505050506040513d601f19601f82011682018060405250810190610b0a9190611017565b92915050565b610b18610bcf565b6001600160a01b038116610b4257604051631e4fbdf760e01b81526000600482015260240161037e565b61058581610c36565b60007f00000000000000000000000000000000000000000000000000000000000000006001600160a01b031663ec9790826040518163ffffffff1660e01b8152600401602060405180830381865afa158015610bab573d6000803e3d6000fd5b505050506040513d601f19601f82011682018060405250810190610a799190610fdd565b6000546001600160a01b0316331461059a5760405163118cdaa760e01b815233600482015260240161037e565b610c098383836001610cf0565b610c3157604051635274afe760e01b81526001600160a01b038416600482015260240161037e565b505050565b600080546001600160a01b038381166001600160a01b0319831681178455604051919092169283917f8be0079c531659141344cd1fd0a4f28419497f9722a3daafe3b4186f6b6457e09190a35050565b610c8e610d56565b60027f9b779b17422d0df92223018b32b4d1fa46e071723d6817e2486d003becc55f0055565b610cc2848484846001610d98565b610cea57604051635274afe760e01b81526001600160a01b038516600482015260240161037e565b50505050565b60405163a9059cbb60e01b60008181526001600160a01b038616600452602485905291602083604481808b5af192506001600051148316610d4a578383151615610d3d573d6000823e3d81fd5b6000873b113d1516831692505b60405250949350505050565b7f9b779b17422d0df92223018b32b4d1fa46e071723d6817e2486d003becc55f005460020361059a57604051633ee5aeb560e01b815260040160405180910390fd5b6040516323b872dd60e01b60008181526001600160a01b038781166004528616602452604485905291602083606481808c5af192506001600051148316610df8578383151615610deb573d6000823e3d81fd5b6000883b113d1516831692505b60405250600060605295945050505050565b600060208284031215610e1c57600080fd5b5035919050565b634e487b7160e01b600052604160045260246000fd5b604051601f8201601f1916810167ffffffffffffffff81118282101715610e6257610e62610e23565b604052919050565b600082601f830112610e7b57600080fd5b813567ffffffffffffffff811115610e9557610e95610e23565b610ea8601f8201601f1916602001610e39565b818152846020838601011115610ebd57600080fd5b816020850160208301376000918101602001919091529392505050565b600080600080600060a08688031215610ef257600080fd5b853567ffffffffffffffff811115610f0957600080fd5b610f1588828901610e6a565b955050602086013567ffffffffffffffff811115610f3257600080fd5b610f3e88828901610e6a565b9450506040860135925060608601359150608086013560ff81168114610f6357600080fd5b809150509295509295909350565b600060208284031215610f8357600080fd5b81356001600160a01b038116811461039257600080fd5b602080825282518282018190526000918401906040840190835b81811015610fd2578351835260209384019390920191600101610fb4565b509095945050505050565b600060208284031215610fef57600080fd5b5051919050565b80820180821115610b0a57634e487b7160e01b600052601160045260246000fd5b60006020828403121561102957600080fd5b8151801515811461039257600080fd5b6000815180845260005b8181101561105f57602081850181015186830182015201611043565b506000602082860101526020601f19601f83011685010191505092915050565b60c08152600061109260c0830189611039565b82810360208401526110a48189611039565b915050856040830152846060830152600284106110d157634e487b7160e01b600052602160045260246000fd5b60808201939093526001600160a01b039190911660a090910152949350505050565b60006020828403121561110557600080fd5b815167ffffffffffffffff81111561111c57600080fd5b8201601f8101841361112d57600080fd5b805167ffffffffffffffff81111561114757611147610e23565b8060051b61115760208201610e39565b9182526020818401810192908101908784111561117357600080fd5b6020850194505b838510156111995784518083526020958601959093509091019061117a565b97965050505050505056fea26469706673582212200d532eb36d63eac418cde9dda1c62f4e5c3b7d9e2dc43575670b2bdf0771a60c64736f6c634300081c0033","linkReferences":{}},"methodIdentifiers":{"createMarket(string,string,uint256,uint256,uint8)":"773e245a","creationFee()":"dce0b4e4","getAllMarketIds()":"b85ed636","getMarketAddress(uint256)":"2f1ac04a","getMarketCount()":"fd69f3c2","getMarketId(uint256)":"0f610f05","marketExists(uint256)":"ec69a654","oracle()":"7dc0d1d0","owner()":"8da5cb5b","paymentToken()":"3013ce29","predictionMarket()":"def114b6","renounceOwnership()":"715018a6","reputationSystem()":"6587eda1","setCreationFee(uint256)":"b7d86225","setOracle(address)":"7adbf973","transferOwnership(address)":"f2fde38b","withdrawFees()":"476343ee"},"id":41}