{"abi":[{"type":"constructor","inputs":[{"name":"_predictionMarket","type":"address","internalType":"address"},{"name":"_reputationSystem","type":"address","internalType":"address"},{"name":"_admin","type":"address","internalType":"address"}],"stateMutability":"nonpayable"},{"type":"function","name":"DEFAULT_ADMIN_ROLE","inputs":[],"outputs":[{"name":"","type":"bytes32","internalType":"bytes32"}],"stateMutability":"view"},{"type":"function","name":"DISPUTE_ROLE","inputs":[],"outputs":[{"name":"","type":"bytes32","internalType":"bytes32"}],"stateMutability":"view"},{"type":"function","name":"DISPUTE_WINDOW","inputs":[],"outputs":[{"name":"","type":"uint256","internalType":"uint256"}],"stateMutability":"view"},{"type":"function","name":"ORACLE_ROLE","inputs":[],"outputs":[{"name":"","type":"bytes32","internalType":"bytes32"}],"stateMutability":"view"},{"type":"function","name":"canResolve","inputs":[{"name":"marketId","type":"uint256","internalType":"uint256"}],"outputs":[{"name":"","type":"bool","internalType":"bool"}],"stateMutability":"view"},{"type":"function","name":"disputeResolution","inputs":[{"name":"marketId","type":"uint256","internalType":"uint256"}],"outputs":[],"stateMutability":"nonpayable"},{"type":"function","name":"disputeVotes","inputs":[{"name":"","type":"uint256","internalType":"uint256"},{"name":"","type":"address","internalType":"address"}],"outputs":[{"name":"","type":"bool","internalType":"bool"}],"stateMutability":"view"},{"type":"function","name":"getResolution","inputs":[{"name":"marketId","type":"uint256","internalType":"uint256"}],"outputs":[{"name":"","type":"tuple","internalType":"struct Oracle.Resolution","components":[{"name":"outcome","type":"uint8","internalType":"enum IPredictionMarket.Outcome"},{"name":"timestamp","type":"uint256","internalType":"uint256"},{"name":"disputed","type":"bool","internalType":"bool"},{"name":"disputeEndTime","type":"uint256","internalType":"uint256"}]}],"stateMutability":"view"},{"type":"function","name":"getRoleAdmin","inputs":[{"name":"role","type":"bytes32","internalType":"bytes32"}],"outputs":[{"name":"","type":"bytes32","internalType":"bytes32"}],"stateMutability":"view"},{"type":"function","name":"grantDisputeRole","inputs":[{"name":"account","type":"address","internalType":"address"}],"outputs":[],"stateMutability":"nonpayable"},{"type":"function","name":"grantOracleRole","inputs":[{"name":"account","type":"address","internalType":"address"}],"outputs":[],"stateMutability":"nonpayable"},{"type":"function","name":"grantRole","inputs":[{"name":"role","type":"bytes32","internalType":"bytes32"},{"name":"account","type":"address","internalType":"address"}],"outputs":[],"stateMutability":"nonpayable"},{"type":"function","name":"hasRole","inputs":[{"name":"role","type":"bytes32","internalType":"bytes32"},{"name":"account","type":"address","internalType":"address"}],"outputs":[{"name":"","type":"bool","internalType":"bool"}],"stateMutability":"view"},{"type":"function","name":"inDisputeWindow","inputs":[{"name":"marketId","type":"uint256","internalType":"uint256"}],"outputs":[{"name":"","type":"bool","internalType":"bool"}],"stateMutability":"view"},{"type":"function","name":"isResolved","inputs":[{"name":"marketId","type":"uint256","internalType":"uint256"}],"outputs":[{"name":"","type":"bool","internalType":"bool"}],"stateMutability":"view"},{"type":"function","name":"predictionMarket","inputs":[],"outputs":[{"name":"","type":"address","internalType":"contract PredictionMarket"}],"stateMutability":"view"},{"type":"function","name":"renounceRole","inputs":[{"name":"role","type":"bytes32","internalType":"bytes32"},{"name":"callerConfirmation","type":"address","internalType":"address"}],"outputs":[],"stateMutability":"nonpayable"},{"type":"function","name":"reputationSystem","inputs":[],"outputs":[{"name":"","type":"address","internalType":"contract IReputationSystem"}],"stateMutability":"view"},{"type":"function","name":"resolutions","inputs":[{"name":"","type":"uint256","internalType":"uint256"}],"outputs":[{"name":"outcome","type":"uint8","internalType":"enum IPredictionMarket.Outcome"},{"name":"timestamp","type":"uint256","internalType":"uint256"},{"name":"disputed","type":"bool","internalType":"bool"},{"name":"disputeEndTime","type":"uint256","internalType":"uint256"}],"stateMutability":"view"},{"type":"function","name":"resolveCrowdWisdomMarket","inputs":[{"name":"marketId","type":"uint256","internalType":"uint256"},{"name":"winningOutcomeIndex","type":"uint256","internalType":"uint256"}],"outputs":[],"stateMutability":"nonpayable"},{"type":"function","name":"resolveCrowdWisdomMarketByLabel","inputs":[{"name":"marketId","type":"uint256","internalType":"uint256"},{"name":"winningOutcomeLabel","type":"string","internalType":"string"}],"outputs":[{"name":"outcomeIndex","type":"uint256","internalType":"uint256"}],"stateMutability":"nonpayable"},{"type":"function","name":"resolveDispute","inputs":[{"name":"marketId","type":"uint256","internalType":"uint256"},{"name":"finalOutcome","type":"uint8","internalType":"enum IPredictionMarket.Outcome"}],"outputs":[],"stateMutability":"nonpayable"},{"type":"function","name":"resolveMarket","inputs":[{"name":"marketId","type":"uint256","internalType":"uint256"},{"name":"outcome","type":"uint8","internalType":"enum IPredictionMarket.Outcome"}],"outputs":[],"stateMutability":"nonpayable"},{"type":"function","name":"revokeDisputeRole","inputs":[{"name":"account","type":"address","internalType":"address"}],"outputs":[],"stateMutability":"nonpayable"},{"type":"function","name":"revokeOracleRole","inputs":[{"name":"account","type":"address","internalType":"address"}],"outputs":[],"stateMutability":"nonpayable"},{"type":"function","name":"revokeRole","inputs":[{"name":"role","type":"bytes32","internalType":"bytes32"},{"name":"account","type":"address","internalType":"address"}],"outputs":[],"stateMutability":"nonpayable"},{"type":"function","name":"supportsInterface","inputs":[{"name":"interfaceId","type":"bytes4","internalType":"bytes4"}],"outputs":[{"name":"","type":"bool","internalType":"bool"}],"stateMutability":"view"},{"type":"event","name":"DisputeResolved","inputs":[{"name":"marketId","type":"uint256","indexed":true,"internalType":"uint256"},{"name":"finalOutcome","type":"uint8","indexed":false,"internalType":"enum IPredictionMarket.Outcome"}],"anonymous":false},{"type":"event","name":"MarketResolved","inputs":[{"name":"marketId","type":"uint256","indexed":true,"internalType":"uint256"},{"name":"outcome","type":"uint8","indexed":false,"internalType":"enum IPredictionMarket.Outcome"},{"name":"resolver","type":"address","indexed":true,"internalType":"address"}],"anonymous":false},{"type":"event","name":"ResolutionDisputed","inputs":[{"name":"marketId","type":"uint256","indexed":true,"internalType":"uint256"},{"name":"disputer","type":"address","indexed":true,"internalType":"address"}],"anonymous":false},{"type":"event","name":"RoleAdminChanged","inputs":[{"name":"role","type":"bytes32","indexed":true,"internalType":"bytes32"},{"name":"previousAdminRole","type":"bytes32","indexed":true,"internalType":"bytes32"},{"name":"newAdminRole","type":"bytes32","indexed":true,"internalType":"bytes32"}],"anonymous":false},{"type":"event","name":"RoleGranted","inputs":[{"name":"role","type":"bytes32","indexed":true,"internalType":"bytes32"},{"name":"account","type":"address","indexed":true,"internalType":"address"},{"name":"sender","type":"address","indexed":true,"internalType":"address"}],"anonymous":false},{"type":"event","name":"RoleRevoked","inputs":[{"name":"role","type":"bytes32","indexed":true,"internalType":"bytes32"},{"name":"account","type":"address","indexed":true,"internalType":"address"},{"name":"sender","type":"address","indexed":true,"internalType":"address"}],"anonymous":false},{"type":"error","name":"AccessControlBadConfirmation","inputs":[]},{"type":"error","name":"AccessControlUnauthorizedAccount","inputs":[{"name":"account","type":"address","internalType":"address"},{"name":"neededRole","type":"bytes32","internalType":"bytes32"}]},{"type":"error","name":"ReentrancyGuardReentrantCall","inputs":[]}],"bytecode":{"object":"0x60c060405234801561001057600080fd5b5060405161276b38038061276b83398101604081905261002f91610198565b60017f9b779b17422d0df92223018b32b4d1fa46e071723d6817e2486d003becc55f00556001600160a01b03808416608052821660a0526100716000826100d0565b5061009c7f68e79a7bf1e0bc45d0a330c573bc367f9cf464fd326078812f301165fbda4ef1826100d0565b506100c77fc785f0e55c16138ca0f8448186fa6229be092a3a83db3c5d63c9286723c5a2c4826100d0565b505050506101db565b6000828152602081815260408083206001600160a01b038516845290915281205460ff16610172576000838152602081815260408083206001600160a01b03861684529091529020805460ff1916600117905561012a3390565b6001600160a01b0316826001600160a01b0316847f2f8788117e7eff1d82e926ec794901d17c78024a50270940304540a733656f0d60405160405180910390a4506001610176565b5060005b92915050565b80516001600160a01b038116811461019357600080fd5b919050565b6000806000606084860312156101ad57600080fd5b6101b68461017c565b92506101c46020850161017c565b91506101d26040850161017c565b90509250925092565b60805160a05161250961026260003960006102c5015260008181610413015281816105120152818161065f015281816107260152818161088001528181610a5f01528181610b0d01528181610eb301528181610fa6015281816110c50152818161123f015281816112d70152818161144b0152818161153e015261165901526125096000f3fe608060405234801561001057600080fd5b50600436106101a95760003560e01c806391d14854116100f9578063d547741f11610097578063df55406e11610071578063df55406e14610435578063df9c49a314610448578063e55e42111461045b578063f585dc571461046e57600080fd5b8063d547741f146103db578063d565a533146103ee578063def114b61461040e57600080fd5b8063a4b7f5ce116100d3578063a4b7f5ce14610353578063a5cbe415146103a2578063c0b8dc2b146103b5578063cc4e1954146103c857600080fd5b806391d1485414610325578063a0a0524014610338578063a217fddf1461034b57600080fd5b806334a6efb91161016657806348ed7a1c1161014057806348ed7a1c146102ad5780636587eda1146102c05780638c535cf8146102ff5780638eb37f101461031257600080fd5b806334a6efb91461027457806336568abe1461028757806337c73e9a1461029a57600080fd5b806301ffc9a7146101ae57806307e2cea5146101d6578063193def7c146101f9578063203d82cb1461020e578063248a9ca31461023c5780632f2ff15d1461025f575b600080fd5b6101c16101bc366004611ca2565b610478565b60405190151581526020015b60405180910390f35b6101eb60008051602061247483398151915281565b6040519081526020016101cd565b6101eb6000805160206124b483398151915281565b6101c161021c366004611ce8565b600260209081526000928352604080842090915290825290205460ff1681565b6101eb61024a366004611d18565b60009081526020819052604090206001015490565b61027261026d366004611ce8565b6104af565b005b6101eb610282366004611dc7565b6104da565b610272610295366004611ce8565b6109eb565b6102726102a8366004611e50565b610a23565b6101c16102bb366004611d18565b610a46565b6102e77f000000000000000000000000000000000000000000000000000000000000000081565b6040516001600160a01b0390911681526020016101cd565b61027261030d366004611d18565b610b93565b610272610320366004611e50565b610d7c565b6101c1610333366004611ce8565b610d9f565b6101c1610346366004611d18565b610dc8565b6101eb600081565b610392610361366004611d18565b6001602081905260009182526040909120805491810154600282015460039092015460ff9384169391929091169084565b6040516101cd9493929190611ea5565b6102726103b0366004611e50565b610e5a565b6102726103c3366004611ece565b610e7d565b6101c16103d6366004611d18565b611226565b6102726103e9366004611ce8565b61135a565b6104016103fc366004611d18565b61137f565b6040516101cd9190611ef0565b6102e77f000000000000000000000000000000000000000000000000000000000000000081565b610272610443366004611f36565b611415565b610272610456366004611e50565b61179d565b610272610469366004611f36565b6117c0565b6101eb6202a30081565b60006001600160e01b03198216637965db0b60e01b14806104a957506301ffc9a760e01b6001600160e01b03198316145b92915050565b6000828152602081905260409020600101546104ca816118ac565b6104d483836118b9565b50505050565b60006000805160206124748339815191526104f4816118ac565b6104fc61194b565b604051633b1a699560e21b8152600481018590527f00000000000000000000000000000000000000000000000000000000000000006001600160a01b03169063ec69a65490602401602060405180830381865afa158015610561573d6000803e3d6000fd5b505050506040513d601f19601f820116820180604052508101906105859190611f70565b6105aa5760405162461bcd60e51b81526004016105a190611f8b565b60405180910390fd5b6105b384611226565b156105d05760405162461bcd60e51b81526004016105a190611fc2565b6105d984610a46565b6105f55760405162461bcd60e51b81526004016105a190611ff9565b60008351116106465760405162461bcd60e51b815260206004820152601b60248201527f4f7261636c653a20656d707479206f7574636f6d65206c6162656c000000000060448201526064016105a1565b604051633ec7919360e01b8152600481018590526000907f00000000000000000000000000000000000000000000000000000000000000006001600160a01b031690633ec7919390602401600060405180830381865afa1580156106ae573d6000803e3d6000fd5b505050506040513d6000823e601f3d908101601f191682016040526106d691908101906120bc565b90506001816020015160018111156106f0576106f0611e6d565b1461070d5760405162461bcd60e51b81526004016105a1906121fd565b604051630951df8760e11b8152600481018690526000907f00000000000000000000000000000000000000000000000000000000000000006001600160a01b0316906312a3bf0e90602401600060405180830381865afa158015610775573d6000803e3d6000fd5b505050506040513d6000823e601f3d908101601f1916820160405261079d91908101906122d4565b50905060006107ab86611967565b8051906020012090506000805b83518110156108035760008482815181106107d5576107d56123b6565b60200260200101518051906020012090508381036107fa578197506001925050610803565b506001016107b8565b50806108635760405162461bcd60e51b815260206004820152602960248201527f4f7261636c653a206f7574636f6d65206c6162656c206e6f7420666f756e64206044820152681a5b881b585c9ad95d60ba1b60648201526084016105a1565b604051630c90539f60e11b815260048101899052602481018790527f00000000000000000000000000000000000000000000000000000000000000006001600160a01b031690631920a73e90604401600060405180830381600087803b1580156108cc57600080fd5b505af11580156108e0573d6000803e3d6000fd5b5050505060405180608001604052806000600181111561090257610902611e6d565b81526020014281526020016000151581526020016202a3004261092591906123e2565b905260008981526001602081905260409091208251815491929091839160ff1990911690838181111561095a5761095a611e6d565b02179055506020820151600182015560408083015160028301805460ff191691151591909117905560609092015160039091015551339089907f13bfa3c09213a32e3e4e61fbacd90900cec1e99511766660189122444fdeec7d906109c1906000906123f5565b60405180910390a3505050506109e4600160008051602061249483398151915255565b5092915050565b6001600160a01b0381163314610a145760405163334bd91960e11b815260040160405180910390fd5b610a1e8282611bc8565b505050565b6000610a2e816118ac565b610a1e6000805160206124b483398151915283611bc8565b604051633b1a699560e21b8152600481018290526000907f00000000000000000000000000000000000000000000000000000000000000006001600160a01b03169063ec69a65490602401602060405180830381865afa158015610aae573d6000803e3d6000fd5b505050506040513d601f19601f82011682018060405250810190610ad29190611f70565b610ade57506000919050565b610ae782611226565b15610af457506000919050565b604051633ec7919360e01b8152600481018390526000907f00000000000000000000000000000000000000000000000000000000000000006001600160a01b031690633ec7919390602401600060405180830381865afa158015610b5c573d6000803e3d6000fd5b505050506040513d6000823e601f3d908101601f19168201604052610b8491908101906120bc565b61010001514210159392505050565b6000805160206124b4833981519152610bab816118ac565b610bb482611226565b610c005760405162461bcd60e51b815260206004820152601b60248201527f4f7261636c653a206d61726b6574206e6f74207265736f6c766564000000000060448201526064016105a1565b60008281526001602052604090206003810154421115610c625760405162461bcd60e51b815260206004820152601d60248201527f4f7261636c653a20646973707574652077696e646f7720636c6f73656400000060448201526064016105a1565b600281015460ff1615610cb75760405162461bcd60e51b815260206004820152601860248201527f4f7261636c653a20616c7265616479206469737075746564000000000000000060448201526064016105a1565b600083815260026020908152604080832033845290915290205460ff1615610d195760405162461bcd60e51b815260206004820152601560248201527413dc9858db194e88185b1c9958591e481d9bdd1959605a1b60448201526064016105a1565b60028181018054600160ff1991821681179092556000868152602093845260408082203380845295528082208054909316909317909155905185917f34a475db65c420410c9c93b21f188d94388c2d6cf346e9767773d2e77230e15291a3505050565b6000610d87816118ac565b610a1e6000805160206124b4833981519152836118b9565b6000918252602082815260408084206001600160a01b0393909316845291905290205460ff1690565b6000610dd382611226565b610ddf57506000919050565b6000828152600160208190526040808320815160808101909252805491929091839160ff90911690811115610e1657610e16611e6d565b6001811115610e2757610e27611e6d565b815260018201546020820152600282015460ff161515604082015260039091015460609182015201514211159392505050565b6000610e65816118ac565b610a1e60008051602061247483398151915283611bc8565b600080516020612474833981519152610e95816118ac565b610e9d61194b565b604051633b1a699560e21b8152600481018490527f00000000000000000000000000000000000000000000000000000000000000006001600160a01b03169063ec69a65490602401602060405180830381865afa158015610f02573d6000803e3d6000fd5b505050506040513d601f19601f82011682018060405250810190610f269190611f70565b610f425760405162461bcd60e51b81526004016105a190611f8b565b610f4b83611226565b15610f685760405162461bcd60e51b81526004016105a190611fc2565b610f7183610a46565b610f8d5760405162461bcd60e51b81526004016105a190611ff9565b604051633ec7919360e01b8152600481018490526000907f00000000000000000000000000000000000000000000000000000000000000006001600160a01b031690633ec7919390602401600060405180830381865afa158015610ff5573d6000803e3d6000fd5b505050506040513d6000823e601f3d908101601f1916820160405261101d91908101906120bc565b905060018160200151600181111561103757611037611e6d565b146110545760405162461bcd60e51b81526004016105a1906121fd565b806101a0015183106110a85760405162461bcd60e51b815260206004820152601d60248201527f4f7261636c653a20696e76616c6964206f7574636f6d6520696e64657800000060448201526064016105a1565b604051630c90539f60e11b815260048101859052602481018490527f00000000000000000000000000000000000000000000000000000000000000006001600160a01b031690631920a73e90604401600060405180830381600087803b15801561111157600080fd5b505af1158015611125573d6000803e3d6000fd5b5050505060405180608001604052806000600181111561114757611147611e6d565b81526020014281526020016000151581526020016202a3004261116a91906123e2565b905260008581526001602081905260409091208251815491929091839160ff1990911690838181111561119f5761119f611e6d565b02179055506020820151600182015560408083015160028301805460ff191691151591909117905560609092015160039091015551339085907f13bfa3c09213a32e3e4e61fbacd90900cec1e99511766660189122444fdeec7d90611206906000906123f5565b60405180910390a350610a1e600160008051602061249483398151915255565b604051633b1a699560e21b8152600481018290526000907f00000000000000000000000000000000000000000000000000000000000000006001600160a01b03169063ec69a65490602401602060405180830381865afa15801561128e573d6000803e3d6000fd5b505050506040513d601f19601f820116820180604052508101906112b29190611f70565b6112be57506000919050565b604051633ec7919360e01b8152600481018390526000907f00000000000000000000000000000000000000000000000000000000000000006001600160a01b031690633ec7919390602401600060405180830381865afa158015611326573d6000803e3d6000fd5b505050506040513d6000823e601f3d908101601f1916820160405261134e91908101906120bc565b61018001519392505050565b600082815260208190526040902060010154611375816118ac565b6104d48383611bc8565b60408051608081018252600080825260208201819052918101829052606081019190915260008281526001602081905260409182902082516080810190935280549091839160ff16908111156113d7576113d7611e6d565b60018111156113e8576113e8611e6d565b815260018201546020820152600282015460ff161515604082015260039091015460609091015292915050565b60008051602061247483398151915261142d816118ac565b61143561194b565b604051633b1a699560e21b8152600481018490527f00000000000000000000000000000000000000000000000000000000000000006001600160a01b03169063ec69a65490602401602060405180830381865afa15801561149a573d6000803e3d6000fd5b505050506040513d601f19601f820116820180604052508101906114be9190611f70565b6114da5760405162461bcd60e51b81526004016105a190611f8b565b6114e383611226565b156115005760405162461bcd60e51b81526004016105a190611fc2565b61150983610a46565b6115255760405162461bcd60e51b81526004016105a190611ff9565b604051633ec7919360e01b8152600481018490526000907f00000000000000000000000000000000000000000000000000000000000000006001600160a01b031690633ec7919390602401600060405180830381865afa15801561158d573d6000803e3d6000fd5b505050506040513d6000823e601f3d908101601f191682016040526115b591908101906120bc565b90506000816020015160018111156115cf576115cf611e6d565b146116425760405162461bcd60e51b815260206004820152603c60248201527f4f7261636c653a20757365207265736f6c766543726f7764576973646f6d4d6160448201527f726b657420666f722043726f7764576973646f6d206d61726b6574730000000060648201526084016105a1565b604051631381c2c160e31b81526001600160a01b037f00000000000000000000000000000000000000000000000000000000000000001690639c0e1608906116909087908790600401612403565b600060405180830381600087803b1580156116aa57600080fd5b505af11580156116be573d6000803e3d6000fd5b5050505060405180608001604052808460018111156116df576116df611e6d565b81526020014281526020016000151581526020016202a3004261170291906123e2565b905260008581526001602081905260409091208251815491929091839160ff1990911690838181111561173757611737611e6d565b02179055506020820151600182015560408083015160028301805460ff191691151591909117905560609092015160039091015551339085907f13bfa3c09213a32e3e4e61fbacd90900cec1e99511766660189122444fdeec7d906112069087906123f5565b60006117a8816118ac565b610a1e600080516020612474833981519152836118b9565b60006117cb816118ac565b6117d361194b565b6000838152600160205260409020600281015460ff1661182c5760405162461bcd60e51b815260206004820152601460248201527313dc9858db194e881b9bdd08191a5cdc1d5d195960621b60448201526064016105a1565b80548390829060ff19166001838181111561184957611849611e6d565b021790555060028101805460ff1916905560405184907f2ffcfee146bc0d5ff304c6b65111a0d485af9456dc64eee7d66ebdcc90b223ea9061188c9086906123f5565b60405180910390a250610a1e600160008051602061249483398151915255565b6118b68133611c33565b50565b60006118c58383610d9f565b611943576000838152602081815260408083206001600160a01b03861684529091529020805460ff191660011790556118fb3390565b6001600160a01b0316826001600160a01b0316847f2f8788117e7eff1d82e926ec794901d17c78024a50270940304540a733656f0d60405160405180910390a45060016104a9565b5060006104a9565b611953611c70565b600260008051602061249483398151915255565b60606000829050600081516001600160401b0381111561198957611989611d31565b6040519080825280601f01601f1916602001820160405280156119b3576020820181803683370190505b50905060006001815b8451811015611ac65760008582815181106119d9576119d96123b6565b01602001516001600160f81b0319169050604160f81b8110801590611a0c5750602d60f91b6001600160f81b0319821611155b15611a2657611a2060f882901c6020612417565b60f81b90505b6001600160f81b03198116600160fd1b03611a815782611a7c5780858581518110611a5357611a536123b6565b60200101906001600160f81b031916908160001a90535083611a7481612430565b945050600192505b611abd565b80858581518110611a9457611a946123b6565b60200101906001600160f81b031916908160001a90535083611ab581612430565b945050600092505b506001016119bc565b505b600082118015611b06575082611adf600184612449565b81518110611aef57611aef6123b6565b6020910101516001600160f81b031916600160fd1b145b15611b1d5781611b158161245c565b925050611ac8565b6000826001600160401b03811115611b3757611b37611d31565b6040519080825280601f01601f191660200182016040528015611b61576020820181803683370190505b50905060005b83811015611bbd57848181518110611b8157611b816123b6565b602001015160f81c60f81b828281518110611b9e57611b9e6123b6565b60200101906001600160f81b031916908160001a905350600101611b67565b509695505050505050565b6000611bd48383610d9f565b15611943576000838152602081815260408083206001600160a01b0386168085529252808320805460ff1916905551339286917ff6391f5c32d9c69d2a47ea670b442974b53935d1edc7fd64eb21e047a839171b9190a45060016104a9565b611c3d8282610d9f565b611c6c5760405163e2517d3f60e01b81526001600160a01b0382166004820152602481018390526044016105a1565b5050565b60008051602061249483398151915254600203611ca057604051633ee5aeb560e01b815260040160405180910390fd5b565b600060208284031215611cb457600080fd5b81356001600160e01b031981168114611ccc57600080fd5b9392505050565b6001600160a01b03811681146118b657600080fd5b60008060408385031215611cfb57600080fd5b823591506020830135611d0d81611cd3565b809150509250929050565b600060208284031215611d2a57600080fd5b5035919050565b634e487b7160e01b600052604160045260246000fd5b6040516101c081016001600160401b0381118282101715611d6a57611d6a611d31565b60405290565b604051601f8201601f191681016001600160401b0381118282101715611d9857611d98611d31565b604052919050565b60006001600160401b03821115611db957611db9611d31565b50601f01601f191660200190565b60008060408385031215611dda57600080fd5b8235915060208301356001600160401b03811115611df757600080fd5b8301601f81018513611e0857600080fd5b8035611e1b611e1682611da0565b611d70565b818152866020838501011115611e3057600080fd5b816020840160208301376000602083830101528093505050509250929050565b600060208284031215611e6257600080fd5b8135611ccc81611cd3565b634e487b7160e01b600052602160045260246000fd5b60028110611ea157634e487b7160e01b600052602160045260246000fd5b9052565b60808101611eb38287611e83565b60208201949094529115156040830152606090910152919050565b60008060408385031215611ee157600080fd5b50508035926020909101359150565b6000608082019050611f03828451611e83565b602083015160208301526040830151151560408301526060830151606083015292915050565b600281106118b657600080fd5b60008060408385031215611f4957600080fd5b823591506020830135611d0d81611f29565b80518015158114611f6b57600080fd5b919050565b600060208284031215611f8257600080fd5b611ccc82611f5b565b6020808252601d908201527f4f7261636c653a206d61726b657420646f6573206e6f74206578697374000000604082015260600190565b60208082526018908201527f4f7261636c653a20616c7265616479207265736f6c7665640000000000000000604082015260600190565b6020808252601a908201527f4f7261636c653a2063616e6e6f74207265736f6c766520796574000000000000604082015260600190565b8051611f6b81611f29565b600082601f83011261204c57600080fd5b815161205a611e1682611da0565b81815284602083860101111561206f57600080fd5b60005b8281101561208e57602081860181015183830182015201612072565b506000918101602001919091529392505050565b8051611f6b81611cd3565b805160038110611f6b57600080fd5b6000602082840312156120ce57600080fd5b81516001600160401b038111156120e457600080fd5b82016101c081850312156120f757600080fd5b6120ff611d47565b8151815261210f60208301612030565b602082015260408201516001600160401b0381111561212d57600080fd5b6121398682850161203b565b60408301525060608201516001600160401b0381111561215857600080fd5b6121648682850161203b565b606083015250612176608083016120a2565b608082015260a0828101519082015260c0808301519082015260e0808301519082015261010080830151908201526121b161012083016120ad565b6101208201526121c46101408301612030565b61014082015261016082810151908201526121e26101808301611f5b565b6101808201526101a091820151918101919091529392505050565b6020808252602c908201527f4f7261636c653a20757365207265736f6c76654d61726b657420666f7220426960408201526b6e617279206d61726b65747360a01b606082015260800190565b60006001600160401b0382111561226257612262611d31565b5060051b60200190565b600082601f83011261227d57600080fd5b815161228b611e1682612249565b8082825260208201915060208360051b8601019250858311156122ad57600080fd5b602085015b838110156122ca5780518352602092830192016122b2565b5095945050505050565b600080604083850312156122e757600080fd5b82516001600160401b038111156122fd57600080fd5b8301601f8101851361230e57600080fd5b805161231c611e1682612249565b8082825260208201915060208360051b85010192508783111561233e57600080fd5b602084015b8381101561237f5780516001600160401b0381111561236157600080fd5b6123708a60208389010161203b565b84525060209283019201612343565b508095505050505060208301516001600160401b038111156123a057600080fd5b6123ac8582860161226c565b9150509250929050565b634e487b7160e01b600052603260045260246000fd5b634e487b7160e01b600052601160045260246000fd5b808201808211156104a9576104a96123cc565b602081016104a98284611e83565b82815260408101611ccc6020830184611e83565b60ff81811683821601908111156104a9576104a96123cc565b600060018201612442576124426123cc565b5060010190565b818103818111156104a9576104a96123cc565b60008161246b5761246b6123cc565b50600019019056fe68e79a7bf1e0bc45d0a330c573bc367f9cf464fd326078812f301165fbda4ef19b779b17422d0df92223018b32b4d1fa46e071723d6817e2486d003becc55f00c785f0e55c16138ca0f8448186fa6229be092a3a83db3c5d63c9286723c5a2c4a26469706673582212205b69910d4987d807695fe3be427750afd4f5e8d172b4771be197a10e30130f9f64736f6c634300081c0033","linkReferences":{}},"methodIdentifiers":{"DEFAULT_ADMIN_ROLE()":"a217fddf","DISPUTE_ROLE()":"193def7c","DISPUTE_WINDOW()":"f585dc57","ORACLE_ROLE()":"07e2cea5","canResolve(uint256)":"48ed7a1c","disputeResolution(uint256)":"8c535cf8","disputeVotes(uint256,address)":"203d82cb","getResolution(uint256)":"d565a533","getRoleAdmin(bytes32)":"248a9ca3","grantDisputeRole(address)":"8eb37f10","grantOracleRole(address)":"df9c49a3","grantRole(bytes32,address)":"2f2ff15d","hasRole(bytes32,address)":"91d14854","inDisputeWindow(uint256)":"a0a05240","isResolved(uint256)":"cc4e1954","predictionMarket()":"def114b6","renounceRole(bytes32,address)":"36568abe","reputationSystem()":"6587eda1","resolutions(uint256)":"a4b7f5ce","resolveCrowdWisdomMarket(uint256,uint256)":"c0b8dc2b","resolveCrowdWisdomMarketByLabel(uint256,string)":"34a6efb9","resolveDispute(uint256,uint8)":"e55e4211","resolveMarket(uint256,uint8)":"df55406e","revokeDisputeRole(address)":"37c73e9a","revokeOracleRole(address)":"a5cbe415","revokeRole(bytes32,address)":"d547741f","supportsInterface(bytes4)":"01ffc9a7"},"id":37}