{"abi":[{"type":"constructor","inputs":[{"name":"_predictionMarket","type":"address","internalType":"address"},{"name":"_reputationSystem","type":"address","internalType":"address"},{"name":"_admin","type":"address","internalType":"address"}],"stateMutability":"nonpayable"},{"type":"function","name":"DEFAULT_ADMIN_ROLE","inputs":[],"outputs":[{"name":"","type":"bytes32","internalType":"bytes32"}],"stateMutability":"view"},{"type":"function","name":"DISPUTE_ROLE","inputs":[],"outputs":[{"name":"","type":"bytes32","internalType":"bytes32"}],"stateMutability":"view"},{"type":"function","name":"DISPUTE_WINDOW","inputs":[],"outputs":[{"name":"","type":"uint256","internalType":"uint256"}],"stateMutability":"view"},{"type":"function","name":"ORACLE_ROLE","inputs":[],"outputs":[{"name":"","type":"bytes32","internalType":"bytes32"}],"stateMutability":"view"},{"type":"function","name":"canResolve","inputs":[{"name":"marketId","type":"uint256","internalType":"uint256"}],"outputs":[{"name":"","type":"bool","internalType":"bool"}],"stateMutability":"view"},{"type":"function","name":"disputeResolution","inputs":[{"name":"marketId","type":"uint256","internalType":"uint256"}],"outputs":[],"stateMutability":"nonpayable"},{"type":"function","name":"disputeVotes","inputs":[{"name":"","type":"uint256","internalType":"uint256"},{"name":"","type":"address","internalType":"address"}],"outputs":[{"name":"","type":"bool","internalType":"bool"}],"stateMutability":"view"},{"type":"function","name":"getResolution","inputs":[{"name":"marketId","type":"uint256","internalType":"uint256"}],"outputs":[{"name":"","type":"tuple","internalType":"struct Oracle.Resolution","components":[{"name":"outcome","type":"uint8","internalType":"enum IPredictionMarket.Outcome"},{"name":"timestamp","type":"uint256","internalType":"uint256"},{"name":"disputed","type":"bool","internalType":"bool"},{"name":"disputeEndTime","type":"uint256","internalType":"uint256"}]}],"stateMutability":"view"},{"type":"function","name":"getRoleAdmin","inputs":[{"name":"role","type":"bytes32","internalType":"bytes32"}],"outputs":[{"name":"","type":"bytes32","internalType":"bytes32"}],"stateMutability":"view"},{"type":"function","name":"grantDisputeRole","inputs":[{"name":"account","type":"address","internalType":"address"}],"outputs":[],"stateMutability":"nonpayable"},{"type":"function","name":"grantOracleRole","inputs":[{"name":"account","type":"address","internalType":"address"}],"outputs":[],"stateMutability":"nonpayable"},{"type":"function","name":"grantRole","inputs":[{"name":"role","type":"bytes32","internalType":"bytes32"},{"name":"account","type":"address","internalType":"address"}],"outputs":[],"stateMutability":"nonpayable"},{"type":"function","name":"hasRole","inputs":[{"name":"role","type":"bytes32","internalType":"bytes32"},{"name":"account","type":"address","internalType":"address"}],"outputs":[{"name":"","type":"bool","internalType":"bool"}],"stateMutability":"view"},{"type":"function","name":"inDisputeWindow","inputs":[{"name":"marketId","type":"uint256","internalType":"uint256"}],"outputs":[{"name":"","type":"bool","internalType":"bool"}],"stateMutability":"view"},{"type":"function","name":"isResolved","inputs":[{"name":"marketId","type":"uint256","internalType":"uint256"}],"outputs":[{"name":"","type":"bool","internalType":"bool"}],"stateMutability":"view"},{"type":"function","name":"predictionMarket","inputs":[],"outputs":[{"name":"","type":"address","internalType":"contract PredictionMarket"}],"stateMutability":"view"},{"type":"function","name":"renounceRole","inputs":[{"name":"role","type":"bytes32","internalType":"bytes32"},{"name":"callerConfirmation","type":"address","internalType":"address"}],"outputs":[],"stateMutability":"nonpayable"},{"type":"function","name":"reputationSystem","inputs":[],"outputs":[{"name":"","type":"address","internalType":"contract IReputationSystem"}],"stateMutability":"view"},{"type":"function","name":"resolutions","inputs":[{"name":"","type":"uint256","internalType":"uint256"}],"outputs":[{"name":"outcome","type":"uint8","internalType":"enum IPredictionMarket.Outcome"},{"name":"timestamp","type":"uint256","internalType":"uint256"},{"name":"disputed","type":"bool","internalType":"bool"},{"name":"disputeEndTime","type":"uint256","internalType":"uint256"}],"stateMutability":"view"},{"type":"function","name":"resolveDispute","inputs":[{"name":"marketId","type":"uint256","internalType":"uint256"},{"name":"finalOutcome","type":"uint8","internalType":"enum IPredictionMarket.Outcome"}],"outputs":[],"stateMutability":"nonpayable"},{"type":"function","name":"resolveMarket","inputs":[{"name":"marketId","type":"uint256","internalType":"uint256"},{"name":"outcome","type":"uint8","internalType":"enum IPredictionMarket.Outcome"}],"outputs":[],"stateMutability":"nonpayable"},{"type":"function","name":"revokeDisputeRole","inputs":[{"name":"account","type":"address","internalType":"address"}],"outputs":[],"stateMutability":"nonpayable"},{"type":"function","name":"revokeOracleRole","inputs":[{"name":"account","type":"address","internalType":"address"}],"outputs":[],"stateMutability":"nonpayable"},{"type":"function","name":"revokeRole","inputs":[{"name":"role","type":"bytes32","internalType":"bytes32"},{"name":"account","type":"address","internalType":"address"}],"outputs":[],"stateMutability":"nonpayable"},{"type":"function","name":"supportsInterface","inputs":[{"name":"interfaceId","type":"bytes4","internalType":"bytes4"}],"outputs":[{"name":"","type":"bool","internalType":"bool"}],"stateMutability":"view"},{"type":"event","name":"DisputeResolved","inputs":[{"name":"marketId","type":"uint256","indexed":true,"internalType":"uint256"},{"name":"finalOutcome","type":"uint8","indexed":false,"internalType":"enum IPredictionMarket.Outcome"}],"anonymous":false},{"type":"event","name":"MarketResolved","inputs":[{"name":"marketId","type":"uint256","indexed":true,"internalType":"uint256"},{"name":"outcome","type":"uint8","indexed":false,"internalType":"enum IPredictionMarket.Outcome"},{"name":"resolver","type":"address","indexed":true,"internalType":"address"}],"anonymous":false},{"type":"event","name":"ResolutionDisputed","inputs":[{"name":"marketId","type":"uint256","indexed":true,"internalType":"uint256"},{"name":"disputer","type":"address","indexed":true,"internalType":"address"}],"anonymous":false},{"type":"event","name":"RoleAdminChanged","inputs":[{"name":"role","type":"bytes32","indexed":true,"internalType":"bytes32"},{"name":"previousAdminRole","type":"bytes32","indexed":true,"internalType":"bytes32"},{"name":"newAdminRole","type":"bytes32","indexed":true,"internalType":"bytes32"}],"anonymous":false},{"type":"event","name":"RoleGranted","inputs":[{"name":"role","type":"bytes32","indexed":true,"internalType":"bytes32"},{"name":"account","type":"address","indexed":true,"internalType":"address"},{"name":"sender","type":"address","indexed":true,"internalType":"address"}],"anonymous":false},{"type":"event","name":"RoleRevoked","inputs":[{"name":"role","type":"bytes32","indexed":true,"internalType":"bytes32"},{"name":"account","type":"address","indexed":true,"internalType":"address"},{"name":"sender","type":"address","indexed":true,"internalType":"address"}],"anonymous":false},{"type":"error","name":"AccessControlBadConfirmation","inputs":[]},{"type":"error","name":"AccessControlUnauthorizedAccount","inputs":[{"name":"account","type":"address","internalType":"address"},{"name":"neededRole","type":"bytes32","internalType":"bytes32"}]},{"type":"error","name":"ReentrancyGuardReentrantCall","inputs":[]}],"bytecode":{"object":"0x60c060405234801561001057600080fd5b506040516117a23803806117a283398101604081905261002f91610198565b60017f9b779b17422d0df92223018b32b4d1fa46e071723d6817e2486d003becc55f00556001600160a01b03808416608052821660a0526100716000826100d0565b5061009c7f68e79a7bf1e0bc45d0a330c573bc367f9cf464fd326078812f301165fbda4ef1826100d0565b506100c77fc785f0e55c16138ca0f8448186fa6229be092a3a83db3c5d63c9286723c5a2c4826100d0565b505050506101db565b6000828152602081815260408083206001600160a01b038516845290915281205460ff16610172576000838152602081815260408083206001600160a01b03861684529091529020805460ff1916600117905561012a3390565b6001600160a01b0316826001600160a01b0316847f2f8788117e7eff1d82e926ec794901d17c78024a50270940304540a733656f0d60405160405180910390a4506001610176565b5060005b92915050565b80516001600160a01b038116811461019357600080fd5b919050565b6000806000606084860312156101ad57600080fd5b6101b68461017c565b92506101c46020850161017c565b91506101d26040850161017c565b90509250925092565b60805160a05161157861022a600039600061027c0152600081816103b7015281816104f2015281816105a00152818161092d015281816109c501528181610b390152610cba01526115786000f3fe608060405234801561001057600080fd5b50600436106101735760003560e01c806391d14854116100de578063d547741f11610097578063df55406e11610071578063df55406e146103d9578063df9c49a3146103ec578063e55e4211146103ff578063f585dc571461041257600080fd5b8063d547741f1461037f578063d565a53314610392578063def114b6146103b257600080fd5b806391d14854146102dc578063a0a05240146102ef578063a217fddf14610302578063a4b7f5ce1461030a578063a5cbe41514610359578063cc4e19541461036c57600080fd5b806336568abe1161013057806336568abe1461023e57806337c73e9a1461025157806348ed7a1c146102645780636587eda1146102775780638c535cf8146102b65780638eb37f10146102c957600080fd5b806301ffc9a71461017857806307e2cea5146101a0578063193def7c146101c3578063203d82cb146101d8578063248a9ca3146102065780632f2ff15d14610229575b600080fd5b61018b6101863660046110c1565b61041c565b60405190151581526020015b60405180910390f35b6101b56000805160206114e383398151915281565b604051908152602001610197565b6101b560008051602061152383398151915281565b61018b6101e6366004611107565b600260209081526000928352604080842090915290825290205460ff1681565b6101b5610214366004611137565b60009081526020819052604090206001015490565b61023c610237366004611107565b610453565b005b61023c61024c366004611107565b61047e565b61023c61025f366004611150565b6104b6565b61018b610272366004611137565b6104d9565b61029e7f000000000000000000000000000000000000000000000000000000000000000081565b6040516001600160a01b039091168152602001610197565b61023c6102c4366004611137565b610625565b61023c6102d7366004611150565b610813565b61018b6102ea366004611107565b610836565b61018b6102fd366004611137565b61085f565b6101b5600081565b610349610318366004611137565b6001602081905260009182526040909120805491810154600282015460039092015460ff9384169391929091169084565b60405161019794939291906111a5565b61023c610367366004611150565b6108f1565b61018b61037a366004611137565b610914565b61023c61038d366004611107565b610a48565b6103a56103a0366004611137565b610a6d565b60405161019791906111ce565b61029e7f000000000000000000000000000000000000000000000000000000000000000081565b61023c6103e7366004611214565b610b03565b61023c6103fa366004611150565b610e1d565b61023c61040d366004611214565b610e40565b6101b56202a30081565b60006001600160e01b03198216637965db0b60e01b148061044d57506301ffc9a760e01b6001600160e01b03198316145b92915050565b60008281526020819052604090206001015461046e81610f2c565b6104788383610f39565b50505050565b6001600160a01b03811633146104a75760405163334bd91960e11b815260040160405180910390fd5b6104b18282610fcb565b505050565b60006104c181610f2c565b6104b160008051602061152383398151915283610fcb565b604051633b1a699560e21b8152600481018290526000907f00000000000000000000000000000000000000000000000000000000000000006001600160a01b03169063ec69a65490602401602060405180830381865afa158015610541573d6000803e3d6000fd5b505050506040513d601f19601f82011682018060405250810190610565919061124e565b61057157506000919050565b61057a82610914565b1561058757506000919050565b604051633ec7919360e01b8152600481018390526000907f00000000000000000000000000000000000000000000000000000000000000006001600160a01b031690633ec7919390602401600060405180830381865afa1580156105ef573d6000803e3d6000fd5b505050506040513d6000823e601f3d908101601f191682016040526106179190810190611385565b60e001514210159392505050565b60008051602061152383398151915261063d81610f2c565b61064682610914565b6106975760405162461bcd60e51b815260206004820152601b60248201527f4f7261636c653a206d61726b6574206e6f74207265736f6c766564000000000060448201526064015b60405180910390fd5b600082815260016020526040902060038101544211156106f95760405162461bcd60e51b815260206004820152601d60248201527f4f7261636c653a20646973707574652077696e646f7720636c6f736564000000604482015260640161068e565b600281015460ff161561074e5760405162461bcd60e51b815260206004820152601860248201527f4f7261636c653a20616c72656164792064697370757465640000000000000000604482015260640161068e565b600083815260026020908152604080832033845290915290205460ff16156107b05760405162461bcd60e51b815260206004820152601560248201527413dc9858db194e88185b1c9958591e481d9bdd1959605a1b604482015260640161068e565b60028181018054600160ff1991821681179092556000868152602093845260408082203380845295528082208054909316909317909155905185917f34a475db65c420410c9c93b21f188d94388c2d6cf346e9767773d2e77230e15291a3505050565b600061081e81610f2c565b6104b160008051602061152383398151915283610f39565b6000918252602082815260408084206001600160a01b0393909316845291905290205460ff1690565b600061086a82610914565b61087657506000919050565b6000828152600160208190526040808320815160808101909252805491929091839160ff909116908111156108ad576108ad61116d565b60018111156108be576108be61116d565b815260018201546020820152600282015460ff161515604082015260039091015460609182015201514211159392505050565b60006108fc81610f2c565b6104b16000805160206114e383398151915283610fcb565b604051633b1a699560e21b8152600481018290526000907f00000000000000000000000000000000000000000000000000000000000000006001600160a01b03169063ec69a65490602401602060405180830381865afa15801561097c573d6000803e3d6000fd5b505050506040513d601f19601f820116820180604052508101906109a0919061124e565b6109ac57506000919050565b604051633ec7919360e01b8152600481018390526000907f00000000000000000000000000000000000000000000000000000000000000006001600160a01b031690633ec7919390602401600060405180830381865afa158015610a14573d6000803e3d6000fd5b505050506040513d6000823e601f3d908101601f19168201604052610a3c9190810190611385565b61014001519392505050565b600082815260208190526040902060010154610a6381610f2c565b6104788383610fcb565b60408051608081018252600080825260208201819052918101829052606081019190915260008281526001602081905260409182902082516080810190935280549091839160ff1690811115610ac557610ac561116d565b6001811115610ad657610ad661116d565b815260018201546020820152600282015460ff161515604082015260039091015460609091015292915050565b6000805160206114e3833981519152610b1b81610f2c565b610b23611036565b604051633b1a699560e21b8152600481018490527f00000000000000000000000000000000000000000000000000000000000000006001600160a01b03169063ec69a65490602401602060405180830381865afa158015610b88573d6000803e3d6000fd5b505050506040513d601f19601f82011682018060405250810190610bac919061124e565b610bf85760405162461bcd60e51b815260206004820152601d60248201527f4f7261636c653a206d61726b657420646f6573206e6f74206578697374000000604482015260640161068e565b610c0183610914565b15610c4e5760405162461bcd60e51b815260206004820152601860248201527f4f7261636c653a20616c7265616479207265736f6c7665640000000000000000604482015260640161068e565b610c57836104d9565b610ca35760405162461bcd60e51b815260206004820152601a60248201527f4f7261636c653a2063616e6e6f74207265736f6c766520796574000000000000604482015260640161068e565b604051631381c2c160e31b81526001600160a01b037f00000000000000000000000000000000000000000000000000000000000000001690639c0e160890610cf1908690869060040161149f565b600060405180830381600087803b158015610d0b57600080fd5b505af1158015610d1f573d6000803e3d6000fd5b505050506040518060800160405280836001811115610d4057610d4061116d565b81526020014281526020016000151581526020016202a30042610d6391906114b3565b905260008481526001602081905260409091208251815491929091839160ff19909116908381811115610d9857610d9861116d565b02179055506020820151600182015560408083015160028301805460ff191691151591909117905560609092015160039091015551339084907f13bfa3c09213a32e3e4e61fbacd90900cec1e99511766660189122444fdeec7d90610dfe9086906114d4565b60405180910390a36104b1600160008051602061150383398151915255565b6000610e2881610f2c565b6104b16000805160206114e383398151915283610f39565b6000610e4b81610f2c565b610e53611036565b6000838152600160205260409020600281015460ff16610eac5760405162461bcd60e51b815260206004820152601460248201527313dc9858db194e881b9bdd08191a5cdc1d5d195960621b604482015260640161068e565b80548390829060ff191660018381811115610ec957610ec961116d565b021790555060028101805460ff1916905560405184907f2ffcfee146bc0d5ff304c6b65111a0d485af9456dc64eee7d66ebdcc90b223ea90610f0c9086906114d4565b60405180910390a2506104b1600160008051602061150383398151915255565b610f368133611052565b50565b6000610f458383610836565b610fc3576000838152602081815260408083206001600160a01b03861684529091529020805460ff19166001179055610f7b3390565b6001600160a01b0316826001600160a01b0316847f2f8788117e7eff1d82e926ec794901d17c78024a50270940304540a733656f0d60405160405180910390a450600161044d565b50600061044d565b6000610fd78383610836565b15610fc3576000838152602081815260408083206001600160a01b0386168085529252808320805460ff1916905551339286917ff6391f5c32d9c69d2a47ea670b442974b53935d1edc7fd64eb21e047a839171b9190a450600161044d565b61103e61108f565b600260008051602061150383398151915255565b61105c8282610836565b61108b5760405163e2517d3f60e01b81526001600160a01b03821660048201526024810183905260440161068e565b5050565b600080516020611503833981519152546002036110bf57604051633ee5aeb560e01b815260040160405180910390fd5b565b6000602082840312156110d357600080fd5b81356001600160e01b0319811681146110eb57600080fd5b9392505050565b6001600160a01b0381168114610f3657600080fd5b6000806040838503121561111a57600080fd5b82359150602083013561112c816110f2565b809150509250929050565b60006020828403121561114957600080fd5b5035919050565b60006020828403121561116257600080fd5b81356110eb816110f2565b634e487b7160e01b600052602160045260246000fd5b600281106111a157634e487b7160e01b600052602160045260246000fd5b9052565b608081016111b38287611183565b60208201949094529115156040830152606090910152919050565b60006080820190506111e1828451611183565b602083015160208301526040830151151560408301526060830151606083015292915050565b60028110610f3657600080fd5b6000806040838503121561122757600080fd5b82359150602083013561112c81611207565b8051801515811461124957600080fd5b919050565b60006020828403121561126057600080fd5b6110eb82611239565b634e487b7160e01b600052604160045260246000fd5b604051610160810167ffffffffffffffff811182821017156112a3576112a3611269565b60405290565b604051601f8201601f1916810167ffffffffffffffff811182821017156112d2576112d2611269565b604052919050565b600082601f8301126112eb57600080fd5b815167ffffffffffffffff81111561130557611305611269565b611318601f8201601f19166020016112a9565b81815284602083860101111561132d57600080fd5b60005b8281101561134c57602081860181015183830182015201611330565b506000918101602001919091529392505050565b8051611249816110f2565b80516003811061124957600080fd5b805161124981611207565b60006020828403121561139757600080fd5b815167ffffffffffffffff8111156113ae57600080fd5b820161016081850312156113c157600080fd5b6113c961127f565b81518152602082015167ffffffffffffffff8111156113e757600080fd5b6113f3868285016112da565b602083015250604082015167ffffffffffffffff81111561141357600080fd5b61141f868285016112da565b60408301525061143160608301611360565b60608201526080828101519082015260a0808301519082015260c0808301519082015260e0808301519082015261146b610100830161136b565b61010082015261147e610120830161137a565b6101208201526114916101408301611239565b610140820152949350505050565b828152604081016110eb6020830184611183565b8082018082111561044d57634e487b7160e01b600052601160045260246000fd5b6020810161044d828461118356fe68e79a7bf1e0bc45d0a330c573bc367f9cf464fd326078812f301165fbda4ef19b779b17422d0df92223018b32b4d1fa46e071723d6817e2486d003becc55f00c785f0e55c16138ca0f8448186fa6229be092a3a83db3c5d63c9286723c5a2c4a26469706673582212206849717ecebbac5b257bd06cfedd57bb76b77294c607d1c660debadbe50df94c64736f6c634300081c0033","linkReferences":{}},"methodIdentifiers":{"DEFAULT_ADMIN_ROLE()":"a217fddf","DISPUTE_ROLE()":"193def7c","DISPUTE_WINDOW()":"f585dc57","ORACLE_ROLE()":"07e2cea5","canResolve(uint256)":"48ed7a1c","disputeResolution(uint256)":"8c535cf8","disputeVotes(uint256,address)":"203d82cb","getResolution(uint256)":"d565a533","getRoleAdmin(bytes32)":"248a9ca3","grantDisputeRole(address)":"8eb37f10","grantOracleRole(address)":"df9c49a3","grantRole(bytes32,address)":"2f2ff15d","hasRole(bytes32,address)":"91d14854","inDisputeWindow(uint256)":"a0a05240","isResolved(uint256)":"cc4e1954","predictionMarket()":"def114b6","renounceRole(bytes32,address)":"36568abe","reputationSystem()":"6587eda1","resolutions(uint256)":"a4b7f5ce","resolveDispute(uint256,uint8)":"e55e4211","resolveMarket(uint256,uint8)":"df55406e","revokeDisputeRole(address)":"37c73e9a","revokeOracleRole(address)":"a5cbe415","revokeRole(bytes32,address)":"d547741f","supportsInterface(bytes4)":"01ffc9a7"},"id":42}