{"abi":[{"type":"constructor","inputs":[{"name":"_admin","type":"address","internalType":"address"},{"name":"_predictionMarket","type":"address","internalType":"address"}],"stateMutability":"nonpayable"},{"type":"function","name":"DEFAULT_ADMIN_ROLE","inputs":[],"outputs":[{"name":"","type":"bytes32","internalType":"bytes32"}],"stateMutability":"view"},{"type":"function","name":"RESOLVER_ROLE","inputs":[],"outputs":[{"name":"","type":"bytes32","internalType":"bytes32"}],"stateMutability":"view"},{"type":"function","name":"canResolve","inputs":[{"name":"marketId","type":"uint256","internalType":"uint256"}],"outputs":[{"name":"","type":"bool","internalType":"bool"}],"stateMutability":"view"},{"type":"function","name":"getRoleAdmin","inputs":[{"name":"role","type":"bytes32","internalType":"bytes32"}],"outputs":[{"name":"","type":"bytes32","internalType":"bytes32"}],"stateMutability":"view"},{"type":"function","name":"grantResolverRole","inputs":[{"name":"account","type":"address","internalType":"address"}],"outputs":[],"stateMutability":"nonpayable"},{"type":"function","name":"grantRole","inputs":[{"name":"role","type":"bytes32","internalType":"bytes32"},{"name":"account","type":"address","internalType":"address"}],"outputs":[],"stateMutability":"nonpayable"},{"type":"function","name":"hasRole","inputs":[{"name":"role","type":"bytes32","internalType":"bytes32"},{"name":"account","type":"address","internalType":"address"}],"outputs":[{"name":"","type":"bool","internalType":"bool"}],"stateMutability":"view"},{"type":"function","name":"predictionMarket","inputs":[],"outputs":[{"name":"","type":"address","internalType":"contract IPredictionMarket"}],"stateMutability":"view"},{"type":"function","name":"renounceRole","inputs":[{"name":"role","type":"bytes32","internalType":"bytes32"},{"name":"callerConfirmation","type":"address","internalType":"address"}],"outputs":[],"stateMutability":"nonpayable"},{"type":"function","name":"resolveMarket","inputs":[{"name":"marketId","type":"uint256","internalType":"uint256"},{"name":"outcome","type":"uint8","internalType":"uint8"},{"name":"outcomeIndex","type":"uint256","internalType":"uint256"}],"outputs":[],"stateMutability":"nonpayable"},{"type":"function","name":"resolvedMarkets","inputs":[{"name":"","type":"uint256","internalType":"uint256"}],"outputs":[{"name":"","type":"bool","internalType":"bool"}],"stateMutability":"view"},{"type":"function","name":"revokeRole","inputs":[{"name":"role","type":"bytes32","internalType":"bytes32"},{"name":"account","type":"address","internalType":"address"}],"outputs":[],"stateMutability":"nonpayable"},{"type":"function","name":"setPredictionMarket","inputs":[{"name":"_predictionMarket","type":"address","internalType":"address"}],"outputs":[],"stateMutability":"nonpayable"},{"type":"function","name":"supportsInterface","inputs":[{"name":"interfaceId","type":"bytes4","internalType":"bytes4"}],"outputs":[{"name":"","type":"bool","internalType":"bool"}],"stateMutability":"view"},{"type":"event","name":"MarketResolved","inputs":[{"name":"marketId","type":"uint256","indexed":true,"internalType":"uint256"},{"name":"outcome","type":"uint8","indexed":false,"internalType":"uint8"},{"name":"resolver","type":"address","indexed":true,"internalType":"address"}],"anonymous":false},{"type":"event","name":"RoleAdminChanged","inputs":[{"name":"role","type":"bytes32","indexed":true,"internalType":"bytes32"},{"name":"previousAdminRole","type":"bytes32","indexed":true,"internalType":"bytes32"},{"name":"newAdminRole","type":"bytes32","indexed":true,"internalType":"bytes32"}],"anonymous":false},{"type":"event","name":"RoleGranted","inputs":[{"name":"role","type":"bytes32","indexed":true,"internalType":"bytes32"},{"name":"account","type":"address","indexed":true,"internalType":"address"},{"name":"sender","type":"address","indexed":true,"internalType":"address"}],"anonymous":false},{"type":"event","name":"RoleRevoked","inputs":[{"name":"role","type":"bytes32","indexed":true,"internalType":"bytes32"},{"name":"account","type":"address","indexed":true,"internalType":"address"},{"name":"sender","type":"address","indexed":true,"internalType":"address"}],"anonymous":false},{"type":"error","name":"AccessControlBadConfirmation","inputs":[]},{"type":"error","name":"AccessControlUnauthorizedAccount","inputs":[{"name":"account","type":"address","internalType":"address"},{"name":"neededRole","type":"bytes32","internalType":"bytes32"}]}],"bytecode":{"object":"0x608060405234801561001057600080fd5b50604051610ca1380380610ca183398101604081905261002f91610154565b61003a60008361008c565b506100657f92a19c77d2ea87c7f81d50c74403cb2f401780f3ad919571121efe2bdb427eb18361008c565b50600180546001600160a01b0319166001600160a01b039290921691909117905550610187565b6000828152602081815260408083206001600160a01b038516845290915281205460ff1661012e576000838152602081815260408083206001600160a01b03861684529091529020805460ff191660011790556100e63390565b6001600160a01b0316826001600160a01b0316847f2f8788117e7eff1d82e926ec794901d17c78024a50270940304540a733656f0d60405160405180910390a4506001610132565b5060005b92915050565b80516001600160a01b038116811461014f57600080fd5b919050565b6000806040838503121561016757600080fd5b61017083610138565b915061017e60208401610138565b90509250929050565b610b0b806101966000396000f3fe608060405234801561001057600080fd5b50600436106100ea5760003560e01c806378fab2601161008c57806391d148541161006657806391d1485414610206578063a217fddf14610219578063d547741f14610221578063def114b61461023457600080fd5b806378fab260146101a95780637f51ad24146101d057806389727301146101f357600080fd5b80632f2ff15d116100c85780632f2ff15d1461015d57806336568abe1461017057806348ed7a1c1461018357806365c0abf41461019657600080fd5b806301ffc9a7146100ef57806303b88ba214610117578063248a9ca31461012c575b600080fd5b6101026100fd366004610745565b61025f565b60405190151581526020015b60405180910390f35b61012a610125366004610784565b610296565b005b61014f61013a3660046107a1565b60009081526020819052604090206001015490565b60405190815260200161010e565b61012a61016b3660046107ba565b61031f565b61012a61017e3660046107ba565b61034a565b6101026101913660046107a1565b610382565b61012a6101a4366004610784565b610419565b61014f7f92a19c77d2ea87c7f81d50c74403cb2f401780f3ad919571121efe2bdb427eb181565b6101026101de3660046107a1565b60026020526000908152604090205460ff1681565b61012a6102013660046107ea565b61044e565b6101026102143660046107ba565b6105b0565b61014f600081565b61012a61022f3660046107ba565b6105d9565b600154610247906001600160a01b031681565b6040516001600160a01b03909116815260200161010e565b60006001600160e01b03198216637965db0b60e01b148061029057506301ffc9a760e01b6001600160e01b03198316145b92915050565b60006102a1816105fe565b6001600160a01b0382166102fc5760405162461bcd60e51b815260206004820152601760248201527f4f7261636c653a20696e76616c6964206164647265737300000000000000000060448201526064015b60405180910390fd5b50600180546001600160a01b0319166001600160a01b0392909216919091179055565b60008281526020819052604090206001015461033a816105fe565b610344838361060b565b50505050565b6001600160a01b03811633146103735760405163334bd91960e11b815260040160405180910390fd5b61037d828261069d565b505050565b600154604051633ec7919360e01b81526004810183905260009182916001600160a01b0390911690633ec7919390602401600060405180830381865afa1580156103d0573d6000803e3d6000fd5b505050506040513d6000823e601f3d908101601f191682016040526103f8919081019061095d565b905080610100015142101580156104125750806101600151155b9392505050565b6000610424816105fe565b61037d7f92a19c77d2ea87c7f81d50c74403cb2f401780f3ad919571121efe2bdb427eb18361060b565b7f92a19c77d2ea87c7f81d50c74403cb2f401780f3ad919571121efe2bdb427eb1610478816105fe565b60008481526002602052604090205460ff16156104d75760405162461bcd60e51b815260206004820152601860248201527f4f7261636c653a20616c7265616479207265736f6c766564000000000000000060448201526064016102f3565b60008360ff1660018111156104ee576104ee610a89565b600154604051638972730160e01b81529192506001600160a01b03169063897273019061052390889085908890600401610a9f565b600060405180830381600087803b15801561053d57600080fd5b505af1158015610551573d6000803e3d6000fd5b505050600086815260026020908152604091829020805460ff19166001179055905160ff8716815233925087917f13bfa3c09213a32e3e4e61fbacd90900cec1e99511766660189122444fdeec7d910160405180910390a35050505050565b6000918252602082815260408084206001600160a01b0393909316845291905290205460ff1690565b6000828152602081905260409020600101546105f4816105fe565b610344838361069d565b6106088133610708565b50565b600061061783836105b0565b610695576000838152602081815260408083206001600160a01b03861684529091529020805460ff1916600117905561064d3390565b6001600160a01b0316826001600160a01b0316847f2f8788117e7eff1d82e926ec794901d17c78024a50270940304540a733656f0d60405160405180910390a4506001610290565b506000610290565b60006106a983836105b0565b15610695576000838152602081815260408083206001600160a01b0386168085529252808320805460ff1916905551339286917ff6391f5c32d9c69d2a47ea670b442974b53935d1edc7fd64eb21e047a839171b9190a4506001610290565b61071282826105b0565b6107415760405163e2517d3f60e01b81526001600160a01b0382166004820152602481018390526044016102f3565b5050565b60006020828403121561075757600080fd5b81356001600160e01b03198116811461041257600080fd5b6001600160a01b038116811461060857600080fd5b60006020828403121561079657600080fd5b81356104128161076f565b6000602082840312156107b357600080fd5b5035919050565b600080604083850312156107cd57600080fd5b8235915060208301356107df8161076f565b809150509250929050565b6000806000606084860312156107ff57600080fd5b83359250602084013560ff8116811461081757600080fd5b929592945050506040919091013590565b634e487b7160e01b600052604160045260246000fd5b604051610180810167ffffffffffffffff8111828210171561086257610862610828565b60405290565b604051601f8201601f1916810167ffffffffffffffff8111828210171561089157610891610828565b604052919050565b600082601f8301126108aa57600080fd5b815167ffffffffffffffff8111156108c4576108c4610828565b6108d7601f8201601f1916602001610868565b8181528460208386010111156108ec57600080fd5b60005b8281101561090b576020818601810151838301820152016108ef565b506000918101602001919091529392505050565b805161092a8161076f565b919050565b80516002811061092a57600080fd5b80516003811061092a57600080fd5b8051801515811461092a57600080fd5b60006020828403121561096f57600080fd5b815167ffffffffffffffff81111561098657600080fd5b8201610180818503121561099957600080fd5b6109a161083e565b81518152602082015167ffffffffffffffff8111156109bf57600080fd5b6109cb86828501610899565b602083015250604082015167ffffffffffffffff8111156109eb57600080fd5b6109f786828501610899565b604083015250610a096060830161091f565b6060820152610a1a6080830161092f565b608082015260a0828101519082015260c0808301519082015260e080830151908201526101008083015190820152610a55610120830161093e565b610120820152610a68610140830161092f565b610140820152610a7b610160830161094d565b610160820152949350505050565b634e487b7160e01b600052602160045260246000fd5b8381526060810160028410610ac457634e487b7160e01b600052602160045260246000fd5b60208201939093526040015291905056fea2646970667358221220f956968f489bb6f039d234e97d0b54f4b6eac05038073eb070ed68faf2c5593964736f6c634300081c0033","linkReferences":{}},"methodIdentifiers":{"DEFAULT_ADMIN_ROLE()":"a217fddf","RESOLVER_ROLE()":"78fab260","canResolve(uint256)":"48ed7a1c","getRoleAdmin(bytes32)":"248a9ca3","grantResolverRole(address)":"65c0abf4","grantRole(bytes32,address)":"2f2ff15d","hasRole(bytes32,address)":"91d14854","predictionMarket()":"def114b6","renounceRole(bytes32,address)":"36568abe","resolveMarket(uint256,uint8,uint256)":"89727301","resolvedMarkets(uint256)":"7f51ad24","revokeRole(bytes32,address)":"d547741f","setPredictionMarket(address)":"03b88ba2","supportsInterface(bytes4)":"01ffc9a7"},"id":31}