{"abi":[{"type":"constructor","inputs":[{"name":"_paymentToken","type":"address","internalType":"address"},{"name":"_oracle","type":"address","internalType":"address"},{"name":"_reputationSystem","type":"address","internalType":"address"},{"name":"_owner","type":"address","internalType":"address"}],"stateMutability":"nonpayable"},{"type":"function","name":"CREATOR_FEE_BPS","inputs":[],"outputs":[{"name":"","type":"uint256","internalType":"uint256"}],"stateMutability":"view"},{"type":"function","name":"DEFAULT_MAX_OUTCOMES","inputs":[],"outputs":[{"name":"","type":"uint256","internalType":"uint256"}],"stateMutability":"view"},{"type":"function","name":"MAX_STAKE_PER_USER","inputs":[],"outputs":[{"name":"","type":"uint256","internalType":"uint256"}],"stateMutability":"view"},{"type":"function","name":"MIN_STAKE","inputs":[],"outputs":[{"name":"","type":"uint256","internalType":"uint256"}],"stateMutability":"view"},{"type":"function","name":"MIN_STAKE_TO_CREATE_OUTCOME","inputs":[],"outputs":[{"name":"","type":"uint256","internalType":"uint256"}],"stateMutability":"view"},{"type":"function","name":"PLATFORM_FEE_BPS","inputs":[],"outputs":[{"name":"","type":"uint256","internalType":"uint256"}],"stateMutability":"view"},{"type":"function","name":"POOL_CAP","inputs":[],"outputs":[{"name":"","type":"uint256","internalType":"uint256"}],"stateMutability":"view"},{"type":"function","name":"WINNER_SHARE_BPS","inputs":[],"outputs":[{"name":"","type":"uint256","internalType":"uint256"}],"stateMutability":"view"},{"type":"function","name":"calculateOutcomeWinnings","inputs":[{"name":"marketId","type":"uint256","internalType":"uint256"},{"name":"outcomeIndex","type":"uint256","internalType":"uint256"},{"name":"amount","type":"uint256","internalType":"uint256"}],"outputs":[{"name":"","type":"uint256","internalType":"uint256"}],"stateMutability":"view"},{"type":"function","name":"calculatePotentialWinnings","inputs":[{"name":"marketId","type":"uint256","internalType":"uint256"},{"name":"side","type":"uint8","internalType":"enum IPredictionMarket.Outcome"},{"name":"amount","type":"uint256","internalType":"uint256"}],"outputs":[{"name":"","type":"uint256","internalType":"uint256"}],"stateMutability":"view"},{"type":"function","name":"claimPayout","inputs":[{"name":"marketId","type":"uint256","internalType":"uint256"}],"outputs":[],"stateMutability":"nonpayable"},{"type":"function","name":"commentAndStake","inputs":[{"name":"marketId","type":"uint256","internalType":"uint256"},{"name":"outcomeLabel","type":"string","internalType":"string"},{"name":"amount","type":"uint256","internalType":"uint256"}],"outputs":[{"name":"outcomeIndex","type":"uint256","internalType":"uint256"}],"stateMutability":"nonpayable"},{"type":"function","name":"createMarket","inputs":[{"name":"marketType","type":"uint8","internalType":"enum IPredictionMarket.MarketType"},{"name":"question","type":"string","internalType":"string"},{"name":"category","type":"string","internalType":"string"},{"name":"endTime","type":"uint256","internalType":"uint256"},{"name":"initialStake","type":"uint256","internalType":"uint256"},{"name":"initialSide","type":"uint8","internalType":"enum IPredictionMarket.Outcome"},{"name":"initialOutcomeLabel","type":"string","internalType":"string"},{"name":"creator","type":"address","internalType":"address"}],"outputs":[{"name":"marketId","type":"uint256","internalType":"uint256"}],"stateMutability":"nonpayable"},{"type":"function","name":"creationFee","inputs":[],"outputs":[{"name":"","type":"uint256","internalType":"uint256"}],"stateMutability":"view"},{"type":"function","name":"getAllMarketIds","inputs":[],"outputs":[{"name":"","type":"uint256[]","internalType":"uint256[]"}],"stateMutability":"view"},{"type":"function","name":"getFees","inputs":[{"name":"marketId","type":"uint256","internalType":"uint256"}],"outputs":[{"name":"platformFee","type":"uint256","internalType":"uint256"},{"name":"creatorFee","type":"uint256","internalType":"uint256"}],"stateMutability":"view"},{"type":"function","name":"getMarketInfo","inputs":[{"name":"marketId","type":"uint256","internalType":"uint256"}],"outputs":[{"name":"","type":"tuple","internalType":"struct IPredictionMarket.Market","components":[{"name":"id","type":"uint256","internalType":"uint256"},{"name":"marketType","type":"uint8","internalType":"enum IPredictionMarket.MarketType"},{"name":"question","type":"string","internalType":"string"},{"name":"category","type":"string","internalType":"string"},{"name":"creator","type":"address","internalType":"address"},{"name":"yesPool","type":"uint256","internalType":"uint256"},{"name":"noPool","type":"uint256","internalType":"uint256"},{"name":"totalPool","type":"uint256","internalType":"uint256"},{"name":"endTime","type":"uint256","internalType":"uint256"},{"name":"status","type":"uint8","internalType":"enum IPredictionMarket.MarketStatus"},{"name":"winningOutcome","type":"uint8","internalType":"enum IPredictionMarket.Outcome"},{"name":"winningOutcomeIndex","type":"uint256","internalType":"uint256"},{"name":"resolved","type":"bool","internalType":"bool"},{"name":"outcomeCount","type":"uint256","internalType":"uint256"}]}],"stateMutability":"view"},{"type":"function","name":"getMarketOutcomes","inputs":[{"name":"marketId","type":"uint256","internalType":"uint256"}],"outputs":[{"name":"outcomes","type":"string[]","internalType":"string[]"},{"name":"outcomePools","type":"uint256[]","internalType":"uint256[]"}],"stateMutability":"view"},{"type":"function","name":"getMarkets","inputs":[{"name":"startId","type":"uint256","internalType":"uint256"},{"name":"count","type":"uint256","internalType":"uint256"}],"outputs":[{"name":"","type":"tuple[]","internalType":"struct IPredictionMarket.Market[]","components":[{"name":"id","type":"uint256","internalType":"uint256"},{"name":"marketType","type":"uint8","internalType":"enum IPredictionMarket.MarketType"},{"name":"question","type":"string","internalType":"string"},{"name":"category","type":"string","internalType":"string"},{"name":"creator","type":"address","internalType":"address"},{"name":"yesPool","type":"uint256","internalType":"uint256"},{"name":"noPool","type":"uint256","internalType":"uint256"},{"name":"totalPool","type":"uint256","internalType":"uint256"},{"name":"endTime","type":"uint256","internalType":"uint256"},{"name":"status","type":"uint8","internalType":"enum IPredictionMarket.MarketStatus"},{"name":"winningOutcome","type":"uint8","internalType":"enum IPredictionMarket.Outcome"},{"name":"winningOutcomeIndex","type":"uint256","internalType":"uint256"},{"name":"resolved","type":"bool","internalType":"bool"},{"name":"outcomeCount","type":"uint256","internalType":"uint256"}]}],"stateMutability":"view"},{"type":"function","name":"getOdds","inputs":[{"name":"marketId","type":"uint256","internalType":"uint256"},{"name":"side","type":"uint8","internalType":"enum IPredictionMarket.Outcome"}],"outputs":[{"name":"","type":"uint256","internalType":"uint256"}],"stateMutability":"view"},{"type":"function","name":"getOutcomeLabel","inputs":[{"name":"marketId","type":"uint256","internalType":"uint256"},{"name":"outcomeIndex","type":"uint256","internalType":"uint256"}],"outputs":[{"name":"outcomeLabel","type":"string","internalType":"string"}],"stateMutability":"view"},{"type":"function","name":"getOutcomeOdds","inputs":[{"name":"marketId","type":"uint256","internalType":"uint256"},{"name":"outcomeIndex","type":"uint256","internalType":"uint256"}],"outputs":[{"name":"","type":"uint256","internalType":"uint256"}],"stateMutability":"view"},{"type":"function","name":"getOutcomePoolAmount","inputs":[{"name":"marketId","type":"uint256","internalType":"uint256"},{"name":"outcomeIndex","type":"uint256","internalType":"uint256"}],"outputs":[{"name":"","type":"uint256","internalType":"uint256"}],"stateMutability":"view"},{"type":"function","name":"getUserOutcomeStake","inputs":[{"name":"marketId","type":"uint256","internalType":"uint256"},{"name":"user","type":"address","internalType":"address"},{"name":"outcomeIndex","type":"uint256","internalType":"uint256"}],"outputs":[{"name":"","type":"uint256","internalType":"uint256"}],"stateMutability":"view"},{"type":"function","name":"getUserPrediction","inputs":[{"name":"marketId","type":"uint256","internalType":"uint256"},{"name":"user","type":"address","internalType":"address"}],"outputs":[{"name":"","type":"tuple","internalType":"struct IPredictionMarket.Prediction","components":[{"name":"user","type":"address","internalType":"address"},{"name":"side","type":"uint8","internalType":"enum IPredictionMarket.Outcome"},{"name":"outcomeIndex","type":"uint256","internalType":"uint256"},{"name":"amount","type":"uint256","internalType":"uint256"},{"name":"timestamp","type":"uint256","internalType":"uint256"}]}],"stateMutability":"view"},{"type":"function","name":"hasClaimed","inputs":[{"name":"","type":"uint256","internalType":"uint256"},{"name":"","type":"address","internalType":"address"}],"outputs":[{"name":"","type":"bool","internalType":"bool"}],"stateMutability":"view"},{"type":"function","name":"marketCount","inputs":[],"outputs":[{"name":"","type":"uint256","internalType":"uint256"}],"stateMutability":"view"},{"type":"function","name":"marketCreators","inputs":[{"name":"","type":"address","internalType":"address"}],"outputs":[{"name":"","type":"bool","internalType":"bool"}],"stateMutability":"view"},{"type":"function","name":"marketExists","inputs":[{"name":"marketId","type":"uint256","internalType":"uint256"}],"outputs":[{"name":"","type":"bool","internalType":"bool"}],"stateMutability":"view"},{"type":"function","name":"marketOutcomes","inputs":[{"name":"","type":"uint256","internalType":"uint256"},{"name":"","type":"uint256","internalType":"uint256"}],"outputs":[{"name":"","type":"string","internalType":"string"}],"stateMutability":"view"},{"type":"function","name":"markets","inputs":[{"name":"","type":"uint256","internalType":"uint256"}],"outputs":[{"name":"id","type":"uint256","internalType":"uint256"},{"name":"marketType","type":"uint8","internalType":"enum IPredictionMarket.MarketType"},{"name":"question","type":"string","internalType":"string"},{"name":"category","type":"string","internalType":"string"},{"name":"creator","type":"address","internalType":"address"},{"name":"yesPool","type":"uint256","internalType":"uint256"},{"name":"noPool","type":"uint256","internalType":"uint256"},{"name":"totalPool","type":"uint256","internalType":"uint256"},{"name":"endTime","type":"uint256","internalType":"uint256"},{"name":"status","type":"uint8","internalType":"enum IPredictionMarket.MarketStatus"},{"name":"winningOutcome","type":"uint8","internalType":"enum IPredictionMarket.Outcome"},{"name":"winningOutcomeIndex","type":"uint256","internalType":"uint256"},{"name":"resolved","type":"bool","internalType":"bool"},{"name":"outcomeCount","type":"uint256","internalType":"uint256"}],"stateMutability":"view"},{"type":"function","name":"maxOutcomesPerMarket","inputs":[{"name":"","type":"uint256","internalType":"uint256"}],"outputs":[{"name":"","type":"uint256","internalType":"uint256"}],"stateMutability":"view"},{"type":"function","name":"oracle","inputs":[],"outputs":[{"name":"","type":"address","internalType":"address"}],"stateMutability":"view"},{"type":"function","name":"outcomePoolAmounts","inputs":[{"name":"","type":"uint256","internalType":"uint256"},{"name":"","type":"uint256","internalType":"uint256"}],"outputs":[{"name":"","type":"uint256","internalType":"uint256"}],"stateMutability":"view"},{"type":"function","name":"outcomeToIndex","inputs":[{"name":"","type":"uint256","internalType":"uint256"},{"name":"","type":"string","internalType":"string"}],"outputs":[{"name":"","type":"uint256","internalType":"uint256"}],"stateMutability":"view"},{"type":"function","name":"owner","inputs":[],"outputs":[{"name":"","type":"address","internalType":"address"}],"stateMutability":"view"},{"type":"function","name":"pauseMarket","inputs":[{"name":"marketId","type":"uint256","internalType":"uint256"}],"outputs":[],"stateMutability":"nonpayable"},{"type":"function","name":"paymentToken","inputs":[],"outputs":[{"name":"","type":"address","internalType":"contract IERC20"}],"stateMutability":"view"},{"type":"function","name":"poolAmounts","inputs":[{"name":"","type":"uint256","internalType":"uint256"},{"name":"","type":"uint8","internalType":"enum IPredictionMarket.Outcome"}],"outputs":[{"name":"","type":"uint256","internalType":"uint256"}],"stateMutability":"view"},{"type":"function","name":"predict","inputs":[{"name":"marketId","type":"uint256","internalType":"uint256"},{"name":"side","type":"uint8","internalType":"enum IPredictionMarket.Outcome"},{"name":"amount","type":"uint256","internalType":"uint256"}],"outputs":[],"stateMutability":"nonpayable"},{"type":"function","name":"predictions","inputs":[{"name":"","type":"uint256","internalType":"uint256"},{"name":"","type":"address","internalType":"address"}],"outputs":[{"name":"user","type":"address","internalType":"address"},{"name":"side","type":"uint8","internalType":"enum IPredictionMarket.Outcome"},{"name":"outcomeIndex","type":"uint256","internalType":"uint256"},{"name":"amount","type":"uint256","internalType":"uint256"},{"name":"timestamp","type":"uint256","internalType":"uint256"}],"stateMutability":"view"},{"type":"function","name":"renounceOwnership","inputs":[],"outputs":[],"stateMutability":"nonpayable"},{"type":"function","name":"reputationSystem","inputs":[],"outputs":[{"name":"","type":"address","internalType":"address"}],"stateMutability":"view"},{"type":"function","name":"resolve","inputs":[{"name":"marketId","type":"uint256","internalType":"uint256"},{"name":"outcome","type":"uint8","internalType":"enum IPredictionMarket.Outcome"}],"outputs":[],"stateMutability":"nonpayable"},{"type":"function","name":"resolveCrowdWisdom","inputs":[{"name":"marketId","type":"uint256","internalType":"uint256"},{"name":"winningOutcomeIndex","type":"uint256","internalType":"uint256"}],"outputs":[],"stateMutability":"nonpayable"},{"type":"function","name":"setCreationFee","inputs":[{"name":"_creationFee","type":"uint256","internalType":"uint256"}],"outputs":[],"stateMutability":"nonpayable"},{"type":"function","name":"setOracle","inputs":[{"name":"_oracle","type":"address","internalType":"address"}],"outputs":[],"stateMutability":"nonpayable"},{"type":"function","name":"stakeOnOutcome","inputs":[{"name":"marketId","type":"uint256","internalType":"uint256"},{"name":"outcomeIndex","type":"uint256","internalType":"uint256"},{"name":"amount","type":"uint256","internalType":"uint256"}],"outputs":[],"stateMutability":"nonpayable"},{"type":"function","name":"transferOwnership","inputs":[{"name":"newOwner","type":"address","internalType":"address"}],"outputs":[],"stateMutability":"nonpayable"},{"type":"function","name":"userOutcomeStakes","inputs":[{"name":"","type":"uint256","internalType":"uint256"},{"name":"","type":"address","internalType":"address"},{"name":"","type":"uint256","internalType":"uint256"}],"outputs":[{"name":"","type":"uint256","internalType":"uint256"}],"stateMutability":"view"},{"type":"function","name":"userStakes","inputs":[{"name":"","type":"uint256","internalType":"uint256"},{"name":"","type":"address","internalType":"address"},{"name":"","type":"uint8","internalType":"enum IPredictionMarket.Outcome"}],"outputs":[{"name":"","type":"uint256","internalType":"uint256"}],"stateMutability":"view"},{"type":"function","name":"withdrawFees","inputs":[],"outputs":[],"stateMutability":"nonpayable"},{"type":"event","name":"CreationFeeUpdated","inputs":[{"name":"newFee","type":"uint256","indexed":false,"internalType":"uint256"}],"anonymous":false},{"type":"event","name":"MarketCreated","inputs":[{"name":"marketId","type":"uint256","indexed":true,"internalType":"uint256"},{"name":"creator","type":"address","indexed":true,"internalType":"address"},{"name":"question","type":"string","indexed":false,"internalType":"string"},{"name":"category","type":"string","indexed":false,"internalType":"string"},{"name":"endTime","type":"uint256","indexed":false,"internalType":"uint256"}],"anonymous":false},{"type":"event","name":"MarketResolved","inputs":[{"name":"marketId","type":"uint256","indexed":true,"internalType":"uint256"},{"name":"winningOutcome","type":"uint8","indexed":false,"internalType":"enum IPredictionMarket.Outcome"},{"name":"winningOutcomeIndex","type":"uint256","indexed":false,"internalType":"uint256"},{"name":"totalPayout","type":"uint256","indexed":false,"internalType":"uint256"}],"anonymous":false},{"type":"event","name":"OracleUpdated","inputs":[{"name":"newOracle","type":"address","indexed":true,"internalType":"address"}],"anonymous":false},{"type":"event","name":"OutcomeCreated","inputs":[{"name":"marketId","type":"uint256","indexed":true,"internalType":"uint256"},{"name":"outcomeIndex","type":"uint256","indexed":true,"internalType":"uint256"},{"name":"outcomeLabel","type":"string","indexed":false,"internalType":"string"}],"anonymous":false},{"type":"event","name":"OwnershipTransferred","inputs":[{"name":"previousOwner","type":"address","indexed":true,"internalType":"address"},{"name":"newOwner","type":"address","indexed":true,"internalType":"address"}],"anonymous":false},{"type":"event","name":"PayoutClaimed","inputs":[{"name":"marketId","type":"uint256","indexed":true,"internalType":"uint256"},{"name":"user","type":"address","indexed":true,"internalType":"address"},{"name":"amount","type":"uint256","indexed":false,"internalType":"uint256"}],"anonymous":false},{"type":"event","name":"PredictionMade","inputs":[{"name":"marketId","type":"uint256","indexed":true,"internalType":"uint256"},{"name":"user","type":"address","indexed":true,"internalType":"address"},{"name":"side","type":"uint8","indexed":false,"internalType":"enum IPredictionMarket.Outcome"},{"name":"outcomeIndex","type":"uint256","indexed":false,"internalType":"uint256"},{"name":"amount","type":"uint256","indexed":false,"internalType":"uint256"}],"anonymous":false},{"type":"error","name":"OwnableInvalidOwner","inputs":[{"name":"owner","type":"address","internalType":"address"}]},{"type":"error","name":"OwnableUnauthorizedAccount","inputs":[{"name":"account","type":"address","internalType":"address"}]},{"type":"error","name":"ReentrancyGuardReentrantCall","inputs":[]},{"type":"error","name":"SafeERC20FailedOperation","inputs":[{"name":"token","type":"address","internalType":"address"}]}],"bytecode":{"object":"0x60a060405234801561001057600080fd5b5060405161573338038061573383398101604081905261002f91610134565b806001600160a01b03811661005e57604051631e4fbdf760e01b81526000600482015260240160405180910390fd5b610067816100c8565b5060017f9b779b17422d0df92223018b32b4d1fa46e071723d6817e2486d003becc55f0055506001600160a01b03928316608052600180549284166001600160a01b0319938416179055600280549190931691161790556000600455610188565b600080546001600160a01b038381166001600160a01b0319831681178455604051919092169283917f8be0079c531659141344cd1fd0a4f28419497f9722a3daafe3b4186f6b6457e09190a35050565b80516001600160a01b038116811461012f57600080fd5b919050565b6000806000806080858703121561014a57600080fd5b61015385610118565b935061016160208601610118565b925061016f60408601610118565b915061017d60608601610118565b905092959194509250565b60805161555f6101d4600039600081816103f801528181610ba4015281816118b3015281816121a7015281816122b6015281816124cb015281816132d70152613cf4015261555f6000f3fe608060405234801561001057600080fd5b506004361061030c5760003560e01c806380968d481161019d578063bcc3b503116100e9578063ec69a654116100a2578063f80f8deb1161007c578063f80f8deb1461082a578063f89432921461085b578063fc12524c14610897578063fd6b93d1146108aa57600080fd5b8063ec69a654146107ec578063ec9790821461080e578063f2fde38b1461081757600080fd5b8063bcc3b50314610781578063cb1c2b5c14610794578063cc3cbd2a146107a3578063cd8d04fb146107ab578063d5a06d4c146107bb578063dce0b4e4146107e357600080fd5b806392b108d011610156578063b34ba81c11610130578063b34ba81c146106fc578063b402f1f514610739578063b7d8622514610759578063b85ed6361461076c57600080fd5b806392b108d0146106575780639c0e1608146106bc578063b1283e77146106cf57600080fd5b806380968d48146105cc57806383389ef5146105ec5780638517e93c146105f5578063873f6f9e146106055780638a69614e146106335780638da5cb5b1461064657600080fd5b80634c209e231161025c5780636af7ff0b1161021557806378dc90be116101ef57806378dc90be146105805780637adbf973146105935780637c8fcec8146105a65780637dc0d1d0146105b957600080fd5b80636af7ff0b14610522578063715018a61461054d578063722728661461055557600080fd5b80634c209e23146104ab57806350ae9716146104b3578063539aa77f146104c65780635ee212ef146104cf5780636587eda1146104ef5780636ac28cb31461050257600080fd5b80631d6c8bc8116102c957806341fdb485116102a357806341fdb4851461045257806342fcc1921461046557806345ee84dd14610478578063476343ee146104a357600080fd5b80631d6c8bc8146103c05780633013ce29146103f35780633ec791931461043257600080fd5b80630d858de9146103115780631035e65b1461033757806312a3bf0e1461034c578063144a93661461036d5780631920a73e1461039e5780631cfe3bb2146103b1575b600080fd5b61032461031f36600461462a565b6108bd565b6040519081526020015b60405180910390f35b61034a61034536600461464c565b6109bf565b005b61035f61035a366004614678565b610d2b565b60405161032e92919061471d565b61032461037b3660046147b1565b600d60209081526000938452604080852082529284528284209052825290205481565b61034a6103ac36600461462a565b610f5a565b610324670de0b6b3a764000081565b6103e36103ce3660046147e7565b600f6020526000908152604090205460ff1681565b604051901515815260200161032e565b61041a7f000000000000000000000000000000000000000000000000000000000000000081565b6040516001600160a01b03909116815260200161032e565b610445610440366004614678565b611198565b60405161032e919061493c565b610324610460366004614967565b611414565b610324610473366004614a31565b611549565b61032461048636600461462a565b6000918252600c6020908152604080842092845291905290205490565b61034a612187565b610324603281565b61034a6104c1366004614967565b6122dd565b6103246101f481565b6103246104dd366004614678565b600e6020526000908152604090205481565b60025461041a906001600160a01b031681565b610515610510366004614b08565b6127a2565b60405161032e9190614b34565b61032461053036600461462a565b600c60209081526000928352604080842090915290825290205481565b61034a612866565b610324610563366004614b7f565b600760209081526000928352604080842090915290825290205481565b61032461058e366004614b7f565b61287a565b61034a6105a13660046147e7565b61295c565b6103246105b436600461464c565b612a04565b60015461041a906001600160a01b031681565b6105df6105da36600461462a565b612b0d565b60405161032e9190614baf565b61032461245481565b6103246801158e460913d0000081565b6103e3610613366004614b08565b600960209081526000928352604080842090915290825290205460ff1681565b61034a610641366004614678565b612e9a565b6000546001600160a01b031661041a565b6106ab610665366004614b08565b600660209081526000928352604080842090915290825290208054600182015460028301546003909301546001600160a01b03831693600160a01b90930460ff16929085565b60405161032e959493929190614c14565b61034a6106ca366004614b7f565b613353565b6106e26106dd366004614678565b613575565b60405161032e9e9d9c9b9a99989796959493929190614c4f565b61032461070a3660046147b1565b6000928352600d602090815260408085206001600160a01b039490941685529281528284209184525290205490565b61074c61074736600461462a565b613706565b60405161032e9190614d06565b61034a610767366004614678565b6137bf565b610774613802565b60405161032e9190614d19565b61032461078f366004614d2c565b61388f565b6103246703782dace9d9000081565b61032460c881565b610324683635c9adc5dea0000081565b6107ce6107c9366004614678565b613e79565b6040805192835260208301919091520161032e565b61032460045481565b6103e36107fa366004614678565b600090815260056020526040902054151590565b61032460035481565b61034a6108253660046147e7565b613eb4565b610324610838366004614d7c565b600860209081526000938452604080852082529284528284209052825290205481565b610324610869366004614dbc565b600b602090815260009283526040909220815180830184018051928152908401929093019190912091525481565b61034a6108a5366004614678565b613eef565b61074c6108b836600461462a565b613f6f565b600082815260056020526040812060018082015460ff16818111156108e4576108e4614802565b146109475760405162461bcd60e51b815260206004820152602860248201527f50726564696374696f6e4d61726b65743a20757365206765744f64647320666f604482015267722042696e61727960c01b60648201526084015b60405180910390fd5b6000848152600a602052604090205483106109745760405162461bcd60e51b815260040161093e90614e02565b806007015460000361098a5760009150506109b9565b6000848152600c6020908152604080832086845290915290205460078201546109b49082906140be565b925050505b92915050565b6109c76140e6565b600083815260056020526040812080549091036109f65760405162461bcd60e51b815260040161093e90614e49565b60018181015460ff1681811115610a0f57610a0f614802565b14610a2c5760405162461bcd60e51b815260040161093e90614e90565b6000600982015460ff166002811115610a4757610a47614802565b14610a645760405162461bcd60e51b815260040161093e90614ed8565b80600801544210610a875760405162461bcd60e51b815260040161093e90614f1b565b6000848152600a60205260409020548310610ab45760405162461bcd60e51b815260040161093e90614e02565b6703782dace9d90000821015610adc5760405162461bcd60e51b815260040161093e90614f52565b6000805b6000868152600a6020526040902054811015610b2c576000868152600d602090815260408083203384528252808320848452909152902054610b229083614fae565b9150600101610ae0565b506801158e460913d00000610b418483614fae565b1115610b5f5760405162461bcd60e51b815260040161093e90614fc1565b683635c9adc5dea00000838360070154610b799190614fae565b1115610b975760405162461bcd60e51b815260040161093e9061500d565b610bcc6001600160a01b037f000000000000000000000000000000000000000000000000000000000000000016333086614102565b600085815260066020908152604080832033845290915281206002810154909103610c215780546001600160a81b03191660ff60a01b1933161781556001810185905560028101849055426003820155610c5e565b84816001015414610c445760405162461bcd60e51b815260040161093e9061504f565b83816002016000828254610c589190614fae565b90915550505b6000868152600c6020908152604080832088845290915281208054869290610c87908490614fae565b90915550506000868152600d60209081526040808320338452825280832088845290915281208054869290610cbd908490614fae565b9250508190555083836007016000828254610cd89190614fae565b9091555050604051339087906000805160206154ea83398151915290610d04906000908a908a90615096565b60405180910390a3505050610d26600160008051602061550a83398151915255565b505050565b600081815260056020526040812080546060928392919003610d5f5760405162461bcd60e51b815260040161093e90614e49565b60018181015460ff1681811115610d7857610d78614802565b14610d955760405162461bcd60e51b815260040161093e906150b7565b6000848152600a6020526040902054806001600160401b03811115610dbc57610dbc61498e565b604051908082528060200260200182016040528015610def57816020015b6060815260200190600190039081610dda5790505b509350806001600160401b03811115610e0a57610e0a61498e565b604051908082528060200260200182016040528015610e33578160200160208202803683370190505b50925060005b81811015610f52576000868152600a60205260409020805482908110610e6157610e61615101565b906000526020600020018054610e7690615117565b80601f0160208091040260200160405190810160405280929190818152602001828054610ea290615117565b8015610eef5780601f10610ec457610100808354040283529160200191610eef565b820191906000526020600020905b815481529060010190602001808311610ed257829003601f168201915b5050505050858281518110610f0657610f06615101565b6020908102919091018101919091526000878152600c8252604080822084835290925220548451859083908110610f3f57610f3f615101565b6020908102919091010152600101610e39565b505050915091565b6001546001600160a01b03163314610fb45760405162461bcd60e51b815260206004820152601d60248201527f50726564696374696f6e4d61726b65743a206f6e6c79206f7261636c65000000604482015260640161093e565b610fbc6140e6565b60008281526005602052604081208054909103610feb5760405162461bcd60e51b815260040161093e90614e49565b60018181015460ff168181111561100457611004614802565b146110625760405162461bcd60e51b815260206004820152602860248201527f50726564696374696f6e4d61726b65743a20757365207265736f6c766520666f604482015267722042696e61727960c01b606482015260840161093e565b6000600982015460ff16600281111561107d5761107d614802565b1461109a5760405162461bcd60e51b815260040161093e90614ed8565b80600801544210156110be5760405162461bcd60e51b815260040161093e9061514b565b600b81015460ff16156110e35760405162461bcd60e51b815260040161093e9061518d565b6000838152600a602052604090205482106111105760405162461bcd60e51b815260040161093e90614e02565b600981018054600a830184905561ffff19166001908117909155600b8201805460ff19169091179055600781015460405184917f503d167e0856e2f40aaac2dac6550f9543efb837691cc189cde53b0172e4f32b9161117491600091879190615096565b60405180910390a250611194600160008051602061550a83398151915255565b5050565b6111a061459e565b60008281526005602052604081205490036111cd5760405162461bcd60e51b815260040161093e90614e49565b60008281526005602090815260409182902082516101c0810190935280548352600180820154919284019160ff169081111561120b5761120b614802565b600181111561121c5761121c614802565b815260200160028201805461123090615117565b80601f016020809104026020016040519081016040528092919081815260200182805461125c90615117565b80156112a95780601f1061127e576101008083540402835291602001916112a9565b820191906000526020600020905b81548152906001019060200180831161128c57829003601f168201915b505050505081526020016003820180546112c290615117565b80601f01602080910402602001604051908101604052809291908181526020018280546112ee90615117565b801561133b5780601f106113105761010080835404028352916020019161133b565b820191906000526020600020905b81548152906001019060200180831161131e57829003601f168201915b505050918352505060048201546001600160a01b03166020820152600582015460408201526006820154606082015260078201546080820152600882015460a0820152600982015460c09091019060ff16600281111561139d5761139d614802565b60028111156113ae576113ae614802565b81526020016009820160019054906101000a900460ff1660018111156113d6576113d6614802565b60018111156113e7576113e7614802565b8152600a8201546020820152600b82015460ff1615156040820152600c9091015460609091015292915050565b60008381526005602052604081208160018083015460ff169081111561143c5761143c614802565b146114af5760405162461bcd60e51b815260206004820152603e60248201527f50726564696374696f6e4d61726b65743a207573652063616c63756c6174654f60448201527f7574636f6d6557696e6e696e677320666f722043726f7764576973646f6d0000606482015260840161093e565b80600701546000036114c45782915050611542565b6000808560018111156114d9576114d9614802565b146114e85781600601546114ee565b81600501545b905060008483600701546115029190614fae565b905060006115108684614fae565b9050600061151f87838561413e565b9050612710611530612454836151cf565b61153a91906151e6565b955050505050505b9392505050565b60006115536140e6565b60008851116115a45760405162461bcd60e51b815260206004820181905260248201527f50726564696374696f6e4d61726b65743a20656d707479207175657374696f6e604482015260640161093e565b60008751116115f55760405162461bcd60e51b815260206004820181905260248201527f50726564696374696f6e4d61726b65743a20656d7074792063617465676f7279604482015260640161093e565b42861161164f5760405162461bcd60e51b815260206004820152602260248201527f50726564696374696f6e4d61726b65743a20696e76616c696420656e642074696044820152616d6560f01b606482015260840161093e565b61165d426301e13380614fae565b8611156116b75760405162461bcd60e51b815260206004820152602260248201527f50726564696374696f6e4d61726b65743a20656e642074696d6520746f6f206660448201526130b960f11b606482015260840161093e565b6703782dace9d9000085101561171d5760405162461bcd60e51b815260206004820152602560248201527f50726564696374696f6e4d61726b65743a207374616b652062656c6f77206d696044820152646e696d756d60d81b606482015260840161093e565b6801158e460913d0000085111561178b5760405162461bcd60e51b815260206004820152602c60248201527f50726564696374696f6e4d61726b65743a207374616b6520657863656564732060448201526b36b0bc103832b9103ab9b2b960a11b606482015260840161093e565b683635c9adc5dea000008511156117f55760405162461bcd60e51b815260206004820152602860248201527f50726564696374696f6e4d61726b65743a207374616b652065786365656473206044820152670706f6f6c206361760c41b606482015260840161093e565b600189600181111561180957611809614802565b036118a657600083511161187e5760405162461bcd60e51b815260206004820152603660248201527f50726564696374696f6e4d61726b65743a2043726f7764576973646f6d20726560448201527571756972657320696e697469616c206f7574636f6d6560501b606482015260840161093e565b670de0b6b3a76400008510156118a65760405162461bcd60e51b815260040161093e90615208565b6118db6001600160a01b037f000000000000000000000000000000000000000000000000000000000000000016333088614102565b6003600081546118ea9061525a565b9182905550905060006001600160a01b0383166119075733611909565b825b905060008a600181111561191f5761191f614802565b03611d6a57600085600181111561193857611938614802565b14806119555750600185600181111561195357611953614802565b145b6119a15760405162461bcd60e51b815260206004820152601e60248201527f50726564696374696f6e4d61726b65743a20696e76616c696420736964650000604482015260640161093e565b600082815260076020526040812087918760018111156119c3576119c3614802565b60018111156119d4576119d4614802565b815260200190815260200160002081905550604051806101c0016040528083815260200160006001811115611a0b57611a0b614802565b8152602081018b9052604081018a90526001600160a01b03831660608201526080016000876001811115611a4157611a41614802565b14611a4d576000611a4f565b875b81526020016001876001811115611a6857611a68614802565b14611a74576000611a76565b875b815260208101889052604081018990526060016000815260200160008152600060208083018290526040808401839052600260609094019390935285825260058152919020825181559082015160018281018054909160ff19909116908381811115611ae457611ae4614802565b021790555060408201516002820190611afd90826152c1565b5060608201516003820190611b1290826152c1565b5060808201516004820180546001600160a01b0319166001600160a01b0390921691909117905560a0820151600582015560c0820151600682015560e08201516007820155610100820151600882015561012082015160098201805460ff19166001836002811115611b8657611b86614802565b021790555061014082015160098201805461ff001916610100836001811115611bb157611bb1614802565b0217905550610160820151600a820155610180820151600b8201805460ff19169115159190911790556101a090910151600c909101556040805160a081019091526001600160a01b038216815260208101866001811115611c1457611c14614802565b8152602001866001811115611c2b57611c2b614802565b81526020808201899052426040928301526000858152600682528281206001600160a01b0380871683529083529290208351815493166001600160a01b0319841681178255918401519092909183916001600160a81b03191617600160a01b836001811115611c9c57611c9c614802565b021790555060408201518160010155606082015181600201556080820151816003015590505085600860008481526020019081526020016000206000836001600160a01b03166001600160a01b031681526020019081526020016000206000876001811115611d0d57611d0d614802565b6001811115611d1e57611d1e614802565b815260200190815260200160002081905550806001600160a01b0316826000805160206154ea8339815191528760008a604051611d5d93929190615096565b60405180910390a361211d565b6000828152600e6020526040812060329055611d8585614174565b90506000815111611da85760405162461bcd60e51b815260040161093e9061537f565b6000838152600a6020908152604082208054600181018255908352912001611dd082826152c1565b506000838152600b60205260408082209051611ded9084906153c6565b9081526040805160209281900383018120939093556000868152600c835281812081805283528190208a90556101c0830190528482528101600181526020018b81526020018a8152602001836001600160a01b03168152602001600081526020016000815260200188815260200189815260200160006002811115611e7457611e74614802565b81526020016000815260006020808301829052604080840183905260016060909401849052878352600582529091208351815590830151818301805492939192909160ff19909116908381811115611ece57611ece614802565b021790555060408201516002820190611ee790826152c1565b5060608201516003820190611efc90826152c1565b5060808201516004820180546001600160a01b0319166001600160a01b0390921691909117905560a0820151600582015560c0820151600682015560e08201516007820155610100820151600882015561012082015160098201805460ff19166001836002811115611f7057611f70614802565b021790555061014082015160098201805461ff001916610100836001811115611f9b57611f9b614802565b0217905550610160820151600a820155610180820151600b8201805460ff19169115159190911790556101a090910151600c909101556040805160a0810182526001600160a01b0384811680835260006020808501828152858701839052606086018e905242608087015289835260068252868320938352929052939093208251815492166001600160a01b03198316811782559351929390929183916001600160a81b031990911617600160a01b83600181111561205c5761205c614802565b02179055506040828101516001830155606083015160028301556080909201516003909101556000848152600d60209081528282206001600160a01b038616835281528282208280529052818120899055905184907f03c5202f80db3510b71c86862c980f8d98a1f16e31f63133c10b3d2a4cab592d906120de908590614d06565b60405180910390a3816001600160a01b0316836000805160206154ea8339815191526000808b60405161211393929190615096565b60405180910390a3505b806001600160a01b0316827fb964ec62ce8297156f9b8af2d30a75fe682aa65bdc010b422c15b3feda3db1038b8b8b60405161215b939291906153e2565b60405180910390a35061217b600160008051602061550a83398151915255565b98975050505050505050565b61218f6143d5565b6040516370a0823160e01b81523060048201526000907f00000000000000000000000000000000000000000000000000000000000000006001600160a01b0316906370a0823190602401602060405180830381865afa1580156121f6573d6000803e3d6000fd5b505050506040513d601f19601f8201168201806040525081019061221a9190615418565b9050600060015b6003548111612274576000818152600560205260409020600b015460ff166122625760008181526005602052604090206007015461225f9083614fae565b91505b8061226c8161525a565b915050612221565b50600081831161228557600061228f565b61228f8284615431565b90508015610d2657610d266122ac6000546001600160a01b031690565b6001600160a01b037f0000000000000000000000000000000000000000000000000000000000000000169083614402565b6122e56140e6565b600083815260056020526040812080549091036123145760405162461bcd60e51b815260040161093e90614e49565b600060018083015460ff169081111561232f5761232f614802565b1461239a5760405162461bcd60e51b815260206004820152603560248201527f50726564696374696f6e4d61726b65743a2075736520636f6d6d656e74416e646044820152745374616b6520666f722043726f7764576973646f6d60581b606482015260840161093e565b6000600982015460ff1660028111156123b5576123b5614802565b146123d25760405162461bcd60e51b815260040161093e90614ed8565b806008015442106123f55760405162461bcd60e51b815260040161093e90614f1b565b6703782dace9d9000082101561241d5760405162461bcd60e51b815260040161093e90614f52565b6000848152600860209081526040808320338452825280832060018452909152808220548280529120546801158e460913d0000091849161245e9190614fae565b6124689190614fae565b11156124865760405162461bcd60e51b815260040161093e90614fc1565b683635c9adc5dea000008282600701546124a09190614fae565b11156124be5760405162461bcd60e51b815260040161093e9061500d565b6124f36001600160a01b037f000000000000000000000000000000000000000000000000000000000000000016333085614102565b6000848152600660209081526040808320338452909152812060028101549091036125885780546001600160a01b031981163390811783558591839160ff60a01b19166001600160a81b031990911617600160a01b83600181111561255a5761255a614802565b021790555083600181111561257157612571614802565b60018201556002810183905542600382015561262a565b83600181111561259a5761259a614802565b8154600160a01b900460ff1660018111156125b7576125b7614802565b146126105760405162461bcd60e51b8152602060048201526024808201527f50726564696374696f6e4d61726b65743a2063616e6e6f74206368616e6765206044820152637369646560e01b606482015260840161093e565b828160020160008282546126249190614fae565b90915550505b6000858152600760205260408120849186600181111561264c5761264c614802565b600181111561265d5761265d614802565b8152602001908152602001600020600082825461267a9190614fae565b90915550506000858152600860209081526040808320338452909152812084918660018111156126ac576126ac614802565b60018111156126bd576126bd614802565b815260200190815260200160002060008282546126da9190614fae565b92505081905550828260070160008282546126f59190614fae565b909155506000905084600181111561270f5761270f614802565b0361273357828260050160008282546127289190614fae565b9091555061274d9050565b828260060160008282546127479190614fae565b90915550505b33856000805160206154ea8339815191528680600181111561277157612771614802565b8760405161278193929190615096565b60405180910390a35050610d26600160008051602061550a83398151915255565b6127d56040805160a081019091526000808252602082019081526020016000815260200160008152602001600081525090565b60008381526006602090815260408083206001600160a01b03868116855290835292819020815160a081019092528054938416825290929091830190600160a01b900460ff16600181111561282c5761282c614802565b600181111561283d5761283d614802565b815260018201546020820152600282015460408201526003909101546060909101529392505050565b61286e6143d5565b6128786000614437565b565b60008281526005602052604081208160018083015460ff16908111156128a2576128a2614802565b1461290c5760405162461bcd60e51b815260206004820152603460248201527f50726564696374696f6e4d61726b65743a20757365206765744f7574636f6d656044820152734f64647320666f722043726f7764576973646f6d60601b606482015260840161093e565b80600701546000036129225760329150506109b9565b60008084600181111561293757612937614802565b1461294657816006015461294c565b81600501545b90506109b48183600701546140be565b6129646143d5565b6001600160a01b0381166129ba5760405162461bcd60e51b815260206004820181905260248201527f50726564696374696f6e4d61726b65743a20696e76616c6964206f7261636c65604482015260640161093e565b600180546001600160a01b0319166001600160a01b0383169081179091556040517f3df77beb5db05fcdd70a30fc8adf3f83f9501b68579455adbd100b818094039490600090a250565b600083815260056020526040812060018082015460ff1681811115612a2b57612a2b614802565b14612a9e5760405162461bcd60e51b815260206004820152603b60248201527f50726564696374696f6e4d61726b65743a207573652063616c63756c6174655060448201527f6f74656e7469616c57696e6e696e677320666f722042696e6172790000000000606482015260840161093e565b6000858152600a60205260409020548410612acb5760405162461bcd60e51b815260040161093e90614e02565b8060070154600003612ae05782915050611542565b6000858152600c602090815260408083208784529091528120546007830154909190611502908690614fae565b6060600083118015612b2157506003548311155b612b6d5760405162461bcd60e51b815260206004820152601f60248201527f50726564696374696f6e4d61726b65743a20696e76616c696420737461727400604482015260640161093e565b60006001612b7b8486614fae565b612b859190615431565b9050600354811115612b9657506003545b6000612ba28583615431565b612bad906001614fae565b90506000816001600160401b03811115612bc957612bc961498e565b604051908082528060200260200182016040528015612c0257816020015b612bef61459e565b815260200190600190039081612be75790505b50905060005b82811015612e905760056000612c1e838a614fae565b8152602001908152602001600020604051806101c0016040529081600082015481526020016001820160009054906101000a900460ff166001811115612c6657612c66614802565b6001811115612c7757612c77614802565b8152602001600282018054612c8b90615117565b80601f0160208091040260200160405190810160405280929190818152602001828054612cb790615117565b8015612d045780601f10612cd957610100808354040283529160200191612d04565b820191906000526020600020905b815481529060010190602001808311612ce757829003601f168201915b50505050508152602001600382018054612d1d90615117565b80601f0160208091040260200160405190810160405280929190818152602001828054612d4990615117565b8015612d965780601f10612d6b57610100808354040283529160200191612d96565b820191906000526020600020905b815481529060010190602001808311612d7957829003601f168201915b505050918352505060048201546001600160a01b03166020820152600582015460408201526006820154606082015260078201546080820152600882015460a0820152600982015460c09091019060ff166002811115612df857612df8614802565b6002811115612e0957612e09614802565b81526020016009820160019054906101000a900460ff166001811115612e3157612e31614802565b6001811115612e4257612e42614802565b8152600a8201546020820152600b82015460ff1615156040820152600c909101546060909101528251839083908110612e7d57612e7d615101565b6020908102919091010152600101612c08565b5095945050505050565b612ea26140e6565b6000818152600560205260409020600b81015460ff16612f125760405162461bcd60e51b815260206004820152602560248201527f50726564696374696f6e4d61726b65743a206d61726b6574206e6f74207265736044820152641bdb1d995960da1b606482015260840161093e565b600082815260096020908152604080832033845290915290205460ff1615612f865760405162461bcd60e51b815260206004820152602160248201527f50726564696374696f6e4d61726b65743a20616c726561647920636c61696d656044820152601960fa1b606482015260840161093e565b6000828152600660209081526040808320338452909152902060020154612fef5760405162461bcd60e51b815260206004820152601f60248201527f50726564696374696f6e4d61726b65743a206e6f2070726564696374696f6e00604482015260640161093e565b60008281526009602090815260408083203384529091528120805460ff19166001179055808060018085015460ff169081111561302e5761302e614802565b0361318e576009830154610100900460ff16600181111561305157613051614802565b6000858152600660209081526040808320338452909152902054600160a01b900460ff16600181111561308657613086614802565b146130d35760405162461bcd60e51b815260206004820152601c60248201527f50726564696374696f6e4d61726b65743a2077726f6e67207369646500000000604482015260640161093e565b600084815260086020908152604080832033845290915281206009850154909190610100900460ff16600181111561310d5761310d614802565b600181111561311e5761311e614802565b81526020019081526020016000205491506007600085815260200190815260200160002060008460090160019054906101000a900460ff16600181111561316757613167614802565b600181111561317857613178614802565b815260200190815260200160002054905061323b565b600a8301546000858152600660209081526040808320338452909152902060010154146131fd5760405162461bcd60e51b815260206004820152601f60248201527f50726564696374696f6e4d61726b65743a2077726f6e67206f7574636f6d6500604482015260640161093e565b50506000828152600d602090815260408083203384528252808320600a85015480855290835281842054868552600c84528285209185529252909120545b600082116132965760405162461bcd60e51b815260206004820152602260248201527f50726564696374696f6e4d61726b65743a206e6f2077696e6e696e67207374616044820152616b6560f01b606482015260840161093e565b60006132a78383866007015461413e565b90506127106132b8612454836151cf565b6132c291906151e6565b905080156132fe576132fe6001600160a01b037f0000000000000000000000000000000000000000000000000000000000000000163383614402565b604051818152339086907fe97cee5a4c0549d3fdc81e322b718ddf0aeb3418ec87dce4f9a7fb28d117c3129060200160405180910390a350505050613350600160008051602061550a83398151915255565b50565b6001546001600160a01b031633146133ad5760405162461bcd60e51b815260206004820152601d60248201527f50726564696374696f6e4d61726b65743a206f6e6c79206f7261636c65000000604482015260640161093e565b6133b56140e6565b600082815260056020526040812080549091036133e45760405162461bcd60e51b815260040161093e90614e49565b600060018083015460ff16908111156133ff576133ff614802565b1461345d5760405162461bcd60e51b815260206004820152602860248201527f50726564696374696f6e4d61726b65743a20757365207265736f6c766543726f6044820152677764576973646f6d60c01b606482015260840161093e565b6000600982015460ff16600281111561347857613478614802565b146134955760405162461bcd60e51b815260040161093e90614ed8565b80600801544210156134b95760405162461bcd60e51b815260040161093e9061514b565b600b81015460ff16156134de5760405162461bcd60e51b815260040161093e9061518d565b600981018054600160ff1982168117835584929161ffff191681179061010090849081111561350f5761350f614802565b021790555081600181111561352657613526614802565b600a820155600b8101805460ff19166001179055600781015460405184917f503d167e0856e2f40aaac2dac6550f9543efb837691cc189cde53b0172e4f32b9161117491869160009190615096565b600560205260009081526040902080546001820154600283018054929360ff909216926135a190615117565b80601f01602080910402602001604051908101604052809291908181526020018280546135cd90615117565b801561361a5780601f106135ef5761010080835404028352916020019161361a565b820191906000526020600020905b8154815290600101906020018083116135fd57829003601f168201915b50505050509080600301805461362f90615117565b80601f016020809104026020016040519081016040528092919081815260200182805461365b90615117565b80156136a85780601f1061367d576101008083540402835291602001916136a8565b820191906000526020600020905b81548152906001019060200180831161368b57829003601f168201915b505050600484015460058501546006860154600787015460088801546009890154600a8a0154600b8b0154600c909b0154999a6001600160a01b03909716999598509396509194909360ff808416946101009094048116939216908e565b600a602052816000526040600020818154811061372257600080fd5b9060005260206000200160009150915050805461373e90615117565b80601f016020809104026020016040519081016040528092919081815260200182805461376a90615117565b80156137b75780601f1061378c576101008083540402835291602001916137b7565b820191906000526020600020905b81548152906001019060200180831161379a57829003601f168201915b505050505081565b6137c76143d5565b60048190556040518181527f88a973fd5506071e0cf878b30898776c47d5250a7ee1e6ee0b36df3b03c7c16a9060200160405180910390a150565b606060006003546001600160401b038111156138205761382061498e565b604051908082528060200260200182016040528015613849578160200160208202803683370190505b50905060005b60035481101561388957613864816001614fae565b82828151811061387657613876615101565b602090810291909101015260010161384f565b50919050565b60006138996140e6565b600084815260056020526040812080549091036138c85760405162461bcd60e51b815260040161093e90614e49565b60018181015460ff16818111156138e1576138e1614802565b146138fe5760405162461bcd60e51b815260040161093e90614e90565b6000600982015460ff16600281111561391957613919614802565b146139365760405162461bcd60e51b815260040161093e90614ed8565b806008015442106139595760405162461bcd60e51b815260040161093e90614f1b565b60008451116139b85760405162461bcd60e51b815260206004820152602560248201527f50726564696374696f6e4d61726b65743a20656d707479206f7574636f6d65206044820152641b1858995b60da1b606482015260840161093e565b60006139c385614174565b905060008151116139e65760405162461bcd60e51b815260040161093e9061537f565b60008060005b6000898152600a6020526040902054811015613a66578380519060200120600a60008b81526020019081526020016000208281548110613a2e57613a2e615101565b90600052602060002001604051613a459190615444565b604051809103902003613a5e5760019250809150613a66565b6001016139ec565b508115613aa75780945080600b60008a815260200190815260200160002084604051613a9291906153c6565b90815260405190819003602001902055613c04565b6000888152600e6020526040902054801580613ad057506000898152600a602052604090205481115b613b2b5760405162461bcd60e51b815260206004820152602660248201527f50726564696374696f6e4d61726b65743a206d6178206f7574636f6d65732072604482015265195858da195960d21b606482015260840161093e565b670de0b6b3a7640000871015613b535760405162461bcd60e51b815260040161093e90615208565b6000898152600a602090815260408220805460018101825590835291209096508601613b7f85826152c1565b5085600b60008b815260200190815260200160002085604051613ba291906153c6565b90815260405190819003602001902055600c85018054906000613bc48361525a565b919050555085897f03c5202f80db3510b71c86862c980f8d98a1f16e31f63133c10b3d2a4cab592d86604051613bfa9190614d06565b60405180910390a3505b6703782dace9d90000861015613c2c5760405162461bcd60e51b815260040161093e90614f52565b6000805b60008a8152600a6020526040902054811015613c7c5760008a8152600d602090815260408083203384528252808320848452909152902054613c729083614fae565b9150600101613c30565b506801158e460913d00000613c918883614fae565b1115613caf5760405162461bcd60e51b815260040161093e90614fc1565b683635c9adc5dea00000878660070154613cc99190614fae565b1115613ce75760405162461bcd60e51b815260040161093e9061500d565b613d1c6001600160a01b037f00000000000000000000000000000000000000000000000000000000000000001633308a614102565b600089815260066020908152604080832033845290915281206002810154909103613d715780546001600160a81b03191660ff60a01b1933161781556001810187905560028101889055426003820155613dae565b86816001015414613d945760405162461bcd60e51b815260040161093e9061504f565b87816002016000828254613da89190614fae565b90915550505b60008a8152600c602090815260408083208a8452909152812080548a9290613dd7908490614fae565b909155505060008a8152600d6020908152604080832033845282528083208a8452909152812080548a9290613e0d908490614fae565b9250508190555087866007016000828254613e289190614fae565b909155505060405133908b906000805160206154ea83398151915290613e54906000908c908e90615096565b60405180910390a3505050505050611542600160008051602061550a83398151915255565b60008181526005602052604081206007810154829190613e9b906101f4614487565b9250613eac816007015460c8614487565b915050915091565b613ebc6143d5565b6001600160a01b038116613ee657604051631e4fbdf760e01b81526000600482015260240161093e565b61335081614437565b613ef76143d5565b60008181526005602052604081208054909103613f265760405162461bcd60e51b815260040161093e90614e49565b6000600982015460ff166002811115613f4157613f41614802565b14613f5e5760405162461bcd60e51b815260040161093e90614ed8565b600901805460ff1916600217905550565b6000828152600560205260408120805460609203613f9f5760405162461bcd60e51b815260040161093e90614e49565b60018181015460ff1681811115613fb857613fb8614802565b14613fd55760405162461bcd60e51b815260040161093e906150b7565b6000848152600a602052604090205483106140025760405162461bcd60e51b815260040161093e90614e02565b6000848152600a6020526040902080548490811061402257614022615101565b90600052602060002001805461403790615117565b80601f016020809104026020016040519081016040528092919081815260200182805461406390615117565b80156140b05780601f10614085576101008083540402835291602001916140b0565b820191906000526020600020905b81548152906001019060200180831161409357829003601f168201915b505050505091505092915050565b6000816000036140d0575060326109b9565b816140dc8460646151cf565b61154291906151e6565b6140ee614496565b600260008051602061550a83398151915255565b6141108484848460016144c6565b61413857604051635274afe760e01b81526001600160a01b038516600482015260240161093e565b50505050565b600082158061414b575081155b15614157575082611542565b8261416283866151cf565b61416c91906151e6565b949350505050565b60606000829050600081516001600160401b038111156141965761419661498e565b6040519080825280601f01601f1916602001820160405280156141c0576020820181803683370190505b50905060006001815b84518110156142d35760008582815181106141e6576141e6615101565b01602001516001600160f81b0319169050604160f81b81108015906142195750602d60f91b6001600160f81b0319821611155b156142335761422d60f882901c60206154b9565b60f81b90505b6001600160f81b03198116600160fd1b0361428e5782614289578085858151811061426057614260615101565b60200101906001600160f81b031916908160001a905350836142818161525a565b945050600192505b6142ca565b808585815181106142a1576142a1615101565b60200101906001600160f81b031916908160001a905350836142c28161525a565b945050600092505b506001016141c9565b505b6000821180156143135750826142ec600184615431565b815181106142fc576142fc615101565b6020910101516001600160f81b031916600160fd1b145b1561432a5781614322816154d2565b9250506142d5565b6000826001600160401b038111156143445761434461498e565b6040519080825280601f01601f19166020018201604052801561436e576020820181803683370190505b50905060005b838110156143ca5784818151811061438e5761438e615101565b602001015160f81c60f81b8282815181106143ab576143ab615101565b60200101906001600160f81b031916908160001a905350600101614374565b509695505050505050565b6000546001600160a01b031633146128785760405163118cdaa760e01b815233600482015260240161093e565b61440f8383836001614538565b610d2657604051635274afe760e01b81526001600160a01b038416600482015260240161093e565b600080546001600160a01b038381166001600160a01b0319831681178455604051919092169283917f8be0079c531659141344cd1fd0a4f28419497f9722a3daafe3b4186f6b6457e09190a35050565b60006127106140dc83856151cf565b60008051602061550a8339815191525460020361287857604051633ee5aeb560e01b815260040160405180910390fd5b6040516323b872dd60e01b60008181526001600160a01b038781166004528616602452604485905291602083606481808c5af192506001600051148316614526578383151615614519573d6000823e3d81fd5b6000883b113d1516831692505b60405250600060605295945050505050565b60405163a9059cbb60e01b60008181526001600160a01b038616600452602485905291602083604481808b5af192506001600051148316614592578383151615614585573d6000823e3d81fd5b6000873b113d1516831692505b60405250949350505050565b604080516101c08101909152600080825260208201908152602001606081526020016060815260200160006001600160a01b03168152602001600081526020016000815260200160008152602001600081526020016000600281111561460657614606614802565b81526020016000815260200160008152602001600015158152602001600081525090565b6000806040838503121561463d57600080fd5b50508035926020909101359150565b60008060006060848603121561466157600080fd5b505081359360208301359350604090920135919050565b60006020828403121561468a57600080fd5b5035919050565b60005b838110156146ac578181015183820152602001614694565b50506000910152565b600081518084526146cd816020860160208601614691565b601f01601f19169290920160200192915050565b600081518084526020840193506020830160005b828110156147135781518652602095860195909101906001016146f5565b5093949350505050565b6000604082016040835280855180835260608501915060608160051b86010192506020870160005b8281101561477657605f198786030184526147618583516146b5565b94506020938401939190910190600101614745565b50505050828103602084015261478c81856146e1565b95945050505050565b80356001600160a01b03811681146147ac57600080fd5b919050565b6000806000606084860312156147c657600080fd5b833592506147d660208501614795565b929592945050506040919091013590565b6000602082840312156147f957600080fd5b61154282614795565b634e487b7160e01b600052602160045260246000fd5b6002811061335057613350614802565b61483181614818565b9052565b6003811061483157614831614802565b805182526000602082015161485d6020850182614828565b5060408201516101c060408501526148796101c08501826146b5565b90506060830151848203606086015261489282826146b5565b91505060808301516148af60808601826001600160a01b03169052565b5060a083015160a085015260c083015160c085015260e083015160e08501526101008301516101008501526101208301516148ee610120860182614835565b50610140830151614903610140860182614828565b5061016083015161016085015261018083015161492561018086018215159052565b506101a08301516101a08501528091505092915050565b6020815260006115426020830184614845565b6002811061335057600080fd5b80356147ac8161494f565b60008060006060848603121561497c57600080fd5b8335925060208401356147d68161494f565b634e487b7160e01b600052604160045260246000fd5b600082601f8301126149b557600080fd5b81356001600160401b038111156149ce576149ce61498e565b604051601f8201601f19908116603f011681016001600160401b03811182821017156149fc576149fc61498e565b604052818152838201602001851015614a1457600080fd5b816020850160208301376000918101602001919091529392505050565b600080600080600080600080610100898b031215614a4e57600080fd5b614a578961495c565b975060208901356001600160401b03811115614a7257600080fd5b614a7e8b828c016149a4565b97505060408901356001600160401b03811115614a9a57600080fd5b614aa68b828c016149a4565b9650506060890135945060808901359350614ac360a08a0161495c565b925060c08901356001600160401b03811115614ade57600080fd5b614aea8b828c016149a4565b925050614af960e08a01614795565b90509295985092959890939650565b60008060408385031215614b1b57600080fd5b82359150614b2b60208401614795565b90509250929050565b81516001600160a01b03168152602082015160a0820190614b5481614818565b8060208401525060408301516040830152606083015160608301526080830151608083015292915050565b60008060408385031215614b9257600080fd5b823591506020830135614ba48161494f565b809150509250929050565b6000602082016020835280845180835260408501915060408160051b86010192506020860160005b82811015614c0857603f19878603018452614bf3858351614845565b94506020938401939190910190600101614bd7565b50929695505050505050565b6001600160a01b038616815260a08101614c2d86614818565b8560208301528460408301528360608301528260808301529695505050505050565b8e8152614c5f602082018f614828565b6101c060408201526000614c776101c083018f6146b5565b8281036060840152614c89818f6146b5565b915050614ca1608083018d6001600160a01b03169052565b8a60a08301528960c08301528860e083015287610100830152614cc8610120830188614835565b614cd6610140830187614828565b84610160830152614cec61018083018515159052565b826101a08301529f9e505050505050505050505050505050565b60208152600061154260208301846146b5565b60208152600061154260208301846146e1565b600080600060608486031215614d4157600080fd5b8335925060208401356001600160401b03811115614d5e57600080fd5b614d6a868287016149a4565b93969395505050506040919091013590565b600080600060608486031215614d9157600080fd5b83359250614da160208501614795565b91506040840135614db18161494f565b809150509250925092565b60008060408385031215614dcf57600080fd5b8235915060208301356001600160401b03811115614dec57600080fd5b614df8858286016149a4565b9150509250929050565b60208082526027908201527f50726564696374696f6e4d61726b65743a20696e76616c6964206f7574636f6d6040820152660ca40d2dcc8caf60cb1b606082015260800190565b60208082526027908201527f50726564696374696f6e4d61726b65743a206d61726b657420646f6573206e6f6040820152661d08195e1a5cdd60ca1b606082015260800190565b60208082526028908201527f50726564696374696f6e4d61726b65743a20757365207072656469637420666f604082015267722042696e61727960c01b606082015260800190565b60208082526023908201527f50726564696374696f6e4d61726b65743a206d61726b6574206e6f742061637460408201526269766560e81b606082015260800190565b6020808252601e908201527f50726564696374696f6e4d61726b65743a206d61726b657420656e6465640000604082015260600190565b60208082526026908201527f50726564696374696f6e4d61726b65743a20616d6f756e742062656c6f77206d604082015265696e696d756d60d01b606082015260800190565b634e487b7160e01b600052601160045260246000fd5b808201808211156109b9576109b9614f98565b6020808252602c908201527f50726564696374696f6e4d61726b65743a2065786365656473206d617820737460408201526b30b5b2903832b9103ab9b2b960a11b606082015260800190565b60208082526022908201527f50726564696374696f6e4d61726b65743a20706f6f6c20636170207265616368604082015261195960f21b606082015260800190565b60208082526027908201527f50726564696374696f6e4d61726b65743a2063616e6e6f74206368616e6765206040820152666f7574636f6d6560c81b606082015260800190565b606081016150a385614818565b938152602081019290925260409091015290565b6020808252602a908201527f50726564696374696f6e4d61726b65743a206e6f7420612043726f7764576973604082015269191bdb481b585c9ad95d60b21b606082015260800190565b634e487b7160e01b600052603260045260246000fd5b600181811c9082168061512b57607f821691505b60208210810361388957634e487b7160e01b600052602260045260246000fd5b60208082526022908201527f50726564696374696f6e4d61726b65743a206d61726b6574206e6f7420656e64604082015261195960f21b606082015260800190565b60208082526022908201527f50726564696374696f6e4d61726b65743a20616c7265616479207265736f6c76604082015261195960f21b606082015260800190565b80820281158282048414176109b9576109b9614f98565b60008261520357634e487b7160e01b600052601260045260246000fd5b500490565b60208082526032908201527f50726564696374696f6e4d61726b65743a206e656564206d696e207374616b6560408201527120746f20637265617465206f7574636f6d6560701b606082015260800190565b60006001820161526c5761526c614f98565b5060010190565b601f821115610d2657806000526020600020601f840160051c8101602085101561529a5750805b601f840160051c820191505b818110156152ba57600081556001016152a6565b5050505050565b81516001600160401b038111156152da576152da61498e565b6152ee816152e88454615117565b84615273565b6020601f821160018114615322576000831561530a5750848201515b600019600385901b1c1916600184901b1784556152ba565b600084815260208120601f198516915b828110156153525787850151825560209485019460019092019101615332565b50848210156153705786840151600019600387901b60f8161c191681555b50505050600190811b01905550565b60208082526027908201527f50726564696374696f6e4d61726b65743a20696e76616c6964206f7574636f6d60408201526619481b1858995b60ca1b606082015260800190565b600082516153d8818460208701614691565b9190910192915050565b6060815260006153f560608301866146b5565b828103602084015261540781866146b5565b915050826040830152949350505050565b60006020828403121561542a57600080fd5b5051919050565b818103818111156109b9576109b9614f98565b600080835461545281615117565b600182168015615469576001811461547e576154ae565b60ff19831686528115158202860193506154ae565b86600052602060002060005b838110156154a65781548882015260019091019060200161548a565b505081860193505b509195945050505050565b60ff81811683821601908111156109b9576109b9614f98565b6000816154e1576154e1614f98565b50600019019056feb85b68154decb96588c26bb139c2c7054bf6437855956cf36cdb0924bb8590619b779b17422d0df92223018b32b4d1fa46e071723d6817e2486d003becc55f00a2646970667358221220de56e23c1ec53772d14c3e1d25241a347784cd7d7585a5cc7289820a017c8d2464736f6c634300081c0033","linkReferences":{}},"methodIdentifiers":{"CREATOR_FEE_BPS()":"cc3cbd2a","DEFAULT_MAX_OUTCOMES()":"4c209e23","MAX_STAKE_PER_USER()":"8517e93c","MIN_STAKE()":"cb1c2b5c","MIN_STAKE_TO_CREATE_OUTCOME()":"1cfe3bb2","PLATFORM_FEE_BPS()":"539aa77f","POOL_CAP()":"cd8d04fb","WINNER_SHARE_BPS()":"83389ef5","calculateOutcomeWinnings(uint256,uint256,uint256)":"7c8fcec8","calculatePotentialWinnings(uint256,uint8,uint256)":"41fdb485","claimPayout(uint256)":"8a69614e","commentAndStake(uint256,string,uint256)":"bcc3b503","createMarket(uint8,string,string,uint256,uint256,uint8,string,address)":"42fcc192","creationFee()":"dce0b4e4","getAllMarketIds()":"b85ed636","getFees(uint256)":"d5a06d4c","getMarketInfo(uint256)":"3ec79193","getMarketOutcomes(uint256)":"12a3bf0e","getMarkets(uint256,uint256)":"80968d48","getOdds(uint256,uint8)":"78dc90be","getOutcomeLabel(uint256,uint256)":"fd6b93d1","getOutcomeOdds(uint256,uint256)":"0d858de9","getOutcomePoolAmount(uint256,uint256)":"45ee84dd","getUserOutcomeStake(uint256,address,uint256)":"b34ba81c","getUserPrediction(uint256,address)":"6ac28cb3","hasClaimed(uint256,address)":"873f6f9e","marketCount()":"ec979082","marketCreators(address)":"1d6c8bc8","marketExists(uint256)":"ec69a654","marketOutcomes(uint256,uint256)":"b402f1f5","markets(uint256)":"b1283e77","maxOutcomesPerMarket(uint256)":"5ee212ef","oracle()":"7dc0d1d0","outcomePoolAmounts(uint256,uint256)":"6af7ff0b","outcomeToIndex(uint256,string)":"f8943292","owner()":"8da5cb5b","pauseMarket(uint256)":"fc12524c","paymentToken()":"3013ce29","poolAmounts(uint256,uint8)":"72272866","predict(uint256,uint8,uint256)":"50ae9716","predictions(uint256,address)":"92b108d0","renounceOwnership()":"715018a6","reputationSystem()":"6587eda1","resolve(uint256,uint8)":"9c0e1608","resolveCrowdWisdom(uint256,uint256)":"1920a73e","setCreationFee(uint256)":"b7d86225","setOracle(address)":"7adbf973","stakeOnOutcome(uint256,uint256,uint256)":"1035e65b","transferOwnership(address)":"f2fde38b","userOutcomeStakes(uint256,address,uint256)":"144a9366","userStakes(uint256,address,uint8)":"f80f8deb","withdrawFees()":"476343ee"},"id":38}