{"abi":[{"type":"constructor","inputs":[{"name":"_paymentToken","type":"address","internalType":"address"},{"name":"_oracle","type":"address","internalType":"address"},{"name":"_reputationSystem","type":"address","internalType":"address"},{"name":"_owner","type":"address","internalType":"address"}],"stateMutability":"nonpayable"},{"type":"function","name":"MAX_STAKE","inputs":[],"outputs":[{"name":"","type":"uint256","internalType":"uint256"}],"stateMutability":"view"},{"type":"function","name":"MIN_STAKE","inputs":[],"outputs":[{"name":"","type":"uint256","internalType":"uint256"}],"stateMutability":"view"},{"type":"function","name":"POOL_CAP","inputs":[],"outputs":[{"name":"","type":"uint256","internalType":"uint256"}],"stateMutability":"view"},{"type":"function","name":"claimPayout","inputs":[{"name":"marketId","type":"uint256","internalType":"uint256"},{"name":"userAddress","type":"address","internalType":"address"}],"outputs":[],"stateMutability":"nonpayable"},{"type":"function","name":"commentAndStake","inputs":[{"name":"marketId","type":"uint256","internalType":"uint256"},{"name":"userAddress","type":"address","internalType":"address"},{"name":"outcomeLabel","type":"string","internalType":"string"},{"name":"amount","type":"uint256","internalType":"uint256"}],"outputs":[{"name":"outcomeIndex","type":"uint256","internalType":"uint256"}],"stateMutability":"nonpayable"},{"type":"function","name":"createMarket","inputs":[{"name":"marketType","type":"uint8","internalType":"enum IPredictionMarket.MarketType"},{"name":"question","type":"string","internalType":"string"},{"name":"category","type":"string","internalType":"string"},{"name":"endTime","type":"uint256","internalType":"uint256"},{"name":"initialStake","type":"uint256","internalType":"uint256"},{"name":"initialSide","type":"uint8","internalType":"enum IPredictionMarket.Outcome"},{"name":"initialOutcomeLabel","type":"string","internalType":"string"},{"name":"creatorAddress","type":"address","internalType":"address"}],"outputs":[{"name":"marketId","type":"uint256","internalType":"uint256"}],"stateMutability":"nonpayable"},{"type":"function","name":"delegations","inputs":[{"name":"","type":"address","internalType":"address"},{"name":"","type":"address","internalType":"address"}],"outputs":[{"name":"","type":"bool","internalType":"bool"}],"stateMutability":"view"},{"type":"function","name":"getMarketInfo","inputs":[{"name":"marketId","type":"uint256","internalType":"uint256"}],"outputs":[{"name":"","type":"tuple","internalType":"struct IPredictionMarket.Market","components":[{"name":"id","type":"uint256","internalType":"uint256"},{"name":"question","type":"string","internalType":"string"},{"name":"category","type":"string","internalType":"string"},{"name":"creator","type":"address","internalType":"address"},{"name":"marketType","type":"uint8","internalType":"enum IPredictionMarket.MarketType"},{"name":"yesPool","type":"uint256","internalType":"uint256"},{"name":"noPool","type":"uint256","internalType":"uint256"},{"name":"totalPool","type":"uint256","internalType":"uint256"},{"name":"endTime","type":"uint256","internalType":"uint256"},{"name":"status","type":"uint8","internalType":"enum IPredictionMarket.MarketStatus"},{"name":"winningOutcome","type":"uint8","internalType":"enum IPredictionMarket.Outcome"},{"name":"resolved","type":"bool","internalType":"bool"}]}],"stateMutability":"view"},{"type":"function","name":"getMarketOutcomes","inputs":[{"name":"marketId","type":"uint256","internalType":"uint256"}],"outputs":[{"name":"labels","type":"string[]","internalType":"string[]"},{"name":"pools","type":"uint256[]","internalType":"uint256[]"}],"stateMutability":"view"},{"type":"function","name":"getUserPrediction","inputs":[{"name":"marketId","type":"uint256","internalType":"uint256"},{"name":"user","type":"address","internalType":"address"}],"outputs":[{"name":"","type":"tuple","internalType":"struct IPredictionMarket.Prediction","components":[{"name":"user","type":"address","internalType":"address"},{"name":"side","type":"uint8","internalType":"enum IPredictionMarket.Outcome"},{"name":"outcomeIndex","type":"uint256","internalType":"uint256"},{"name":"amount","type":"uint256","internalType":"uint256"},{"name":"timestamp","type":"uint256","internalType":"uint256"}]}],"stateMutability":"view"},{"type":"function","name":"grantDelegation","inputs":[{"name":"sessionAccount","type":"address","internalType":"address"}],"outputs":[],"stateMutability":"nonpayable"},{"type":"function","name":"hasClaimed","inputs":[{"name":"marketId","type":"uint256","internalType":"uint256"},{"name":"user","type":"address","internalType":"address"}],"outputs":[{"name":"","type":"bool","internalType":"bool"}],"stateMutability":"view"},{"type":"function","name":"hasClaimedPayout","inputs":[{"name":"","type":"uint256","internalType":"uint256"},{"name":"","type":"address","internalType":"address"}],"outputs":[{"name":"","type":"bool","internalType":"bool"}],"stateMutability":"view"},{"type":"function","name":"hasDelegation","inputs":[{"name":"userAddress","type":"address","internalType":"address"},{"name":"delegateAddress","type":"address","internalType":"address"}],"outputs":[{"name":"","type":"bool","internalType":"bool"}],"stateMutability":"view"},{"type":"function","name":"marketCounter","inputs":[{"name":"","type":"uint256","internalType":"uint256"}],"outputs":[{"name":"","type":"uint256","internalType":"uint256"}],"stateMutability":"view"},{"type":"function","name":"markets","inputs":[{"name":"","type":"uint256","internalType":"uint256"}],"outputs":[{"name":"id","type":"uint256","internalType":"uint256"},{"name":"question","type":"string","internalType":"string"},{"name":"category","type":"string","internalType":"string"},{"name":"creator","type":"address","internalType":"address"},{"name":"marketType","type":"uint8","internalType":"enum IPredictionMarket.MarketType"},{"name":"yesPool","type":"uint256","internalType":"uint256"},{"name":"noPool","type":"uint256","internalType":"uint256"},{"name":"totalPool","type":"uint256","internalType":"uint256"},{"name":"endTime","type":"uint256","internalType":"uint256"},{"name":"status","type":"uint8","internalType":"enum IPredictionMarket.MarketStatus"},{"name":"winningOutcome","type":"uint8","internalType":"enum IPredictionMarket.Outcome"},{"name":"resolved","type":"bool","internalType":"bool"}],"stateMutability":"view"},{"type":"function","name":"oracle","inputs":[],"outputs":[{"name":"","type":"address","internalType":"contract IOracle"}],"stateMutability":"view"},{"type":"function","name":"outcomeLabels","inputs":[{"name":"","type":"uint256","internalType":"uint256"},{"name":"","type":"uint256","internalType":"uint256"}],"outputs":[{"name":"","type":"string","internalType":"string"}],"stateMutability":"view"},{"type":"function","name":"outcomePools","inputs":[{"name":"","type":"uint256","internalType":"uint256"},{"name":"","type":"uint256","internalType":"uint256"}],"outputs":[{"name":"","type":"uint256","internalType":"uint256"}],"stateMutability":"view"},{"type":"function","name":"owner","inputs":[],"outputs":[{"name":"","type":"address","internalType":"address"}],"stateMutability":"view"},{"type":"function","name":"paymentToken","inputs":[],"outputs":[{"name":"","type":"address","internalType":"contract IERC20"}],"stateMutability":"view"},{"type":"function","name":"predict","inputs":[{"name":"marketId","type":"uint256","internalType":"uint256"},{"name":"userAddress","type":"address","internalType":"address"},{"name":"side","type":"uint8","internalType":"enum IPredictionMarket.Outcome"},{"name":"amount","type":"uint256","internalType":"uint256"}],"outputs":[],"stateMutability":"nonpayable"},{"type":"function","name":"predictions","inputs":[{"name":"","type":"uint256","internalType":"uint256"},{"name":"","type":"address","internalType":"address"}],"outputs":[{"name":"user","type":"address","internalType":"address"},{"name":"side","type":"uint8","internalType":"enum IPredictionMarket.Outcome"},{"name":"outcomeIndex","type":"uint256","internalType":"uint256"},{"name":"amount","type":"uint256","internalType":"uint256"},{"name":"timestamp","type":"uint256","internalType":"uint256"}],"stateMutability":"view"},{"type":"function","name":"renounceOwnership","inputs":[],"outputs":[],"stateMutability":"nonpayable"},{"type":"function","name":"reputationSystem","inputs":[],"outputs":[{"name":"","type":"address","internalType":"contract IReputationSystem"}],"stateMutability":"view"},{"type":"function","name":"resolveMarket","inputs":[{"name":"marketId","type":"uint256","internalType":"uint256"},{"name":"winningOutcome","type":"uint8","internalType":"enum IPredictionMarket.Outcome"},{"name":"winningOutcomeIndex","type":"uint256","internalType":"uint256"}],"outputs":[],"stateMutability":"nonpayable"},{"type":"function","name":"revokeDelegation","inputs":[{"name":"sessionAccount","type":"address","internalType":"address"}],"outputs":[],"stateMutability":"nonpayable"},{"type":"function","name":"setOracle","inputs":[{"name":"_oracle","type":"address","internalType":"address"}],"outputs":[],"stateMutability":"nonpayable"},{"type":"function","name":"setReputationSystem","inputs":[{"name":"_reputationSystem","type":"address","internalType":"address"}],"outputs":[],"stateMutability":"nonpayable"},{"type":"function","name":"stakeOnOutcome","inputs":[{"name":"marketId","type":"uint256","internalType":"uint256"},{"name":"userAddress","type":"address","internalType":"address"},{"name":"outcomeIndex","type":"uint256","internalType":"uint256"},{"name":"amount","type":"uint256","internalType":"uint256"}],"outputs":[],"stateMutability":"nonpayable"},{"type":"function","name":"transferOwnership","inputs":[{"name":"newOwner","type":"address","internalType":"address"}],"outputs":[],"stateMutability":"nonpayable"},{"type":"event","name":"DelegationGranted","inputs":[{"name":"user","type":"address","indexed":true,"internalType":"address"},{"name":"delegate","type":"address","indexed":true,"internalType":"address"}],"anonymous":false},{"type":"event","name":"DelegationRevoked","inputs":[{"name":"user","type":"address","indexed":true,"internalType":"address"},{"name":"delegate","type":"address","indexed":true,"internalType":"address"}],"anonymous":false},{"type":"event","name":"MarketCreated","inputs":[{"name":"marketId","type":"uint256","indexed":true,"internalType":"uint256"},{"name":"creator","type":"address","indexed":true,"internalType":"address"},{"name":"question","type":"string","indexed":false,"internalType":"string"},{"name":"category","type":"string","indexed":false,"internalType":"string"},{"name":"endTime","type":"uint256","indexed":false,"internalType":"uint256"}],"anonymous":false},{"type":"event","name":"MarketResolved","inputs":[{"name":"marketId","type":"uint256","indexed":true,"internalType":"uint256"},{"name":"winningOutcome","type":"uint8","indexed":false,"internalType":"uint8"},{"name":"winningOutcomeIndex","type":"uint256","indexed":false,"internalType":"uint256"},{"name":"totalPayout","type":"uint256","indexed":false,"internalType":"uint256"}],"anonymous":false},{"type":"event","name":"OwnershipTransferred","inputs":[{"name":"previousOwner","type":"address","indexed":true,"internalType":"address"},{"name":"newOwner","type":"address","indexed":true,"internalType":"address"}],"anonymous":false},{"type":"event","name":"PayoutClaimed","inputs":[{"name":"marketId","type":"uint256","indexed":true,"internalType":"uint256"},{"name":"user","type":"address","indexed":true,"internalType":"address"},{"name":"amount","type":"uint256","indexed":false,"internalType":"uint256"}],"anonymous":false},{"type":"event","name":"PredictionMade","inputs":[{"name":"marketId","type":"uint256","indexed":true,"internalType":"uint256"},{"name":"user","type":"address","indexed":true,"internalType":"address"},{"name":"side","type":"uint8","indexed":false,"internalType":"uint8"},{"name":"outcomeIndex","type":"uint256","indexed":false,"internalType":"uint256"},{"name":"amount","type":"uint256","indexed":false,"internalType":"uint256"}],"anonymous":false},{"type":"error","name":"OwnableInvalidOwner","inputs":[{"name":"owner","type":"address","internalType":"address"}]},{"type":"error","name":"OwnableUnauthorizedAccount","inputs":[{"name":"account","type":"address","internalType":"address"}]},{"type":"error","name":"ReentrancyGuardReentrantCall","inputs":[]},{"type":"error","name":"SafeERC20FailedOperation","inputs":[{"name":"token","type":"address","internalType":"address"}]}],"bytecode":{"object":"0x60a060405234801561001057600080fd5b50604051613c18380380613c1883398101604081905261002f9161012f565b8060017f9b779b17422d0df92223018b32b4d1fa46e071723d6817e2486d003becc55f00556001600160a01b03811661008257604051631e4fbdf760e01b81526000600482015260240160405180910390fd5b61008b816100c3565b50506001600160a01b03928316608052600180549284166001600160a01b031993841617905560028054919093169116179055610183565b600080546001600160a01b038381166001600160a01b0319831681178455604051919092169283917f8be0079c531659141344cd1fd0a4f28419497f9722a3daafe3b4186f6b6457e09190a35050565b80516001600160a01b038116811461012a57600080fd5b919050565b6000806000806080858703121561014557600080fd5b61014e85610113565b935061015c60208601610113565b925061016a60408601610113565b915061017860608601610113565b905092959194509250565b608051613a576101c16000396000818161024b0152818161080b01528181610df3015281816116d00152818161224001526127550152613a576000f3fe608060405234801561001057600080fd5b50600436106101e55760003560e01c8063873f6f9e1161010f578063c98517c5116100a2578063da52679c11610071578063da52679c14610536578063e8429b9e14610556578063e9ac057114610584578063f2fde38b1461059757600080fd5b8063c98517c514610504578063c9aebe131461050f578063cb1c2b5c14610522578063cd8d04fb1461052b57600080fd5b806392b108d0116100de57806392b108d014610433578063b0110cc614610498578063b1283e77146104ab578063c64814dd146104d657600080fd5b8063873f6f9e1461038a57806389727301146103d35780638da5cb5b146103e65780638e7a075c146103f757600080fd5b8063491aa412116101875780637adbf973116101565780637adbf973146103265780637dc0d1d014610339578063808d50141461034c57806383bd24671461035f57600080fd5b8063491aa412146102cb5780636587eda1146102eb5780636ac28cb3146102fe578063715018a61461031e57600080fd5b80633013ce29116101c35780633013ce291461024657806331143cee146102855780633ec791931461029857806342fcc192146102b857600080fd5b8063101d7d07146101ea57806312a3bf0e1461021057806312ff5a5d14610231575b600080fd5b6101fd6101f8366004612fb2565b6105aa565b6040519081526020015b60405180910390f35b61022361021e366004613011565b610a32565b604051610207929190613070565b61024461023f36600461312c565b610bf6565b005b61026d7f000000000000000000000000000000000000000000000000000000000000000081565b6040516001600160a01b039091168152602001610207565b610244610293366004613172565b611042565b6102ab6102a6366004613011565b6110d6565b60405161020791906131d7565b6101fd6102c63660046132b6565b611323565b6102de6102d9366004613390565b6119a7565b60405161020791906133b2565b60025461026d906001600160a01b031681565b61031161030c3660046133c5565b611a60565b60405161020791906133f1565b610244611b26565b610244610334366004613172565b611b3a565b60015461026d906001600160a01b031681565b61024461035a366004613172565b611bba565b6101fd61036d366004613390565b600760209081526000928352604080842090915290825290205481565b6103c36103983660046133c5565b60009182526005602090815260408084206001600160a01b0393909316845291905290205460ff1690565b6040519015158152602001610207565b6102446103e136600461343c565b611c10565b6000546001600160a01b031661026d565b6103c3610405366004613474565b6001600160a01b03918216600090815260096020908152604080832093909416825291909152205460ff1690565b6104876104413660046133c5565b600460209081526000928352604080842090915290825290208054600182015460028301546003909301546001600160a01b03831693600160a01b90930460ff16929085565b60405161020795949392919061349e565b6102446104a63660046133c5565b611e49565b6104be6104b9366004613011565b6123a9565b6040516102079c9b9a999897969594939291906134d9565b6103c36104e4366004613474565b600960209081526000928352604080842090915290825290205460ff1681565b6101fd6301312d0081565b61024461051d366004613579565b61252c565b6101fd6161a881565b6101fd633b9aca0081565b6101fd610544366004613011565b60086020526000908152604090205481565b6103c36105643660046133c5565b600560209081526000928352604080842090915290825290205460ff1681565b610244610592366004613172565b612958565b6102446105a5366004613172565b612a7c565b60006105b4612aba565b6000858152600360205260408120548691036105eb5760405162461bcd60e51b81526004016105e2906135b4565b60405180910390fd5b60008181526003602052604081206008015460ff16600281111561061157610611613194565b1461062e5760405162461bcd60e51b81526004016105e2906135f6565b6001600160a01b0385166106545760405162461bcd60e51b81526004016105e290613639565b60008451116106a55760405162461bcd60e51b815260206004820152601f60248201527f50726564696374696f6e4d61726b65743a20656d707479206f7574636f6d650060448201526064016105e2565b6161a88310156106c75760405162461bcd60e51b81526004016105e290613670565b6301312d008311156106eb5760405162461bcd60e51b81526004016105e2906136a7565b600160008781526003602081905260409091200154600160a01b900460ff16600181111561071b5761071b613194565b146107385760405162461bcd60e51b81526004016105e2906136dc565b60008681526003602052604090206007015442106107685760405162461bcd60e51b81526004016105e290613727565b6107728685612ad6565b915060001982036107ab57600086815260066020908152604082208054600181018255908352912090925082016107a985826137e6565b505b60008681526004602090815260408083206001600160a01b03891684529091529020600201546301312d006107e085836138bb565b11156107fe5760405162461bcd60e51b81526004016105e2906138ce565b6108336001600160a01b037f000000000000000000000000000000000000000000000000000000000000000016333087612c08565b60008781526007602090815260408083208684529091528120805486929061085c9084906138bb565b9091555050600087815260036020526040812060060180548692906108829084906138bb565b909155505080156109115760008781526004602090815260408083206001600160a01b038a16845290915290206001015483146108d15760405162461bcd60e51b81526004016105e290613911565b60008781526004602090815260408083206001600160a01b038a168452909152812060020180548692906109069084906138bb565b909155506109c29050565b6040805160a0810182526001600160a01b03888116808352600060208085018281528587018a9052606086018b90524260808701528d835260048252868320938352929052939093208251815492166001600160a01b03198316811782559351929390929183916001600160a81b031990911617600160a01b83600181111561099c5761099c613194565b021790555060408201516001820155606082015160028201556080909101516003909101555b6040805160008152602081018590529081018590526001600160a01b0387169088907fb85b68154decb96588c26bb139c2c7054bf6437855956cf36cdb0924bb8590619060600160405180910390a35050610a2a6001600080516020613a0283398151915255565b949350505050565b606080600160008481526003602081905260409091200154600160a01b900460ff166001811115610a6557610a65613194565b14610a825760405162461bcd60e51b81526004016105e2906136dc565b600083815260066020908152604080832080548251818502810185019093528083529193909284015b82821015610b57578382906000526020600020018054610aca9061375e565b80601f0160208091040260200160405190810160405280929190818152602001828054610af69061375e565b8015610b435780601f10610b1857610100808354040283529160200191610b43565b820191906000526020600020905b815481529060010190602001808311610b2657829003601f168201915b505050505081526020019060010190610aab565b505050509150815167ffffffffffffffff811115610b7757610b77612f0d565b604051908082528060200260200182016040528015610ba0578160200160208202803683370190505b50905060005b8251811015610bf05760008481526007602090815260408083208484529091529020548251839083908110610bdd57610bdd613963565b6020908102919091010152600101610ba6565b50915091565b610bfe612aba565b600084815260036020526040812054859103610c2c5760405162461bcd60e51b81526004016105e2906135b4565b60008181526003602052604081206008015460ff166002811115610c5257610c52613194565b14610c6f5760405162461bcd60e51b81526004016105e2906135f6565b6001600160a01b038416610c955760405162461bcd60e51b81526004016105e290613639565b6161a8821015610cb75760405162461bcd60e51b81526004016105e290613670565b6301312d00821115610cdb5760405162461bcd60e51b81526004016105e2906136a7565b600085815260036020819052604082200154600160a01b900460ff166001811115610d0857610d08613194565b14610d635760405162461bcd60e51b815260206004820152602560248201527f50726564696374696f6e4d61726b65743a206e6f7420612062696e617279206d604482015264185c9ad95d60da1b60648201526084016105e2565b6000858152600360205260409020600701544210610d935760405162461bcd60e51b81526004016105e290613727565b60008581526004602090815260408083206001600160a01b03881684529091529020600201546301312d00610dc884836138bb565b1115610de65760405162461bcd60e51b81526004016105e2906138ce565b610e1b6001600160a01b037f000000000000000000000000000000000000000000000000000000000000000016333086612c08565b6000846001811115610e2f57610e2f613194565b03610e605760008681526003602052604081206004018054859290610e559084906138bb565b90915550610e879050565b60008681526003602052604081206005018054859290610e819084906138bb565b90915550505b60008681526003602052604081206006018054859290610ea89084906138bb565b90915550508015610ef35760008681526004602090815260408083206001600160a01b038916845290915281206002018054859290610ee89084906138bb565b90915550610fc29050565b6040518060a00160405280866001600160a01b03168152602001856001811115610f1f57610f1f613194565b815260006020808301829052604080840188905242606090940193909352898252600481528282206001600160a01b03808b168452908252929091208351815493166001600160a01b0319841681178255918401519092909183916001600160a81b03191617600160a01b836001811115610f9c57610f9c613194565b021790555060408201516001820155606082015160028201556080909101516003909101555b846001600160a01b0316867fb85b68154decb96588c26bb139c2c7054bf6437855956cf36cdb0924bb85906186600181111561100057611000613194565b6040805160ff90921682526000602083015281018790526060015b60405180910390a3505061103c6001600080516020613a0283398151915255565b50505050565b61104a612c3e565b6001600160a01b0381166110b45760405162461bcd60e51b815260206004820152602b60248201527f50726564696374696f6e4d61726b65743a20696e76616c69642072657075746160448201526a74696f6e2073797374656d60a81b60648201526084016105e2565b600280546001600160a01b0319166001600160a01b0392909216919091179055565b6110de612e65565b6003600083815260200190815260200160002060405180610180016040529081600082015481526020016001820180546111179061375e565b80601f01602080910402602001604051908101604052809291908181526020018280546111439061375e565b80156111905780601f1061116557610100808354040283529160200191611190565b820191906000526020600020905b81548152906001019060200180831161117357829003601f168201915b505050505081526020016002820180546111a99061375e565b80601f01602080910402602001604051908101604052809291908181526020018280546111d59061375e565b80156112225780601f106111f757610100808354040283529160200191611222565b820191906000526020600020905b81548152906001019060200180831161120557829003601f168201915b505050918352505060038201546001600160a01b0381166020830152604090910190600160a01b900460ff16600181111561125f5761125f613194565b600181111561127057611270613194565b815260048201546020820152600582015460408201526006820154606082015260078201546080820152600882015460a09091019060ff1660028111156112b9576112b9613194565b60028111156112ca576112ca613194565b81526020016008820160019054906101000a900460ff1660018111156112f2576112f2613194565b600181111561130357611303613194565b81526008919091015462010000900460ff16151560209091015292915050565b600061132d612aba565b600088511161137e5760405162461bcd60e51b815260206004820181905260248201527f50726564696374696f6e4d61726b65743a20656d707479207175657374696f6e60448201526064016105e2565b60008751116113cf5760405162461bcd60e51b815260206004820181905260248201527f50726564696374696f6e4d61726b65743a20656d7074792063617465676f727960448201526064016105e2565b4286116114295760405162461bcd60e51b815260206004820152602260248201527f50726564696374696f6e4d61726b65743a20696e76616c696420656e642074696044820152616d6560f01b60648201526084016105e2565b6161a885101561144b5760405162461bcd60e51b81526004016105e290613670565b6301312d0085111561146f5760405162461bcd60e51b81526004016105e2906136a7565b6001600160a01b0382166114cf5760405162461bcd60e51b815260206004820152602160248201527f50726564696374696f6e4d61726b65743a20696e76616c69642063726561746f6044820152603960f91b60648201526084016105e2565b6001600090815260086020527fad67d757c34507f157cacfa2e3153e9f260a2244f30428821be7be64587ac55f805490919061150a90613979565b9190508190559050604051806101800160405280828152602001898152602001888152602001836001600160a01b031681526020018a600181111561155157611551613194565b81526020016000815260200160008152602001600081526020018781526020016000600281111561158457611584613194565b815260200160008152600060209182018190528381526003825260409020825181559082015160018201906115b990826137e6565b50604082015160028201906115ce90826137e6565b5060608201516003820180546001600160a01b039092166001600160a01b03198316811782556080850151926001600160a81b03191617600160a01b83600181111561161c5761161c613194565b021790555060a0820151600482015560c0820151600582015560e08201516006820155610100820151600782015561012082015160088201805460ff1916600183600281111561166e5761166e613194565b021790555061014082015160088201805461ff00191661010083600181111561169957611699613194565b0217905550610160919091015160089091018054911515620100000262ff0000199092169190911790556116f86001600160a01b037f000000000000000000000000000000000000000000000000000000000000000016333088612c08565b600089600181111561170c5761170c613194565b0361184057600084600181111561172557611725613194565b03611743576000818152600360205260409020600401859055611758565b60008181526003602052604090206005018590555b600081815260036020908152604091829020600601879055815160a081019092526001600160a01b0384168252810185600181111561179957611799613194565b81526000602080830182905260408084018a905242606090940193909352848252600481528282206001600160a01b038088168452908252929091208351815493166001600160a01b0319841681178255918401519092909183916001600160a81b03191617600160a01b83600181111561181657611816613194565b0217905550604082015160018201556060820151600282015560809091015160039091015561193e565b60008181526006602090815260408220805460018101825590835291200161186884826137e6565b506000818152600760209081526040808320838052825280832088905583835260038252808320600601889055805160a0810182526001600160a01b03868116808352828501868152838501879052606084018c9052426080850152878752600486528487209187529452919093208351815492166001600160a01b031983168117825592519092909183916001600160a81b031990911617600160a01b83600181111561191857611918613194565b021790555060408201516001820155606082015160028201556080909101516003909101555b816001600160a01b0316817fb964ec62ce8297156f9b8af2d30a75fe682aa65bdc010b422c15b3feda3db1038a8a8a60405161197c93929190613992565b60405180910390a361199b6001600080516020613a0283398151915255565b98975050505050505050565b600660205281600052604060002081815481106119c357600080fd5b906000526020600020016000915091505080546119df9061375e565b80601f0160208091040260200160405190810160405280929190818152602001828054611a0b9061375e565b8015611a585780601f10611a2d57610100808354040283529160200191611a58565b820191906000526020600020905b815481529060010190602001808311611a3b57829003601f168201915b505050505081565b611a936040805160a081019091526000808252602082019081526020016000815260200160008152602001600081525090565b60008381526004602090815260408083206001600160a01b03868116855290835292819020815160a081019092528054938416825290929091830190600160a01b900460ff166001811115611aea57611aea613194565b6001811115611afb57611afb613194565b8152602001600182015481526020016002820154815260200160038201548152505090505b92915050565b611b2e612c3e565b611b386000612c6b565b565b611b42612c3e565b6001600160a01b038116611b985760405162461bcd60e51b815260206004820181905260248201527f50726564696374696f6e4d61726b65743a20696e76616c6964206f7261636c6560448201526064016105e2565b600180546001600160a01b0319166001600160a01b0392909216919091179055565b3360008181526009602090815260408083206001600160a01b0386168085529252808320805460ff19169055519092917f6f0412fa95f7f48ec7dc7631b382833d8eae9cf4082e5e859b94d091a4a846d491a350565b6001546001600160a01b03163314611c6a5760405162461bcd60e51b815260206004820152601d60248201527f50726564696374696f6e4d61726b65743a206f6e6c79206f7261636c6500000060448201526064016105e2565b611c72612aba565b6000838152600360205260408120549003611c9f5760405162461bcd60e51b81526004016105e2906135b4565b60008381526003602052604090206008015462010000900460ff1615611d125760405162461bcd60e51b815260206004820152602260248201527f50726564696374696f6e4d61726b65743a20616c7265616479207265736f6c76604482015261195960f21b60648201526084016105e2565b600083815260036020526040902060070154421015611d7e5760405162461bcd60e51b815260206004820152602260248201527f50726564696374696f6e4d61726b65743a206d61726b6574206e6f7420656e64604482015261195960f21b60648201526084016105e2565b600083815260036020526040902060080180546201000162ff00ff1982168117835584929162ffffff191617610100836001811115611dbf57611dbf613194565b0217905550600083815260036020526040902060060154837f503d167e0856e2f40aaac2dac6550f9543efb837691cc189cde53b0172e4f32b846001811115611e0a57611e0a613194565b6040805160ff909216825260208201869052810184905260600160405180910390a250611e446001600080516020613a0283398151915255565b505050565b611e51612aba565b60008281526003602052604090206008015462010000900460ff16611ec65760405162461bcd60e51b815260206004820152602560248201527f50726564696374696f6e4d61726b65743a206d61726b6574206e6f74207265736044820152641bdb1d995960da1b60648201526084016105e2565b60008281526005602090815260408083206001600160a01b038516845290915290205460ff1615611f435760405162461bcd60e51b815260206004820152602160248201527f50726564696374696f6e4d61726b65743a20616c726561647920636c61696d656044820152601960fa1b60648201526084016105e2565b6001600160a01b038116611f695760405162461bcd60e51b81526004016105e290613639565b60008281526004602090815260408083206001600160a01b038581168552908352818420825160a08101909352805491821683529192830190600160a01b900460ff166001811115611fbd57611fbd613194565b6001811115611fce57611fce613194565b81526020016001820154815260200160028201548152602001600382015481525050905060008160600151116120465760405162461bcd60e51b815260206004820152601f60248201527f50726564696374696f6e4d61726b65743a206e6f2070726564696374696f6e0060448201526064016105e2565b6000808060008681526003602081905260409091200154600160a01b900460ff16600181111561207857612078613194565b036120c657600085815260036020526040902060080154610100900460ff1660018111156120a8576120a8613194565b836020015160018111156120be576120be613194565b1491506120db565b60006120d186612cbb565b6040850151149250505b811561220057600085815260036020819052604082200154600160a01b900460ff16600181111561210e5761210e613194565b036121a857600080600087815260036020526040902060080154610100900460ff16600181111561214157612141613194565b1461215d57600086815260036020526040902060050154612170565b6000868152600360205260409020600401545b6000878152600360205260409020600601546060860151919250829161219691906139c8565b6121a091906139df565b915050612200565b60006121b386612cbb565b60008781526007602090815260408083208484528252808320548a84526003909252909120600601546060870151929350909182916121f1916139c8565b6121fb91906139df565b925050505b60008581526005602090815260408083206001600160a01b03881684529091529020805460ff1916600117905580156122d9576122676001600160a01b037f0000000000000000000000000000000000000000000000000000000000000000163383612d28565b600254604051632479790560e11b81526001600160a01b0386811660048301526001602483015260448201849052909116906348f2f20a90606401600060405180830381600087803b1580156122bc57600080fd5b505af11580156122d0573d6000803e3d6000fd5b50505050612347565b600254604051632479790560e11b81526001600160a01b0386811660048301526000602483018190526044830152909116906348f2f20a90606401600060405180830381600087803b15801561232e57600080fd5b505af1158015612342573d6000803e3d6000fd5b505050505b836001600160a01b0316857fe97cee5a4c0549d3fdc81e322b718ddf0aeb3418ec87dce4f9a7fb28d117c3128360405161238391815260200190565b60405180910390a35050506123a56001600080516020613a0283398151915255565b5050565b600360205260009081526040902080546001820180549192916123cb9061375e565b80601f01602080910402602001604051908101604052809291908181526020018280546123f79061375e565b80156124445780601f1061241957610100808354040283529160200191612444565b820191906000526020600020905b81548152906001019060200180831161242757829003601f168201915b5050505050908060020180546124599061375e565b80601f01602080910402602001604051908101604052809291908181526020018280546124859061375e565b80156124d25780601f106124a7576101008083540402835291602001916124d2565b820191906000526020600020905b8154815290600101906020018083116124b557829003601f168201915b5050506003840154600485015460058601546006870154600788015460089098015496976001600160a01b0385169760ff600160a01b9096048616975093955091939092808216916101008204811691620100009004168c565b612534612aba565b6000848152600360205260408120548591036125625760405162461bcd60e51b81526004016105e2906135b4565b60008181526003602052604081206008015460ff16600281111561258857612588613194565b146125a55760405162461bcd60e51b81526004016105e2906135f6565b6001600160a01b0384166125cb5760405162461bcd60e51b81526004016105e290613639565b6161a88210156125ed5760405162461bcd60e51b81526004016105e290613670565b6301312d008211156126115760405162461bcd60e51b81526004016105e2906136a7565b600160008681526003602081905260409091200154600160a01b900460ff16600181111561264157612641613194565b1461265e5760405162461bcd60e51b81526004016105e2906136dc565b600085815260036020526040902060070154421061268e5760405162461bcd60e51b81526004016105e290613727565b60008581526006602052604090205483106126f55760405162461bcd60e51b815260206004820152602160248201527f50726564696374696f6e4d61726b65743a20696e76616c6964206f7574636f6d6044820152606560f81b60648201526084016105e2565b60008581526004602090815260408083206001600160a01b03881684529091529020600201546301312d0061272a84836138bb565b11156127485760405162461bcd60e51b81526004016105e2906138ce565b61277d6001600160a01b037f000000000000000000000000000000000000000000000000000000000000000016333086612c08565b6000868152600760209081526040808320878452909152812080548592906127a69084906138bb565b9091555050600086815260036020526040812060060180548592906127cc9084906138bb565b9091555050801561285b5760008681526004602090815260408083206001600160a01b0389168452909152902060010154841461281b5760405162461bcd60e51b81526004016105e290613911565b60008681526004602090815260408083206001600160a01b0389168452909152812060020180548592906128509084906138bb565b9091555061290c9050565b6040805160a0810182526001600160a01b03878116808352600060208085018281528587018b9052606086018a90524260808701528c835260048252868320938352929052939093208251815492166001600160a01b03198316811782559351929390929183916001600160a81b031990911617600160a01b8360018111156128e6576128e6613194565b021790555060408201516001820155606082015160028201556080909101516003909101555b6040805160008152602081018690529081018490526001600160a01b0386169087907fb85b68154decb96588c26bb139c2c7054bf6437855956cf36cdb0924bb8590619060600161101b565b6001600160a01b0381166129b95760405162461bcd60e51b815260206004820152602260248201527f50726564696374696f6e4d61726b65743a20696e76616c69642064656c656761604482015261746560f01b60648201526084016105e2565b336001600160a01b03821603612a235760405162461bcd60e51b815260206004820152602960248201527f50726564696374696f6e4d61726b65743a2063616e6e6f742064656c6567617460448201526832903a379039b2b63360b91b60648201526084016105e2565b3360008181526009602090815260408083206001600160a01b0386168085529252808320805460ff19166001179055519092917fa324dbc73b256ae6bed1d2d0cbc5d6a92b9565f61e7a57fffc6099958b750ec091a350565b612a84612c3e565b6001600160a01b038116612aae57604051631e4fbdf760e01b8152600060048201526024016105e2565b612ab781612c6b565b50565b612ac2612d5d565b6002600080516020613a0283398151915255565b600082815260066020908152604080832080548251818502810185019093528083528493849084015b82821015612bab578382906000526020600020018054612b1e9061375e565b80601f0160208091040260200160405190810160405280929190818152602001828054612b4a9061375e565b8015612b975780601f10612b6c57610100808354040283529160200191612b97565b820191906000526020600020905b815481529060010190602001808311612b7a57829003601f168201915b505050505081526020019060010190612aff565b50505050905060005b8151811015612bfc578380519060200120828281518110612bd757612bd7613963565b60200260200101518051906020012003612bf4579150611b209050565b600101612bb4565b50600019949350505050565b612c16848484846001612d8d565b61103c57604051635274afe760e01b81526001600160a01b03851660048201526024016105e2565b6000546001600160a01b03163314611b385760405163118cdaa760e01b81523360048201526024016105e2565b600080546001600160a01b038381166001600160a01b0319831681178455604051919092169283917f8be0079c531659141344cd1fd0a4f28419497f9722a3daafe3b4186f6b6457e09190a35050565b60008080805b600085815260066020526040902054811015612d20576000858152600760209081526040808320848452909152902054831015612d1857600085815260076020908152604080832084845290915290205492509050805b600101612cc1565b509392505050565b612d358383836001612dff565b611e4457604051635274afe760e01b81526001600160a01b03841660048201526024016105e2565b600080516020613a0283398151915254600203611b3857604051633ee5aeb560e01b815260040160405180910390fd5b6040516323b872dd60e01b60008181526001600160a01b038781166004528616602452604485905291602083606481808c5af192506001600051148316612ded578383151615612de0573d6000823e3d81fd5b6000883b113d1516831692505b60405250600060605295945050505050565b60405163a9059cbb60e01b60008181526001600160a01b038616600452602485905291602083604481808b5af192506001600051148316612e59578383151615612e4c573d6000823e3d81fd5b6000873b113d1516831692505b60405250949350505050565b60405180610180016040528060008152602001606081526020016060815260200160006001600160a01b0316815260200160006001811115612ea957612ea9613194565b81526020016000815260200160008152602001600081526020016000815260200160006002811115612edd57612edd613194565b815260200160008152600060209091015290565b80356001600160a01b0381168114612f0857600080fd5b919050565b634e487b7160e01b600052604160045260246000fd5b600082601f830112612f3457600080fd5b813567ffffffffffffffff811115612f4e57612f4e612f0d565b604051601f8201601f19908116603f0116810167ffffffffffffffff81118282101715612f7d57612f7d612f0d565b604052818152838201602001851015612f9557600080fd5b816020850160208301376000918101602001919091529392505050565b60008060008060808587031215612fc857600080fd5b84359350612fd860208601612ef1565b9250604085013567ffffffffffffffff811115612ff457600080fd5b61300087828801612f23565b949793965093946060013593505050565b60006020828403121561302357600080fd5b5035919050565b6000815180845260005b8181101561305057602081850181015186830182015201613034565b506000602082860101526020601f19601f83011685010191505092915050565b6000604082016040835280855180835260608501915060608160051b86010192506020870160005b828110156130c957605f198786030184526130b485835161302a565b94506020938401939190910190600101613098565b50505050828103602084015280845180835260208301915060208601925060005b818110156131085783518352602093840193909201916001016130ea565b50909695505050505050565b60028110612ab757600080fd5b8035612f0881613114565b6000806000806080858703121561314257600080fd5b8435935061315260208601612ef1565b9250604085013561316281613114565b9396929550929360600135925050565b60006020828403121561318457600080fd5b61318d82612ef1565b9392505050565b634e487b7160e01b600052602160045260246000fd5b60028110612ab757612ab7613194565b6131c3816131aa565b9052565b600381106131c3576131c3613194565b60208152815160208201526000602083015161018060408401526131ff6101a084018261302a565b90506040840151601f1984830301606085015261321c828261302a565b915050606084015161323960808501826001600160a01b03169052565b50608084015161324c60a08501826131ba565b5060a084015160c084015260c084015160e084015260e084015161010084015261010084015161012084015261012084015161328c6101408501826131c7565b506101408401516132a16101608501826131ba565b50610160840151801515610180850152612d20565b600080600080600080600080610100898b0312156132d357600080fd5b6132dc89613121565b9750602089013567ffffffffffffffff8111156132f857600080fd5b6133048b828c01612f23565b975050604089013567ffffffffffffffff81111561332157600080fd5b61332d8b828c01612f23565b965050606089013594506080890135935061334a60a08a01613121565b925060c089013567ffffffffffffffff81111561336657600080fd5b6133728b828c01612f23565b92505061338160e08a01612ef1565b90509295985092959890939650565b600080604083850312156133a357600080fd5b50508035926020909101359150565b60208152600061318d602083018461302a565b600080604083850312156133d857600080fd5b823591506133e860208401612ef1565b90509250929050565b81516001600160a01b03168152602082015160a0820190613411816131aa565b8060208401525060408301516040830152606083015160608301526080830151608083015292915050565b60008060006060848603121561345157600080fd5b83359250602084013561346381613114565b929592945050506040919091013590565b6000806040838503121561348757600080fd5b61349083612ef1565b91506133e860208401612ef1565b6001600160a01b038616815260a081016134b7866131aa565b8560208301528460408301528360608301528260808301529695505050505050565b8c8152610180602082015260006134f461018083018e61302a565b8281036040840152613506818e61302a565b6001600160a01b038d166060850152915061352290508a6131aa565b8960808301528860a08301528760c08301528660e08301528561010083015261354f6101208301866131c7565b613558846131aa565b836101408301528215156101608301529d9c50505050505050505050505050565b6000806000806080858703121561358f57600080fd5b8435935061359f60208601612ef1565b93969395505050506040820135916060013590565b60208082526022908201527f50726564696374696f6e4d61726b65743a206d61726b6574206e6f7420666f756040820152611b9960f21b606082015260800190565b60208082526023908201527f50726564696374696f6e4d61726b65743a206d61726b6574206e6f742061637460408201526269766560e81b606082015260800190565b6020808252601e908201527f50726564696374696f6e4d61726b65743a20696e76616c696420757365720000604082015260600190565b6020808252601f908201527f50726564696374696f6e4d61726b65743a207374616b6520746f6f206c6f7700604082015260600190565b6020808252818101527f50726564696374696f6e4d61726b65743a207374616b6520746f6f2068696768604082015260600190565b6020808252602b908201527f50726564696374696f6e4d61726b65743a206e6f7420612063726f776420776960408201526a1cd91bdb481b585c9ad95d60aa1b606082015260800190565b6020808252601f908201527f50726564696374696f6e4d61726b65743a206d61726b657420636c6f73656400604082015260600190565b600181811c9082168061377257607f821691505b60208210810361379257634e487b7160e01b600052602260045260246000fd5b50919050565b601f821115611e4457806000526020600020601f840160051c810160208510156137bf5750805b601f840160051c820191505b818110156137df57600081556001016137cb565b5050505050565b815167ffffffffffffffff81111561380057613800612f0d565b6138148161380e845461375e565b84613798565b6020601f82116001811461384857600083156138305750848201515b600019600385901b1c1916600184901b1784556137df565b600084815260208120601f198516915b828110156138785787850151825560209485019460019092019101613858565b50848210156138965786840151600019600387901b60f8161c191681555b50505050600190811b01905550565b634e487b7160e01b600052601160045260246000fd5b80820180821115611b2057611b206138a5565b60208082526023908201527f50726564696374696f6e4d61726b65743a2065786365656473206d6178207374604082015262616b6560e81b606082015260800190565b60208082526032908201527f50726564696374696f6e4d61726b65743a2063616e206f6e6c792061646420746040820152716f206578697374696e67206f7574636f6d6560701b606082015260800190565b634e487b7160e01b600052603260045260246000fd5b60006001820161398b5761398b6138a5565b5060010190565b6060815260006139a5606083018661302a565b82810360208401526139b7818661302a565b915050826040830152949350505050565b8082028115828204841417611b2057611b206138a5565b6000826139fc57634e487b7160e01b600052601260045260246000fd5b50049056fe9b779b17422d0df92223018b32b4d1fa46e071723d6817e2486d003becc55f00a26469706673582212206bb9804f04aaba893d4f360b43012c13d48313afdb235d082b2602054b8eac3e64736f6c634300081c0033","linkReferences":{}},"methodIdentifiers":{"MAX_STAKE()":"c98517c5","MIN_STAKE()":"cb1c2b5c","POOL_CAP()":"cd8d04fb","claimPayout(uint256,address)":"b0110cc6","commentAndStake(uint256,address,string,uint256)":"101d7d07","createMarket(uint8,string,string,uint256,uint256,uint8,string,address)":"42fcc192","delegations(address,address)":"c64814dd","getMarketInfo(uint256)":"3ec79193","getMarketOutcomes(uint256)":"12a3bf0e","getUserPrediction(uint256,address)":"6ac28cb3","grantDelegation(address)":"e9ac0571","hasClaimed(uint256,address)":"873f6f9e","hasClaimedPayout(uint256,address)":"e8429b9e","hasDelegation(address,address)":"8e7a075c","marketCounter(uint256)":"da52679c","markets(uint256)":"b1283e77","oracle()":"7dc0d1d0","outcomeLabels(uint256,uint256)":"491aa412","outcomePools(uint256,uint256)":"83bd2467","owner()":"8da5cb5b","paymentToken()":"3013ce29","predict(uint256,address,uint8,uint256)":"12ff5a5d","predictions(uint256,address)":"92b108d0","renounceOwnership()":"715018a6","reputationSystem()":"6587eda1","resolveMarket(uint256,uint8,uint256)":"89727301","revokeDelegation(address)":"808d5014","setOracle(address)":"7adbf973","setReputationSystem(address)":"31143cee","stakeOnOutcome(uint256,address,uint256,uint256)":"c9aebe13","transferOwnership(address)":"f2fde38b"},"id":32}