{"abi":[{"type":"constructor","inputs":[{"name":"_paymentToken","type":"address","internalType":"address"},{"name":"_oracle","type":"address","internalType":"address"},{"name":"_reputationSystem","type":"address","internalType":"address"},{"name":"_owner","type":"address","internalType":"address"}],"stateMutability":"nonpayable"},{"type":"function","name":"CREATOR_FEE_BPS","inputs":[],"outputs":[{"name":"","type":"uint256","internalType":"uint256"}],"stateMutability":"view"},{"type":"function","name":"MAX_STAKE_PER_USER","inputs":[],"outputs":[{"name":"","type":"uint256","internalType":"uint256"}],"stateMutability":"view"},{"type":"function","name":"MIN_STAKE","inputs":[],"outputs":[{"name":"","type":"uint256","internalType":"uint256"}],"stateMutability":"view"},{"type":"function","name":"PLATFORM_FEE_BPS","inputs":[],"outputs":[{"name":"","type":"uint256","internalType":"uint256"}],"stateMutability":"view"},{"type":"function","name":"POOL_CAP","inputs":[],"outputs":[{"name":"","type":"uint256","internalType":"uint256"}],"stateMutability":"view"},{"type":"function","name":"WINNER_SHARE_BPS","inputs":[],"outputs":[{"name":"","type":"uint256","internalType":"uint256"}],"stateMutability":"view"},{"type":"function","name":"calculatePotentialWinnings","inputs":[{"name":"marketId","type":"uint256","internalType":"uint256"},{"name":"side","type":"uint8","internalType":"enum IPredictionMarket.Outcome"},{"name":"amount","type":"uint256","internalType":"uint256"}],"outputs":[{"name":"","type":"uint256","internalType":"uint256"}],"stateMutability":"view"},{"type":"function","name":"claimPayout","inputs":[{"name":"marketId","type":"uint256","internalType":"uint256"}],"outputs":[],"stateMutability":"nonpayable"},{"type":"function","name":"createMarket","inputs":[{"name":"question","type":"string","internalType":"string"},{"name":"category","type":"string","internalType":"string"},{"name":"endTime","type":"uint256","internalType":"uint256"},{"name":"initialStake","type":"uint256","internalType":"uint256"},{"name":"initialSide","type":"uint8","internalType":"enum IPredictionMarket.Outcome"},{"name":"creator","type":"address","internalType":"address"}],"outputs":[{"name":"marketId","type":"uint256","internalType":"uint256"}],"stateMutability":"nonpayable"},{"type":"function","name":"creationFee","inputs":[],"outputs":[{"name":"","type":"uint256","internalType":"uint256"}],"stateMutability":"view"},{"type":"function","name":"getAllMarketIds","inputs":[],"outputs":[{"name":"","type":"uint256[]","internalType":"uint256[]"}],"stateMutability":"view"},{"type":"function","name":"getFees","inputs":[{"name":"marketId","type":"uint256","internalType":"uint256"}],"outputs":[{"name":"platformFee","type":"uint256","internalType":"uint256"},{"name":"creatorFee","type":"uint256","internalType":"uint256"}],"stateMutability":"view"},{"type":"function","name":"getMarketInfo","inputs":[{"name":"marketId","type":"uint256","internalType":"uint256"}],"outputs":[{"name":"","type":"tuple","internalType":"struct IPredictionMarket.Market","components":[{"name":"id","type":"uint256","internalType":"uint256"},{"name":"question","type":"string","internalType":"string"},{"name":"category","type":"string","internalType":"string"},{"name":"creator","type":"address","internalType":"address"},{"name":"yesPool","type":"uint256","internalType":"uint256"},{"name":"noPool","type":"uint256","internalType":"uint256"},{"name":"totalPool","type":"uint256","internalType":"uint256"},{"name":"endTime","type":"uint256","internalType":"uint256"},{"name":"status","type":"uint8","internalType":"enum IPredictionMarket.MarketStatus"},{"name":"winningOutcome","type":"uint8","internalType":"enum IPredictionMarket.Outcome"},{"name":"resolved","type":"bool","internalType":"bool"}]}],"stateMutability":"view"},{"type":"function","name":"getMarkets","inputs":[{"name":"startId","type":"uint256","internalType":"uint256"},{"name":"count","type":"uint256","internalType":"uint256"}],"outputs":[{"name":"","type":"tuple[]","internalType":"struct IPredictionMarket.Market[]","components":[{"name":"id","type":"uint256","internalType":"uint256"},{"name":"question","type":"string","internalType":"string"},{"name":"category","type":"string","internalType":"string"},{"name":"creator","type":"address","internalType":"address"},{"name":"yesPool","type":"uint256","internalType":"uint256"},{"name":"noPool","type":"uint256","internalType":"uint256"},{"name":"totalPool","type":"uint256","internalType":"uint256"},{"name":"endTime","type":"uint256","internalType":"uint256"},{"name":"status","type":"uint8","internalType":"enum IPredictionMarket.MarketStatus"},{"name":"winningOutcome","type":"uint8","internalType":"enum IPredictionMarket.Outcome"},{"name":"resolved","type":"bool","internalType":"bool"}]}],"stateMutability":"view"},{"type":"function","name":"getOdds","inputs":[{"name":"marketId","type":"uint256","internalType":"uint256"},{"name":"side","type":"uint8","internalType":"enum IPredictionMarket.Outcome"}],"outputs":[{"name":"","type":"uint256","internalType":"uint256"}],"stateMutability":"view"},{"type":"function","name":"getUserPrediction","inputs":[{"name":"marketId","type":"uint256","internalType":"uint256"},{"name":"user","type":"address","internalType":"address"}],"outputs":[{"name":"","type":"tuple","internalType":"struct IPredictionMarket.Prediction","components":[{"name":"user","type":"address","internalType":"address"},{"name":"side","type":"uint8","internalType":"enum IPredictionMarket.Outcome"},{"name":"amount","type":"uint256","internalType":"uint256"},{"name":"timestamp","type":"uint256","internalType":"uint256"}]}],"stateMutability":"view"},{"type":"function","name":"hasClaimed","inputs":[{"name":"","type":"uint256","internalType":"uint256"},{"name":"","type":"address","internalType":"address"}],"outputs":[{"name":"","type":"bool","internalType":"bool"}],"stateMutability":"view"},{"type":"function","name":"marketCount","inputs":[],"outputs":[{"name":"","type":"uint256","internalType":"uint256"}],"stateMutability":"view"},{"type":"function","name":"marketCreators","inputs":[{"name":"","type":"address","internalType":"address"}],"outputs":[{"name":"","type":"bool","internalType":"bool"}],"stateMutability":"view"},{"type":"function","name":"marketExists","inputs":[{"name":"marketId","type":"uint256","internalType":"uint256"}],"outputs":[{"name":"","type":"bool","internalType":"bool"}],"stateMutability":"view"},{"type":"function","name":"markets","inputs":[{"name":"","type":"uint256","internalType":"uint256"}],"outputs":[{"name":"id","type":"uint256","internalType":"uint256"},{"name":"question","type":"string","internalType":"string"},{"name":"category","type":"string","internalType":"string"},{"name":"creator","type":"address","internalType":"address"},{"name":"yesPool","type":"uint256","internalType":"uint256"},{"name":"noPool","type":"uint256","internalType":"uint256"},{"name":"totalPool","type":"uint256","internalType":"uint256"},{"name":"endTime","type":"uint256","internalType":"uint256"},{"name":"status","type":"uint8","internalType":"enum IPredictionMarket.MarketStatus"},{"name":"winningOutcome","type":"uint8","internalType":"enum IPredictionMarket.Outcome"},{"name":"resolved","type":"bool","internalType":"bool"}],"stateMutability":"view"},{"type":"function","name":"oracle","inputs":[],"outputs":[{"name":"","type":"address","internalType":"address"}],"stateMutability":"view"},{"type":"function","name":"owner","inputs":[],"outputs":[{"name":"","type":"address","internalType":"address"}],"stateMutability":"view"},{"type":"function","name":"pauseMarket","inputs":[{"name":"marketId","type":"uint256","internalType":"uint256"}],"outputs":[],"stateMutability":"nonpayable"},{"type":"function","name":"paymentToken","inputs":[],"outputs":[{"name":"","type":"address","internalType":"contract IERC20"}],"stateMutability":"view"},{"type":"function","name":"poolAmounts","inputs":[{"name":"","type":"uint256","internalType":"uint256"},{"name":"","type":"uint8","internalType":"enum IPredictionMarket.Outcome"}],"outputs":[{"name":"","type":"uint256","internalType":"uint256"}],"stateMutability":"view"},{"type":"function","name":"predict","inputs":[{"name":"marketId","type":"uint256","internalType":"uint256"},{"name":"side","type":"uint8","internalType":"enum IPredictionMarket.Outcome"},{"name":"amount","type":"uint256","internalType":"uint256"}],"outputs":[],"stateMutability":"nonpayable"},{"type":"function","name":"predictions","inputs":[{"name":"","type":"uint256","internalType":"uint256"},{"name":"","type":"address","internalType":"address"}],"outputs":[{"name":"user","type":"address","internalType":"address"},{"name":"side","type":"uint8","internalType":"enum IPredictionMarket.Outcome"},{"name":"amount","type":"uint256","internalType":"uint256"},{"name":"timestamp","type":"uint256","internalType":"uint256"}],"stateMutability":"view"},{"type":"function","name":"renounceOwnership","inputs":[],"outputs":[],"stateMutability":"nonpayable"},{"type":"function","name":"reputationSystem","inputs":[],"outputs":[{"name":"","type":"address","internalType":"address"}],"stateMutability":"view"},{"type":"function","name":"resolve","inputs":[{"name":"marketId","type":"uint256","internalType":"uint256"},{"name":"outcome","type":"uint8","internalType":"enum IPredictionMarket.Outcome"}],"outputs":[],"stateMutability":"nonpayable"},{"type":"function","name":"setCreationFee","inputs":[{"name":"_creationFee","type":"uint256","internalType":"uint256"}],"outputs":[],"stateMutability":"nonpayable"},{"type":"function","name":"setOracle","inputs":[{"name":"_oracle","type":"address","internalType":"address"}],"outputs":[],"stateMutability":"nonpayable"},{"type":"function","name":"transferOwnership","inputs":[{"name":"newOwner","type":"address","internalType":"address"}],"outputs":[],"stateMutability":"nonpayable"},{"type":"function","name":"userStakes","inputs":[{"name":"","type":"uint256","internalType":"uint256"},{"name":"","type":"address","internalType":"address"},{"name":"","type":"uint8","internalType":"enum IPredictionMarket.Outcome"}],"outputs":[{"name":"","type":"uint256","internalType":"uint256"}],"stateMutability":"view"},{"type":"function","name":"withdrawFees","inputs":[],"outputs":[],"stateMutability":"nonpayable"},{"type":"event","name":"CreationFeeUpdated","inputs":[{"name":"newFee","type":"uint256","indexed":false,"internalType":"uint256"}],"anonymous":false},{"type":"event","name":"MarketCreated","inputs":[{"name":"marketId","type":"uint256","indexed":true,"internalType":"uint256"},{"name":"creator","type":"address","indexed":true,"internalType":"address"},{"name":"question","type":"string","indexed":false,"internalType":"string"},{"name":"category","type":"string","indexed":false,"internalType":"string"},{"name":"endTime","type":"uint256","indexed":false,"internalType":"uint256"}],"anonymous":false},{"type":"event","name":"MarketResolved","inputs":[{"name":"marketId","type":"uint256","indexed":true,"internalType":"uint256"},{"name":"winningOutcome","type":"uint8","indexed":false,"internalType":"enum IPredictionMarket.Outcome"},{"name":"totalPayout","type":"uint256","indexed":false,"internalType":"uint256"}],"anonymous":false},{"type":"event","name":"OracleUpdated","inputs":[{"name":"newOracle","type":"address","indexed":true,"internalType":"address"}],"anonymous":false},{"type":"event","name":"OwnershipTransferred","inputs":[{"name":"previousOwner","type":"address","indexed":true,"internalType":"address"},{"name":"newOwner","type":"address","indexed":true,"internalType":"address"}],"anonymous":false},{"type":"event","name":"PayoutClaimed","inputs":[{"name":"marketId","type":"uint256","indexed":true,"internalType":"uint256"},{"name":"user","type":"address","indexed":true,"internalType":"address"},{"name":"amount","type":"uint256","indexed":false,"internalType":"uint256"}],"anonymous":false},{"type":"event","name":"PredictionMade","inputs":[{"name":"marketId","type":"uint256","indexed":true,"internalType":"uint256"},{"name":"user","type":"address","indexed":true,"internalType":"address"},{"name":"side","type":"uint8","indexed":false,"internalType":"enum IPredictionMarket.Outcome"},{"name":"amount","type":"uint256","indexed":false,"internalType":"uint256"}],"anonymous":false},{"type":"error","name":"OwnableInvalidOwner","inputs":[{"name":"owner","type":"address","internalType":"address"}]},{"type":"error","name":"OwnableUnauthorizedAccount","inputs":[{"name":"account","type":"address","internalType":"address"}]},{"type":"error","name":"ReentrancyGuardReentrantCall","inputs":[]},{"type":"error","name":"SafeERC20FailedOperation","inputs":[{"name":"token","type":"address","internalType":"address"}]}],"bytecode":{"object":"0x60a060405234801561001057600080fd5b506040516132fd3803806132fd83398101604081905261002f91610134565b806001600160a01b03811661005e57604051631e4fbdf760e01b81526000600482015260240160405180910390fd5b610067816100c8565b5060017f9b779b17422d0df92223018b32b4d1fa46e071723d6817e2486d003becc55f0055506001600160a01b03928316608052600180549284166001600160a01b0319938416179055600280549190931691161790556000600455610188565b600080546001600160a01b038381166001600160a01b0319831681178455604051919092169283917f8be0079c531659141344cd1fd0a4f28419497f9722a3daafe3b4186f6b6457e09190a35050565b80516001600160a01b038116811461012f57600080fd5b919050565b6000806000806080858703121561014a57600080fd5b61015385610118565b935061016160208601610118565b925061016f60408601610118565b915061017d60608601610118565b905092959194509250565b6080516131376101c66000396000818161025e015281816108ef01528181610a0401528181610c87015281816117860152611fae01526131376000f3fe608060405234801561001057600080fd5b506004361061021c5760003560e01c80638a69614e11610125578063cd8d04fb116100ad578063ec9790821161007c578063ec97908214610567578063f2fde38b14610570578063f80f8deb14610583578063f8499db4146105b4578063fc12524c146105c757600080fd5b8063cd8d04fb14610504578063d5a06d4c14610514578063dce0b4e41461053c578063ec69a6541461054557600080fd5b8063b1283e77116100f4578063b1283e771461049b578063b7d86225146104c5578063b85ed636146104d8578063cb1c2b5c146104ed578063cc3cbd2a146104fc57600080fd5b80638a69614e146104055780638da5cb5b1461041857806392b108d0146104295780639c0e16081461048857600080fd5b8063715018a6116101a85780637dc0d1d0116101775780637dc0d1d01461038b57806380968d481461039e57806383389ef5146103be5780638517e93c146103c7578063873f6f9e146103d757600080fd5b8063715018a614610332578063722728661461033a57806378dc90be146103655780637adbf9731461037857600080fd5b8063476343ee116101ef578063476343ee146102d957806350ae9716146102e3578063539aa77f146102f65780636587eda1146102ff5780636ac28cb31461031257600080fd5b80631d6c8bc8146102215780633013ce29146102595780633ec791931461029857806341fdb485146102b8575b600080fd5b61024461022f3660046128a6565b600a6020526000908152604090205460ff1681565b60405190151581526020015b60405180910390f35b6102807f000000000000000000000000000000000000000000000000000000000000000081565b6040516001600160a01b039091168152602001610250565b6102ab6102a63660046128c1565b6105da565b6040516102509190612a21565b6102cb6102c6366004612a43565b610828565b604051908152602001610250565b6102e16108cf565b005b6102e16102f1366004612a43565b610a30565b6102cb6101f481565b600254610280906001600160a01b031681565b610325610320366004612a79565b610f4f565b6040516102509190612aa5565b6102e1611004565b6102cb610348366004612ae4565b600760209081526000928352604080842090915290825290205481565b6102cb610373366004612ae4565b611018565b6102e16103863660046128a6565b61107e565b600154610280906001600160a01b031681565b6103b16103ac366004612b07565b611126565b6040516102509190612b29565b6102cb61245481565b6102cb6801158e460913d0000081565b6102446103e5366004612a79565b600960209081526000928352604080842090915290825290205460ff1681565b6102e16104133660046128c1565b61146e565b6000546001600160a01b0316610280565b610478610437366004612a79565b60066020908152600092835260408084209091529082529020805460018201546002909201546001600160a01b03821692600160a01b90920460ff16919084565b6040516102509493929190612b8e565b6102e1610496366004612ae4565b611802565b6104ae6104a93660046128c1565b611a34565b6040516102509b9a99989796959493929190612bbd565b6102e16104d33660046128c1565b611bae565b6104e0611bf1565b6040516102509190612c48565b6102cb6703782dace9d9000081565b6102cb60c881565b6102cb683635c9adc5dea0000081565b6105276105223660046128c1565b611c7f565b60408051928352602083019190915201610250565b6102cb60045481565b6102446105533660046128c1565b600090815260056020526040902054151590565b6102cb60035481565b6102e161057e3660046128a6565b611cba565b6102cb610591366004612c8b565b600860209081526000938452604080852082529284528284209052825290205481565b6102cb6105c2366004612d6c565b611cf5565b6102e16105d53660046128c1565b612517565b6105e2612816565b60008281526005602052604081205490036106185760405162461bcd60e51b815260040161060f90612e08565b60405180910390fd5b60056000838152602001908152602001600020604051806101600160405290816000820154815260200160018201805461065190612e4f565b80601f016020809104026020016040519081016040528092919081815260200182805461067d90612e4f565b80156106ca5780601f1061069f576101008083540402835291602001916106ca565b820191906000526020600020905b8154815290600101906020018083116106ad57829003601f168201915b505050505081526020016002820180546106e390612e4f565b80601f016020809104026020016040519081016040528092919081815260200182805461070f90612e4f565b801561075c5780601f106107315761010080835404028352916020019161075c565b820191906000526020600020905b81548152906001019060200180831161073f57829003601f168201915b505050918352505060038201546001600160a01b03166020820152600482015460408201526005820154606082015260068201546080820152600782015460a0820152600882015460c09091019060ff1660028111156107be576107be612920565b60028111156107cf576107cf612920565b81526020016008820160019054906101000a900460ff1660018111156107f7576107f7612920565b600181111561080857610808612920565b81526008919091015462010000900460ff16151560209091015292915050565b60008381526005602052604081206006810154820361084a57829150506108c8565b60008085600181111561085f5761085f612920565b1461086e578160050154610874565b81600401545b905060008483600601546108889190612e99565b905060006108968684612e99565b905060006108a5878385612597565b90506127106108b661245483612eac565b6108c09190612ec3565b955050505050505b9392505050565b6108d76125cd565b6040516370a0823160e01b81523060048201526000907f00000000000000000000000000000000000000000000000000000000000000006001600160a01b0316906370a0823190602401602060405180830381865afa15801561093e573d6000803e3d6000fd5b505050506040513d601f19601f820116820180604052508101906109629190612ee5565b9050600060015b60035481116109c25760008181526005602052604090206008015462010000900460ff166109b0576000818152600560205260409020600601546109ad9083612e99565b91505b806109ba81612efe565b915050610969565b5060008183116109d35760006109dd565b6109dd8284612f17565b90508015610a2b57610a2b6109fa6000546001600160a01b031690565b6001600160a01b037f00000000000000000000000000000000000000000000000000000000000000001690836125fa565b505050565b610a3861262f565b60008381526005602052604081208054909103610a675760405162461bcd60e51b815260040161060f90612e08565b6000600882015460ff166002811115610a8257610a82612920565b14610a9f5760405162461bcd60e51b815260040161060f90612f2a565b80600701544210610af25760405162461bcd60e51b815260206004820152601e60248201527f50726564696374696f6e4d61726b65743a206d61726b657420656e6465640000604482015260640161060f565b6703782dace9d90000821015610b595760405162461bcd60e51b815260206004820152602660248201527f50726564696374696f6e4d61726b65743a20616d6f756e742062656c6f77206d604482015265696e696d756d60d01b606482015260840161060f565b6000848152600860209081526040808320338452825280832060018452909152808220548280529120546801158e460913d00000918491610b9a9190612e99565b610ba49190612e99565b1115610c075760405162461bcd60e51b815260206004820152602c60248201527f50726564696374696f6e4d61726b65743a2065786365656473206d617820737460448201526b30b5b2903832b9103ab9b2b960a11b606482015260840161060f565b683635c9adc5dea00000828260060154610c219190612e99565b1115610c7a5760405162461bcd60e51b815260206004820152602260248201527f50726564696374696f6e4d61726b65743a20706f6f6c20636170207265616368604482015261195960f21b606482015260840161060f565b610caf6001600160a01b037f00000000000000000000000000000000000000000000000000000000000000001633308561264b565b600084815260066020908152604080832033845290915281206001810154909103610d2d5780546001600160a01b031981163390811783558591839160ff60a01b19166001600160a81b031990911617600160a01b836001811115610d1657610d16612920565b021790555060018101839055426002820155610dcf565b836001811115610d3f57610d3f612920565b8154600160a01b900460ff166001811115610d5c57610d5c612920565b14610db55760405162461bcd60e51b8152602060048201526024808201527f50726564696374696f6e4d61726b65743a2063616e6e6f74206368616e6765206044820152637369646560e01b606482015260840161060f565b82816001016000828254610dc99190612e99565b90915550505b60008581526007602052604081208491866001811115610df157610df1612920565b6001811115610e0257610e02612920565b81526020019081526020016000206000828254610e1f9190612e99565b9091555050600085815260086020908152604080832033845290915281208491866001811115610e5157610e51612920565b6001811115610e6257610e62612920565b81526020019081526020016000206000828254610e7f9190612e99565b9250508190555082826006016000828254610e9a9190612e99565b9091555060009050846001811115610eb457610eb4612920565b03610ed85782826004016000828254610ecd9190612e99565b90915550610ef29050565b82826005016000828254610eec9190612e99565b90915550505b336001600160a01b0316857fda30f73a3e960b5ac088351f9267cabe93697fa1626149956fb9a54bc6d07b958686604051610f2e929190612f6d565b60405180910390a35050610a2b60016000805160206130e283398151915255565b610f7b604080516080810190915260008082526020820190815260200160008152602001600081525090565b60008381526006602090815260408083206001600160a01b038681168552908352928190208151608081019092528054938416825290929091830190600160a01b900460ff166001811115610fd257610fd2612920565b6001811115610fe357610fe3612920565b81526020016001820154815260200160028201548152505090505b92915050565b61100c6125cd565b6110166000612687565b565b60008281526005602052604081206006810154820361103b576032915050610ffe565b60008084600181111561105057611050612920565b1461105f578160050154611065565b81600401545b90506110758183600601546126d7565b95945050505050565b6110866125cd565b6001600160a01b0381166110dc5760405162461bcd60e51b815260206004820181905260248201527f50726564696374696f6e4d61726b65743a20696e76616c6964206f7261636c65604482015260640161060f565b600180546001600160a01b0319166001600160a01b0383169081179091556040517f3df77beb5db05fcdd70a30fc8adf3f83f9501b68579455adbd100b818094039490600090a250565b606060008311801561113a57506003548311155b6111865760405162461bcd60e51b815260206004820152601f60248201527f50726564696374696f6e4d61726b65743a20696e76616c696420737461727400604482015260640161060f565b600060016111948486612e99565b61119e9190612f17565b90506003548111156111af57506003545b60006111bb8583612f17565b6111c6906001612e99565b905060008167ffffffffffffffff8111156111e3576111e3612cc7565b60405190808252806020026020018201604052801561121c57816020015b611209612816565b8152602001906001900390816112015790505b50905060005b828110156114645760056000611238838a612e99565b8152602001908152602001600020604051806101600160405290816000820154815260200160018201805461126c90612e4f565b80601f016020809104026020016040519081016040528092919081815260200182805461129890612e4f565b80156112e55780601f106112ba576101008083540402835291602001916112e5565b820191906000526020600020905b8154815290600101906020018083116112c857829003601f168201915b505050505081526020016002820180546112fe90612e4f565b80601f016020809104026020016040519081016040528092919081815260200182805461132a90612e4f565b80156113775780601f1061134c57610100808354040283529160200191611377565b820191906000526020600020905b81548152906001019060200180831161135a57829003601f168201915b505050918352505060038201546001600160a01b03166020820152600482015460408201526005820154606082015260068201546080820152600782015460a0820152600882015460c09091019060ff1660028111156113d9576113d9612920565b60028111156113ea576113ea612920565b81526020016008820160019054906101000a900460ff16600181111561141257611412612920565b600181111561142357611423612920565b81526008919091015462010000900460ff161515602090910152825183908390811061145157611451612f88565b6020908102919091010152600101611222565b5095945050505050565b61147661262f565b6000818152600560205260409020600881015462010000900460ff166114ec5760405162461bcd60e51b815260206004820152602560248201527f50726564696374696f6e4d61726b65743a206d61726b6574206e6f74207265736044820152641bdb1d995960da1b606482015260840161060f565b600082815260096020908152604080832033845290915290205460ff16156115605760405162461bcd60e51b815260206004820152602160248201527f50726564696374696f6e4d61726b65743a20616c726561647920636c61696d656044820152601960fa1b606482015260840161060f565b60008281526006602090815260408083203384529091529020600101546115c95760405162461bcd60e51b815260206004820152601f60248201527f50726564696374696f6e4d61726b65743a206e6f2070726564696374696f6e00604482015260640161060f565b6008810154610100900460ff1660018111156115e7576115e7612920565b6000838152600660209081526040808320338452909152902054600160a01b900460ff16600181111561161c5761161c612920565b146116695760405162461bcd60e51b815260206004820152601c60248201527f50726564696374696f6e4d61726b65743a2077726f6e67207369646500000000604482015260640161060f565b600082815260096020908152604080832033808552908352818420805460ff191660019081179091558685526008808552838620928652919093529083209084015490918391610100900460ff16908111156116c7576116c7612920565b60018111156116d8576116d8612920565b815260200190815260200160002054905060006007600085815260200190815260200160002060008460080160019054906101000a900460ff16600181111561172357611723612920565b600181111561173457611734612920565b8152602001908152602001600020549050600061175683838660060154612597565b905061271061176761245483612eac565b6117719190612ec3565b905080156117ad576117ad6001600160a01b037f00000000000000000000000000000000000000000000000000000000000000001633836125fa565b604051818152339086907fe97cee5a4c0549d3fdc81e322b718ddf0aeb3418ec87dce4f9a7fb28d117c3129060200160405180910390a3505050506117ff60016000805160206130e283398151915255565b50565b6001546001600160a01b0316331461185c5760405162461bcd60e51b815260206004820152601d60248201527f50726564696374696f6e4d61726b65743a206f6e6c79206f7261636c65000000604482015260640161060f565b61186461262f565b600082815260056020526040812080549091036118935760405162461bcd60e51b815260040161060f90612e08565b6000600882015460ff1660028111156118ae576118ae612920565b146118cb5760405162461bcd60e51b815260040161060f90612f2a565b806007015442101561192a5760405162461bcd60e51b815260206004820152602260248201527f50726564696374696f6e4d61726b65743a206d61726b6574206e6f7420656e64604482015261195960f21b606482015260840161060f565b600881015462010000900460ff16156119905760405162461bcd60e51b815260206004820152602260248201527f50726564696374696f6e4d61726b65743a20616c7265616479207265736f6c76604482015261195960f21b606482015260840161060f565b600881018054600160ff1982168117835584929161ffff19168117906101009084908111156119c1576119c1612920565b021790555060088101805462ff0000191662010000179055600681015460405184917f661ce16e44a34377fc37c19874f4b1bec6e84b072cf8d318838fe17c20c58e4491611a10918691612f6d565b60405180910390a250611a3060016000805160206130e283398151915255565b5050565b60056020526000908152604090208054600182018054919291611a5690612e4f565b80601f0160208091040260200160405190810160405280929190818152602001828054611a8290612e4f565b8015611acf5780601f10611aa457610100808354040283529160200191611acf565b820191906000526020600020905b815481529060010190602001808311611ab257829003601f168201915b505050505090806002018054611ae490612e4f565b80601f0160208091040260200160405190810160405280929190818152602001828054611b1090612e4f565b8015611b5d5780601f10611b3257610100808354040283529160200191611b5d565b820191906000526020600020905b815481529060010190602001808311611b4057829003601f168201915b5050506003840154600485015460058601546006870154600788015460089098015496976001600160a01b0390941696929550909350919060ff80821691610100810482169162010000909104168b565b611bb66125cd565b60048190556040518181527f88a973fd5506071e0cf878b30898776c47d5250a7ee1e6ee0b36df3b03c7c16a9060200160405180910390a150565b6060600060035467ffffffffffffffff811115611c1057611c10612cc7565b604051908082528060200260200182016040528015611c39578160200160208202803683370190505b50905060005b600354811015611c7957611c54816001612e99565b828281518110611c6657611c66612f88565b6020908102919091010152600101611c3f565b50919050565b60008181526005602052604081206006810154829190611ca1906101f46126ff565b9250611cb2816006015460c86126ff565b915050915091565b611cc26125cd565b6001600160a01b038116611cec57604051631e4fbdf760e01b81526000600482015260240161060f565b6117ff81612687565b6000611cff61262f565b6000875111611d505760405162461bcd60e51b815260206004820181905260248201527f50726564696374696f6e4d61726b65743a20656d707479207175657374696f6e604482015260640161060f565b6000865111611da15760405162461bcd60e51b815260206004820181905260248201527f50726564696374696f6e4d61726b65743a20656d7074792063617465676f7279604482015260640161060f565b428511611dfb5760405162461bcd60e51b815260206004820152602260248201527f50726564696374696f6e4d61726b65743a20696e76616c696420656e642074696044820152616d6560f01b606482015260840161060f565b611e09426301e13380612e99565b851115611e635760405162461bcd60e51b815260206004820152602260248201527f50726564696374696f6e4d61726b65743a20656e642074696d6520746f6f206660448201526130b960f11b606482015260840161060f565b6703782dace9d90000841015611ec95760405162461bcd60e51b815260206004820152602560248201527f50726564696374696f6e4d61726b65743a207374616b652062656c6f77206d696044820152646e696d756d60d81b606482015260840161060f565b6801158e460913d00000841115611f375760405162461bcd60e51b815260206004820152602c60248201527f50726564696374696f6e4d61726b65743a207374616b6520657863656564732060448201526b36b0bc103832b9103ab9b2b960a11b606482015260840161060f565b683635c9adc5dea00000841115611fa15760405162461bcd60e51b815260206004820152602860248201527f50726564696374696f6e4d61726b65743a207374616b652065786365656473206044820152670706f6f6c206361760c41b606482015260840161060f565b611fd66001600160a01b037f00000000000000000000000000000000000000000000000000000000000000001633308761264b565b600360008154611fe590612efe565b9182905550600081815260076020526040812091925085919085600181111561201057612010612920565b600181111561202157612021612920565b815260208101919091526040016000908120919091556001600160a01b03831661204b573361204d565b825b9050600084600181111561206357612063612920565b036121d857604051806101600160405280838152602001898152602001888152602001826001600160a01b0316815260200186815260200160008152602001868152602001878152602001600060028111156120c1576120c1612920565b815260200160008152600060209182018190528481526005825260409020825181559082015160018201906120f69082612fec565b506040820151600282019061210b9082612fec565b5060608201516003820180546001600160a01b0319166001600160a01b039092169190911790556080820151600482015560a0820151600582015560c0820151600682015560e0820151600782015561010082015160088201805460ff1916600183600281111561217e5761217e612920565b021790555061012082015160088201805461ff0019166101008360018111156121a9576121a9612920565b0217905550610140919091015160089091018054911515620100000262ff000019909216919091179055612344565b604051806101600160405280838152602001898152602001888152602001826001600160a01b03168152602001600081526020018681526020018681526020018781526020016000600281111561223157612231612920565b815260200160008152600060209182018190528481526005825260409020825181559082015160018201906122669082612fec565b506040820151600282019061227b9082612fec565b5060608201516003820180546001600160a01b0319166001600160a01b039092169190911790556080820151600482015560a0820151600582015560c0820151600682015560e0820151600782015561010082015160088201805460ff191660018360028111156122ee576122ee612920565b021790555061012082015160088201805461ff00191661010083600181111561231957612319612920565b0217905550610140919091015160089091018054911515620100000262ff0000199092169190911790555b6040518060800160405280826001600160a01b0316815260200185600181111561237057612370612920565b81526020808201889052426040928301526000858152600682528281206001600160a01b0380871683529083529290208351815493166001600160a01b0319841681178255918401519092909183916001600160a81b03191617600160a01b8360018111156123e1576123e1612920565b0217905550604082015181600101556060820151816002015590505084600860008481526020019081526020016000206000836001600160a01b03166001600160a01b03168152602001908152602001600020600086600181111561244857612448612920565b600181111561245957612459612920565b815260200190815260200160002081905550806001600160a01b0316827fb964ec62ce8297156f9b8af2d30a75fe682aa65bdc010b422c15b3feda3db1038a8a8a6040516124a9939291906130ab565b60405180910390a3806001600160a01b0316827fda30f73a3e960b5ac088351f9267cabe93697fa1626149956fb9a54bc6d07b9586886040516124ed929190612f6d565b60405180910390a35061250d60016000805160206130e283398151915255565b9695505050505050565b61251f6125cd565b6000818152600560205260408120805490910361254e5760405162461bcd60e51b815260040161060f90612e08565b6000600882015460ff16600281111561256957612569612920565b146125865760405162461bcd60e51b815260040161060f90612f2a565b600801805460ff1916600217905550565b60008215806125a4575081155b156125b05750826108c8565b826125bb8386612eac565b6125c59190612ec3565b949350505050565b6000546001600160a01b031633146110165760405163118cdaa760e01b815233600482015260240161060f565b612607838383600161270e565b610a2b57604051635274afe760e01b81526001600160a01b038416600482015260240161060f565b612637612774565b60026000805160206130e283398151915255565b6126598484848460016127a4565b61268157604051635274afe760e01b81526001600160a01b038516600482015260240161060f565b50505050565b600080546001600160a01b038381166001600160a01b0319831681178455604051919092169283917f8be0079c531659141344cd1fd0a4f28419497f9722a3daafe3b4186f6b6457e09190a35050565b6000816000036126e957506032610ffe565b816126f5846064612eac565b6108c89190612ec3565b60006127106126f58385612eac565b60405163a9059cbb60e01b60008181526001600160a01b038616600452602485905291602083604481808b5af19250600160005114831661276857838315161561275b573d6000823e3d81fd5b6000873b113d1516831692505b60405250949350505050565b6000805160206130e28339815191525460020361101657604051633ee5aeb560e01b815260040160405180910390fd5b6040516323b872dd60e01b60008181526001600160a01b038781166004528616602452604485905291602083606481808c5af1925060016000511483166128045783831516156127f7573d6000823e3d81fd5b6000883b113d1516831692505b60405250600060605295945050505050565b60405180610160016040528060008152602001606081526020016060815260200160006001600160a01b03168152602001600081526020016000815260200160008152602001600081526020016000600281111561287657612876612920565b815260200160008152600060209091015290565b80356001600160a01b03811681146128a157600080fd5b919050565b6000602082840312156128b857600080fd5b6108c88261288a565b6000602082840312156128d357600080fd5b5035919050565b6000815180845260005b81811015612900576020818501810151868301820152016128e4565b506000602082860101526020601f19601f83011685010191505092915050565b634e487b7160e01b600052602160045260246000fd5b6003811061294657612946612920565b9052565b6002811061294657612946612920565b8051825260006020820151610160602085015261297b6101608501826128da565b90506040830151848203604086015261299482826128da565b91505060608301516129b160608601826001600160a01b03169052565b506080830151608085015260a083015160a085015260c083015160c085015260e083015160e08501526101008301516129ee610100860182612936565b50610120830151612a0361012086018261294a565b50610140830151612a1961014086018215159052565b509392505050565b6020815260006108c8602083018461295a565b8035600281106128a157600080fd5b600080600060608486031215612a5857600080fd5b83359250612a6860208501612a34565b929592945050506040919091013590565b60008060408385031215612a8c57600080fd5b82359150612a9c6020840161288a565b90509250929050565b81516001600160a01b031681526020808301516080830191612ac99084018261294a565b50604083015160408301526060830151606083015292915050565b60008060408385031215612af757600080fd5b82359150612a9c60208401612a34565b60008060408385031215612b1a57600080fd5b50508035926020909101359150565b6000602082016020835280845180835260408501915060408160051b86010192506020860160005b82811015612b8257603f19878603018452612b6d85835161295a565b94506020938401939190910190600101612b51565b50929695505050505050565b6001600160a01b038516815260808101612bab602083018661294a565b60408201939093526060015292915050565b8b815261016060208201526000612bd861016083018d6128da565b8281036040840152612bea818d6128da565b91505060018060a01b038a1660608301528860808301528760a08301528660c08301528560e0830152612c21610100830186612936565b612c2f61012083018561294a565b8215156101408301529c9b505050505050505050505050565b602080825282518282018190526000918401906040840190835b81811015612c80578351835260209384019390920191600101612c62565b509095945050505050565b600080600060608486031215612ca057600080fd5b83359250612cb06020850161288a565b9150612cbe60408501612a34565b90509250925092565b634e487b7160e01b600052604160045260246000fd5b600082601f830112612cee57600080fd5b813567ffffffffffffffff811115612d0857612d08612cc7565b604051601f8201601f19908116603f0116810167ffffffffffffffff81118282101715612d3757612d37612cc7565b604052818152838201602001851015612d4f57600080fd5b816020850160208301376000918101602001919091529392505050565b60008060008060008060c08789031215612d8557600080fd5b863567ffffffffffffffff811115612d9c57600080fd5b612da889828a01612cdd565b965050602087013567ffffffffffffffff811115612dc557600080fd5b612dd189828a01612cdd565b9550506040870135935060608701359250612dee60808801612a34565b9150612dfc60a0880161288a565b90509295509295509295565b60208082526027908201527f50726564696374696f6e4d61726b65743a206d61726b657420646f6573206e6f6040820152661d08195e1a5cdd60ca1b606082015260800190565b600181811c90821680612e6357607f821691505b602082108103611c7957634e487b7160e01b600052602260045260246000fd5b634e487b7160e01b600052601160045260246000fd5b80820180821115610ffe57610ffe612e83565b8082028115828204841417610ffe57610ffe612e83565b600082612ee057634e487b7160e01b600052601260045260246000fd5b500490565b600060208284031215612ef757600080fd5b5051919050565b600060018201612f1057612f10612e83565b5060010190565b81810381811115610ffe57610ffe612e83565b60208082526023908201527f50726564696374696f6e4d61726b65743a206d61726b6574206e6f742061637460408201526269766560e81b606082015260800190565b60408101612f7b828561294a565b8260208301529392505050565b634e487b7160e01b600052603260045260246000fd5b601f821115610a2b57806000526020600020601f840160051c81016020851015612fc55750805b601f840160051c820191505b81811015612fe55760008155600101612fd1565b5050505050565b815167ffffffffffffffff81111561300657613006612cc7565b61301a816130148454612e4f565b84612f9e565b6020601f82116001811461304e57600083156130365750848201515b600019600385901b1c1916600184901b178455612fe5565b600084815260208120601f198516915b8281101561307e578785015182556020948501946001909201910161305e565b508482101561309c5786840151600019600387901b60f8161c191681555b50505050600190811b01905550565b6060815260006130be60608301866128da565b82810360208401526130d081866128da565b91505082604083015294935050505056fe9b779b17422d0df92223018b32b4d1fa46e071723d6817e2486d003becc55f00a2646970667358221220c82377f0a50fa6bcd06fb1cd45e02c10e5a4dc83bb1891bfad613fb76aba4f4e64736f6c634300081c0033","linkReferences":{}},"methodIdentifiers":{"CREATOR_FEE_BPS()":"cc3cbd2a","MAX_STAKE_PER_USER()":"8517e93c","MIN_STAKE()":"cb1c2b5c","PLATFORM_FEE_BPS()":"539aa77f","POOL_CAP()":"cd8d04fb","WINNER_SHARE_BPS()":"83389ef5","calculatePotentialWinnings(uint256,uint8,uint256)":"41fdb485","claimPayout(uint256)":"8a69614e","createMarket(string,string,uint256,uint256,uint8,address)":"f8499db4","creationFee()":"dce0b4e4","getAllMarketIds()":"b85ed636","getFees(uint256)":"d5a06d4c","getMarketInfo(uint256)":"3ec79193","getMarkets(uint256,uint256)":"80968d48","getOdds(uint256,uint8)":"78dc90be","getUserPrediction(uint256,address)":"6ac28cb3","hasClaimed(uint256,address)":"873f6f9e","marketCount()":"ec979082","marketCreators(address)":"1d6c8bc8","marketExists(uint256)":"ec69a654","markets(uint256)":"b1283e77","oracle()":"7dc0d1d0","owner()":"8da5cb5b","pauseMarket(uint256)":"fc12524c","paymentToken()":"3013ce29","poolAmounts(uint256,uint8)":"72272866","predict(uint256,uint8,uint256)":"50ae9716","predictions(uint256,address)":"92b108d0","renounceOwnership()":"715018a6","reputationSystem()":"6587eda1","resolve(uint256,uint8)":"9c0e1608","setCreationFee(uint256)":"b7d86225","setOracle(address)":"7adbf973","transferOwnership(address)":"f2fde38b","userStakes(uint256,address,uint8)":"f80f8deb","withdrawFees()":"476343ee"},"id":43}