{"abi":[{"type":"constructor","inputs":[{"name":"_admin","type":"address","internalType":"address"}],"stateMutability":"nonpayable"},{"type":"function","name":"DEFAULT_ADMIN_ROLE","inputs":[],"outputs":[{"name":"","type":"bytes32","internalType":"bytes32"}],"stateMutability":"view"},{"type":"function","name":"LEADERBOARD_SIZE","inputs":[],"outputs":[{"name":"","type":"uint256","internalType":"uint256"}],"stateMutability":"view"},{"type":"function","name":"UPDATER_ROLE","inputs":[],"outputs":[{"name":"","type":"bytes32","internalType":"bytes32"}],"stateMutability":"view"},{"type":"function","name":"getAddressByUsername","inputs":[{"name":"username","type":"string","internalType":"string"}],"outputs":[{"name":"","type":"address","internalType":"address"}],"stateMutability":"view"},{"type":"function","name":"getReputationScore","inputs":[{"name":"user","type":"address","internalType":"address"}],"outputs":[{"name":"","type":"uint256","internalType":"uint256"}],"stateMutability":"view"},{"type":"function","name":"getRoleAdmin","inputs":[{"name":"role","type":"bytes32","internalType":"bytes32"}],"outputs":[{"name":"","type":"bytes32","internalType":"bytes32"}],"stateMutability":"view"},{"type":"function","name":"getTopUsers","inputs":[{"name":"limit","type":"uint256","internalType":"uint256"}],"outputs":[{"name":"","type":"address[]","internalType":"address[]"}],"stateMutability":"view"},{"type":"function","name":"getUserStats","inputs":[{"name":"user","type":"address","internalType":"address"}],"outputs":[{"name":"","type":"tuple","internalType":"struct IReputationSystem.UserStats","components":[{"name":"totalPredictions","type":"uint256","internalType":"uint256"},{"name":"correctPredictions","type":"uint256","internalType":"uint256"},{"name":"totalWinnings","type":"uint256","internalType":"uint256"},{"name":"currentStreak","type":"uint256","internalType":"uint256"},{"name":"bestStreak","type":"uint256","internalType":"uint256"},{"name":"reputationScore","type":"uint256","internalType":"uint256"}]}],"stateMutability":"view"},{"type":"function","name":"getUsername","inputs":[{"name":"user","type":"address","internalType":"address"}],"outputs":[{"name":"","type":"string","internalType":"string"}],"stateMutability":"view"},{"type":"function","name":"grantRole","inputs":[{"name":"role","type":"bytes32","internalType":"bytes32"},{"name":"account","type":"address","internalType":"address"}],"outputs":[],"stateMutability":"nonpayable"},{"type":"function","name":"grantUpdaterRole","inputs":[{"name":"account","type":"address","internalType":"address"}],"outputs":[],"stateMutability":"nonpayable"},{"type":"function","name":"hasRole","inputs":[{"name":"role","type":"bytes32","internalType":"bytes32"},{"name":"account","type":"address","internalType":"address"}],"outputs":[{"name":"","type":"bool","internalType":"bool"}],"stateMutability":"view"},{"type":"function","name":"isUserRegistered","inputs":[{"name":"user","type":"address","internalType":"address"}],"outputs":[{"name":"","type":"bool","internalType":"bool"}],"stateMutability":"view"},{"type":"function","name":"isUsernameAvailable","inputs":[{"name":"username","type":"string","internalType":"string"}],"outputs":[{"name":"","type":"bool","internalType":"bool"}],"stateMutability":"view"},{"type":"function","name":"leaderboard","inputs":[{"name":"","type":"uint256","internalType":"uint256"}],"outputs":[{"name":"","type":"address","internalType":"address"}],"stateMutability":"view"},{"type":"function","name":"renounceRole","inputs":[{"name":"role","type":"bytes32","internalType":"bytes32"},{"name":"callerConfirmation","type":"address","internalType":"address"}],"outputs":[],"stateMutability":"nonpayable"},{"type":"function","name":"revokeRole","inputs":[{"name":"role","type":"bytes32","internalType":"bytes32"},{"name":"account","type":"address","internalType":"address"}],"outputs":[],"stateMutability":"nonpayable"},{"type":"function","name":"setUsername","inputs":[{"name":"username","type":"string","internalType":"string"}],"outputs":[],"stateMutability":"nonpayable"},{"type":"function","name":"supportsInterface","inputs":[{"name":"interfaceId","type":"bytes4","internalType":"bytes4"}],"outputs":[{"name":"","type":"bool","internalType":"bool"}],"stateMutability":"view"},{"type":"function","name":"updateStats","inputs":[{"name":"user","type":"address","internalType":"address"},{"name":"isCorrect","type":"bool","internalType":"bool"},{"name":"winnings","type":"uint256","internalType":"uint256"}],"outputs":[],"stateMutability":"nonpayable"},{"type":"function","name":"userCount","inputs":[],"outputs":[{"name":"","type":"uint256","internalType":"uint256"}],"stateMutability":"view"},{"type":"function","name":"userStats","inputs":[{"name":"","type":"address","internalType":"address"}],"outputs":[{"name":"totalPredictions","type":"uint256","internalType":"uint256"},{"name":"correctPredictions","type":"uint256","internalType":"uint256"},{"name":"totalWinnings","type":"uint256","internalType":"uint256"},{"name":"currentStreak","type":"uint256","internalType":"uint256"},{"name":"bestStreak","type":"uint256","internalType":"uint256"},{"name":"reputationScore","type":"uint256","internalType":"uint256"}],"stateMutability":"view"},{"type":"function","name":"usernameToAddress","inputs":[{"name":"","type":"string","internalType":"string"}],"outputs":[{"name":"","type":"address","internalType":"address"}],"stateMutability":"view"},{"type":"function","name":"usernames","inputs":[{"name":"","type":"address","internalType":"address"}],"outputs":[{"name":"","type":"string","internalType":"string"}],"stateMutability":"view"},{"type":"function","name":"users","inputs":[{"name":"","type":"uint256","internalType":"uint256"}],"outputs":[{"name":"","type":"address","internalType":"address"}],"stateMutability":"view"},{"type":"event","name":"ReputationUpdated","inputs":[{"name":"user","type":"address","indexed":true,"internalType":"address"},{"name":"newScore","type":"uint256","indexed":false,"internalType":"uint256"},{"name":"streak","type":"uint256","indexed":false,"internalType":"uint256"}],"anonymous":false},{"type":"event","name":"RoleAdminChanged","inputs":[{"name":"role","type":"bytes32","indexed":true,"internalType":"bytes32"},{"name":"previousAdminRole","type":"bytes32","indexed":true,"internalType":"bytes32"},{"name":"newAdminRole","type":"bytes32","indexed":true,"internalType":"bytes32"}],"anonymous":false},{"type":"event","name":"RoleGranted","inputs":[{"name":"role","type":"bytes32","indexed":true,"internalType":"bytes32"},{"name":"account","type":"address","indexed":true,"internalType":"address"},{"name":"sender","type":"address","indexed":true,"internalType":"address"}],"anonymous":false},{"type":"event","name":"RoleRevoked","inputs":[{"name":"role","type":"bytes32","indexed":true,"internalType":"bytes32"},{"name":"account","type":"address","indexed":true,"internalType":"address"},{"name":"sender","type":"address","indexed":true,"internalType":"address"}],"anonymous":false},{"type":"event","name":"UsernameSet","inputs":[{"name":"user","type":"address","indexed":true,"internalType":"address"},{"name":"username","type":"string","indexed":false,"internalType":"string"}],"anonymous":false},{"type":"error","name":"AccessControlBadConfirmation","inputs":[]},{"type":"error","name":"AccessControlUnauthorizedAccount","inputs":[{"name":"account","type":"address","internalType":"address"},{"name":"neededRole","type":"bytes32","internalType":"bytes32"}]}],"bytecode":{"object":"0x608060405234801561001057600080fd5b5060405161162e38038061162e83398101604081905261002f91610118565b61003a60008261006c565b506100657f73e573f9566d61418a34d5de3ff49360f9c51fec37f7486551670290f6285dab8261006c565b5050610148565b6000828152602081815260408083206001600160a01b038516845290915281205460ff1661010e576000838152602081815260408083206001600160a01b03861684529091529020805460ff191660011790556100c63390565b6001600160a01b0316826001600160a01b0316847f2f8788117e7eff1d82e926ec794901d17c78024a50270940304540a733656f0d60405160405180910390a4506001610112565b5060005b92915050565b60006020828403121561012a57600080fd5b81516001600160a01b038116811461014157600080fd5b9392505050565b6114d7806101576000396000f3fe608060405234801561001057600080fd5b50600436106101735760003560e01c80636322961d116100de578063ce43c03211610097578063ed59313a11610071578063ed59313a14610469578063ee91877c1461047c578063f69c6dec1461048f578063f825f143146104a257600080fd5b8063ce43c03214610416578063d547741f14610436578063de75aa6c1461044957600080fd5b80636322961d1461032257806375a67d5c146103355780638a65d8741461036157806391d14854146103d2578063a217fddf146103e5578063bf368399146103ed57600080fd5b8063365b98b211610130578063365b98b21461022d57806347e633801461026e57806348f2f20a146102955780634e43603a146102a85780634f085f421461030757806350882f6d1461030f57600080fd5b806301ffc9a71461017857806307973ccf146101a0578063163f7522146101b7578063248a9ca3146101e25780632f2ff15d1461020557806336568abe1461021a575b600080fd5b61018b610186366004611020565b6104d6565b60405190151581526020015b60405180910390f35b6101a960065481565b604051908152602001610197565b61018b6101c536600461106d565b6001600160a01b0316600090815260016020526040902054151590565b6101a96101f0366004611088565b60009081526020819052604090206001015490565b6102186102133660046110a1565b61050d565b005b6102186102283660046110a1565b610538565b61025661023b366004611088565b6005602052600090815260409020546001600160a01b031681565b6040516001600160a01b039091168152602001610197565b6101a97f73e573f9566d61418a34d5de3ff49360f9c51fec37f7486551670290f6285dab81565b6102186102a33660046110cd565b610570565b6102bb6102b636600461106d565b610790565b6040516101979190600060c082019050825182526020830151602083015260408301516040830152606083015160608301526080830151608083015260a083015160a083015292915050565b6101a9606481565b61021861031d36600461106d565b61082a565b610256610330366004611127565b61085f565b6101a961034336600461106d565b6001600160a01b031660009081526001602052604090206005015490565b6103a561036f36600461106d565b60016020819052600091825260409091208054918101546002820154600383015460048401546005909401549293919290919086565b604080519687526020870195909552938501929092526060840152608083015260a082015260c001610197565b61018b6103e03660046110a1565b610890565b6101a9600081565b6102566103fb366004611088565b6004602052600090815260409020546001600160a01b031681565b61042961042436600461106d565b6108b9565b6040516101979190611204565b6102186104443660046110a1565b610965565b61045c610457366004611088565b61098a565b6040516101979190611237565b610218610477366004611127565b610a4a565b61042961048a36600461106d565b610c4a565b61018b61049d366004611127565b610ce4565b6102566104b0366004611127565b80516020818301810180516003825292820191909301209152546001600160a01b031681565b60006001600160e01b03198216637965db0b60e01b148061050757506301ffc9a760e01b6001600160e01b03198316145b92915050565b60008281526020819052604090206001015461052881610d20565b6105328383610d2d565b50505050565b6001600160a01b03811633146105615760405163334bd91960e11b815260040160405180910390fd5b61056b8282610dbf565b505050565b7f73e573f9566d61418a34d5de3ff49360f9c51fec37f7486551670290f6285dab61059a81610d20565b6001600160a01b0384166105f55760405162461bcd60e51b815260206004820152601e60248201527f52657075746174696f6e53797374656d3a20696e76616c69642075736572000060448201526064015b60405180910390fd5b6001600160a01b038416600090815260016020526040812080549091036106545760068054600090815260056020526040812080546001600160a01b0319166001600160a01b0389161790558154919061064e83611299565b91905055505b805481600061066283611299565b919050555083156106d45760018101805490600061067f83611299565b91905055508281600201600082825461069891906112b2565b90915550506003810180549060006106af83611299565b91905055508060040154816003015411156106cf57600381015460048201555b6106dc565b600060038201555b6040805160c08101825282548152600183015460208201526002830154918101919091526003820154606082015260048201546080820152600582015460a082015261072790610e2a565b600582015561073585610ea7565b846001600160a01b03167f5b88a2e3fc1a53234357ab78c104df11c33ccfa79886793654565ad70b8afb6e82600501548360030154604051610781929190918252602082015260400190565b60405180910390a25050505050565b6107c96040518060c001604052806000815260200160008152602001600081526020016000815260200160008152602001600081525090565b506001600160a01b0316600090815260016020818152604092839020835160c081018552815481529281015491830191909152600281015492820192909252600382015460608201526004820154608082015260059091015460a082015290565b600061083581610d20565b61056b7f73e573f9566d61418a34d5de3ff49360f9c51fec37f7486551670290f6285dab83610d2d565b600060038260405161087191906112c5565b908152604051908190036020019020546001600160a01b031692915050565b6000918252602082815260408084206001600160a01b0393909316845291905290205460ff1690565b6001600160a01b03811660009081526002602052604090208054606091906108e0906112e1565b80601f016020809104026020016040519081016040528092919081815260200182805461090c906112e1565b80156109595780601f1061092e57610100808354040283529160200191610959565b820191906000526020600020905b81548152906001019060200180831161093c57829003601f168201915b50505050509050919050565b60008281526020819052604090206001015461098081610d20565b6105328383610dbf565b606060006064831061099d57606461099f565b825b905060008167ffffffffffffffff8111156109bc576109bc611111565b6040519080825280602002602001820160405280156109e5578160200160208202803683370190505b50905060005b82811015610a425760008181526004602052604090205482516001600160a01b0390911690839083908110610a2257610a2261131b565b6001600160a01b03909216602092830291909101909101526001016109eb565b509392505050565b6003815110158015610a5e57506014815111155b610abc5760405162461bcd60e51b815260206004820152602960248201527f52657075746174696f6e53797374656d3a20696e76616c696420757365726e616044820152680daca40d8cadccee8d60bb1b60648201526084016105ec565b60006001600160a01b0316600382604051610ad791906112c5565b908152604051908190036020019020546001600160a01b031614610b3d5760405162461bcd60e51b815260206004820181905260248201527f52657075746174696f6e53797374656d3a20757365726e616d652074616b656e60448201526064016105ec565b3360009081526002602052604090208054610b57906112e1565b159050610bb55760405162461bcd60e51b815260206004820152602660248201527f52657075746174696f6e53797374656d3a20757365726e616d6520616c726561604482015265191e481cd95d60d21b60648201526084016105ec565b336000908152600260205260409020610bce828261137f565b5033600382604051610be091906112c5565b90815260405190819003602001812080546001600160a01b03939093166001600160a01b03199093169290921790915533907f74d8e560d2e870c35b35dc882df2a5c96e2bf1cdb5ef6dd2f9cb433c8d04885390610c3f908490611204565b60405180910390a250565b60026020526000908152604090208054610c63906112e1565b80601f0160208091040260200160405190810160405280929190818152602001828054610c8f906112e1565b8015610cdc5780601f10610cb157610100808354040283529160200191610cdc565b820191906000526020600020905b815481529060010190602001808311610cbf57829003601f168201915b505050505081565b6000806001600160a01b0316600383604051610d0091906112c5565b908152604051908190036020019020546001600160a01b03161492915050565b610d2a8133610fe3565b50565b6000610d398383610890565b610db7576000838152602081815260408083206001600160a01b03861684529091529020805460ff19166001179055610d6f3390565b6001600160a01b0316826001600160a01b0316847f2f8788117e7eff1d82e926ec794901d17c78024a50270940304540a733656f0d60405160405180910390a4506001610507565b506000610507565b6000610dcb8383610890565b15610db7576000838152602081815260408083206001600160a01b0386168085529252808320805460ff1916905551339286917ff6391f5c32d9c69d2a47ea670b442974b53935d1edc7fd64eb21e047a839171b9190a4506001610507565b80516000908103610e3d57506000919050565b8151602083015160009190610e5390606461143e565b610e5d9190611455565b905060008360600151600a610e72919061143e565b9050600084608001516005610e87919061143e565b905080610e9483856112b2565b610e9e91906112b2565b95945050505050565b6001600160a01b038116600090815260016020526040812060050154906064905b6064811015610f34576000818152600460205260409020546001600160a01b0316610ef557809150610f34565b6000818152600460209081526040808320546001600160a01b031683526001909152902060050154831115610f2c57809150610f34565b600101610ec8565b50606481101561056b576000610f4c60016064611477565b90505b81811115610fb45760046000610f66600184611477565b8152602080820192909252604090810160009081205484825260049093522080546001600160a01b0319166001600160a01b0390921691909117905580610fac8161148a565b915050610f4f565b50600081815260046020526040902080546001600160a01b0385166001600160a01b0319909116179055505050565b610fed8282610890565b61101c5760405163e2517d3f60e01b81526001600160a01b0382166004820152602481018390526044016105ec565b5050565b60006020828403121561103257600080fd5b81356001600160e01b03198116811461104a57600080fd5b9392505050565b80356001600160a01b038116811461106857600080fd5b919050565b60006020828403121561107f57600080fd5b61104a82611051565b60006020828403121561109a57600080fd5b5035919050565b600080604083850312156110b457600080fd5b823591506110c460208401611051565b90509250929050565b6000806000606084860312156110e257600080fd5b6110eb84611051565b92506020840135801515811461110057600080fd5b929592945050506040919091013590565b634e487b7160e01b600052604160045260246000fd5b60006020828403121561113957600080fd5b813567ffffffffffffffff81111561115057600080fd5b8201601f8101841361116157600080fd5b803567ffffffffffffffff81111561117b5761117b611111565b604051601f8201601f19908116603f0116810167ffffffffffffffff811182821017156111aa576111aa611111565b6040528181528282016020018610156111c257600080fd5b81602084016020830137600091810160200191909152949350505050565b60005b838110156111fb5781810151838201526020016111e3565b50506000910152565b60208152600082518060208401526112238160408501602087016111e0565b601f01601f19169190910160400192915050565b602080825282518282018190526000918401906040840190835b818110156112785783516001600160a01b0316835260209384019390920191600101611251565b509095945050505050565b634e487b7160e01b600052601160045260246000fd5b6000600182016112ab576112ab611283565b5060010190565b8082018082111561050757610507611283565b600082516112d78184602087016111e0565b9190910192915050565b600181811c908216806112f557607f821691505b60208210810361131557634e487b7160e01b600052602260045260246000fd5b50919050565b634e487b7160e01b600052603260045260246000fd5b601f82111561056b57806000526020600020601f840160051c810160208510156113585750805b601f840160051c820191505b818110156113785760008155600101611364565b5050505050565b815167ffffffffffffffff81111561139957611399611111565b6113ad816113a784546112e1565b84611331565b6020601f8211600181146113e157600083156113c95750848201515b600019600385901b1c1916600184901b178455611378565b600084815260208120601f198516915b8281101561141157878501518255602094850194600190920191016113f1565b508482101561142f5786840151600019600387901b60f8161c191681555b50505050600190811b01905550565b808202811582820484141761050757610507611283565b60008261147257634e487b7160e01b600052601260045260246000fd5b500490565b8181038181111561050757610507611283565b60008161149957611499611283565b50600019019056fea2646970667358221220b625da40d8b68809b0f046dc9fb4f66e7f15f0d2faf1bc981554b7fcd397132464736f6c634300081c0033","linkReferences":{}},"methodIdentifiers":{"DEFAULT_ADMIN_ROLE()":"a217fddf","LEADERBOARD_SIZE()":"4f085f42","UPDATER_ROLE()":"47e63380","getAddressByUsername(string)":"6322961d","getReputationScore(address)":"75a67d5c","getRoleAdmin(bytes32)":"248a9ca3","getTopUsers(uint256)":"de75aa6c","getUserStats(address)":"4e43603a","getUsername(address)":"ce43c032","grantRole(bytes32,address)":"2f2ff15d","grantUpdaterRole(address)":"50882f6d","hasRole(bytes32,address)":"91d14854","isUserRegistered(address)":"163f7522","isUsernameAvailable(string)":"f69c6dec","leaderboard(uint256)":"bf368399","renounceRole(bytes32,address)":"36568abe","revokeRole(bytes32,address)":"d547741f","setUsername(string)":"ed59313a","supportsInterface(bytes4)":"01ffc9a7","updateStats(address,bool,uint256)":"48f2f20a","userCount()":"07973ccf","userStats(address)":"8a65d874","usernameToAddress(string)":"f825f143","usernames(address)":"ee91877c","users(uint256)":"365b98b2"},"id":33}