{"abi":[{"type":"constructor","inputs":[{"name":"_admin","type":"address","internalType":"address"}],"stateMutability":"nonpayable"},{"type":"function","name":"DEFAULT_ADMIN_ROLE","inputs":[],"outputs":[{"name":"","type":"bytes32","internalType":"bytes32"}],"stateMutability":"view"},{"type":"function","name":"LEADERBOARD_SIZE","inputs":[],"outputs":[{"name":"","type":"uint256","internalType":"uint256"}],"stateMutability":"view"},{"type":"function","name":"UPDATER_ROLE","inputs":[],"outputs":[{"name":"","type":"bytes32","internalType":"bytes32"}],"stateMutability":"view"},{"type":"function","name":"getAddressByUsername","inputs":[{"name":"username","type":"string","internalType":"string"}],"outputs":[{"name":"","type":"address","internalType":"address"}],"stateMutability":"view"},{"type":"function","name":"getReputationScore","inputs":[{"name":"user","type":"address","internalType":"address"}],"outputs":[{"name":"","type":"uint256","internalType":"uint256"}],"stateMutability":"view"},{"type":"function","name":"getRoleAdmin","inputs":[{"name":"role","type":"bytes32","internalType":"bytes32"}],"outputs":[{"name":"","type":"bytes32","internalType":"bytes32"}],"stateMutability":"view"},{"type":"function","name":"getTopUsers","inputs":[{"name":"limit","type":"uint256","internalType":"uint256"}],"outputs":[{"name":"","type":"address[]","internalType":"address[]"}],"stateMutability":"view"},{"type":"function","name":"getUserCount","inputs":[],"outputs":[{"name":"","type":"uint256","internalType":"uint256"}],"stateMutability":"view"},{"type":"function","name":"getUserStats","inputs":[{"name":"user","type":"address","internalType":"address"}],"outputs":[{"name":"","type":"tuple","internalType":"struct IReputationSystem.UserStats","components":[{"name":"totalPredictions","type":"uint256","internalType":"uint256"},{"name":"correctPredictions","type":"uint256","internalType":"uint256"},{"name":"totalWinnings","type":"uint256","internalType":"uint256"},{"name":"currentStreak","type":"uint256","internalType":"uint256"},{"name":"bestStreak","type":"uint256","internalType":"uint256"},{"name":"reputationScore","type":"uint256","internalType":"uint256"}]}],"stateMutability":"view"},{"type":"function","name":"getUsername","inputs":[{"name":"user","type":"address","internalType":"address"}],"outputs":[{"name":"","type":"string","internalType":"string"}],"stateMutability":"view"},{"type":"function","name":"grantRole","inputs":[{"name":"role","type":"bytes32","internalType":"bytes32"},{"name":"account","type":"address","internalType":"address"}],"outputs":[],"stateMutability":"nonpayable"},{"type":"function","name":"grantUpdaterRole","inputs":[{"name":"account","type":"address","internalType":"address"}],"outputs":[],"stateMutability":"nonpayable"},{"type":"function","name":"hasRole","inputs":[{"name":"role","type":"bytes32","internalType":"bytes32"},{"name":"account","type":"address","internalType":"address"}],"outputs":[{"name":"","type":"bool","internalType":"bool"}],"stateMutability":"view"},{"type":"function","name":"isUserRegistered","inputs":[{"name":"","type":"address","internalType":"address"}],"outputs":[{"name":"","type":"bool","internalType":"bool"}],"stateMutability":"view"},{"type":"function","name":"isUsernameAvailable","inputs":[{"name":"username","type":"string","internalType":"string"}],"outputs":[{"name":"","type":"bool","internalType":"bool"}],"stateMutability":"view"},{"type":"function","name":"isUsernameTaken","inputs":[{"name":"","type":"string","internalType":"string"}],"outputs":[{"name":"","type":"bool","internalType":"bool"}],"stateMutability":"view"},{"type":"function","name":"leaderboard","inputs":[{"name":"","type":"uint256","internalType":"uint256"}],"outputs":[{"name":"","type":"address","internalType":"address"}],"stateMutability":"view"},{"type":"function","name":"renounceRole","inputs":[{"name":"role","type":"bytes32","internalType":"bytes32"},{"name":"callerConfirmation","type":"address","internalType":"address"}],"outputs":[],"stateMutability":"nonpayable"},{"type":"function","name":"revokeRole","inputs":[{"name":"role","type":"bytes32","internalType":"bytes32"},{"name":"account","type":"address","internalType":"address"}],"outputs":[],"stateMutability":"nonpayable"},{"type":"function","name":"setUsername","inputs":[{"name":"username","type":"string","internalType":"string"}],"outputs":[],"stateMutability":"nonpayable"},{"type":"function","name":"supportsInterface","inputs":[{"name":"interfaceId","type":"bytes4","internalType":"bytes4"}],"outputs":[{"name":"","type":"bool","internalType":"bool"}],"stateMutability":"view"},{"type":"function","name":"updateStats","inputs":[{"name":"user","type":"address","internalType":"address"},{"name":"isCorrect","type":"bool","internalType":"bool"},{"name":"winnings","type":"uint256","internalType":"uint256"}],"outputs":[],"stateMutability":"nonpayable"},{"type":"function","name":"userStats","inputs":[{"name":"","type":"address","internalType":"address"}],"outputs":[{"name":"totalPredictions","type":"uint256","internalType":"uint256"},{"name":"correctPredictions","type":"uint256","internalType":"uint256"},{"name":"totalWinnings","type":"uint256","internalType":"uint256"},{"name":"currentStreak","type":"uint256","internalType":"uint256"},{"name":"bestStreak","type":"uint256","internalType":"uint256"},{"name":"reputationScore","type":"uint256","internalType":"uint256"}],"stateMutability":"view"},{"type":"function","name":"usernameToAddress","inputs":[{"name":"","type":"string","internalType":"string"}],"outputs":[{"name":"","type":"address","internalType":"address"}],"stateMutability":"view"},{"type":"function","name":"usernames","inputs":[{"name":"","type":"address","internalType":"address"}],"outputs":[{"name":"","type":"string","internalType":"string"}],"stateMutability":"view"},{"type":"function","name":"users","inputs":[{"name":"","type":"uint256","internalType":"uint256"}],"outputs":[{"name":"","type":"address","internalType":"address"}],"stateMutability":"view"},{"type":"event","name":"ReputationUpdated","inputs":[{"name":"user","type":"address","indexed":true,"internalType":"address"},{"name":"newScore","type":"uint256","indexed":false,"internalType":"uint256"},{"name":"streak","type":"uint256","indexed":false,"internalType":"uint256"}],"anonymous":false},{"type":"event","name":"RoleAdminChanged","inputs":[{"name":"role","type":"bytes32","indexed":true,"internalType":"bytes32"},{"name":"previousAdminRole","type":"bytes32","indexed":true,"internalType":"bytes32"},{"name":"newAdminRole","type":"bytes32","indexed":true,"internalType":"bytes32"}],"anonymous":false},{"type":"event","name":"RoleGranted","inputs":[{"name":"role","type":"bytes32","indexed":true,"internalType":"bytes32"},{"name":"account","type":"address","indexed":true,"internalType":"address"},{"name":"sender","type":"address","indexed":true,"internalType":"address"}],"anonymous":false},{"type":"event","name":"RoleRevoked","inputs":[{"name":"role","type":"bytes32","indexed":true,"internalType":"bytes32"},{"name":"account","type":"address","indexed":true,"internalType":"address"},{"name":"sender","type":"address","indexed":true,"internalType":"address"}],"anonymous":false},{"type":"event","name":"UsernameSet","inputs":[{"name":"user","type":"address","indexed":true,"internalType":"address"},{"name":"username","type":"string","indexed":false,"internalType":"string"}],"anonymous":false},{"type":"error","name":"AccessControlBadConfirmation","inputs":[]},{"type":"error","name":"AccessControlUnauthorizedAccount","inputs":[{"name":"account","type":"address","internalType":"address"},{"name":"neededRole","type":"bytes32","internalType":"bytes32"}]}],"bytecode":{"object":"0x608060405234801561001057600080fd5b50604051611c38380380611c3883398101604081905261002f91610118565b61003a60008261006c565b506100657f73e573f9566d61418a34d5de3ff49360f9c51fec37f7486551670290f6285dab8261006c565b5050610148565b6000828152602081815260408083206001600160a01b038516845290915281205460ff1661010e576000838152602081815260408083206001600160a01b03861684529091529020805460ff191660011790556100c63390565b6001600160a01b0316826001600160a01b0316847f2f8788117e7eff1d82e926ec794901d17c78024a50270940304540a733656f0d60405160405180910390a4506001610112565b5060005b92915050565b60006020828403121561012a57600080fd5b81516001600160a01b038116811461014157600080fd5b9392505050565b611ae1806101576000396000f3fe608060405234801561001057600080fd5b506004361061018e5760003560e01c806375a67d5c116100de578063ce43c03211610097578063ed59313a11610071578063ed59313a1461047d578063ee91877c14610490578063f69c6dec146104a3578063f825f143146104b657600080fd5b8063ce43c0321461042a578063d547741f1461044a578063de75aa6c1461045d57600080fd5b806375a67d5c146103575780638a65d8741461038357806391d14854146103f4578063a217fddf14610407578063b5cb15f71461040f578063bf3683991461041757600080fd5b8063365b98b21161014b5780634e43603a116101255780634e43603a146102ca5780634f085f421461032957806350882f6d146103315780636322961d1461034457600080fd5b8063365b98b21461026557806347e633801461029057806348f2f20a146102b757600080fd5b806301ffc9a714610193578063163f7522146101bb578063176c5919146101de578063248a9ca31461020c5780632f2ff15d1461023d57806336568abe14610252575b600080fd5b6101a66101a1366004611641565b6104ea565b60405190151581526020015b60405180910390f35b6101a66101c936600461168e565b60036020526000908152604090205460ff1681565b6101a66101ec3660046116bf565b805160208183018101805160068252928201919093012091525460ff1681565b61022f61021a366004611778565b60009081526020819052604090206001015490565b6040519081526020016101b2565b61025061024b366004611791565b610521565b005b610250610260366004611791565b61054c565b610278610273366004611778565b610584565b6040516001600160a01b0390911681526020016101b2565b61022f7f73e573f9566d61418a34d5de3ff49360f9c51fec37f7486551670290f6285dab81565b6102506102c53660046117bd565b6105ae565b6102dd6102d836600461168e565b6107cf565b6040516101b29190600060c082019050825182526020830151602083015260408301516040830152606083015160608301526080830151608083015260a083015160a083015292915050565b61022f606481565b61025061033f36600461168e565b610869565b6102786103523660046116bf565b61089e565b61022f61036536600461168e565b6001600160a01b031660009081526001602052604090206005015490565b6103c761039136600461168e565b60016020819052600091825260409091208054918101546002820154600383015460048401546005909401549293919290919086565b604080519687526020870195909552938501929092526060840152608083015260a082015260c0016101b2565b6101a6610402366004611791565b6108cf565b61022f600081565b60025461022f565b610278610425366004611778565b6108f8565b61043d61043836600461168e565b610908565b6040516101b29190611825565b610250610458366004611791565b6109b4565b61047061046b366004611778565b6109d9565b6040516101b29190611858565b61025061048b3660046116bf565b610d85565b61043d61049e36600461168e565b61110a565b6101a66104b13660046116bf565b6111a4565b6102786104c43660046116bf565b80516020818301810180516005825292820191909301209152546001600160a01b031681565b60006001600160e01b03198216637965db0b60e01b148061051b57506301ffc9a760e01b6001600160e01b03198316145b92915050565b60008281526020819052604090206001015461053c816111d0565b61054683836111dd565b50505050565b6001600160a01b03811633146105755760405163334bd91960e11b815260040160405180910390fd5b61057f828261126f565b505050565b6002818154811061059457600080fd5b6000918252602090912001546001600160a01b0316905081565b7f73e573f9566d61418a34d5de3ff49360f9c51fec37f7486551670290f6285dab6105d8816111d0565b6001600160a01b038416600090815260016020908152604080832060039092529091205460ff16610669576001600160a01b0385166000818152600360205260408120805460ff191660019081179091556002805491820181559091527f405787fa12a823e0f2b7631cc41b3ba8828b3321ca811111fa75cd3aa3bb5ace0180546001600160a01b03191690911790555b8054816000610677836118ba565b919050555083156106e957600181018054906000610694836118ba565b9190505550828160020160008282546106ad91906118d3565b90915550506003810180549060006106c4836118ba565b91905055508060040154816003015411156106e457600381015460048201555b6106f1565b600060038201555b805460009061070157600061071d565b815460018301546107139060646118e6565b61071d91906118fd565b905066038d7ea4c68000826002015461073691906118fd565b600483015461074690600a6118e6565b6107518360326118e6565b61075b91906118d3565b61076591906118d3565b6005830155610773866112da565b856001600160a01b03167f5b88a2e3fc1a53234357ab78c104df11c33ccfa79886793654565ad70b8afb6e836005015484600301546040516107bf929190918252602082015260400190565b60405180910390a2505050505050565b6108086040518060c001604052806000815260200160008152602001600081526020016000815260200160008152602001600081525090565b506001600160a01b0316600090815260016020818152604092839020835160c081018552815481529281015491830191909152600281015492820192909252600382015460608201526004820154608082015260059091015460a082015290565b6000610874816111d0565b61057f7f73e573f9566d61418a34d5de3ff49360f9c51fec37f7486551670290f6285dab836111dd565b60006005826040516108b0919061191f565b908152604051908190036020019020546001600160a01b031692915050565b6000918252602082815260408084206001600160a01b0393909316845291905290205460ff1690565b6007818154811061059457600080fd5b6001600160a01b038116600090815260046020526040902080546060919061092f9061193b565b80601f016020809104026020016040519081016040528092919081815260200182805461095b9061193b565b80156109a85780601f1061097d576101008083540402835291602001916109a8565b820191906000526020600020905b81548152906001019060200180831161098b57829003601f168201915b50505050509050919050565b6000828152602081905260409020600101546109cf816111d0565b610546838361126f565b606060008211610a3c5760405162461bcd60e51b815260206004820152602360248201527f52657075746174696f6e53797374656d3a206c696d6974206d7573742062652060448201526203e20360ec1b60648201526084015b60405180910390fd5b6064821115610a8d5760405162461bcd60e51b815260206004820181905260248201527f52657075746174696f6e53797374656d3a206c696d697420746f6f20686967686044820152606401610a33565b60075460009067ffffffffffffffff811115610aab57610aab6116a9565b604051908082528060200260200182016040528015610ad4578160200160208202803683370190505b50905060005b600754811015610b475760078181548110610af757610af7611975565b9060005260206000200160009054906101000a90046001600160a01b0316828281518110610b2757610b27611975565b6001600160a01b0390921660209283029190910190910152600101610ada565b5060005b8151811015610cc85760005b6001828451610b66919061198b565b610b70919061198b565b811015610cbf576001600084610b8684846118d3565b81518110610b9657610b96611975565b60200260200101516001600160a01b03166001600160a01b031681526020019081526020016000206005015460016000858481518110610bd857610bd8611975565b60200260200101516001600160a01b03166001600160a01b03168152602001908152602001600020600501541015610cb7576000838281518110610c1e57610c1e611975565b6020026020010151905083826001610c3691906118d3565b81518110610c4657610c46611975565b6020026020010151848381518110610c6057610c60611975565b6001600160a01b03909216602092830291909101909101528084610c858460016118d3565b81518110610c9557610c95611975565b60200260200101906001600160a01b031690816001600160a01b031681525050505b600101610b57565b50600101610b4b565b50600081518410610cda578151610cdc565b835b905060008167ffffffffffffffff811115610cf957610cf96116a9565b604051908082528060200260200182016040528015610d22578160200160208202803683370190505b50905060005b82811015610d7c57838181518110610d4257610d42611975565b6020026020010151828281518110610d5c57610d5c611975565b6001600160a01b0390921660209283029190910190910152600101610d28565b50949350505050565b600381511015610de35760405162461bcd60e51b8152602060048201526024808201527f52657075746174696f6e53797374656d3a20757365726e616d6520746f6f20736044820152631a1bdc9d60e21b6064820152608401610a33565b601481511115610e415760405162461bcd60e51b815260206004820152602360248201527f52657075746174696f6e53797374656d3a20757365726e616d6520746f6f206c6044820152626f6e6760e81b6064820152608401610a33565b610e4a8161150b565b610ea85760405162461bcd60e51b815260206004820152602960248201527f52657075746174696f6e53797374656d3a20696e76616c696420757365726e616044820152681b5948199bdc9b585d60ba1b6064820152608401610a33565b600681604051610eb8919061191f565b9081526040519081900360200190205460ff1615610f295760405162461bcd60e51b815260206004820152602860248201527f52657075746174696f6e53797374656d3a20757365726e616d6520616c726561604482015267323c903a30b5b2b760c11b6064820152608401610a33565b3360008181526004602052604081208054610f439061193b565b80601f0160208091040260200160405190810160405280929190818152602001828054610f6f9061193b565b8015610fbc5780601f10610f9157610100808354040283529160200191610fbc565b820191906000526020600020905b815481529060010190602001808311610f9f57829003601f168201915b5050505050905060008151111561102c576000600682604051610fdf919061191f565b908152604051908190036020018120805492151560ff199093169290921790915560059061100e90839061191f565b90815260405190819003602001902080546001600160a01b03191690555b6001600160a01b038216600090815260046020526040902061104e84826119ec565b5081600584604051611060919061191f565b908152602001604051809103902060006101000a8154816001600160a01b0302191690836001600160a01b0316021790555060016006846040516110a4919061191f565b908152604051908190036020018120805492151560ff19909316929092179091556001600160a01b038316907f74d8e560d2e870c35b35dc882df2a5c96e2bf1cdb5ef6dd2f9cb433c8d048853906110fd908690611825565b60405180910390a2505050565b600460205260009081526040902080546111239061193b565b80601f016020809104026020016040519081016040528092919081815260200182805461114f9061193b565b801561119c5780601f106111715761010080835404028352916020019161119c565b820191906000526020600020905b81548152906001019060200180831161117f57829003601f168201915b505050505081565b60006006826040516111b6919061191f565b9081526040519081900360200190205460ff161592915050565b6111da8133611608565b50565b60006111e983836108cf565b611267576000838152602081815260408083206001600160a01b03861684529091529020805460ff1916600117905561121f3390565b6001600160a01b0316826001600160a01b0316847f2f8788117e7eff1d82e926ec794901d17c78024a50270940304540a733656f0d60405160405180910390a450600161051b565b50600061051b565b600061127b83836108cf565b15611267576000838152602081815260408083206001600160a01b0386168085529252808320805460ff1916905551339286917ff6391f5c32d9c69d2a47ea670b442974b53935d1edc7fd64eb21e047a839171b9190a450600161051b565b6000805b60075481101561133057826001600160a01b03166007828154811061130557611305611975565b6000918252602090912001546001600160a01b0316036113285760019150611330565b6001016112de565b508015801561135957506001600160a01b03821660009081526001602052604090206005015415155b1561150757600754606411156113b857600780546001810182556000919091527fa66cc928b5edb82af9bd49922954155ab7b0942694bea4ce44661d9a8736c6880180546001600160a01b0319166001600160a01b0384161790555050565b6000806001600060076000815481106113d3576113d3611975565b60009182526020808320909101546001600160a01b03168352820192909252604001902060050154905060015b60075481101561149e5781600160006007848154811061142257611422611975565b60009182526020808320909101546001600160a01b03168352820192909252604001902060050154101561149657600160006007838154811061146757611467611975565b60009182526020808320909101546001600160a01b031683528201929092526040019020600501549092509050815b600101611400565b506001600160a01b0384166000908152600160205260409020600501548110156105465783600783815481106114d6576114d6611975565b9060005260206000200160006101000a8154816001600160a01b0302191690836001600160a01b0316021790555050505b5050565b600081815b81518110156115fe57600082828151811061152d5761152d611975565b01602001516001600160f81b0319169050600360fc1b81108015906115605750603960f81b6001600160f81b0319821611155b1580156115965750604160f81b6001600160f81b03198216108015906115945750602d60f91b6001600160f81b0319821611155b155b80156115cb5750606160f81b6001600160f81b03198216108015906115c95750603d60f91b6001600160f81b0319821611155b155b80156115e55750605f60f81b6001600160f81b0319821614155b156115f557506000949350505050565b50600101611510565b5060019392505050565b61161282826108cf565b6115075760405163e2517d3f60e01b81526001600160a01b038216600482015260248101839052604401610a33565b60006020828403121561165357600080fd5b81356001600160e01b03198116811461166b57600080fd5b9392505050565b80356001600160a01b038116811461168957600080fd5b919050565b6000602082840312156116a057600080fd5b61166b82611672565b634e487b7160e01b600052604160045260246000fd5b6000602082840312156116d157600080fd5b813567ffffffffffffffff8111156116e857600080fd5b8201601f810184136116f957600080fd5b803567ffffffffffffffff811115611713576117136116a9565b604051601f8201601f19908116603f0116810167ffffffffffffffff81118282101715611742576117426116a9565b60405281815282820160200186101561175a57600080fd5b81602084016020830137600091810160200191909152949350505050565b60006020828403121561178a57600080fd5b5035919050565b600080604083850312156117a457600080fd5b823591506117b460208401611672565b90509250929050565b6000806000606084860312156117d257600080fd5b6117db84611672565b9250602084013580151581146117f057600080fd5b929592945050506040919091013590565b60005b8381101561181c578181015183820152602001611804565b50506000910152565b6020815260008251806020840152611844816040850160208701611801565b601f01601f19169190910160400192915050565b602080825282518282018190526000918401906040840190835b818110156118995783516001600160a01b0316835260209384019390920191600101611872565b509095945050505050565b634e487b7160e01b600052601160045260246000fd5b6000600182016118cc576118cc6118a4565b5060010190565b8082018082111561051b5761051b6118a4565b808202811582820484141761051b5761051b6118a4565b60008261191a57634e487b7160e01b600052601260045260246000fd5b500490565b60008251611931818460208701611801565b9190910192915050565b600181811c9082168061194f57607f821691505b60208210810361196f57634e487b7160e01b600052602260045260246000fd5b50919050565b634e487b7160e01b600052603260045260246000fd5b8181038181111561051b5761051b6118a4565b601f82111561057f57806000526020600020601f840160051c810160208510156119c55750805b601f840160051c820191505b818110156119e557600081556001016119d1565b5050505050565b815167ffffffffffffffff811115611a0657611a066116a9565b611a1a81611a14845461193b565b8461199e565b6020601f821160018114611a4e5760008315611a365750848201515b600019600385901b1c1916600184901b1784556119e5565b600084815260208120601f198516915b82811015611a7e5787850151825560209485019460019092019101611a5e565b5084821015611a9c5786840151600019600387901b60f8161c191681555b50505050600190811b0190555056fea264697066735822122033bf93f0f0f29bf7af1d91b055c18b7486fc9d7ae74e5ee56888a1269c1924cd64736f6c634300081c0033","linkReferences":{}},"methodIdentifiers":{"DEFAULT_ADMIN_ROLE()":"a217fddf","LEADERBOARD_SIZE()":"4f085f42","UPDATER_ROLE()":"47e63380","getAddressByUsername(string)":"6322961d","getReputationScore(address)":"75a67d5c","getRoleAdmin(bytes32)":"248a9ca3","getTopUsers(uint256)":"de75aa6c","getUserCount()":"b5cb15f7","getUserStats(address)":"4e43603a","getUsername(address)":"ce43c032","grantRole(bytes32,address)":"2f2ff15d","grantUpdaterRole(address)":"50882f6d","hasRole(bytes32,address)":"91d14854","isUserRegistered(address)":"163f7522","isUsernameAvailable(string)":"f69c6dec","isUsernameTaken(string)":"176c5919","leaderboard(uint256)":"bf368399","renounceRole(bytes32,address)":"36568abe","revokeRole(bytes32,address)":"d547741f","setUsername(string)":"ed59313a","supportsInterface(bytes4)":"01ffc9a7","updateStats(address,bool,uint256)":"48f2f20a","userStats(address)":"8a65d874","usernameToAddress(string)":"f825f143","usernames(address)":"ee91877c","users(uint256)":"365b98b2"},"id":44}