{"abi":[{"type":"constructor","inputs":[{"name":"_usdt","type":"address","internalType":"address"},{"name":"_factory","type":"address","internalType":"address"},{"name":"_agent","type":"address","internalType":"address"},{"name":"_owner","type":"address","internalType":"address"}],"stateMutability":"nonpayable"},{"type":"function","name":"USDT","inputs":[],"outputs":[{"name":"","type":"address","internalType":"address"}],"stateMutability":"view"},{"type":"function","name":"addLiquidity","inputs":[{"name":"amount","type":"uint256","internalType":"uint256"}],"outputs":[],"stateMutability":"nonpayable"},{"type":"function","name":"agent","inputs":[],"outputs":[{"name":"","type":"address","internalType":"address"}],"stateMutability":"view"},{"type":"function","name":"allocateToMarket","inputs":[{"name":"market","type":"address","internalType":"address"},{"name":"amount","type":"uint256","internalType":"uint256"}],"outputs":[],"stateMutability":"nonpayable"},{"type":"function","name":"availableLiquidity","inputs":[],"outputs":[{"name":"","type":"uint256","internalType":"uint256"}],"stateMutability":"view"},{"type":"function","name":"deposit","inputs":[{"name":"amount","type":"uint256","internalType":"uint256"}],"outputs":[],"stateMutability":"nonpayable"},{"type":"function","name":"depositsEnabled","inputs":[],"outputs":[{"name":"","type":"bool","internalType":"bool"}],"stateMutability":"view"},{"type":"function","name":"factory","inputs":[],"outputs":[{"name":"","type":"address","internalType":"address"}],"stateMutability":"view"},{"type":"function","name":"getPoolStats","inputs":[],"outputs":[{"name":"available","type":"uint256","internalType":"uint256"},{"name":"allocated","type":"uint256","internalType":"uint256"},{"name":"totalValue","type":"uint256","internalType":"uint256"},{"name":"feesEarned","type":"uint256","internalType":"uint256"},{"name":"_totalShares","type":"uint256","internalType":"uint256"},{"name":"_sharePrice","type":"uint256","internalType":"uint256"},{"name":"utilization","type":"uint256","internalType":"uint256"},{"name":"marketsAllocated","type":"uint256","internalType":"uint256"}],"stateMutability":"view"},{"type":"function","name":"marketAllocation","inputs":[{"name":"","type":"address","internalType":"address"}],"outputs":[{"name":"","type":"uint256","internalType":"uint256"}],"stateMutability":"view"},{"type":"function","name":"marketReturned","inputs":[{"name":"","type":"address","internalType":"address"}],"outputs":[{"name":"","type":"bool","internalType":"bool"}],"stateMutability":"view"},{"type":"function","name":"maxAllocationBps","inputs":[],"outputs":[{"name":"","type":"uint256","internalType":"uint256"}],"stateMutability":"view"},{"type":"function","name":"minAllocationBps","inputs":[],"outputs":[{"name":"","type":"uint256","internalType":"uint256"}],"stateMutability":"view"},{"type":"function","name":"minDeposit","inputs":[],"outputs":[{"name":"","type":"uint256","internalType":"uint256"}],"stateMutability":"view"},{"type":"function","name":"owner","inputs":[],"outputs":[{"name":"","type":"address","internalType":"address"}],"stateMutability":"view"},{"type":"function","name":"renounceOwnership","inputs":[],"outputs":[],"stateMutability":"nonpayable"},{"type":"function","name":"rescueTokens","inputs":[{"name":"token","type":"address","internalType":"address"},{"name":"amount","type":"uint256","internalType":"uint256"}],"outputs":[],"stateMutability":"nonpayable"},{"type":"function","name":"returnFromMarket","inputs":[{"name":"principal","type":"uint256","internalType":"uint256"},{"name":"fees","type":"uint256","internalType":"uint256"}],"outputs":[],"stateMutability":"nonpayable"},{"type":"function","name":"setDepositsEnabled","inputs":[{"name":"enabled","type":"bool","internalType":"bool"}],"outputs":[],"stateMutability":"nonpayable"},{"type":"function","name":"setMaxAllocationBps","inputs":[{"name":"newBps","type":"uint256","internalType":"uint256"}],"outputs":[],"stateMutability":"nonpayable"},{"type":"function","name":"setMinAllocationBps","inputs":[{"name":"newBps","type":"uint256","internalType":"uint256"}],"outputs":[],"stateMutability":"nonpayable"},{"type":"function","name":"setMinDeposit","inputs":[{"name":"newMin","type":"uint256","internalType":"uint256"}],"outputs":[],"stateMutability":"nonpayable"},{"type":"function","name":"sharePrice","inputs":[],"outputs":[{"name":"","type":"uint256","internalType":"uint256"}],"stateMutability":"view"},{"type":"function","name":"shares","inputs":[{"name":"","type":"address","internalType":"address"}],"outputs":[{"name":"","type":"uint256","internalType":"uint256"}],"stateMutability":"view"},{"type":"function","name":"totalAllocated","inputs":[],"outputs":[{"name":"","type":"uint256","internalType":"uint256"}],"stateMutability":"view"},{"type":"function","name":"totalDeposited","inputs":[],"outputs":[{"name":"","type":"uint256","internalType":"uint256"}],"stateMutability":"view"},{"type":"function","name":"totalFeesEarned","inputs":[],"outputs":[{"name":"","type":"uint256","internalType":"uint256"}],"stateMutability":"view"},{"type":"function","name":"totalMarketsAllocated","inputs":[],"outputs":[{"name":"","type":"uint256","internalType":"uint256"}],"stateMutability":"view"},{"type":"function","name":"totalPoolValue","inputs":[],"outputs":[{"name":"","type":"uint256","internalType":"uint256"}],"stateMutability":"view"},{"type":"function","name":"totalShares","inputs":[],"outputs":[{"name":"","type":"uint256","internalType":"uint256"}],"stateMutability":"view"},{"type":"function","name":"transferOwnership","inputs":[{"name":"newOwner","type":"address","internalType":"address"}],"outputs":[],"stateMutability":"nonpayable"},{"type":"function","name":"utilizationRate","inputs":[],"outputs":[{"name":"","type":"uint256","internalType":"uint256"}],"stateMutability":"view"},{"type":"function","name":"withdraw","inputs":[{"name":"shareAmount","type":"uint256","internalType":"uint256"}],"outputs":[],"stateMutability":"nonpayable"},{"type":"function","name":"withdrawableAmount","inputs":[{"name":"lp","type":"address","internalType":"address"}],"outputs":[{"name":"","type":"uint256","internalType":"uint256"}],"stateMutability":"view"},{"type":"event","name":"AllocatedToMarket","inputs":[{"name":"market","type":"address","indexed":true,"internalType":"address"},{"name":"amount","type":"uint256","indexed":false,"internalType":"uint256"},{"name":"timestamp","type":"uint256","indexed":false,"internalType":"uint256"}],"anonymous":false},{"type":"event","name":"ConfigUpdated","inputs":[{"name":"parameter","type":"string","indexed":false,"internalType":"string"},{"name":"newValue","type":"uint256","indexed":false,"internalType":"uint256"}],"anonymous":false},{"type":"event","name":"Deposited","inputs":[{"name":"lp","type":"address","indexed":true,"internalType":"address"},{"name":"usdtAmount","type":"uint256","indexed":false,"internalType":"uint256"},{"name":"sharesIssued","type":"uint256","indexed":false,"internalType":"uint256"}],"anonymous":false},{"type":"event","name":"LiquidityAdded","inputs":[{"name":"depositor","type":"address","indexed":true,"internalType":"address"},{"name":"amount","type":"uint256","indexed":false,"internalType":"uint256"}],"anonymous":false},{"type":"event","name":"OwnershipTransferred","inputs":[{"name":"previousOwner","type":"address","indexed":true,"internalType":"address"},{"name":"newOwner","type":"address","indexed":true,"internalType":"address"}],"anonymous":false},{"type":"event","name":"ReturnedFromMarket","inputs":[{"name":"market","type":"address","indexed":true,"internalType":"address"},{"name":"principal","type":"uint256","indexed":false,"internalType":"uint256"},{"name":"fees","type":"uint256","indexed":false,"internalType":"uint256"},{"name":"timestamp","type":"uint256","indexed":false,"internalType":"uint256"}],"anonymous":false},{"type":"event","name":"Withdrawn","inputs":[{"name":"lp","type":"address","indexed":true,"internalType":"address"},{"name":"usdtAmount","type":"uint256","indexed":false,"internalType":"uint256"},{"name":"sharesBurned","type":"uint256","indexed":false,"internalType":"uint256"}],"anonymous":false},{"type":"error","name":"LiquidityPool__AllocationTooLarge","inputs":[{"name":"amount","type":"uint256","internalType":"uint256"},{"name":"max","type":"uint256","internalType":"uint256"}]},{"type":"error","name":"LiquidityPool__AllocationTooSmall","inputs":[{"name":"amount","type":"uint256","internalType":"uint256"},{"name":"min","type":"uint256","internalType":"uint256"}]},{"type":"error","name":"LiquidityPool__AlreadyAllocated","inputs":[{"name":"market","type":"address","internalType":"address"}]},{"type":"error","name":"LiquidityPool__AlreadyReturned","inputs":[{"name":"market","type":"address","internalType":"address"}]},{"type":"error","name":"LiquidityPool__BelowMinDeposit","inputs":[{"name":"amount","type":"uint256","internalType":"uint256"},{"name":"minimum","type":"uint256","internalType":"uint256"}]},{"type":"error","name":"LiquidityPool__BpsTooHigh","inputs":[{"name":"bps","type":"uint256","internalType":"uint256"},{"name":"max","type":"uint256","internalType":"uint256"}]},{"type":"error","name":"LiquidityPool__CannotRescueUSDT","inputs":[]},{"type":"error","name":"LiquidityPool__DepositsDisabled","inputs":[]},{"type":"error","name":"LiquidityPool__InsufficientLiquidity","inputs":[{"name":"requested","type":"uint256","internalType":"uint256"},{"name":"available","type":"uint256","internalType":"uint256"}]},{"type":"error","name":"LiquidityPool__InsufficientShares","inputs":[{"name":"requested","type":"uint256","internalType":"uint256"},{"name":"available","type":"uint256","internalType":"uint256"}]},{"type":"error","name":"LiquidityPool__NoAllocationFound","inputs":[{"name":"market","type":"address","internalType":"address"}]},{"type":"error","name":"LiquidityPool__NotAgent","inputs":[]},{"type":"error","name":"LiquidityPool__NotValidMarket","inputs":[]},{"type":"error","name":"LiquidityPool__ZeroAddress","inputs":[]},{"type":"error","name":"LiquidityPool__ZeroAmount","inputs":[]},{"type":"error","name":"LiquidityPool__ZeroShares","inputs":[]},{"type":"error","name":"OwnableInvalidOwner","inputs":[{"name":"owner","type":"address","internalType":"address"}]},{"type":"error","name":"OwnableUnauthorizedAccount","inputs":[{"name":"account","type":"address","internalType":"address"}]},{"type":"error","name":"ReentrancyGuardReentrantCall","inputs":[]},{"type":"error","name":"SafeERC20FailedOperation","inputs":[{"name":"token","type":"address","internalType":"address"}]}],"bytecode":{"object":"0x60e034620001e257601f6200166338819003918201601f191683019291906001600160401b03841183851017620001e6578160809284926040968752833981010312620001e2576200005181620001fa565b6200005f60208301620001fa565b906200007b606062000073868601620001fa565b9401620001fa565b60017f9b779b17422d0df92223018b32b4d1fa46e071723d6817e2486d003becc55f00556001600160a01b039081168015620001cb575f80546001600160a01b031981168317825587519291908416907f8be0079c531659141344cd1fd0a4f28419497f9722a3daafe3b4186f6b6457e09080a381831615620001bc575080831615620001ab578316156200019a5760805260a05260c052629896806009556101f4600a556032600b55600160ff19600c541617600c5551611453908162000210823960805181818161034d0152818161056b01528181610b3e01528181610d4301528181610df001528181610fa701526112cf015260a0518181816103910152818161073f0152610a62015260c0518181816102200152610a1b0152f35b835163843d263760e01b8152600490fd5b845163843d263760e01b8152600490fd5b63843d263760e01b8152600490fd5b8551631e4fbdf760e01b81525f6004820152602490fd5b5f80fd5b634e487b7160e01b5f52604160045260245ffd5b51906001600160a01b0382168203620001e25756fe60406080815260049081361015610014575f80fd5b5f91823560e01c90816315983e42146110395781631ab9550a1461101a5781632e1a7d4d14610ee45781633a98ef3914610ec557816341b3d18514610ea657816345f7f24914610e8857816348db94ac14610e6957816351c6590a14610db35781635392fd1c14610d8f5781635737619814610d1257816366adf46a146109e65781636a1b2c301461094d5781636c321c8a14610930578163715018a6146108d757816374375359146108ba578163872697291461089d57816389b6634d146107065781638a02775b146106da5781638da5cb5b146106b25781638fcc9cfb146106465781639f04586c1461060f578163b6b55f25146104a4578163b9dc93d614610466578163bbb85188146103ed578163be7ab51b146103c0578163c45a01551461037c578163c54e44eb14610338578163ce7c2ac214610300578163f1c267b9146102e1578163f2fde38b1461024f57508063f5ff5c761461020c578063f9efe4e0146101d5578063fcd3bae5146101b75763ff50abdc14610196575f80fd5b346101b357816003193601126101b3576020906003549051908152f35b5080fd5b50346101b357816003193601126101b357602090600b549051908152f35b50346101b35760203660031901126101b35760209181906001600160a01b036101fc6110ab565b1681526007845220549051908152f35b50346101b357816003193601126101b357517f00000000000000000000000000000000000000000000000000000000000000006001600160a01b03168152602090f35b9050346102dd5760203660031901126102dd5761026a6110ab565b906102736110c5565b6001600160a01b039182169283156102c75750505f54826bffffffffffffffffffffffff60a01b8216175f55167f8be0079c531659141344cd1fd0a4f28419497f9722a3daafe3b4186f6b6457e05f80a380f35b51631e4fbdf760e01b8152908101849052602490fd5b8280fd5b5050346101b357816003193601126101b357602090600a549051908152f35b5050346101b35760203660031901126101b35760209181906001600160a01b036103286110ab565b1681526002845220549051908152f35b5050346101b357816003193601126101b357517f00000000000000000000000000000000000000000000000000000000000000006001600160a01b03168152602090f35b5050346101b357816003193601126101b357517f00000000000000000000000000000000000000000000000000000000000000006001600160a01b03168152602090f35b5050346101b35760203660031901126101b3576020906103e66103e16110ab565b61138a565b9051908152f35b919050346102dd57826003193601126102dd57610100925061040d6112b4565b9154906104218261041c6112b4565b611135565b60055460015490610430611343565b926104396113c5565b9460065496815198895260208901528701526060860152608085015260a084015260c083015260e0820152f35b5050346101b35760203660031901126101b35760209160ff9082906001600160a01b036104916110ab565b1681526008855220541690519015158152f35b919050346102dd5760203660031901126102dd578135916104c36111cb565b60ff600c541615610601576009548084106105e757506104ec6104e46112b4565b825490611135565b60015490811580156105df575b156105c757505082905b81156105b95750907f73a19dd210f1a7f902193214c0ee91dd35ee5b4d920cba8d519eca65a7b488ca913385526002602052818520610543828254611135565b905561055181600154611135565b60015561056084600354611135565b6003556105988430337f00000000000000000000000000000000000000000000000000000000000000006001600160a01b0316611142565b815193845260208401523392a260015f805160206113fe8339815191525580f35b825163116405ef60e11b8152fd5b6105d46105d992866110f0565b611117565b90610503565b5080156104f9565b83604493519263ec92480360e01b84528301526024820152fd5b9051631387bbbd60e01b8152fd5b8390346101b35760203660031901126101b357358015158091036101b3576106356110c5565b60ff8019600c5416911617600c5580f35b9050346102dd5760203660031901126102dd577f12c9dccd129ff783f1c8228eacdfa8e334ddecb7ec5c9a79ec662a4aed3d012a91608091356106876110c5565b80600955600a825192808452830152691b5a5b91195c1bdcda5d60b21b60608301526020820152a180f35b5050346101b357816003193601126101b357905490516001600160a01b039091168152602090f35b828434610703578060031936011261070357506103e66020926106fb6112b4565b905490611135565b80fd5b919050346102dd57806003193601126102dd576024356107246111cb565b81516358e6309f60e01b8152338482015260209081816024817f00000000000000000000000000000000000000000000000000000000000000006001600160a01b03165afa908115610893578691610866575b5015610857573385526008815260ff83862054166108415733855260078152828520541561082b57338552600781526107b48386205485546111fa565b84556107c282600554611135565b60055533855260088152828520600160ff1982541617905560078152848381205582519335845283015242908201527f8a3850b7f5d8ede8560f62fdd770fd014dcb9faf952f4ee1cc2bb96ddd9e342e60603392a260015f805160206113fe8339815191525580f35b825163a4e4ddb360e01b81523381860152602490fd5b825163049d3bf560e11b81523381860152602490fd5b505051632e8c59e560e21b8152fd5b6108869150823d841161088c575b61087e8183611266565b81019061129c565b5f610777565b503d610874565b84513d88823e3d90fd5b5050346101b357816003193601126101b3576020906103e6611343565b5050346101b357816003193601126101b3576020906103e66112b4565b83346107035780600319360112610703576108f06110c5565b5f80546001600160a01b0319811682556001600160a01b03167f8be0079c531659141344cd1fd0a4f28419497f9722a3daafe3b4186f6b6457e08280a380f35b5050346101b357816003193601126101b3576020906103e66113c5565b9050346102dd5760203660031901126102dd5780359061096b6110c5565b6107d08083116109cc57847f12c9dccd129ff783f1c8228eacdfa8e334ddecb7ec5c9a79ec662a4aed3d012a6080868680600a5560108251928084528301526f6d6178416c6c6f636174696f6e42707360801b60608301526020820152a180f35b6044928451926333890b3d60e21b84528301526024820152fd5b839150346101b357826003193601126101b357610a016110ab565b92602493843590610a106111cb565b6001600160a01b03937f000000000000000000000000000000000000000000000000000000000000000085163303610d045783516358e6309f60e01b8152858316828201819052956020939184818b817f000000000000000000000000000000000000000000000000000000000000000086165afa908115610cfa578991610cdd575b5015610ccd578688526008845260ff8689205416610cb7578415610ca757610ab96112b4565b808611610c8c5750610ad4610acc6112b4565b845490611135565b612710610af281610ae7600a54856110f0565b0492600b54906110f0565b04888a5260078652878a205415918215610c7657808811610c5b5750808710610c405750908591888a526007865282888b2055610b30838654611135565b8555610c14575b91610b63927f000000000000000000000000000000000000000000000000000000000000000016611207565b843b15610c1057835163c57fed1360e01b81528181018490529086828981838a5af18015610c0657610bd4575b5050825191825242908201527f86a1726dd9ca543a92abfb6960779cd3bc102a11262c7d2997678f75a77f8b189190a260015f805160206113fe8339815191525580f35b67ffffffffffffffff8297939711610bf457508352939450848680610b90565b634e487b7160e01b8352604190528682fd5b85513d89823e3d90fd5b8580fd5b905060065460018101809111610c2e576006558490610b37565b634e487b7160e01b8952601184528989fd5b846044918c898b51936303705a1b60e21b8552840152820152fd5b856044918d8a8c5193636ac7c8f760e11b8552840152820152fd5b885163e727654360e01b81528087018b90528c90fd5b836044918b888a5193635496b5e960e01b8552840152820152fd5b8551631ef5bc0360e21b81528390fd5b855163049d3bf560e11b81528084018890528990fd5b8551632e8c59e560e21b81528390fd5b610cf49150853d871161088c5761087e8183611266565b8a610a93565b87513d8b823e3d90fd5b8351638363debf60e01b8152fd5b8383346101b357806003193601126101b357610d2c6110ab565b90610d356110c5565b6001600160a01b03918216907f000000000000000000000000000000000000000000000000000000000000000083168214610d80575090610d7d916024359184541690611207565b80f35b5163647f636d60e11b81528490fd5b5050346101b357816003193601126101b35760209060ff600c541690519015158152f35b919050346102dd5760203660031901126102dd57813591610dd26111cb565b8215610e5b5750610de582600354611135565b600355610e1d8230337f00000000000000000000000000000000000000000000000000000000000000006001600160a01b0316611142565b519081527fc17cea59c2955cb181b03393209566960365771dbba9dc3d510180e7cb31208860203392a260015f805160206113fe8339815191525580f35b9051631ef5bc0360e21b8152fd5b5050346101b357816003193601126101b3576020906006549051908152f35b9050346102dd57826003193601126102dd5760209250549051908152f35b5050346101b357816003193601126101b3576020906009549051908152f35b5050346101b357816003193601126101b3576020906001549051908152f35b919050346102dd5760203660031901126102dd578135610f026111cb565b801561100c57338452600260205281842054818110610ff15750610f44610f3b610f35610f2d6112b4565b865490611135565b836110f0565b60015490611117565b92610f4d6112b4565b808511610fd4575050907f92ccf450a286a957af52509bc1c9939d1a6a481783e142e41e2499f0bb66ebc6913385526002602052818520610f8f8282546111fa565b9055610f9d816001546111fa565b60015561059884337f00000000000000000000000000000000000000000000000000000000000000006001600160a01b0316611207565b8351635496b5e960e01b8152918201859052602482015260449150fd5b9151633337652f60e21b815292830152602482015260449150fd5b505163116405ef60e11b8152fd5b5050346101b357816003193601126101b3576020906005549051908152f35b9050346102dd5760203660031901126102dd577f12c9dccd129ff783f1c8228eacdfa8e334ddecb7ec5c9a79ec662a4aed3d012a916080913561107a6110c5565b80600b5560108251928084528301526f6d696e416c6c6f636174696f6e42707360801b60608301526020820152a180f35b600435906001600160a01b03821682036110c157565b5f80fd5b5f546001600160a01b031633036110d857565b60405163118cdaa760e01b8152336004820152602490fd5b8181029291811591840414171561110357565b634e487b7160e01b5f52601160045260245ffd5b8115611121570490565b634e487b7160e01b5f52601260045260245ffd5b9190820180921161110357565b6040516323b872dd60e01b5f9081526001600160a01b03938416600452938316602452604494909452909160209060648180855af160015f51148116156111ac575b836040525f6060521561119657505050565b635274afe760e01b835216600482015260249150fd5b60018115166111c257813b15153d151616611184565b833d5f823e3d90fd5b5f805160206113fe83398151915260028154146111e85760029055565b604051633ee5aeb560e01b8152600490fd5b9190820391821161110357565b60405163a9059cbb60e01b5f9081526001600160a01b039384166004526024949094529260209060448180855af160015f5114811615611250575b836040521561119657505050565b60018115166111c257813b15153d151616611242565b90601f8019910116810190811067ffffffffffffffff82111761128857604052565b634e487b7160e01b5f52604160045260245ffd5b908160209103126110c1575180151581036110c15790565b6040516370a0823160e01b81523060048201526020816024817f00000000000000000000000000000000000000000000000000000000000000006001600160a01b03165afa908115611338575f9161130a575090565b906020823d8211611330575b8161132360209383611266565b8101031261070357505190565b3d9150611316565b6040513d5f823e3d90fd5b6001548015611382576113606113576112b4565b60045490611135565b90620f4240918281029281840414901517156111035761137f91611117565b90565b50620f424090565b60015480156113bf5761137f9160018060a01b03165f5260026020526105d460405f20546113b96113576112b4565b906110f0565b50505f90565b6113cd6112b4565b6113da6004548092611135565b80156113bf57612710918281029281840414901517156111035761137f9161111756fe9b779b17422d0df92223018b32b4d1fa46e071723d6817e2486d003becc55f00a2646970667358221220e5e197d096f53fba7d858c8fde93482f3df2bc59c4d16aedd0b3316d16c8ca4364736f6c63430008140033","linkReferences":{}},"methodIdentifiers":{"USDT()":"c54e44eb","addLiquidity(uint256)":"51c6590a","agent()":"f5ff5c76","allocateToMarket(address,uint256)":"66adf46a","availableLiquidity()":"74375359","deposit(uint256)":"b6b55f25","depositsEnabled()":"5392fd1c","factory()":"c45a0155","getPoolStats()":"bbb85188","marketAllocation(address)":"f9efe4e0","marketReturned(address)":"b9dc93d6","maxAllocationBps()":"f1c267b9","minAllocationBps()":"fcd3bae5","minDeposit()":"41b3d185","owner()":"8da5cb5b","renounceOwnership()":"715018a6","rescueTokens(address,uint256)":"57376198","returnFromMarket(uint256,uint256)":"89b6634d","setDepositsEnabled(bool)":"9f04586c","setMaxAllocationBps(uint256)":"6a1b2c30","setMinAllocationBps(uint256)":"15983e42","setMinDeposit(uint256)":"8fcc9cfb","sharePrice()":"87269729","shares(address)":"ce7c2ac2","totalAllocated()":"45f7f249","totalDeposited()":"ff50abdc","totalFeesEarned()":"1ab9550a","totalMarketsAllocated()":"48db94ac","totalPoolValue()":"8a02775b","totalShares()":"3a98ef39","transferOwnership(address)":"f2fde38b","utilizationRate()":"6c321c8a","withdraw(uint256)":"2e1a7d4d","withdrawableAmount(address)":"be7ab51b"},"id":36}