{"abi":[{"type":"constructor","inputs":[{"name":"_factory","type":"address","internalType":"address"},{"name":"_oracleAgent","type":"address","internalType":"address"},{"name":"_marketMakerAgent","type":"address","internalType":"address"},{"name":"_positionVault","type":"address","internalType":"address"},{"name":"_payoutDistributor","type":"address","internalType":"address"},{"name":"_usdt","type":"address","internalType":"address"},{"name":"_protocolTreasury","type":"address","internalType":"address"},{"name":"_creator","type":"address","internalType":"address"},{"name":"question_","type":"string","internalType":"string"},{"name":"_deadline","type":"uint256","internalType":"uint256"},{"name":"category_","type":"string","internalType":"string"},{"name":"_resolutionSourcesHash","type":"bytes32","internalType":"bytes32"},{"name":"_creatorBond","type":"uint256","internalType":"uint256"}],"stateMutability":"nonpayable"},{"type":"function","name":"USDT","inputs":[],"outputs":[{"name":"","type":"address","internalType":"address"}],"stateMutability":"view"},{"type":"function","name":"cancelMarket","inputs":[{"name":"reason","type":"string","internalType":"string"}],"outputs":[],"stateMutability":"nonpayable"},{"type":"function","name":"category","inputs":[],"outputs":[{"name":"","type":"string","internalType":"string"}],"stateMutability":"view"},{"type":"function","name":"challengeDeadline","inputs":[],"outputs":[{"name":"","type":"uint256","internalType":"uint256"}],"stateMutability":"view"},{"type":"function","name":"challengeResolution","inputs":[],"outputs":[],"stateMutability":"nonpayable"},{"type":"function","name":"challengeResolved","inputs":[],"outputs":[{"name":"","type":"bool","internalType":"bool"}],"stateMutability":"view"},{"type":"function","name":"challengeStake","inputs":[],"outputs":[{"name":"","type":"uint256","internalType":"uint256"}],"stateMutability":"view"},{"type":"function","name":"challenger","inputs":[],"outputs":[{"name":"","type":"address","internalType":"address"}],"stateMutability":"view"},{"type":"function","name":"creator","inputs":[],"outputs":[{"name":"","type":"address","internalType":"address"}],"stateMutability":"view"},{"type":"function","name":"creatorBond","inputs":[],"outputs":[{"name":"","type":"uint256","internalType":"uint256"}],"stateMutability":"view"},{"type":"function","name":"deadline","inputs":[],"outputs":[{"name":"","type":"uint256","internalType":"uint256"}],"stateMutability":"view"},{"type":"function","name":"distributePayout","inputs":[{"name":"winners","type":"address[]","internalType":"address[]"},{"name":"amounts","type":"uint256[]","internalType":"uint256[]"}],"outputs":[],"stateMutability":"nonpayable"},{"type":"function","name":"factory","inputs":[],"outputs":[{"name":"","type":"address","internalType":"address"}],"stateMutability":"view"},{"type":"function","name":"finalizeResolution","inputs":[],"outputs":[],"stateMutability":"nonpayable"},{"type":"function","name":"getMarketInfo","inputs":[],"outputs":[{"name":"question_","type":"string","internalType":"string"},{"name":"deadline_","type":"uint256","internalType":"uint256"},{"name":"status_","type":"uint8","internalType":"enum IMarketContract.MarketStatus"},{"name":"outcome_","type":"bool","internalType":"bool"},{"name":"totalCollateral_","type":"uint256","internalType":"uint256"},{"name":"challengeDeadline_","type":"uint256","internalType":"uint256"},{"name":"verdictReasoningHash_","type":"bytes32","internalType":"bytes32"},{"name":"category_","type":"string","internalType":"string"},{"name":"creator_","type":"address","internalType":"address"}],"stateMutability":"view"},{"type":"function","name":"hasBet","inputs":[{"name":"bettor","type":"address","internalType":"address"}],"outputs":[{"name":"","type":"bool","internalType":"bool"}],"stateMutability":"view"},{"type":"function","name":"isChallengeWindowOpen","inputs":[],"outputs":[{"name":"","type":"bool","internalType":"bool"}],"stateMutability":"view"},{"type":"function","name":"liquidityTier","inputs":[],"outputs":[{"name":"","type":"uint8","internalType":"enum IMarketContract.LiquidityTier"}],"stateMutability":"view"},{"type":"function","name":"marketMakerAgent","inputs":[],"outputs":[{"name":"","type":"address","internalType":"address"}],"stateMutability":"view"},{"type":"function","name":"oracleAgent","inputs":[],"outputs":[{"name":"","type":"address","internalType":"address"}],"stateMutability":"view"},{"type":"function","name":"outcome","inputs":[],"outputs":[{"name":"","type":"bool","internalType":"bool"}],"stateMutability":"view"},{"type":"function","name":"payoutDistributor","inputs":[],"outputs":[{"name":"","type":"address","internalType":"address"}],"stateMutability":"view"},{"type":"function","name":"placeBet","inputs":[{"name":"encryptedCommitment","type":"bytes","internalType":"bytes"},{"name":"collateralAmount","type":"uint256","internalType":"uint256"}],"outputs":[],"stateMutability":"nonpayable"},{"type":"function","name":"positionVault","inputs":[],"outputs":[{"name":"","type":"address","internalType":"address"}],"stateMutability":"view"},{"type":"function","name":"postResolution","inputs":[{"name":"verdict","type":"bool","internalType":"bool"},{"name":"reasoningHash","type":"bytes32","internalType":"bytes32"},{"name":"teeAttestation","type":"bytes","internalType":"bytes"}],"outputs":[],"stateMutability":"nonpayable"},{"type":"function","name":"processChallengeOutcome","inputs":[{"name":"challengeUpheld","type":"bool","internalType":"bool"}],"outputs":[],"stateMutability":"nonpayable"},{"type":"function","name":"protocolTreasury","inputs":[],"outputs":[{"name":"","type":"address","internalType":"address"}],"stateMutability":"view"},{"type":"function","name":"question","inputs":[],"outputs":[{"name":"","type":"string","internalType":"string"}],"stateMutability":"view"},{"type":"function","name":"requiredChallengeStake","inputs":[],"outputs":[{"name":"","type":"uint256","internalType":"uint256"}],"stateMutability":"view"},{"type":"function","name":"resolutionSourcesHash","inputs":[],"outputs":[{"name":"","type":"bytes32","internalType":"bytes32"}],"stateMutability":"view"},{"type":"function","name":"resolutionTimestamp","inputs":[],"outputs":[{"name":"","type":"uint256","internalType":"uint256"}],"stateMutability":"view"},{"type":"function","name":"status","inputs":[],"outputs":[{"name":"","type":"uint8","internalType":"enum IMarketContract.MarketStatus"}],"stateMutability":"view"},{"type":"function","name":"timeUntilDeadline","inputs":[],"outputs":[{"name":"","type":"uint256","internalType":"uint256"}],"stateMutability":"view"},{"type":"function","name":"totalCollateral","inputs":[],"outputs":[{"name":"","type":"uint256","internalType":"uint256"}],"stateMutability":"view"},{"type":"function","name":"triggerResolution","inputs":[],"outputs":[],"stateMutability":"nonpayable"},{"type":"function","name":"verdictReasoningHash","inputs":[],"outputs":[{"name":"","type":"bytes32","internalType":"bytes32"}],"stateMutability":"view"},{"type":"event","name":"BetPlaced","inputs":[{"name":"market","type":"address","indexed":true,"internalType":"address"},{"name":"bettor","type":"address","indexed":true,"internalType":"address"},{"name":"collateralAmount","type":"uint256","indexed":false,"internalType":"uint256"},{"name":"positionIndex","type":"uint256","indexed":false,"internalType":"uint256"}],"anonymous":false},{"type":"event","name":"ChallengeRejected","inputs":[{"name":"market","type":"address","indexed":true,"internalType":"address"},{"name":"challenger","type":"address","indexed":true,"internalType":"address"},{"name":"slashedStake","type":"uint256","indexed":false,"internalType":"uint256"}],"anonymous":false},{"type":"event","name":"ChallengeUpheld","inputs":[{"name":"market","type":"address","indexed":true,"internalType":"address"},{"name":"challenger","type":"address","indexed":true,"internalType":"address"},{"name":"reward","type":"uint256","indexed":false,"internalType":"uint256"}],"anonymous":false},{"type":"event","name":"CreatorBondRefunded","inputs":[{"name":"market","type":"address","indexed":true,"internalType":"address"},{"name":"creator","type":"address","indexed":true,"internalType":"address"},{"name":"amount","type":"uint256","indexed":false,"internalType":"uint256"}],"anonymous":false},{"type":"event","name":"FeeDistributed","inputs":[{"name":"amount","type":"uint256","indexed":false,"internalType":"uint256"},{"name":"recipient","type":"address","indexed":true,"internalType":"address"},{"name":"feeType","type":"string","indexed":false,"internalType":"string"}],"anonymous":false},{"type":"event","name":"MarketCancelled","inputs":[{"name":"market","type":"address","indexed":true,"internalType":"address"},{"name":"reason","type":"string","indexed":false,"internalType":"string"}],"anonymous":false},{"type":"event","name":"PayoutsDistributed","inputs":[{"name":"market","type":"address","indexed":true,"internalType":"address"},{"name":"totalDistributed","type":"uint256","indexed":false,"internalType":"uint256"},{"name":"winnerCount","type":"uint256","indexed":false,"internalType":"uint256"}],"anonymous":false},{"type":"event","name":"ResolutionChallenged","inputs":[{"name":"market","type":"address","indexed":true,"internalType":"address"},{"name":"challenger","type":"address","indexed":true,"internalType":"address"},{"name":"challengeStake","type":"uint256","indexed":false,"internalType":"uint256"}],"anonymous":false},{"type":"event","name":"ResolutionFinalized","inputs":[{"name":"market","type":"address","indexed":true,"internalType":"address"},{"name":"outcome","type":"bool","indexed":false,"internalType":"bool"},{"name":"timestamp","type":"uint256","indexed":false,"internalType":"uint256"}],"anonymous":false},{"type":"event","name":"ResolutionPosted","inputs":[{"name":"market","type":"address","indexed":true,"internalType":"address"},{"name":"verdict","type":"bool","indexed":false,"internalType":"bool"},{"name":"reasoningHash","type":"bytes32","indexed":false,"internalType":"bytes32"},{"name":"challengeDeadline","type":"uint256","indexed":false,"internalType":"uint256"}],"anonymous":false},{"type":"event","name":"ResolutionTriggered","inputs":[{"name":"market","type":"address","indexed":true,"internalType":"address"},{"name":"timestamp","type":"uint256","indexed":false,"internalType":"uint256"}],"anonymous":false},{"type":"error","name":"ECDSAInvalidSignature","inputs":[]},{"type":"error","name":"ECDSAInvalidSignatureLength","inputs":[{"name":"length","type":"uint256","internalType":"uint256"}]},{"type":"error","name":"ECDSAInvalidSignatureS","inputs":[{"name":"s","type":"bytes32","internalType":"bytes32"}]},{"type":"error","name":"FeeLib__FeesExceedCollateral","inputs":[{"name":"fees","type":"uint256","internalType":"uint256"},{"name":"collateral","type":"uint256","internalType":"uint256"}]},{"type":"error","name":"FeeLib__ZeroCollateral","inputs":[]},{"type":"error","name":"MarketContract__AlreadyCancelled","inputs":[]},{"type":"error","name":"MarketContract__ArrayLengthMismatch","inputs":[]},{"type":"error","name":"MarketContract__ChallengeAlreadyFiled","inputs":[]},{"type":"error","name":"MarketContract__ChallengeWindowClosed","inputs":[]},{"type":"error","name":"MarketContract__ChallengeWindowStillOpen","inputs":[]},{"type":"error","name":"MarketContract__DeadlineNotReached","inputs":[]},{"type":"error","name":"MarketContract__DeadlinePassed","inputs":[]},{"type":"error","name":"MarketContract__InsufficientChallengeStake","inputs":[{"name":"provided","type":"uint256","internalType":"uint256"},{"name":"required","type":"uint256","internalType":"uint256"}]},{"type":"error","name":"MarketContract__InvalidTeeAttestation","inputs":[]},{"type":"error","name":"MarketContract__NoChallengeToProcess","inputs":[]},{"type":"error","name":"MarketContract__NotChallenged","inputs":[]},{"type":"error","name":"MarketContract__NotOpen","inputs":[]},{"type":"error","name":"MarketContract__NotOracleAgent","inputs":[]},{"type":"error","name":"MarketContract__NotPayoutDistributor","inputs":[]},{"type":"error","name":"MarketContract__NotPendingResolution","inputs":[]},{"type":"error","name":"MarketContract__NotPositionVault","inputs":[]},{"type":"error","name":"MarketContract__NotResolved","inputs":[]},{"type":"error","name":"MarketContract__TransferFailed","inputs":[]},{"type":"error","name":"MarketContract__ZeroCollateral","inputs":[]},{"type":"error","name":"ReentrancyGuardReentrantCall","inputs":[]},{"type":"error","name":"SafeERC20FailedOperation","inputs":[{"name":"token","type":"address","internalType":"address"}]}],"bytecode":{"object":"0x6101e0604052346200058057620026ba803803806200001e8162000584565b9283396101a082828101031262000580576200003a82620005aa565b906200004960208401620005aa565b926200005860408201620005aa565b916200006760608301620005aa565b6200007560808401620005aa565b6200008360a08501620005aa565b6200009160c08601620005aa565b91620000a060e08701620005aa565b6101008701519094906001600160401b0381116200058057620000c990878901908901620005bf565b976101208801519661014089015160018060401b0381116200058057620000f5918a01908a01620005bf565b9a6101806101608a01519901519a60017f9b779b17422d0df92223018b32b4d1fa46e071723d6817e2486d003becc55f005560805260a05260c05260e05261010052610120526101405261016052610180526101a0526101c091825280519060018060401b0382116200056c575f91825491600183811c9316801562000561575b60208410146200054d578190601f93848111620004fa575b506020908483116001146200049257859262000486575b50508160011b915f199060031b1c19161782555b8351916001600160401b0383116200047257600154600181811c9116801562000467575b602082101462000453578281116200040b575b506020918311600114620003875793829394926200037b575b50508160011b915f199060031b1c1916176001555b600160ff19600254161760025560405161208a9182620006308339608051826105aa015260a0518281816101d3015281816108d601528181610a3e01528181610cff01528181610ffb0152611d9d015260c0518281816105240152610856015260e051828181610b6801528181610e19015281816110bd015261112d01526101005182818161063701526109cc0152610120518281816102ad015281816103810152818161056701528181610747015281816107d80152818161087a015281816108fa01528181610dcc0152818161114f015281816111a20152818161161a0152611c7b0152610140518281816107b401528181610cbc0152611180015261016051828181611502015281816116eb0152611c55015261018051828181610d830152818161122c015281816113b7015281816114ab0152611bb601526101a0518261141701525181818161108c015281816113340152611c240152f35b015190505f8062000209565b60018152601f198316947fb10e2d527612073b26eecdfd717e6a320cf44b4afac2b0732d9fcbe2b7fa0cf692915b868110620003f25750836001959610620003d9575b505050811b016001556200021e565b01515f1960f88460031b161c191690555f8080620003ca565b91926020600181928685015181550194019201620003b5565b60018252602082208380860160051c8201926020871062000449575b0160051c01905b8181106200043d5750620001f0565b8281556001016200042e565b9250819262000427565b634e487b7160e01b82526022600452602482fd5b90607f1690620001dd565b634e487b7160e01b81526041600452602490fd5b015190505f80620001a5565b858052602086209250601f198416865b818110620004e15750908460019594939210620004c8575b505050811b018255620001b9565b01515f1960f88460031b161c191690555f8080620004ba565b92936020600181928786015181550195019301620004a2565b909150848052602085208480850160051c8201926020861062000543575b9085949392910160051c01905b8181106200053457506200018e565b86815584935060010162000525565b9250819262000518565b634e487b7160e01b84526022600452602484fd5b92607f169262000176565b634e487b7160e01b5f52604160045260245ffd5b5f80fd5b6040519190601f01601f191682016001600160401b038111838210176200056c57604052565b51906001600160a01b03821682036200058057565b919080601f84011215620005805782516001600160401b0381116200056c57602090620005f5601f8201601f1916830162000584565b9281845282828701011162000580575f5b8181106200061b5750825f9394955001015290565b85810183015184820184015282016200060656fe608060409080825260049182361015610016575f80fd5b5f91823560e01c90816302d05d3f146116d75750806313403447146115b9578063136f10161461157a5780631bfc5e021461155c578063200d2ed21461153457806323341a0514611456578063237566501461143a578063248527f31461140057806327793f87146113da57806329dcb0cf146113a057806329ef5e58146113745780633fad9ae014611357578063459d6e4f1461131d5780634ac8eb5f146112ff578063534db0e2146112d7578063571dc452146112b95780636237c7f71461120057806364ff1cb314610fbd57806365024da614610d2e5780637d618bb614610ceb578063803db96d14610ca857806383c44a6614610c8557806385af5d3514610c675780639349d05114610b9757806398654aff14610b54578063999a1642146109fb578063b3371047146109b8578063b6707fb6146105d9578063c45a015514610596578063c54e44eb14610553578063c792adb614610510578063c8b58dc51461049c578063ca593dad1461047e578063d8812a131461045b578063ef430aa6146104275763ffecfe8b146101ae575f80fd5b34610423576020366003190112610423576101c76117b5565b6001600160a01b0393907f000000000000000000000000000000000000000000000000000000000000000085811633036104105760ff6002541660078110156103fd576003036103ed578560075416156103dd5760ff199160018360095416176009555f14610352575060025461ff0060ff8260081c161560081b169061ff001916176002556102578254611f28565b51946113889586810296818804149015171561033f576127107fa4acb9df7f70b3988e02696551c758c0501984856f33a81371a86a3e376811a694959604906102d26102a5836008546117f5565b8260075416837f000000000000000000000000000000000000000000000000000000000000000016611961565b600754169085519081527fd0f09e0ef7ecb6045de08da31349d7a2240f9e1119b6ef1ea9dd5b26d00d8e1060203092a35b600254161791826002555180610331309460ff429160081c1683602090939291936040810194151581520152565b0390a261033c611c22565b80f35b601183634e487b7160e01b5f525260245ffd5b946103a67fa4acb9df7f70b3988e02696551c758c0501984856f33a81371a86a3e376811a694959660085490837f000000000000000000000000000000000000000000000000000000000000000016611961565b6007541660085485519081527fb71648944e0587c53dbf15e84af38e1d84ba55cc989f8cae8d1eb05beb9c9fb760203092a3610303565b835163448c835f60e01b81528390fd5b8351632000760360e21b81528390fd5b634e487b7160e01b865260218452602486fd5b83516001621bb8dd60e31b031981528390fd5b5080fd5b503461042357816003193601126104235761045790610444611ac9565b905191829160208352602083019061173b565b0390f35b503461042357816003193601126104235760209060ff6009541690519015158152f35b50346104235781600319360112610423576020906005549051908152f35b50903461050d578060031936011261050d5760ff600254169260078410156104fa5760206003851484816104ed575b816104d9575b519015158152f35b6007546001600160a01b03161591506104d1565b60055442111591506104cb565b634e487b7160e01b825260219052602490fd5b80fd5b5034610423578160031936011261042357517f00000000000000000000000000000000000000000000000000000000000000006001600160a01b03168152602090f35b5034610423578160031936011261042357517f00000000000000000000000000000000000000000000000000000000000000006001600160a01b03168152602090f35b5034610423578160031936011261042357517f00000000000000000000000000000000000000000000000000000000000000006001600160a01b03168152602090f35b508290346109b457806003193601126109b45767ffffffffffffffff82358181116109b05761060b90369085016117c4565b916024359081116109ac5761062390369086016117c4565b9061062c611932565b6001600160a01b03957f00000000000000000000000000000000000000000000000000000000000000008716330361099e5760ff60025416600781101561098b57810361097d5782850361096f57610685869154611f28565b8051806108d1575b5060208101888151918261082c575b50505001868151918261078a575b5050508695875b8581106106fe5788887f738f18d610d0656b817ed217bc72afb5aec108c09f356495b533e2da046270f88989815193845260208401523092a260015f805160206120358339815191525580f35b6107098185856119c0565b35610717575b6001016106b1565b966107238887876119c0565b3582811681036107865760019161076c61077e926107428c89896119c0565b3590867f000000000000000000000000000000000000000000000000000000000000000016611961565b6107778a87876119c0565b35906117f5565b97905061070f565b8980fd5b7ffeb2c7c51697d22e9aa290e5a55c2faa6cc7629e5485718b07c466e34f54c300916080916107fd7f00000000000000000000000000000000000000000000000000000000000000009586847f000000000000000000000000000000000000000000000000000000000000000016611961565b5193895194855289602086015260088a860152671c1c9bdd1bd8dbdb60c21b60608601521692a28786816106aa565b7ffeb2c7c51697d22e9aa290e5a55c2faa6cc7629e5485718b07c466e34f54c3009160809161089f7f00000000000000000000000000000000000000000000000000000000000000009586847f000000000000000000000000000000000000000000000000000000000000000016611961565b51938651948552866020860152600b878601526a36b0b935b2ba36b0b5b2b960a91b60608601521692a289888161069c565b61091f7f000000000000000000000000000000000000000000000000000000000000000091828b7f000000000000000000000000000000000000000000000000000000000000000016611961565b7ffeb2c7c51697d22e9aa290e5a55c2faa6cc7629e5485718b07c466e34f54c30060808a8451938651948552866020860152600687860152656f7261636c6560d01b60608601521692a28961068d565b8551634154c95760e11b8152fd5b8551637c6f529b60e11b8152fd5b634e487b7160e01b895260218252602489fd5b85516354a9666160e01b8152fd5b8580fd5b8480fd5b8280fd5b5034610423578160031936011261042357517f00000000000000000000000000000000000000000000000000000000000000006001600160a01b03168152602090f35b5082346109b45760603660031901126109b457610a166117b5565b9160243560443567ffffffffffffffff81116109ac57610a399036908501611783565b9094907f00000000000000000000000000000000000000000000000000000000000000006001600160a01b03163303610b44576002549560ff87166007811015610b3157600203610b215790610a90918484611cd1565b15610b1257151593816003554260065562015180420193844211610aff57506003908460055561ff008660081b169061ffff19161717600255815193845260208401528201527ffd97318e127b16b74c63acff4a04334b9ab491b8f2ffc20707c45cbf13df4d3360603092a280f35b634e487b7160e01b875260119052602486fd5b505051631364228160e31b8152fd5b8451637c857f7160e01b81528690fd5b634e487b7160e01b895260218752602489fd5b50505051631fe4472360e31b8152fd5b5034610423578160031936011261042357517f00000000000000000000000000000000000000000000000000000000000000006001600160a01b03168152602090f35b5082346109b457826003193601126109b45760025460ff81166007811015610c5457600303610c4557600554421115610c36576007546001600160a01b0316610c275760ff1916176002819055905160089190911c60ff161515815242602082015230907fa4acb9df7f70b3988e02696551c758c0501984856f33a81371a86a3e376811a6908060408101610331565b50905163a91c3b5b60e01b8152fd5b5090516306117a9960e01b8152fd5b509051632000760360e21b8152fd5b634e487b7160e01b855260218352602485fd5b50346104235781600319360112610423576020906006549051908152f35b5034610423578160031936011261042357602090610ca1611bb4565b9051908152f35b5034610423578160031936011261042357517f00000000000000000000000000000000000000000000000000000000000000006001600160a01b03168152602090f35b5034610423578160031936011261042357517f00000000000000000000000000000000000000000000000000000000000000006001600160a01b03168152602090f35b5082346109b457816003193601126109b457803567ffffffffffffffff8111610fb957610d5e9036908301611783565b9060243592610d6b611932565b60ff600254166007811015610fa657600103610f98577f0000000000000000000000000000000000000000000000000000000000000000421015610f8a57620f42408410610f7c578215610f6e576001600160a01b03918690610df28630337f000000000000000000000000000000000000000000000000000000000000000088166118a9565b610dfd8684546117f5565b8355338252602093600a8552878320600160ff198254161790557f00000000000000000000000000000000000000000000000000000000000000001694853b156109b45787516259632960e31b815230858201523360248201526080604482015291839183918291610e749160848401919061187c565b896064830152038183895af18015610f6457610f50575b5050816024938651948580926285fa7160e71b825230868301525afa928315610f46578693610f17575b505f198301928311610f04575083519283528201527f61e034d80d9bd9b8dcd5d07434c03615017de4a6a229fe18bb93863bd20341a833923092a360015f805160206120358339815191525580f35b634e487b7160e01b865260119052602485fd5b9092508181813d8311610f3f575b610f2f818361185a565b810103126109ac57519186610eb5565b503d610f25565b85513d88823e3d90fd5b610f5990611816565b6109ac578587610e8b565b87513d84823e3d90fd5b8451631364228160e31b8152fd5b84516326f9a6d560e21b8152fd5b8451630c35d3d360e01b8152fd5b845163376f7bc960e01b8152fd5b634e487b7160e01b875260218252602487fd5b8380fd5b503461042357602036600319011261042357823567ffffffffffffffff81116109b457610fed9036908501611783565b9093906001600160a01b03907f0000000000000000000000000000000000000000000000000000000000000000821633036104105760025460ff811660078110156111ed57600581146111dd576002036111cd57611087869760057f69571ef5701bc1cb2a5b4e5ad988ffb80e2b3d603e7cd8918a27fc61d54f2ab29360ff1916176002558651918291602083523095602084019161187c565b0390a27f00000000000000000000000000000000000000000000000000000000000000008061117a575b50815480611127575b507f000000000000000000000000000000000000000000000000000000000000000016803b15611122576024849284519586938492639b63282960e01b845230908401525af19081156111195750611110575080f35b61033c90611816565b513d84823e3d90fd5b505050fd5b611174907f0000000000000000000000000000000000000000000000000000000000000000837f000000000000000000000000000000000000000000000000000000000000000016611961565b5f6110ba565b6111c7907f0000000000000000000000000000000000000000000000000000000000000000837f000000000000000000000000000000000000000000000000000000000000000016611961565b5f6110b1565b8451637c857f7160e01b81528490fd5b8551630e081d4160e31b81528590fd5b634e487b7160e01b875260218552602487fd5b5082346109b457826003193601126109b4576002549060ff821660078110156112a657600103611298577f0000000000000000000000000000000000000000000000000000000000000000421061128a575060029060ff191617600255514281527f8a026f0b097fdcfe809810fb54c34c3533c62365f31022492eb067e65519869b60203092a280f35b8251638f6e807760e01b8152fd5b825163376f7bc960e01b8152fd5b634e487b7160e01b855260218252602485fd5b50346104235781600319360112610423576020906008549051908152f35b503461042357816003193601126104235760075490516001600160a01b039091168152602090f35b5082346109b457826003193601126109b45760209250549051908152f35b5034610423578160031936011261042357602090517f00000000000000000000000000000000000000000000000000000000000000008152f35b5034610423578160031936011261042357610457906104446119e4565b5034610423578160031936011261042357602090611390611b78565b90519061139c81611779565b8152f35b5034610423578160031936011261042357602090517f00000000000000000000000000000000000000000000000000000000000000008152f35b503461042357816003193601126104235760209060ff60025460081c1690519015158152f35b5034610423578160031936011261042357602090517f00000000000000000000000000000000000000000000000000000000000000008152f35b5034610423578160031936011261042357602090610ca1611bf0565b5091903461050d578060031936011261050d57506115006114a892600254925492600554600354906114866119e4565b9560ff611491611ac9565b946114d987519a8b9a610120808d528c019061173b565b977f000000000000000000000000000000000000000000000000000000000000000060208c01528a0183831661171a565b60081c1615156060880152608087015260a086015260c085015283820360e085015261173b565b7f00000000000000000000000000000000000000000000000000000000000000006001600160a01b03166101008301520390f35b503461042357816003193601126104235760209061155a60ff600254169151809261171a565bf35b50346104235781600319360112610423576020906003549051908152f35b5082346109b45760203660031901126109b457356001600160a01b038116908190036109b457818360ff9260209552600a855220541690519015158152f35b508290346109b457826003193601126109b4576115d4611932565b60ff6002541660078110156116c4576003036116b75760055442116116aa576007546001600160a01b039290831661169c575061163f611612611bf0565b8093309033907f0000000000000000000000000000000000000000000000000000000000000000166118a9565b336bffffffffffffffffffffffff60a01b6007541617600755816008555190815233907f1288ffc9982cc1fb5d4f688c32cec5a69f33ee50fdd218186e48a813caea75db60203092a360015f805160206120358339815191525580f35b905163a91c3b5b60e01b8152fd5b5163aeab0d9360e01b8152fd5b51632000760360e21b8152fd5b634e487b7160e01b845260218352602484fd5b8390346104235781600319360112610423577f00000000000000000000000000000000000000000000000000000000000000006001600160a01b03168152602090f35b9060078210156117275752565b634e487b7160e01b5f52602160045260245ffd5b91908251928382525f5b848110611765575050825f602080949584010152601f8019910116010190565b602081830181015184830182015201611745565b6004111561172757565b9181601f840112156117b15782359167ffffffffffffffff83116117b157602083818601950101116117b157565b5f80fd5b6004359081151582036117b157565b9181601f840112156117b15782359167ffffffffffffffff83116117b1576020808501948460051b0101116117b157565b9190820180921161180257565b634e487b7160e01b5f52601160045260245ffd5b67ffffffffffffffff811161182a57604052565b634e487b7160e01b5f52604160045260245ffd5b6060810190811067ffffffffffffffff82111761182a57604052565b90601f8019910116810190811067ffffffffffffffff82111761182a57604052565b908060209392818452848401375f828201840152601f01601f1916010190565b9190820391821161180257565b6040516323b872dd60e01b5f9081526001600160a01b03938416600452938316602452604494909452909160209060648180855af160015f5114811615611913575b836040525f606052156118fd57505050565b635274afe760e01b835216600482015260249150fd5b600181151661192957813b15153d1516166118eb565b833d5f823e3d90fd5b5f80516020612035833981519152600281541461194f5760029055565b604051633ee5aeb560e01b8152600490fd5b60405163a9059cbb60e01b5f9081526001600160a01b039384166004526024949094529260209060448180855af160015f51148116156119aa575b83604052156118fd57505050565b600181151661192957813b15153d15161661199c565b91908110156119d05760051b0190565b634e487b7160e01b5f52603260045260245ffd5b604051905f805490600182811c90808416938415611abf575b6020948584108114611aab5783885287949392918115611a8b5750600114611a30575b5050611a2e9250038361185a565b565b5f8080527f290decd9548b62a8d60345a988386fc84ba6bc95484008f6362f93160ef3e56395935091905b818310611a73575050611a2e93508201015f80611a20565b85548884018501529485019487945091830191611a5b565b915050611a2e94925060ff191682840152151560051b8201015f80611a20565b634e487b7160e01b85526022600452602485fd5b91607f16916119fd565b604051905f60019081549182811c90808416938415611b6e575b6020948584108114611aab5783885287949392918115611a8b5750600114611b13575050611a2e9250038361185a565b5f8181527fb10e2d527612073b26eecdfd717e6a320cf44b4afac2b0732d9fcbe2b7fa0cf695935091905b818310611b56575050611a2e93508201015f80611a20565b85548884018501529485019487945091830191611b3e565b91607f1691611ae3565b6004546402540be400811015611bae57633b9aca00811015611ba8576305f5e1001115611ba3575f90565b600190565b50600290565b50600390565b7f000000000000000000000000000000000000000000000000000000000000000080421015611beb57611be890429061189c565b90565b505f90565b6004546101f4908181029181830414901517156118025761271090046302faf08080821115611c1d575090565b905090565b7f000000000000000000000000000000000000000000000000000000000000000080611c4b5750565b6001600160a01b037f0000000000000000000000000000000000000000000000000000000000000000611ca183827f00000000000000000000000000000000000000000000000000000000000000008516611961565b60405192835216907f681d1ef9341f6c23fce4142535ac171a0b421bcaee4df95f2fdfd429f2556f1160203092a3565b908315611dcd576040519060208201923060601b8452151560f81b6034830152603582015260358152611d038161183e565b51902060405160208101917f19457468657265756d205369676e6564204d6573736167653a0a3332000000008352603c820152603c8152611d438161183e565b51902067ffffffffffffffff831161182a5760405190611d6d601f8501601f19166020018361185a565b83825236848401116117b1575f602085611d9b96611d92968387013784010152611dd5565b90929192611e9d565b7f00000000000000000000000000000000000000000000000000000000000000006001600160a01b0390811691161490565b505050505f90565b8151919060418303611e0557611dfe9250602082015190606060408401519301515f1a90611e0f565b9192909190565b50505f9160029190565b91907f7fffffffffffffffffffffffffffffff5d576e7357a4501ddfe92f46681b20a08411611e9257926020929160ff6080956040519485521684840152604083015260608201525f92839182805260015afa15611e865780516001600160a01b03811615611e7d57918190565b50809160019190565b604051903d90823e3d90fd5b5050505f9160039190565b611ea681611779565b80611eaf575050565b611eb881611779565b60018103611ed25760405163f645eedf60e01b8152600490fd5b611edb81611779565b60028103611efc5760405163fce698f760e01b815260048101839052602490fd5b80611f08600392611779565b14611f105750565b602490604051906335e2f38360e21b82526004820152fd5b906040519160a0830183811067ffffffffffffffff82111761182a576040525f92838152602081019084825260408101858152606082019286845260808301928784528097861561200c576127109081611f818961201e565b04835281611f8e8961201e565b0484526032880290888204603203611ff85750048352519051611fcb92611fc2929091611fba916117f5565b9051906117f5565b8084528461189c565b90525190808211611fda575050565b604492506040519163bb22134560e01b835260048301526024820152fd5b634e487b7160e01b81526011600452602490fd5b60405163edfdf80d60e01b8152600490fd5b906064820291808304606414901517156118025756fe9b779b17422d0df92223018b32b4d1fa46e071723d6817e2486d003becc55f00a26469706673582212205d9946e2e95e9a6d8b9772b0defae412ff03cbd116ed9273100f07f752d2f93864736f6c63430008140033","linkReferences":{}},"methodIdentifiers":{"USDT()":"c54e44eb","cancelMarket(string)":"64ff1cb3","category()":"ef430aa6","challengeDeadline()":"ca593dad","challengeResolution()":"13403447","challengeResolved()":"d8812a13","challengeStake()":"571dc452","challenger()":"534db0e2","creator()":"02d05d3f","creatorBond()":"459d6e4f","deadline()":"29dcb0cf","distributePayout(address[],uint256[])":"b6707fb6","factory()":"c45a0155","finalizeResolution()":"9349d051","getMarketInfo()":"23341a05","hasBet(address)":"136f1016","isChallengeWindowOpen()":"c8b58dc5","liquidityTier()":"29ef5e58","marketMakerAgent()":"c792adb6","oracleAgent()":"7d618bb6","outcome()":"27793f87","payoutDistributor()":"b3371047","placeBet(bytes,uint256)":"65024da6","positionVault()":"98654aff","postResolution(bool,bytes32,bytes)":"999a1642","processChallengeOutcome(bool)":"ffecfe8b","protocolTreasury()":"803db96d","question()":"3fad9ae0","requiredChallengeStake()":"23756650","resolutionSourcesHash()":"248527f3","resolutionTimestamp()":"85af5d35","status()":"200d2ed2","timeUntilDeadline()":"83c44a66","totalCollateral()":"4ac8eb5f","triggerResolution()":"6237c7f7","verdictReasoningHash()":"1bfc5e02"},"id":33}