{"abi":[{"type":"constructor","inputs":[{"name":"_factory","type":"address","internalType":"address"},{"name":"_oracleAgent","type":"address","internalType":"address"},{"name":"_marketMakerAgent","type":"address","internalType":"address"},{"name":"_positionVault","type":"address","internalType":"address"},{"name":"_payoutDistributor","type":"address","internalType":"address"},{"name":"_usdt","type":"address","internalType":"address"},{"name":"_protocolTreasury","type":"address","internalType":"address"},{"name":"_creator","type":"address","internalType":"address"},{"name":"question_","type":"string","internalType":"string"},{"name":"_deadline","type":"uint256","internalType":"uint256"},{"name":"category_","type":"string","internalType":"string"},{"name":"_resolutionSourcesHash","type":"bytes32","internalType":"bytes32"}],"stateMutability":"nonpayable"},{"type":"function","name":"USDT","inputs":[],"outputs":[{"name":"","type":"address","internalType":"address"}],"stateMutability":"view"},{"type":"function","name":"cancelMarket","inputs":[{"name":"reason","type":"string","internalType":"string"}],"outputs":[],"stateMutability":"nonpayable"},{"type":"function","name":"category","inputs":[],"outputs":[{"name":"","type":"string","internalType":"string"}],"stateMutability":"view"},{"type":"function","name":"challengeDeadline","inputs":[],"outputs":[{"name":"","type":"uint256","internalType":"uint256"}],"stateMutability":"view"},{"type":"function","name":"challengeResolution","inputs":[],"outputs":[],"stateMutability":"nonpayable"},{"type":"function","name":"challengeResolved","inputs":[],"outputs":[{"name":"","type":"bool","internalType":"bool"}],"stateMutability":"view"},{"type":"function","name":"challengeStake","inputs":[],"outputs":[{"name":"","type":"uint256","internalType":"uint256"}],"stateMutability":"view"},{"type":"function","name":"challenger","inputs":[],"outputs":[{"name":"","type":"address","internalType":"address"}],"stateMutability":"view"},{"type":"function","name":"creator","inputs":[],"outputs":[{"name":"","type":"address","internalType":"address"}],"stateMutability":"view"},{"type":"function","name":"deadline","inputs":[],"outputs":[{"name":"","type":"uint256","internalType":"uint256"}],"stateMutability":"view"},{"type":"function","name":"distributePayout","inputs":[{"name":"winners","type":"address[]","internalType":"address[]"},{"name":"amounts","type":"uint256[]","internalType":"uint256[]"}],"outputs":[],"stateMutability":"nonpayable"},{"type":"function","name":"factory","inputs":[],"outputs":[{"name":"","type":"address","internalType":"address"}],"stateMutability":"view"},{"type":"function","name":"finalizeResolution","inputs":[],"outputs":[],"stateMutability":"nonpayable"},{"type":"function","name":"getMarketInfo","inputs":[],"outputs":[{"name":"question_","type":"string","internalType":"string"},{"name":"deadline_","type":"uint256","internalType":"uint256"},{"name":"status_","type":"uint8","internalType":"enum IMarketContract.MarketStatus"},{"name":"outcome_","type":"bool","internalType":"bool"},{"name":"totalCollateral_","type":"uint256","internalType":"uint256"},{"name":"challengeDeadline_","type":"uint256","internalType":"uint256"},{"name":"verdictReasoningHash_","type":"bytes32","internalType":"bytes32"},{"name":"category_","type":"string","internalType":"string"},{"name":"creator_","type":"address","internalType":"address"}],"stateMutability":"view"},{"type":"function","name":"hasBet","inputs":[{"name":"bettor","type":"address","internalType":"address"}],"outputs":[{"name":"","type":"bool","internalType":"bool"}],"stateMutability":"view"},{"type":"function","name":"isChallengeWindowOpen","inputs":[],"outputs":[{"name":"","type":"bool","internalType":"bool"}],"stateMutability":"view"},{"type":"function","name":"marketMakerAgent","inputs":[],"outputs":[{"name":"","type":"address","internalType":"address"}],"stateMutability":"view"},{"type":"function","name":"oracleAgent","inputs":[],"outputs":[{"name":"","type":"address","internalType":"address"}],"stateMutability":"view"},{"type":"function","name":"outcome","inputs":[],"outputs":[{"name":"","type":"bool","internalType":"bool"}],"stateMutability":"view"},{"type":"function","name":"payoutDistributor","inputs":[],"outputs":[{"name":"","type":"address","internalType":"address"}],"stateMutability":"view"},{"type":"function","name":"placeBet","inputs":[{"name":"encryptedCommitment","type":"bytes","internalType":"bytes"},{"name":"collateralAmount","type":"uint256","internalType":"uint256"}],"outputs":[],"stateMutability":"nonpayable"},{"type":"function","name":"positionVault","inputs":[],"outputs":[{"name":"","type":"address","internalType":"address"}],"stateMutability":"view"},{"type":"function","name":"postResolution","inputs":[{"name":"verdict","type":"bool","internalType":"bool"},{"name":"reasoningHash","type":"bytes32","internalType":"bytes32"},{"name":"teeAttestation","type":"bytes","internalType":"bytes"}],"outputs":[],"stateMutability":"nonpayable"},{"type":"function","name":"processChallengeOutcome","inputs":[{"name":"challengeUpheld","type":"bool","internalType":"bool"}],"outputs":[],"stateMutability":"nonpayable"},{"type":"function","name":"protocolTreasury","inputs":[],"outputs":[{"name":"","type":"address","internalType":"address"}],"stateMutability":"view"},{"type":"function","name":"question","inputs":[],"outputs":[{"name":"","type":"string","internalType":"string"}],"stateMutability":"view"},{"type":"function","name":"requiredChallengeStake","inputs":[],"outputs":[{"name":"","type":"uint256","internalType":"uint256"}],"stateMutability":"view"},{"type":"function","name":"resolutionSourcesHash","inputs":[],"outputs":[{"name":"","type":"bytes32","internalType":"bytes32"}],"stateMutability":"view"},{"type":"function","name":"resolutionTimestamp","inputs":[],"outputs":[{"name":"","type":"uint256","internalType":"uint256"}],"stateMutability":"view"},{"type":"function","name":"status","inputs":[],"outputs":[{"name":"","type":"uint8","internalType":"enum IMarketContract.MarketStatus"}],"stateMutability":"view"},{"type":"function","name":"timeUntilDeadline","inputs":[],"outputs":[{"name":"","type":"uint256","internalType":"uint256"}],"stateMutability":"view"},{"type":"function","name":"totalCollateral","inputs":[],"outputs":[{"name":"","type":"uint256","internalType":"uint256"}],"stateMutability":"view"},{"type":"function","name":"triggerResolution","inputs":[],"outputs":[],"stateMutability":"nonpayable"},{"type":"function","name":"verdictReasoningHash","inputs":[],"outputs":[{"name":"","type":"bytes32","internalType":"bytes32"}],"stateMutability":"view"},{"type":"event","name":"BetPlaced","inputs":[{"name":"market","type":"address","indexed":true,"internalType":"address"},{"name":"bettor","type":"address","indexed":true,"internalType":"address"},{"name":"collateralAmount","type":"uint256","indexed":false,"internalType":"uint256"},{"name":"positionIndex","type":"uint256","indexed":false,"internalType":"uint256"}],"anonymous":false},{"type":"event","name":"ChallengeRejected","inputs":[{"name":"market","type":"address","indexed":true,"internalType":"address"},{"name":"challenger","type":"address","indexed":true,"internalType":"address"},{"name":"slashedStake","type":"uint256","indexed":false,"internalType":"uint256"}],"anonymous":false},{"type":"event","name":"ChallengeUpheld","inputs":[{"name":"market","type":"address","indexed":true,"internalType":"address"},{"name":"challenger","type":"address","indexed":true,"internalType":"address"},{"name":"reward","type":"uint256","indexed":false,"internalType":"uint256"}],"anonymous":false},{"type":"event","name":"FeeDistributed","inputs":[{"name":"amount","type":"uint256","indexed":false,"internalType":"uint256"},{"name":"recipient","type":"address","indexed":true,"internalType":"address"},{"name":"feeType","type":"string","indexed":false,"internalType":"string"}],"anonymous":false},{"type":"event","name":"MarketCancelled","inputs":[{"name":"market","type":"address","indexed":true,"internalType":"address"},{"name":"reason","type":"string","indexed":false,"internalType":"string"}],"anonymous":false},{"type":"event","name":"PayoutsDistributed","inputs":[{"name":"market","type":"address","indexed":true,"internalType":"address"},{"name":"totalDistributed","type":"uint256","indexed":false,"internalType":"uint256"},{"name":"winnerCount","type":"uint256","indexed":false,"internalType":"uint256"}],"anonymous":false},{"type":"event","name":"ResolutionChallenged","inputs":[{"name":"market","type":"address","indexed":true,"internalType":"address"},{"name":"challenger","type":"address","indexed":true,"internalType":"address"},{"name":"challengeStake","type":"uint256","indexed":false,"internalType":"uint256"}],"anonymous":false},{"type":"event","name":"ResolutionFinalized","inputs":[{"name":"market","type":"address","indexed":true,"internalType":"address"},{"name":"outcome","type":"bool","indexed":false,"internalType":"bool"},{"name":"timestamp","type":"uint256","indexed":false,"internalType":"uint256"}],"anonymous":false},{"type":"event","name":"ResolutionPosted","inputs":[{"name":"market","type":"address","indexed":true,"internalType":"address"},{"name":"verdict","type":"bool","indexed":false,"internalType":"bool"},{"name":"reasoningHash","type":"bytes32","indexed":false,"internalType":"bytes32"},{"name":"challengeDeadline","type":"uint256","indexed":false,"internalType":"uint256"}],"anonymous":false},{"type":"event","name":"ResolutionTriggered","inputs":[{"name":"market","type":"address","indexed":true,"internalType":"address"},{"name":"timestamp","type":"uint256","indexed":false,"internalType":"uint256"}],"anonymous":false},{"type":"error","name":"FeeLib__FeesExceedCollateral","inputs":[{"name":"fees","type":"uint256","internalType":"uint256"},{"name":"collateral","type":"uint256","internalType":"uint256"}]},{"type":"error","name":"FeeLib__ZeroCollateral","inputs":[]},{"type":"error","name":"MarketContract__AlreadyCancelled","inputs":[]},{"type":"error","name":"MarketContract__ArrayLengthMismatch","inputs":[]},{"type":"error","name":"MarketContract__ChallengeAlreadyFiled","inputs":[]},{"type":"error","name":"MarketContract__ChallengeWindowClosed","inputs":[]},{"type":"error","name":"MarketContract__ChallengeWindowStillOpen","inputs":[]},{"type":"error","name":"MarketContract__DeadlineNotReached","inputs":[]},{"type":"error","name":"MarketContract__DeadlinePassed","inputs":[]},{"type":"error","name":"MarketContract__InsufficientChallengeStake","inputs":[{"name":"provided","type":"uint256","internalType":"uint256"},{"name":"required","type":"uint256","internalType":"uint256"}]},{"type":"error","name":"MarketContract__InvalidTeeAttestation","inputs":[]},{"type":"error","name":"MarketContract__NoChallengeToProcess","inputs":[]},{"type":"error","name":"MarketContract__NotChallenged","inputs":[]},{"type":"error","name":"MarketContract__NotOpen","inputs":[]},{"type":"error","name":"MarketContract__NotOracleAgent","inputs":[]},{"type":"error","name":"MarketContract__NotPayoutDistributor","inputs":[]},{"type":"error","name":"MarketContract__NotPendingResolution","inputs":[]},{"type":"error","name":"MarketContract__NotPositionVault","inputs":[]},{"type":"error","name":"MarketContract__NotResolved","inputs":[]},{"type":"error","name":"MarketContract__TransferFailed","inputs":[]},{"type":"error","name":"MarketContract__ZeroCollateral","inputs":[]},{"type":"error","name":"ReentrancyGuardReentrantCall","inputs":[]},{"type":"error","name":"SafeERC20FailedOperation","inputs":[{"name":"token","type":"address","internalType":"address"}]}],"bytecode":{"object":"0x6101c0604052346200051257620021e2803803806200001e8162000516565b92833961018082828101031262000512576200003a826200053c565b62000048602084016200053c565b9162000057604085016200053c565b9062000066606086016200053c565b62000074608087016200053c565b6200008260a088016200053c565b6200009060c089016200053c565b916200009f60e08a016200053c565b6101008a01519094906001600160401b0381116200051257620000c890878c01908c0162000551565b966101208b0151966101408c015160018060401b03811162000512578c620000f891610160938201910162000551565b9b0151996001998a7f9b779b17422d0df92223018b32b4d1fa46e071723d6817e2486d003becc55f005560805260a05260c05260e05261010052610120526101405261016052610180526101a092835280519060018060401b038211620004fe575f918254918483811c93168015620004f3575b6020841014620004df578190601f938481116200048a575b50602090848311600114620004265785926200041a575b50505f19600383901b1c191690841b1782555b8451916001600160401b038311620004065783548481811c91168015620003fb575b6020821014620003e7578281116200039d575b5060209183116001146200033b579482939495926200032f575b50505f19600383901b1c191690821b1790555b60ff1960025416600255604051611c209182620005c283396080518261058e015260a0518281816101b2015281816108b901528181610a1e01528181610cdb0152610fd6015260c0518281816105060152610839015260e051828181610b3f01528181610df20152818161106e01526110e101526101005182818161061901526109ac0152610120518281816102990152818161035f0152818161054a0152818161072a015281816107bb0152818161085d015281816108dd01528181610da50152818161110301526115180152610140518281816107970152610c9701526101605182818161140001526115e9015261018051828181610d5c0152818161119d015281816112b3015281816113a90152611a52015251816113150152f35b015190505f80620001fd565b90601f19831684835260208320925b8181106200038657509583859697106200036d575b505050811b01905562000210565b01515f1960f88460031b161c191690555f80806200035f565b87830151845592850192602092830192016200034a565b848252602082208380860160051c82019260208710620003dd575b0160051c019085905b828110620003d1575050620001e3565b838155018590620003c1565b92508192620003b8565b634e487b7160e01b82526022600452602482fd5b90607f1690620001d0565b634e487b7160e01b81526041600452602490fd5b015190505f806200019b565b858052602086208794509190601f198416875b818110620004715750841162000458575b505050811b018255620001ae565b01515f1960f88460031b161c191690555f80806200044a565b8284015185558996909401936020938401930162000439565b909150848052602085208480850160051c82019260208610620004d5575b918891869594930160051c01915b828110620004c657505062000184565b878155859450889101620004b6565b92508192620004a8565b634e487b7160e01b84526022600452602484fd5b92607f16926200016c565b634e487b7160e01b5f52604160045260245ffd5b5f80fd5b6040519190601f01601f191682016001600160401b03811183821017620004fe57604052565b51906001600160a01b03821682036200051257565b919080601f84011215620005125782516001600160401b038111620004fe5760209062000587601f8201601f1916830162000516565b9281845282828701011162000512575f5b818110620005ad5750825f9394955001015290565b85810183015184820184015282016200059856fe6080604081815260049081361015610015575f80fd5b5f92833560e01c90816302d05d3f146115d55750806313403447146114b9578063136f10161461147a5780631bfc5e021461145b578063200d2ed21461143257806323341a05146113555780632375665014611338578063248527f3146112fd57806327793f87146112d657806329dcb0cf1461129b5780633fad9ae01461127d5780634ac8eb5f1461125f578063534db0e214611236578063571dc452146112175780636237c7f71461117457806364ff1cb314610f9657806365024da614610d0a5780637d618bb614610cc6578063803db96d14610c8257806383c44a6614610c5e57806385af5d3514610c3f5780639349d05114610b6e57806398654aff14610b2a578063999a1642146109db578063b337104714610997578063b6707fb6146105bd578063c45a015514610579578063c54e44eb14610535578063c792adb6146104f1578063c8b58dc51461047d578063ca593dad1461045e578063d8812a131461043a578063ef430aa6146104015763ffecfe8b14610197575f80fd5b346103fd5760203660031901126103fd576101b06116a9565b7f0000000000000000000000000000000000000000000000000000000000000000926001600160a01b039081851633036103ec5760029460ff86541660058110156103d95786036103ca578260075416156103bb5760ff199360018560095416176009555f1461032c5750845461ff0060ff8260081c161560081b169061ff00191617855561023f8154611abe565b5190611388918281029281840414901517156103195750916003916127107fa4acb9df7f70b3988e02696551c758c0501984856f33a81371a86a3e376811a6959404906102be610291836008546116e9565b8260075416837f000000000000000000000000000000000000000000000000000000000000000016611839565b600754169084519081527fd0f09e0ef7ecb6045de08da31349d7a2240f9e1119b6ef1ea9dd5b26d00d8e1060203092a35b84541617928390555160089290921c60ff1615158252426020830152309180604081015b0390a280f35b601190634e487b7160e01b5f525260245ffd5b7fa4acb9df7f70b3988e02696551c758c0501984856f33a81371a86a3e376811a6949391509161038460039360085490837f000000000000000000000000000000000000000000000000000000000000000016611839565b6007541660085484519081527fb71648944e0587c53dbf15e84af38e1d84ba55cc989f8cae8d1eb05beb9c9fb760203092a36102ef565b50835163448c835f60e01b8152fd5b508351632000760360e21b8152fd5b634e487b7160e01b885260218352602488fd5b83516001621bb8dd60e31b03198152fd5b8280fd5b8382346104365781600319360112610436576104329061041f6119a1565b9051918291602083526020830190611639565b0390f35b5080fd5b83823461043657816003193601126104365760209060ff6009541690519015158152f35b8382346104365781600319360112610436576020906005549051908152f35b5082346104ee57806003193601126104ee5760ff600254169260058410156104db5760206002851484816104ce575b816104ba575b519015158152f35b6007546001600160a01b03161591506104b2565b60055442111591506104ac565b634e487b7160e01b825260219052602490fd5b80fd5b838234610436578160031936011261043657517f00000000000000000000000000000000000000000000000000000000000000006001600160a01b03168152602090f35b838234610436578160031936011261043657517f00000000000000000000000000000000000000000000000000000000000000006001600160a01b03168152602090f35b838234610436578160031936011261043657517f00000000000000000000000000000000000000000000000000000000000000006001600160a01b03168152602090f35b50346103fd57806003193601126103fd5767ffffffffffffffff8235818111610993576105ed90369085016116b8565b9160243590811161098f5761060590369086016116b8565b9061060e61180a565b6001600160a01b03957f0000000000000000000000000000000000000000000000000000000000000000871633036109815760ff60025416600581101561096e576003036109605782850361095257610668869154611abe565b8051806108b4575b5060208101888151918261080f575b50505001868151918261076d575b5050508695875b8581106106e15788887f738f18d610d0656b817ed217bc72afb5aec108c09f356495b533e2da046270f88989815193845260208401523092a260015f80516020611bcb8339815191525580f35b6106ec818585611898565b356106fa575b600101610694565b96610706888787611898565b3582811681036107695760019161074f610761926107258c8989611898565b3590867f000000000000000000000000000000000000000000000000000000000000000016611839565b61075a8a8787611898565b35906116e9565b9790506106f2565b8980fd5b7ffeb2c7c51697d22e9aa290e5a55c2faa6cc7629e5485718b07c466e34f54c300916080916107e07f00000000000000000000000000000000000000000000000000000000000000009586847f000000000000000000000000000000000000000000000000000000000000000016611839565b5193895194855289602086015260088a860152671c1c9bdd1bd8dbdb60c21b60608601521692a25f868161068d565b7ffeb2c7c51697d22e9aa290e5a55c2faa6cc7629e5485718b07c466e34f54c300916080916108827f00000000000000000000000000000000000000000000000000000000000000009586847f000000000000000000000000000000000000000000000000000000000000000016611839565b51938651948552866020860152600b878601526a36b0b935b2ba36b0b5b2b960a91b60608601521692a25f888161067f565b6109027f000000000000000000000000000000000000000000000000000000000000000091828b7f000000000000000000000000000000000000000000000000000000000000000016611839565b7ffeb2c7c51697d22e9aa290e5a55c2faa6cc7629e5485718b07c466e34f54c30060808a8451938651948552866020860152600687860152656f7261636c6560d01b60608601521692a25f610670565b8551634154c95760e11b8152fd5b8551637c6f529b60e11b8152fd5b634e487b7160e01b895260218252602489fd5b85516354a9666160e01b8152fd5b8580fd5b8480fd5b838234610436578160031936011261043657517f00000000000000000000000000000000000000000000000000000000000000006001600160a01b03168152602090f35b5090346103fd5760603660031901126103fd576109f66116a9565b9160243560443567ffffffffffffffff811161098f57610a199036908501611677565b9490507f00000000000000000000000000000000000000000000000000000000000000006001600160a01b03163303610b18576002549460ff86166005811015610b0557600103610af55715610ae657151593816003554260065562015180420193844211610ad357506002908460055561ff008660081b169061ffff19161717600255815193845260208401528201527ffd97318e127b16b74c63acff4a04334b9ab491b8f2ffc20707c45cbf13df4d3360603092a280f35b634e487b7160e01b875260119052602486fd5b505051631364228160e31b8152fd5b50505051637c857f7160e01b8152fd5b634e487b7160e01b885260218652602488fd5b5050516001621bb8dd60e31b03198152fd5b838234610436578160031936011261043657517f00000000000000000000000000000000000000000000000000000000000000006001600160a01b03168152602090f35b5090346103fd57826003193601126103fd576002549060ff82166005811015610c2c57600203610c1e57600554421115610c10576007546001600160a01b0316610c02575060ff19166003176002819055905160089190911c60ff161515815242602082015230907fa4acb9df7f70b3988e02696551c758c0501984856f33a81371a86a3e376811a6908060408101610313565b825163a91c3b5b60e01b8152fd5b82516306117a9960e01b8152fd5b8251632000760360e21b8152fd5b634e487b7160e01b855260218252602485fd5b8382346104365781600319360112610436576020906006549051908152f35b838234610436578160031936011261043657602090610c7b611a50565b9051908152f35b838234610436578160031936011261043657517f00000000000000000000000000000000000000000000000000000000000000006001600160a01b03168152602090f35b838234610436578160031936011261043657517f00000000000000000000000000000000000000000000000000000000000000006001600160a01b03168152602090f35b5090346103fd57816003193601126103fd57803567ffffffffffffffff8111610f9257610d3a9036908301611677565b9060243592610d4761180a565b60ff600254166005811015610f7f57610f71577f0000000000000000000000000000000000000000000000000000000000000000421015610f6357620f42408410610f55578215610f47576001600160a01b03918690610dcb8630337f00000000000000000000000000000000000000000000000000000000000000008816611781565b610dd68684546116e9565b8355338252602093600a8552878320600160ff198254161790557f00000000000000000000000000000000000000000000000000000000000000001694853b156103fd5787516259632960e31b815230858201523360248201526080604482015291839183918291610e4d91608484019190611754565b896064830152038183895af18015610f3d57610f29575b5050816024938651948580926285fa7160e71b825230868301525afa928315610f1f578693610ef0575b505f198301928311610edd575083519283528201527f61e034d80d9bd9b8dcd5d07434c03615017de4a6a229fe18bb93863bd20341a833923092a360015f80516020611bcb8339815191525580f35b634e487b7160e01b865260119052602485fd5b9092508181813d8311610f18575b610f088183611732565b8101031261098f5751915f610e8e565b503d610efe565b85513d88823e3d90fd5b610f329061170a565b61098f57855f610e64565b87513d84823e3d90fd5b8451631364228160e31b8152fd5b84516326f9a6d560e21b8152fd5b8451630c35d3d360e01b8152fd5b845163376f7bc960e01b8152fd5b634e487b7160e01b875260218252602487fd5b8380fd5b5082903461043657602036600319011261043657823567ffffffffffffffff81116103fd57610fc89036908501611677565b9093906001600160a01b03907f0000000000000000000000000000000000000000000000000000000000000000821633036111615760025460ff8116600581101561114e5784811461113e5760010361112e576110608697857f69571ef5701bc1cb2a5b4e5ad988ffb80e2b3d603e7cd8918a27fc61d54f2ab29360ff19161760025586519182916020835230956020840191611754565b0390a28154806110db575b507f000000000000000000000000000000000000000000000000000000000000000016803b156110d6576024849284519586938492639b63282960e01b845230908401525af19081156110cd57506110c1575080f35b6110ca9061170a565b80f35b513d84823e3d90fd5b505050fd5b611128907f0000000000000000000000000000000000000000000000000000000000000000837f000000000000000000000000000000000000000000000000000000000000000016611839565b8561106b565b8451637c857f7160e01b81528490fd5b8551630e081d4160e31b81528590fd5b634e487b7160e01b875260218552602487fd5b83516001621bb8dd60e31b031981528390fd5b5090346103fd57826003193601126103fd576002549060ff82166005811015610c2c57611209577f000000000000000000000000000000000000000000000000000000000000000042106111fb575060019060ff191617600255514281527f8a026f0b097fdcfe809810fb54c34c3533c62365f31022492eb067e65519869b60203092a280f35b8251638f6e807760e01b8152fd5b825163376f7bc960e01b8152fd5b8382346104365781600319360112610436576020906008549051908152f35b83823461043657816003193601126104365760075490516001600160a01b039091168152602090f35b5090346103fd57826003193601126103fd5760209250549051908152f35b8382346104365781600319360112610436576104329061041f6118bc565b838234610436578160031936011261043657602090517f00000000000000000000000000000000000000000000000000000000000000008152f35b83823461043657816003193601126104365760209060ff60025460081c1690519015158152f35b838234610436578160031936011261043657602090517f00000000000000000000000000000000000000000000000000000000000000008152f35b838234610436578160031936011261043657602090610c7b611a8c565b5091346104ee57806003193601126104ee57506113fe6113a692600254925492600554600354906113846118bc565b9560ff61138f6119a1565b946113d787519a8b9a610120808d528c0190611639565b977f000000000000000000000000000000000000000000000000000000000000000060208c01528a01838316611618565b60081c1615156060880152608087015260a086015260c085015283820360e0850152611639565b7f00000000000000000000000000000000000000000000000000000000000000006001600160a01b03166101008301520390f35b83823461043657816003193601126104365760209061145960ff6002541691518092611618565bf35b8382346104365781600319360112610436576020906003549051908152f35b5090346103fd5760203660031901126103fd57356001600160a01b038116908190036103fd57818360ff9260209552600a855220541690519015158152f35b50346103fd57826003193601126103fd576114d261180a565b60ff6002541660058110156115c2576002036115b55760055442116115a8576007546001600160a01b039290831661159a575061153d611510611a8c565b8093309033907f000000000000000000000000000000000000000000000000000000000000000016611781565b336bffffffffffffffffffffffff60a01b6007541617600755816008555190815233907f1288ffc9982cc1fb5d4f688c32cec5a69f33ee50fdd218186e48a813caea75db60203092a360015f80516020611bcb8339815191525580f35b905163a91c3b5b60e01b8152fd5b5163aeab0d9360e01b8152fd5b51632000760360e21b8152fd5b634e487b7160e01b845260218352602484fd5b8490346104365781600319360112610436577f00000000000000000000000000000000000000000000000000000000000000006001600160a01b03168152602090f35b9060058210156116255752565b634e487b7160e01b5f52602160045260245ffd5b91908251928382525f5b848110611663575050825f602080949584010152601f8019910116010190565b602081830181015184830182015201611643565b9181601f840112156116a55782359167ffffffffffffffff83116116a557602083818601950101116116a557565b5f80fd5b6004359081151582036116a557565b9181601f840112156116a55782359167ffffffffffffffff83116116a5576020808501948460051b0101116116a557565b919082018092116116f657565b634e487b7160e01b5f52601160045260245ffd5b67ffffffffffffffff811161171e57604052565b634e487b7160e01b5f52604160045260245ffd5b90601f8019910116810190811067ffffffffffffffff82111761171e57604052565b908060209392818452848401375f828201840152601f01601f1916010190565b919082039182116116f657565b6040516323b872dd60e01b5f9081526001600160a01b03938416600452938316602452604494909452909160209060648180855af160015f51148116156117eb575b836040525f606052156117d557505050565b635274afe760e01b835216600482015260249150fd5b600181151661180157813b15153d1516166117c3565b833d5f823e3d90fd5b5f80516020611bcb83398151915260028154146118275760029055565b604051633ee5aeb560e01b8152600490fd5b60405163a9059cbb60e01b5f9081526001600160a01b039384166004526024949094529260209060448180855af160015f5114811615611882575b83604052156117d557505050565b600181151661180157813b15153d151616611874565b91908110156118a85760051b0190565b634e487b7160e01b5f52603260045260245ffd5b604051905f805490600182811c90808416938415611997575b602094858410811461198357838852879493929181156119635750600114611908575b505061190692500383611732565b565b5f8080527f290decd9548b62a8d60345a988386fc84ba6bc95484008f6362f93160ef3e56395935091905b81831061194b57505061190693508201015f806118f8565b85548884018501529485019487945091830191611933565b91505061190694925060ff191682840152151560051b8201015f806118f8565b634e487b7160e01b85526022600452602485fd5b91607f16916118d5565b604051905f60019081549182811c90808416938415611a46575b6020948584108114611983578388528794939291811561196357506001146119eb57505061190692500383611732565b5f8181527fb10e2d527612073b26eecdfd717e6a320cf44b4afac2b0732d9fcbe2b7fa0cf695935091905b818310611a2e57505061190693508201015f806118f8565b85548884018501529485019487945091830191611a16565b91607f16916119bb565b7f000000000000000000000000000000000000000000000000000000000000000080421015611a8757611a84904290611774565b90565b505f90565b6004546101f4908181029181830414901517156116f65761271090046302faf08080821115611ab9575090565b905090565b906040519160a0830183811067ffffffffffffffff82111761171e576040525f928381526020810190848252604081018581526060820192868452608083019287845280978615611ba2576127109081611b1789611bb4565b04835281611b2489611bb4565b0484526032880290888204603203611b8e5750048352519051611b6192611b58929091611b50916116e9565b9051906116e9565b80845284611774565b90525190808211611b70575050565b604492506040519163bb22134560e01b835260048301526024820152fd5b634e487b7160e01b81526011600452602490fd5b60405163edfdf80d60e01b8152600490fd5b906064820291808304606414901517156116f65756fe9b779b17422d0df92223018b32b4d1fa46e071723d6817e2486d003becc55f00a264697066735822122031361f6aa4cd2d60be103909032d7e02023e2f8c42a166123d55de36b76d9b9664736f6c63430008140033","linkReferences":{}},"methodIdentifiers":{"USDT()":"c54e44eb","cancelMarket(string)":"64ff1cb3","category()":"ef430aa6","challengeDeadline()":"ca593dad","challengeResolution()":"13403447","challengeResolved()":"d8812a13","challengeStake()":"571dc452","challenger()":"534db0e2","creator()":"02d05d3f","deadline()":"29dcb0cf","distributePayout(address[],uint256[])":"b6707fb6","factory()":"c45a0155","finalizeResolution()":"9349d051","getMarketInfo()":"23341a05","hasBet(address)":"136f1016","isChallengeWindowOpen()":"c8b58dc5","marketMakerAgent()":"c792adb6","oracleAgent()":"7d618bb6","outcome()":"27793f87","payoutDistributor()":"b3371047","placeBet(bytes,uint256)":"65024da6","positionVault()":"98654aff","postResolution(bool,bytes32,bytes)":"999a1642","processChallengeOutcome(bool)":"ffecfe8b","protocolTreasury()":"803db96d","question()":"3fad9ae0","requiredChallengeStake()":"23756650","resolutionSourcesHash()":"248527f3","resolutionTimestamp()":"85af5d35","status()":"200d2ed2","timeUntilDeadline()":"83c44a66","totalCollateral()":"4ac8eb5f","triggerResolution()":"6237c7f7","verdictReasoningHash()":"1bfc5e02"},"id":32}