{"abi":[{"type":"constructor","inputs":[{"name":"_factory","type":"address","internalType":"address"},{"name":"_positionVault","type":"address","internalType":"address"},{"name":"_oracleAgent","type":"address","internalType":"address"},{"name":"_marketMakerAgent","type":"address","internalType":"address"},{"name":"_protocolTreasury","type":"address","internalType":"address"},{"name":"_usdt","type":"address","internalType":"address"}],"stateMutability":"nonpayable"},{"type":"function","name":"USDT","inputs":[],"outputs":[{"name":"","type":"address","internalType":"address"}],"stateMutability":"view"},{"type":"function","name":"calculateAndDistribute","inputs":[{"name":"market","type":"address","internalType":"address"},{"name":"positions","type":"tuple[]","internalType":"struct IPositionVault.RevealedPosition[]","components":[{"name":"bettor","type":"address","internalType":"address"},{"name":"direction","type":"bool","internalType":"bool"},{"name":"collateralAmount","type":"uint256","internalType":"uint256"}]},{"name":"outcome","type":"bool","internalType":"bool"}],"outputs":[],"stateMutability":"nonpayable"},{"type":"function","name":"factory","inputs":[],"outputs":[{"name":"","type":"address","internalType":"address"}],"stateMutability":"view"},{"type":"function","name":"getEstimatedPayout","inputs":[{"name":"market","type":"address","internalType":"address"},{"name":"stakeAmount","type":"uint256","internalType":"uint256"},{"name":"direction","type":"bool","internalType":"bool"}],"outputs":[{"name":"estimatedPayout","type":"uint256","internalType":"uint256"}],"stateMutability":"view"},{"type":"function","name":"getFeeConstants","inputs":[],"outputs":[{"name":"oracleFeeBps","type":"uint256","internalType":"uint256"},{"name":"mmFeeBps","type":"uint256","internalType":"uint256"},{"name":"protocolFeeBps","type":"uint256","internalType":"uint256"},{"name":"totalFeeBps","type":"uint256","internalType":"uint256"}],"stateMutability":"pure"},{"type":"function","name":"getPayoutSummary","inputs":[{"name":"market","type":"address","internalType":"address"}],"outputs":[{"name":"","type":"tuple","internalType":"struct IPayoutDistributor.PayoutSummary","components":[{"name":"totalCollateral","type":"uint256","internalType":"uint256"},{"name":"oracleFee","type":"uint256","internalType":"uint256"},{"name":"mmFee","type":"uint256","internalType":"uint256"},{"name":"protocolFee","type":"uint256","internalType":"uint256"},{"name":"totalFees","type":"uint256","internalType":"uint256"},{"name":"netPool","type":"uint256","internalType":"uint256"},{"name":"totalWinners","type":"uint256","internalType":"uint256"},{"name":"totalWinningStake","type":"uint256","internalType":"uint256"},{"name":"outcome","type":"bool","internalType":"bool"}]}],"stateMutability":"view"},{"type":"function","name":"hasDistributed","inputs":[{"name":"market","type":"address","internalType":"address"}],"outputs":[{"name":"","type":"bool","internalType":"bool"}],"stateMutability":"view"},{"type":"function","name":"marketMakerAgent","inputs":[],"outputs":[{"name":"","type":"address","internalType":"address"}],"stateMutability":"view"},{"type":"function","name":"oracleAgent","inputs":[],"outputs":[{"name":"","type":"address","internalType":"address"}],"stateMutability":"view"},{"type":"function","name":"positionVault","inputs":[],"outputs":[{"name":"","type":"address","internalType":"address"}],"stateMutability":"view"},{"type":"function","name":"protocolTreasury","inputs":[],"outputs":[{"name":"","type":"address","internalType":"address"}],"stateMutability":"view"},{"type":"event","name":"FeeDistributed","inputs":[{"name":"market","type":"address","indexed":true,"internalType":"address"},{"name":"recipient","type":"address","indexed":true,"internalType":"address"},{"name":"amount","type":"uint256","indexed":false,"internalType":"uint256"},{"name":"feeType","type":"string","indexed":false,"internalType":"string"}],"anonymous":false},{"type":"event","name":"NoWinnersEdgeCase","inputs":[{"name":"market","type":"address","indexed":true,"internalType":"address"},{"name":"collateralSentToTreasury","type":"uint256","indexed":false,"internalType":"uint256"}],"anonymous":false},{"type":"event","name":"PayoutsCalculated","inputs":[{"name":"market","type":"address","indexed":true,"internalType":"address"},{"name":"outcome","type":"bool","indexed":false,"internalType":"bool"},{"name":"totalWinners","type":"uint256","indexed":false,"internalType":"uint256"},{"name":"totalDistributed","type":"uint256","indexed":false,"internalType":"uint256"},{"name":"totalFees","type":"uint256","indexed":false,"internalType":"uint256"}],"anonymous":false},{"type":"event","name":"WinnerPaid","inputs":[{"name":"market","type":"address","indexed":true,"internalType":"address"},{"name":"winner","type":"address","indexed":true,"internalType":"address"},{"name":"stake","type":"uint256","indexed":false,"internalType":"uint256"},{"name":"payout","type":"uint256","indexed":false,"internalType":"uint256"}],"anonymous":false},{"type":"error","name":"FeeLib__FeesExceedCollateral","inputs":[{"name":"fees","type":"uint256","internalType":"uint256"},{"name":"collateral","type":"uint256","internalType":"uint256"}]},{"type":"error","name":"FeeLib__ZeroCollateral","inputs":[]},{"type":"error","name":"PayoutDistributor__AlreadyDistributed","inputs":[]},{"type":"error","name":"PayoutDistributor__ArrayLengthMismatch","inputs":[]},{"type":"error","name":"PayoutDistributor__InvalidMarket","inputs":[]},{"type":"error","name":"PayoutDistributor__MarketNotResolved","inputs":[]},{"type":"error","name":"PayoutDistributor__NotPositionVault","inputs":[]},{"type":"error","name":"PayoutDistributor__TransferFailed","inputs":[{"name":"recipient","type":"address","internalType":"address"},{"name":"amount","type":"uint256","internalType":"uint256"}]},{"type":"error","name":"PayoutDistributor__ZeroCollateral","inputs":[]},{"type":"error","name":"ReentrancyGuardReentrantCall","inputs":[]}],"bytecode":{"object":"0x610140346200019757601f620013d238819003918201601f1916830191906001600160401b038311848410176200019b578160c0928592604095865283398101031262000197576200005182620001af565b906200006060208401620001af565b6200006d828501620001af565b6200007b60608601620001af565b916200009860a06200009060808901620001af565b9701620001af565b60017f9b779b17422d0df92223018b32b4d1fa46e071723d6817e2486d003becc55f0055946001600160a01b038082161562000183578083161562000183578084161562000183578085161562000183578088161562000183578616156200016f5760805260a05260c05260e052610100928352610120918252519061120d9283620001c5843960805183818161025a0152610709015260a0518381816102d6015281816106b20152610f70015260c0518361035c015260e051836101d40152518281816103190152610bac015251816102170152f35b84516001623790e360e11b03198152600490fd5b85516001623790e360e11b03198152600490fd5b5f80fd5b634e487b7160e01b5f52604160045260245ffd5b51906001600160a01b0382168203620001975756fe608060408181526004361015610013575f80fd5b5f91823560e01c9081634b4e7b641461038b575080637d618bb614610348578063803db96d1461030557806398654aff146102c2578063a4fd048714610289578063c45a015514610246578063c54e44eb14610203578063c792adb6146101c0578063e516755c14610190578063e96a6bda146101545763ef3787c814610098575f80fd5b34610150576060366003190112610150576100b16104ad565b6024359067ffffffffffffffff9081831161014c573660238401121561014c57826004013591821161014c57366024606084028501011161014c576100f46104c7565b927f9b779b17422d0df92223018b32b4d1fa46e071723d6817e2486d003becc55f0094600286541461013c57509184939160246101389460026001985501906106b0565b5580f35b51633ee5aeb560e01b8152600490fd5b8480fd5b5080fd5b50346101505760203660031901126101505760209160ff9082906001600160a01b0361017e6104ad565b16815280855220541690519015158152f35b50346101505781600319360112610150578060326080925191606483526064602084015282015260fa6060820152f35b5034610150578160031936011261015057517f00000000000000000000000000000000000000000000000000000000000000006001600160a01b03168152602090f35b5034610150578160031936011261015057517f00000000000000000000000000000000000000000000000000000000000000006001600160a01b03168152602090f35b5034610150578160031936011261015057517f00000000000000000000000000000000000000000000000000000000000000006001600160a01b03168152602090f35b5034610150576060366003190112610150576020906102bb6102a96104ad565b6102b16104c7565b9060243590610ee5565b9051908152f35b5034610150578160031936011261015057517f00000000000000000000000000000000000000000000000000000000000000006001600160a01b03168152602090f35b5034610150578160031936011261015057517f00000000000000000000000000000000000000000000000000000000000000006001600160a01b03168152602090f35b5034610150578160031936011261015057517f00000000000000000000000000000000000000000000000000000000000000006001600160a01b03168152602090f35b9050346104a95760203660031901126104a95781610120936103ab6104ad565b6103b4846104d6565b81845281602085015281838501528160608501528160808501528160a08501528160c08501528160e0850152816101008095015260018060a01b03168152600160205220825190610404826104d6565b805493848352600182015490602084019182526002830154908085019182526003840154606086019081526004850154916080870192835260058601549360a0880194855260068701549560c089019687528960ff600860078b01549a60e08d019b8c520154169901981515895282519a8b525160208b015251908901525160608801525160808701525160a08601525160c08501525160e084015251151590820152f35b8280fd5b600435906001600160a01b03821682036104c357565b5f80fd5b6044359081151582036104c357565b610120810190811067ffffffffffffffff8211176104f357604052565b634e487b7160e01b5f52604160045260245ffd5b67ffffffffffffffff81116104f357604052565b6040810190811067ffffffffffffffff8211176104f357604052565b90601f8019910116810190811067ffffffffffffffff8211176104f357604052565b519081151582036104c357565b9190811015610576576060020190565b634e487b7160e01b5f52603260045260245ffd5b3580151581036104c35790565b919082018092116105a457565b634e487b7160e01b5f52601160045260245ffd5b67ffffffffffffffff81116104f35760051b60200190565b906105da826105b8565b6105e76040519182610537565b82815280926105f8601f19916105b8565b0190602036910137565b356001600160a01b03811681036104c35790565b8051156105765760200190565b80518210156105765760209160051b010190565b604081019060408152825180925260608101916020809401905f5b81811061069357505050828183039101528180845192838152019301915f5b82811061067f575050505090565b835185529381019392810192600101610671565b82516001600160a01b031685529385019391850191600101610652565b7f00000000000000000000000000000000000000000000000000000000000000006001600160a01b03163303610ed3576040516358e6309f60e01b81526001600160a01b038281166004830152602090829060249082907f0000000000000000000000000000000000000000000000000000000000000000165afa908115610a5b575f91610e99575b5015610e8457604051631006976960e11b81526020816004816001600160a01b0386165afa908115610a5b575f91610e49575b506007811015610e3557600403610e23576001600160a01b0381165f9081526020819052604090205460ff16610e1157604051634ac8eb5f60e01b81526020816004816001600160a01b0386165afa908115610a5b575f91610ddc575b508015610dca576040519260a0840184811067ffffffffffffffff8211176104f3576040525f84525f60208501525f60408501525f60608501525f6080850152612710806108168461119d565b048552806108238461119d565b046020860152603283028381046032036105a45704604085015261086a61085e6108538651602088015190610597565b604087015190610597565b80606087015283611190565b60808501526060840151828111610dac57505f9182835b878110610d615750610892846105d0565b9261089c856105d0565b978515610b69575f9081888b888c8f5b868610610a6657505050505050505050906109aa9160018060a01b0386165f525f60205260405f20600160ff1982541617905586516020880151604089015160608a01519160808b01519360405196610904886104d6565b8752602087015260408601526060850152608084015260a08301528460c083015260e082015260086101008201891515815260018060a01b0387165f52600160205260e060405f2093805185556020810151600186015560408101516002860155606081015160038601556080810151600486015560a0810151600586015560c081015160068601550151600784015551151591019060ff801983541691151516179055565b6001600160a01b0383163b156104c357604051635b383fdb60e11b8152945f91869182916109dc919060048401610637565b0381836001600160a01b0387165af1928315610a5b577f7abb8bee454237397f0d89bab9066d30d76c0e4796b7dc462e6dbc2e1abbb77094608094610a4c575b50808401516060918201516040805198151589526020890194909452928701528501526001600160a01b031692a2565b610a5590610507565b5f610a1c565b6040513d5f823e3d90fd5b908989949392610a826020610a7c8a8c8a610566565b0161058a565b151590151514610aa0575b505050505050600101888b888c8f6108ac565b88600197999592948994610aee83610ae8610ae38f610adb8f9e9c610afd9a608060408f8f610ad0918891610566565b0135920151916111b3565b9a8b9a610566565b610602565b92610623565b90898060a01b03169052610623565b527f3eeb0636c95176c1ec01b2057bd7274d8ff9cae437a895fa7c9b6d35290af14860408981610b3c8b8b610b36610ae3838388610566565b94610566565b01359382519485526020850152868060a01b031693868060a01b031692a30192905088848c898d89610a8d565b505050945050509260405193610b7e8561051b565b600185526020368187013760405194610b968661051b565b6001865260203681880137610baa81610616565b7f00000000000000000000000000000000000000000000000000000000000000006001600160a01b031690526080840151610be487610616565b526001600160a01b0382163b156104c357604051635b383fdb60e11b8152955f9187918291610c17919060048401610637565b0381836001600160a01b0386165af1928315610a5b57610d5095600894610d52575b5060808101516040519081526001600160a01b038316907faea7c88099a89bb3a8e68ccaf8234eb1f43bb6517b87534d74bb3a3630804e4890602090a260018060a01b0382165f525f60205260405f20600160ff198254161790558051906020810151906040810151608060608301519201519260405198610cba8a6104d6565b89526020890194855260408901908152606089019182526080890192835260a0890193845260c08901945f865260e08a01965f88526101008b01981515895260018060a01b03165f52600160205260405f2099518a555160018a015551600289015551600388015551600487015551600586015551600685015551600784015551151591019060ff801983541691151516179055565b565b610d5b90610507565b5f610c39565b610d716020610a7c838b88610566565b151589151514610d84575b600101610881565b93906001610da281926040610d9a898d8a610566565b013590610597565b9201949050610d7c565b604490836040519163bb22134560e01b835260048301526024820152fd5b604051633fbcf67b60e21b8152600490fd5b906020823d602011610e09575b81610df660209383610537565b81010312610e065750515f6107c9565b80fd5b3d9150610de9565b604051630c1fc1df60e41b8152600490fd5b6040516331d5a55f60e21b8152600490fd5b634e487b7160e01b5f52602160045260245ffd5b6020813d602011610e7c575b81610e6260209383610537565b810103126101505751906007821015610e0657505f61076c565b3d9150610e55565b6040516001623790e360e11b03198152600490fd5b906020823d602011610ecb575b81610eb360209383610537565b81010312610e065750610ec590610559565b5f610739565b3d9150610ea6565b604051633041305b60e21b8152600490fd5b604051634ac8eb5f60e01b8152929391926001600160a01b03909116916004916020818481875afa908115610a5b575f9161115e575b5080158015611156575b61114c5784610f3391610597565b60fa810281810460fa14821517156111395790612710610f54920490611190565b60405163c423629760e01b815280840194909452915f846024817f00000000000000000000000000000000000000000000000000000000000000006001600160a01b03165afa938415610a5b575f9461100e575b505083915f5b8451811015610ffd576020610fc38287610623565b510151151587151514610fd9575b600101610fae565b92610ff56001916040610fec8789610623565b51015190610597565b939050610fd1565b509250935061100b926111b3565b90565b939091933d928383833e6110228483610537565b60208285810103126104a957815167ffffffffffffffff811161113557820191848101601f840112156111355782519161105b836105b8565b956110696040519788610537565b83875260208701926060958282016020888802830101116111315760208101945b602088880283010186106110a957505050505050505050915f80610fa8565b8786858501031261112d5760405188810181811067ffffffffffffffff82111761111a5760405286516001600160a01b0381168103611116576020809493838c94938594526110f9838c01610559565b8382015260408b015160408201528152019701969192505061108a565b8a80fd5b634e487b7160e01b8b526041875260248bfd5b8880fd5b8780fd5b8380fd5b601184634e487b7160e01b5f525260245ffd5b5093505050505f90565b508415610f25565b906020823d602011611188575b8161117860209383610537565b81010312610e065750515f610f1b565b3d915061116b565b919082039182116105a457565b906064820291808304606414901517156105a457565b91909182156111d0578181029181830414901517156105a4570490565b5050505f9056fea26469706673582212207f74fe38e7421eb34712cfb6df51415cca5932b0d9356edc0443d3dcff5701f364736f6c63430008140033","linkReferences":{}},"methodIdentifiers":{"USDT()":"c54e44eb","calculateAndDistribute(address,(address,bool,uint256)[],bool)":"ef3787c8","factory()":"c45a0155","getEstimatedPayout(address,uint256,bool)":"a4fd0487","getFeeConstants()":"e516755c","getPayoutSummary(address)":"4b4e7b64","hasDistributed(address)":"e96a6bda","marketMakerAgent()":"c792adb6","oracleAgent()":"7d618bb6","positionVault()":"98654aff","protocolTreasury()":"803db96d"},"id":38}