{"abi":[{"type":"constructor","inputs":[{"name":"_factory","type":"address","internalType":"address"},{"name":"_oracleAgent","type":"address","internalType":"address"},{"name":"_usdt","type":"address","internalType":"address"},{"name":"_payoutDistributor","type":"address","internalType":"address"}],"stateMutability":"nonpayable"},{"type":"function","name":"USDT","inputs":[],"outputs":[{"name":"","type":"address","internalType":"address"}],"stateMutability":"view"},{"type":"function","name":"commitPosition","inputs":[{"name":"market","type":"address","internalType":"address"},{"name":"bettor","type":"address","internalType":"address"},{"name":"encryptedCommitment","type":"bytes","internalType":"bytes"},{"name":"collateralAmount","type":"uint256","internalType":"uint256"}],"outputs":[],"stateMutability":"nonpayable"},{"type":"function","name":"factory","inputs":[],"outputs":[{"name":"","type":"address","internalType":"address"}],"stateMutability":"view"},{"type":"function","name":"getBettorCollateral","inputs":[{"name":"market","type":"address","internalType":"address"},{"name":"bettor","type":"address","internalType":"address"}],"outputs":[{"name":"","type":"uint256","internalType":"uint256"}],"stateMutability":"view"},{"type":"function","name":"getEncryptedPosition","inputs":[{"name":"market","type":"address","internalType":"address"},{"name":"index","type":"uint256","internalType":"uint256"}],"outputs":[{"name":"","type":"tuple","internalType":"struct IPositionVault.EncryptedPosition","components":[{"name":"bettor","type":"address","internalType":"address"},{"name":"encryptedCommitment","type":"bytes","internalType":"bytes"},{"name":"collateralAmount","type":"uint256","internalType":"uint256"},{"name":"timestamp","type":"uint256","internalType":"uint256"},{"name":"revealed","type":"bool","internalType":"bool"}]}],"stateMutability":"view"},{"type":"function","name":"getMarketsForBettor","inputs":[{"name":"bettor","type":"address","internalType":"address"}],"outputs":[{"name":"","type":"address[]","internalType":"address[]"}],"stateMutability":"view"},{"type":"function","name":"getRevealedPositionForBettor","inputs":[{"name":"market","type":"address","internalType":"address"},{"name":"bettor","type":"address","internalType":"address"}],"outputs":[{"name":"position","type":"tuple","internalType":"struct IPositionVault.RevealedPosition","components":[{"name":"bettor","type":"address","internalType":"address"},{"name":"direction","type":"bool","internalType":"bool"},{"name":"collateralAmount","type":"uint256","internalType":"uint256"}]},{"name":"hasReveal","type":"bool","internalType":"bool"}],"stateMutability":"view"},{"type":"function","name":"getRevealedPositions","inputs":[{"name":"market","type":"address","internalType":"address"}],"outputs":[{"name":"","type":"tuple[]","internalType":"struct IPositionVault.RevealedPosition[]","components":[{"name":"bettor","type":"address","internalType":"address"},{"name":"direction","type":"bool","internalType":"bool"},{"name":"collateralAmount","type":"uint256","internalType":"uint256"}]}],"stateMutability":"view"},{"type":"function","name":"getTotalCommitted","inputs":[{"name":"market","type":"address","internalType":"address"}],"outputs":[{"name":"","type":"uint256","internalType":"uint256"}],"stateMutability":"view"},{"type":"function","name":"hasBet","inputs":[{"name":"market","type":"address","internalType":"address"},{"name":"bettor","type":"address","internalType":"address"}],"outputs":[{"name":"","type":"bool","internalType":"bool"}],"stateMutability":"view"},{"type":"function","name":"hasRevealed","inputs":[{"name":"market","type":"address","internalType":"address"}],"outputs":[{"name":"","type":"bool","internalType":"bool"}],"stateMutability":"view"},{"type":"function","name":"oracleAgent","inputs":[],"outputs":[{"name":"","type":"address","internalType":"address"}],"stateMutability":"view"},{"type":"function","name":"payoutDistributor","inputs":[],"outputs":[{"name":"","type":"address","internalType":"address"}],"stateMutability":"view"},{"type":"function","name":"positionCount","inputs":[{"name":"market","type":"address","internalType":"address"}],"outputs":[{"name":"","type":"uint256","internalType":"uint256"}],"stateMutability":"view"},{"type":"function","name":"refundAll","inputs":[{"name":"market","type":"address","internalType":"address"}],"outputs":[],"stateMutability":"nonpayable"},{"type":"function","name":"revealPositions","inputs":[{"name":"market","type":"address","internalType":"address"},{"name":"positions","type":"tuple[]","internalType":"struct IPositionVault.RevealedPosition[]","components":[{"name":"bettor","type":"address","internalType":"address"},{"name":"direction","type":"bool","internalType":"bool"},{"name":"collateralAmount","type":"uint256","internalType":"uint256"}]},{"name":"teeDecryptionProof","type":"bytes","internalType":"bytes"}],"outputs":[],"stateMutability":"nonpayable"},{"type":"event","name":"PositionCommitted","inputs":[{"name":"market","type":"address","indexed":true,"internalType":"address"},{"name":"bettor","type":"address","indexed":true,"internalType":"address"},{"name":"collateralAmount","type":"uint256","indexed":false,"internalType":"uint256"},{"name":"positionIndex","type":"uint256","indexed":false,"internalType":"uint256"}],"anonymous":false},{"type":"event","name":"PositionsRefunded","inputs":[{"name":"market","type":"address","indexed":true,"internalType":"address"},{"name":"totalRefunded","type":"uint256","indexed":false,"internalType":"uint256"},{"name":"positionCount","type":"uint256","indexed":false,"internalType":"uint256"}],"anonymous":false},{"type":"event","name":"PositionsRevealed","inputs":[{"name":"market","type":"address","indexed":true,"internalType":"address"},{"name":"totalPositions","type":"uint256","indexed":false,"internalType":"uint256"},{"name":"timestamp","type":"uint256","indexed":false,"internalType":"uint256"}],"anonymous":false},{"type":"error","name":"PositionVault__AlreadyRevealed","inputs":[]},{"type":"error","name":"PositionVault__InvalidTeeProof","inputs":[]},{"type":"error","name":"PositionVault__MarketNotCancelled","inputs":[]},{"type":"error","name":"PositionVault__MarketNotResolved","inputs":[]},{"type":"error","name":"PositionVault__NoPositionsToReveal","inputs":[]},{"type":"error","name":"PositionVault__NotOracleAgent","inputs":[]},{"type":"error","name":"PositionVault__NotValidMarket","inputs":[]},{"type":"error","name":"PositionVault__PositionCountMismatch","inputs":[{"name":"expected","type":"uint256","internalType":"uint256"},{"name":"provided","type":"uint256","internalType":"uint256"}]},{"type":"error","name":"PositionVault__RefundFailed","inputs":[{"name":"bettor","type":"address","internalType":"address"},{"name":"amount","type":"uint256","internalType":"uint256"}]},{"type":"error","name":"PositionVault__ZeroCollateral","inputs":[]},{"type":"error","name":"PositionVault__ZeroCommitment","inputs":[]},{"type":"error","name":"ReentrancyGuardReentrantCall","inputs":[]},{"type":"error","name":"SafeERC20FailedOperation","inputs":[{"name":"token","type":"address","internalType":"address"}]}],"bytecode":{"object":"0x610100346200017157601f6200187038819003918201601f191683019291906001600160401b03841183851017620001755781608092849260409687528339810103126200017157620000528162000189565b90620000616020820162000189565b6200007c60606200007486850162000189565b930162000189565b60017f9b779b17422d0df92223018b32b4d1fa46e071723d6817e2486d003becc55f0055926001600160a01b03808216156200016057808316156200014f57808416156200013e578416156200012d5760805260a05260c05260e052516116d190816200019f823960805181818161031b0152610db7015260a051818181610599015261084d015260c0518181816102d60152611589015260e0518181816104b4015281816109a10152610a2e0152f35b845163b38bf8b960e01b8152600490fd5b855163b38bf8b960e01b8152600490fd5b85516323c6d84560e21b8152600490fd5b8551637ec01e8960e01b8152600490fd5b5f80fd5b634e487b7160e01b5f52604160045260245ffd5b51906001600160a01b0382168203620001715756fe6080806040526004361015610012575f80fd5b5f9060e0908235821c90816302cb194814610d5a575080631af4ad51146107cc5780632dea02051461070157806342fd3880146106c9578063478cd8911461061a5780636aa96bb9146105c85780637d618bb61461058357806389852c27146105345780639b632829146104e3578063b33710471461049e578063b9a530131461045f578063c42362971461034a578063c45a015514610305578063c54e44eb146102c0578063d229ec79146102845763dff82966146100d0575f80fd5b34610280576040366003190112610280576100e9611255565b90604051926100f7846112b3565b808452806080602095606087820152826040820152826060820152015260018060a01b03809316815280845261013260243560408320611351565b509260405193610141856112b3565b81815416855260018681830160405192839187918154916101618361137e565b8086529282811690811561025d5750600114610220575b505050610187925003826112ff565b8686019081526002820154906040870191825260ff600460038501549460608a019586520154169360808801941515855260405197898952511688880152519360a060408801528451948560c0890152815b86811061020d57505084870186015251606086015251608085015251151560a0840152601f01601f19168201829003019150f35b8181018a015189820189015289016101d9565b89528489209492508891905b81831061024557508b9450508201016101875f80610178565b8554878401850152948501948694509183019161022c565b9250505061018794925060ff191682840152151560051b82010189925f80610178565b5080fd5b82346102bd5760203660031901126102bd576020906040906001600160a01b036102ac611255565b168152600283522054604051908152f35b80fd5b82346102bd57806003193601126102bd576040517f00000000000000000000000000000000000000000000000000000000000000006001600160a01b03168152602090f35b82346102bd57806003193601126102bd576040517f00000000000000000000000000000000000000000000000000000000000000006001600160a01b03168152602090f35b82346102bd57602090816003193601126102bd576001600160a01b0361036e611255565b168152600191828152604082209081549067ffffffffffffffff821161044b5791928491604051906103a5858260051b01836112ff565b8082528482018096845285842084915b83831061042257505050506040519380850191818652518092526040850195925b8281106103e35785870386f35b9091929382606088610415849a89516040809160018060a01b0381511684526020810151151560208501520151910152565b01979501939291016103d6565b95600288829a98610436859b98999b611665565b815201920192019190979597969493966103b5565b634e487b7160e01b84526041600452602484fd5b82346102bd5760203660031901126102bd5760209060ff906040906001600160a01b0361048a611255565b168152600384522054166040519015158152f35b82346102bd57806003193601126102bd576040517f00000000000000000000000000000000000000000000000000000000000000006001600160a01b03168152602090f35b82346102bd5760203660031901126102bd5761050d610500611255565b610508611461565b6114a3565b60017f9b779b17422d0df92223018b32b4d1fa46e071723d6817e2486d003becc55f005580f35b82346102bd5760403660031901126102bd5761054e611255565b906001600160a01b03906040908261056461126f565b16815260066020522091165f52602052602060405f2054604051908152f35b82346102bd57806003193601126102bd576040517f00000000000000000000000000000000000000000000000000000000000000006001600160a01b03168152602090f35b82346102bd5760403660031901126102bd576105e2611255565b60406105ec61126f565b9260018060a01b03809316815260046020522091165f52602052602060ff60405f2054166040519015158152f35b82346102bd57602090816003193601126102bd576001600160a01b03919082610641611255565b168152600582526040812090604051808484549182815201908194845285842090845b8181106106b3575050508161067a9103826112ff565b6040519380850191818652518092526040850193925b82811061069d5785850386f35b8351871685529381019392810192600101610690565b8254891684529287019260019283019201610664565b82346102bd5760203660031901126102bd576020906040906001600160a01b036106f1611255565b1681528083522054604051908152f35b82346102bd5760403660031901126102bd5760809061071e611255565b61072661126f565b90604051610733816112e3565b8381528360208201528360408201529260018060a01b0380931692838252600860205260408220921691825f5260205260ff60405f20541692836107a3575b50506040805184516001600160a01b0316815260208086015115159082015293810151908401525015156060820152f35b6040929394508152600760205220905f526020526107c360405f20611665565b90838080610772565b82346102bd5760603660031901126102bd576107e6611255565b60243567ffffffffffffffff8111610d565736602382011215610d565767ffffffffffffffff816004013511610d5657366024606083600401350283010111610d565760443567ffffffffffffffff8111610b1a57610849903690600401611285565b90507f00000000000000000000000000000000000000000000000000000000000000006001600160a01b03163303610d4457610883611461565b604051631006976960e11b81526020816004816001600160a01b0388165afa908115610d39578591610d0a575b506007811015610cf657600403610ce4576001600160a01b03831684526003602052604084205460ff16610cd2576001600160a01b0383168452602084905260408420548015610cc05780836004013503610c9e575015610c8c57825b81600401358110610b5857506001600160a01b038216808452600360209081526040808620805460ff1916600117905580516004850135815242928101929092527f576837885dec54f3afcf668edade4c8bbb4066ae677bda9964082e012f21ccfc91a26040516327793f8760e01b81526020816004816001600160a01b0387165afa908115610b4d578491610b1e575b507f00000000000000000000000000000000000000000000000000000000000000006001600160a01b03163b15610b1a57918390604051938491631de6f0f960e31b8352606483019060018060a01b0316600484015260606024840152846004013590526084820190602485019484905b80600401358210610ac2575050151560448301529192509081900381837f00000000000000000000000000000000000000000000000000000000000000006001600160a01b03165af18015610ab757610a8b575b5060017f9b779b17422d0df92223018b32b4d1fa46e071723d6817e2486d003becc55f005580f35b67ffffffffffffffff8111610aa35760405281610a63565b634e487b7160e01b82526041600452602482fd5b6040513d84823e3d90fd5b91945092509084356001600160a01b03811690819003610b165781526020850135908115158203610b1657606080916001931515602082015260408801356040820152019501920192869386939592610a0f565b8780fd5b8380fd5b610b40915060203d602011610b46575b610b3881836112ff565b810190611321565b8461099e565b503d610b2e565b6040513d86823e3d90fd5b6001600160a01b0383168452600160205260408420610b7f826004850135602486016113d7565b90805490600160401b821015610c785760018201808255821015610c645791610bb5916001949388526020882090851b016113fb565b818060a01b0384168552846020526004610bd28260408820611351565b500160ff19908382825416179055610bfa610bf5838660040135602488016113d7565b6113e7565b610c3a610c0f848760040135602489016113d7565b91858060a01b031691828952600760205260408920868060a01b0389168a52602052604089206113fb565b8652600860205260408620838060a01b03861687526020528260408720918254161790550161090d565b634e487b7160e01b87526032600452602487fd5b634e487b7160e01b87526041600452602487fd5b604051630965ee1160e41b8152600490fd5b6044908360405191637565d1fb60e11b83526004830152600401356024820152fd5b60405163f8cb399f60e01b8152600490fd5b604051636f44774160e11b8152600490fd5b6040516315f98b7f60e01b8152600490fd5b634e487b7160e01b85526021600452602485fd5b610d2c915060203d602011610d32575b610d2481836112ff565b810190611339565b856108b0565b503d610d1a565b6040513d87823e3d90fd5b6040516323c6d84560e21b8152600490fd5b8280fd5b83903461028057608036600319011261028057610d75611255565b90610d7e61126f565b60443567ffffffffffffffff811161125157610d9e903690600401611285565b6358e6309f60e01b8452336004850152926020816024817f00000000000000000000000000000000000000000000000000000000000000006001600160a01b03165afa9081156111f1578691611232575b501561122057821561120e57606435156111fc57604051631006976960e11b81526020816004816001600160a01b0389165afa9081156111f15786916111d2575b5060078110156111be57600103610ce45760018060a01b0384168552846020526040852080549360405192610e64846112b3565b6001600160a01b038516845267ffffffffffffffff821161118257879060405192610e996020601f19601f84011601856112ff565b8084523681830111610d565780602092838601378301015260208301526064356040830152426060830152856080830152600160401b8410156111aa5783610ee691600182018155611351565b61119657815181546001600160a01b0319166001600160a01b0391909116178155602082015180519067ffffffffffffffff821161118257610f2b600184015461137e565b601f811161113e575b50602090601f83116001146110d0579180608094926004948b926110c5575b50508160011b915f199060031b1c19161760018201555b60408401516002820155606084015160038201550191015115159060ff199160ff83835416911617905560018060a01b0384168552600260205260408520610fb560643582546113b6565b90556001600160a01b038481168652600460209081526040808820928516885291905285205460ff161561107a575b6001600160a01b03848116808752600460209081526040808920938616895292815282882080549094166001179093556006835281872090875290915280852080547fe52338b3ea5a9f111729cbe6650f7aa5ba0cab8a50ce0be81a819361cfed43d793919061105790606435906113b6565b90558151606435815260208101949094526001600160a01b03908116941692a380f35b600560205260408520805490600160401b821015610c785760018201808255821015610c64578652602086200180546001600160a01b0319166001600160a01b038616179055610fe4565b015190508a80610f53565b600184018952602089209190601f1984168a5b8181106111265750926001928592600496608098961061110e575b505050811b016001820155610f6a565b01515f1960f88460031b161c191690558a80806110fe565b929360206001819287860151815501950193016110e3565b60018401895260208920601f840160051c81016020851061117b575b601f830160051c82018110611170575050610f34565b8a815560010161115a565b508061115a565b634e487b7160e01b88526041600452602488fd5b634e487b7160e01b86526004869052602486fd5b634e487b7160e01b86526041600452602486fd5b634e487b7160e01b86526021600452602486fd5b6111eb915060203d602011610d3257610d2481836112ff565b86610e30565b6040513d88823e3d90fd5b60405163b38bf8b960e01b8152600490fd5b60405163226fe43760e01b8152600490fd5b604051637ec01e8960e01b8152600490fd5b61124b915060203d602011610b4657610b3881836112ff565b86610def565b8480fd5b600435906001600160a01b038216820361126b57565b5f80fd5b602435906001600160a01b038216820361126b57565b9181601f8401121561126b5782359167ffffffffffffffff831161126b576020838186019501011161126b57565b60a0810190811067ffffffffffffffff8211176112cf57604052565b634e487b7160e01b5f52604160045260245ffd5b6060810190811067ffffffffffffffff8211176112cf57604052565b90601f8019910116810190811067ffffffffffffffff8211176112cf57604052565b9081602091031261126b5751801515810361126b5790565b9081602091031261126b5751600781101561126b5790565b805482101561136a575f52600560205f20910201905f90565b634e487b7160e01b5f52603260045260245ffd5b90600182811c921680156113ac575b602083101461139857565b634e487b7160e01b5f52602260045260245ffd5b91607f169161138d565b919082018092116113c357565b634e487b7160e01b5f52601160045260245ffd5b919081101561136a576060020190565b356001600160a01b038116810361126b5790565b906001600160a01b0361140d826113e7565b1690825490826bffffffffffffffffffffffff60a01b831617845560208101359182151580930361126b576001600160a81b03191690921760a09190911b60ff60a01b161782556040013560019190910155565b7f9b779b17422d0df92223018b32b4d1fa46e071723d6817e2486d003becc55f0060028154146114915760029055565b604051633ee5aeb560e01b8152600490fd5b6001600160a01b0391908216338190036112205760408051631006976960e11b81526004949060209081818881885afa90811561165b575f9161163e575b50600781101561162b5760050361161b57835f525f8152825f20908154918215611611575f93845b848110611543575050507f9df50aacae8e83595ae95a2c45e9dad1b59f8daf26a3c3e20f5c7a01d5e9ca80949596508351928352820152a2565b61154d8184611351565b506002810180549182611566575b505050600101611509565b545f91829055895163a9059cbb60e01b83529085168d52602483815293989293917f0000000000000000000000000000000000000000000000000000000000000000861690889060448180855af16001805f51148216156115f3575b50828c52156115e3575050506001916115da916113b6565b95905f8061155b565b635274afe760e01b8252818e0152fd5b81151661160857813b15153d1516165f6115c2565b823d5f823e3d90fd5b5050505050509050565b8251634f86642560e11b81528690fd5b602187634e487b7160e01b5f525260245ffd5b6116559150823d8411610d3257610d2481836112ff565b5f6114e1565b84513d5f823e3d90fd5b90604051611672816112e3565b82546001600160a01b038116825260a01c60ff161515602082015260019290920154604083015256fea2646970667358221220dd38db928b8203af1aa1fdd018a548fc762bad9c9e47350b6bf66f58fc427a4d64736f6c63430008140033","linkReferences":{}},"methodIdentifiers":{"USDT()":"c54e44eb","commitPosition(address,address,bytes,uint256)":"02cb1948","factory()":"c45a0155","getBettorCollateral(address,address)":"89852c27","getEncryptedPosition(address,uint256)":"dff82966","getMarketsForBettor(address)":"478cd891","getRevealedPositionForBettor(address,address)":"2dea0205","getRevealedPositions(address)":"c4236297","getTotalCommitted(address)":"d229ec79","hasBet(address,address)":"6aa96bb9","hasRevealed(address)":"b9a53013","oracleAgent()":"7d618bb6","payoutDistributor()":"b3371047","positionCount(address)":"42fd3880","refundAll(address)":"9b632829","revealPositions(address,(address,bool,uint256)[],bytes)":"1af4ad51"},"id":36}