{"abi":[{"type":"constructor","inputs":[{"name":"_factory","type":"address","internalType":"address"},{"name":"_oracleAgent","type":"address","internalType":"address"},{"name":"_usdt","type":"address","internalType":"address"},{"name":"_payoutDistributor","type":"address","internalType":"address"}],"stateMutability":"nonpayable"},{"type":"function","name":"USDT","inputs":[],"outputs":[{"name":"","type":"address","internalType":"address"}],"stateMutability":"view"},{"type":"function","name":"commitPosition","inputs":[{"name":"market","type":"address","internalType":"address"},{"name":"bettor","type":"address","internalType":"address"},{"name":"encryptedCommitment","type":"bytes","internalType":"bytes"},{"name":"collateralAmount","type":"uint256","internalType":"uint256"}],"outputs":[],"stateMutability":"nonpayable"},{"type":"function","name":"factory","inputs":[],"outputs":[{"name":"","type":"address","internalType":"address"}],"stateMutability":"view"},{"type":"function","name":"getEncryptedPosition","inputs":[{"name":"market","type":"address","internalType":"address"},{"name":"index","type":"uint256","internalType":"uint256"}],"outputs":[{"name":"","type":"tuple","internalType":"struct IPositionVault.EncryptedPosition","components":[{"name":"bettor","type":"address","internalType":"address"},{"name":"encryptedCommitment","type":"bytes","internalType":"bytes"},{"name":"collateralAmount","type":"uint256","internalType":"uint256"},{"name":"timestamp","type":"uint256","internalType":"uint256"},{"name":"revealed","type":"bool","internalType":"bool"}]}],"stateMutability":"view"},{"type":"function","name":"getRevealedPositions","inputs":[{"name":"market","type":"address","internalType":"address"}],"outputs":[{"name":"","type":"tuple[]","internalType":"struct IPositionVault.RevealedPosition[]","components":[{"name":"bettor","type":"address","internalType":"address"},{"name":"direction","type":"bool","internalType":"bool"},{"name":"collateralAmount","type":"uint256","internalType":"uint256"}]}],"stateMutability":"view"},{"type":"function","name":"getTotalCommitted","inputs":[{"name":"market","type":"address","internalType":"address"}],"outputs":[{"name":"","type":"uint256","internalType":"uint256"}],"stateMutability":"view"},{"type":"function","name":"hasBet","inputs":[{"name":"market","type":"address","internalType":"address"},{"name":"bettor","type":"address","internalType":"address"}],"outputs":[{"name":"","type":"bool","internalType":"bool"}],"stateMutability":"view"},{"type":"function","name":"hasRevealed","inputs":[{"name":"market","type":"address","internalType":"address"}],"outputs":[{"name":"","type":"bool","internalType":"bool"}],"stateMutability":"view"},{"type":"function","name":"oracleAgent","inputs":[],"outputs":[{"name":"","type":"address","internalType":"address"}],"stateMutability":"view"},{"type":"function","name":"payoutDistributor","inputs":[],"outputs":[{"name":"","type":"address","internalType":"address"}],"stateMutability":"view"},{"type":"function","name":"positionCount","inputs":[{"name":"market","type":"address","internalType":"address"}],"outputs":[{"name":"","type":"uint256","internalType":"uint256"}],"stateMutability":"view"},{"type":"function","name":"refundAll","inputs":[{"name":"market","type":"address","internalType":"address"}],"outputs":[],"stateMutability":"nonpayable"},{"type":"function","name":"revealPositions","inputs":[{"name":"market","type":"address","internalType":"address"},{"name":"positions","type":"tuple[]","internalType":"struct IPositionVault.RevealedPosition[]","components":[{"name":"bettor","type":"address","internalType":"address"},{"name":"direction","type":"bool","internalType":"bool"},{"name":"collateralAmount","type":"uint256","internalType":"uint256"}]},{"name":"teeDecryptionProof","type":"bytes","internalType":"bytes"}],"outputs":[],"stateMutability":"nonpayable"},{"type":"event","name":"PositionCommitted","inputs":[{"name":"market","type":"address","indexed":true,"internalType":"address"},{"name":"bettor","type":"address","indexed":true,"internalType":"address"},{"name":"collateralAmount","type":"uint256","indexed":false,"internalType":"uint256"},{"name":"positionIndex","type":"uint256","indexed":false,"internalType":"uint256"}],"anonymous":false},{"type":"event","name":"PositionsRefunded","inputs":[{"name":"market","type":"address","indexed":true,"internalType":"address"},{"name":"totalRefunded","type":"uint256","indexed":false,"internalType":"uint256"},{"name":"positionCount","type":"uint256","indexed":false,"internalType":"uint256"}],"anonymous":false},{"type":"event","name":"PositionsRevealed","inputs":[{"name":"market","type":"address","indexed":true,"internalType":"address"},{"name":"totalPositions","type":"uint256","indexed":false,"internalType":"uint256"},{"name":"timestamp","type":"uint256","indexed":false,"internalType":"uint256"}],"anonymous":false},{"type":"error","name":"PositionVault__AlreadyRevealed","inputs":[]},{"type":"error","name":"PositionVault__InvalidTeeProof","inputs":[]},{"type":"error","name":"PositionVault__MarketNotCancelled","inputs":[]},{"type":"error","name":"PositionVault__MarketNotResolved","inputs":[]},{"type":"error","name":"PositionVault__NoPositionsToReveal","inputs":[]},{"type":"error","name":"PositionVault__NotOracleAgent","inputs":[]},{"type":"error","name":"PositionVault__NotValidMarket","inputs":[]},{"type":"error","name":"PositionVault__PositionCountMismatch","inputs":[{"name":"expected","type":"uint256","internalType":"uint256"},{"name":"provided","type":"uint256","internalType":"uint256"}]},{"type":"error","name":"PositionVault__RefundFailed","inputs":[{"name":"bettor","type":"address","internalType":"address"},{"name":"amount","type":"uint256","internalType":"uint256"}]},{"type":"error","name":"PositionVault__ZeroCollateral","inputs":[]},{"type":"error","name":"PositionVault__ZeroCommitment","inputs":[]},{"type":"error","name":"ReentrancyGuardReentrantCall","inputs":[]},{"type":"error","name":"SafeERC20FailedOperation","inputs":[{"name":"token","type":"address","internalType":"address"}]}],"bytecode":{"object":"0x610100346200017157601f620014fa38819003918201601f191683019291906001600160401b03841183851017620001755781608092849260409687528339810103126200017157620000528162000189565b90620000616020820162000189565b6200007c60606200007486850162000189565b930162000189565b60017f9b779b17422d0df92223018b32b4d1fa46e071723d6817e2486d003becc55f0055926001600160a01b03808216156200016057808316156200014f57808416156200013e578416156200012d5760805260a05260c05260e0525161135b90816200019f82396080518181816102fa0152610be5015260a05181818161056101526106a0015260c0518181816102b50152611249015260e0518181816104cb015281816107fa01526108860152f35b845163b38bf8b960e01b8152600490fd5b855163b38bf8b960e01b8152600490fd5b85516323c6d84560e21b8152600490fd5b8551637ec01e8960e01b8152600490fd5b5f80fd5b634e487b7160e01b5f52604160045260245ffd5b51906001600160a01b0382168203620001715756fe6080806040526004361015610012575f80fd5b5f9060e0908235821c90816302cb194814610b7b575080631af4ad511461061a57806342fd3880146105e25780636aa96bb9146105905780637d618bb61461054b5780639b632829146104fa578063b3371047146104b5578063b9a5301314610476578063c423629714610329578063c45a0155146102e4578063c54e44eb1461029f578063d229ec79146102635763dff82966146100af575f80fd5b3461025f57604036600319011261025f576100c8610fd0565b90604051926100d68461102e565b808452806080602095606087820152826040820152826060820152015260018060a01b0380931681528084526101116024356040832061109c565b5092604051936101208561102e565b8181541685526001868183016040519283918791815491610140836110c9565b8086529282811690811561023c57506001146101ff575b5050506101669250038261104a565b8686019081526002820154906040870191825260ff600460038501549460608a019586520154169360808801941515855260405197898952511688880152519360a060408801528451948560c0890152815b8681106101ec57505084870186015251606086015251608085015251151560a0840152601f01601f19168201829003019150f35b8181018a015189820189015289016101b8565b89528489209492508891905b81831061022457508b9450508201016101665f80610157565b8554878401850152948501948694509183019161020b565b9250505061016694925060ff191682840152151560051b82010189925f80610157565b5080fd5b823461029c57602036600319011261029c576020906040906001600160a01b0361028b610fd0565b168152600283522054604051908152f35b80fd5b823461029c578060031936011261029c576040517f00000000000000000000000000000000000000000000000000000000000000006001600160a01b03168152602090f35b823461029c578060031936011261029c576040517f00000000000000000000000000000000000000000000000000000000000000006001600160a01b03168152602090f35b823461029c5760208060031936011261025f576001600160a01b03908161034e610fd0565b168352600192838252604081209182549167ffffffffffffffff9283811161046257928692869460405192610388838360051b018561104a565b81845282840190819886528386209086925b8484106103f9575050505050604051948186019282875251809352604086019693905b8382106103ca5786880387f35b8451805182168952838101511515848a01526040908101519089015260609097019693820193908501906103bd565b60409a989a9795969751606081018181108482111761044e578c9260029260ff8e8c946040528854908116835260a01c161515838201528487015460408201528152019301930192919997999695949661039a565b634e487b7160e01b5f52604160045260245ffd5b634e487b7160e01b82526041600452602482fd5b823461029c57602036600319011261029c5760209060ff906040906001600160a01b036104a1610fd0565b168152600384522054166040519015158152f35b823461029c578060031936011261029c576040517f00000000000000000000000000000000000000000000000000000000000000006001600160a01b03168152602090f35b823461029c57602036600319011261029c57610524610517610fd0565b61051f611122565b611164565b60017f9b779b17422d0df92223018b32b4d1fa46e071723d6817e2486d003becc55f005580f35b823461029c578060031936011261029c576040517f00000000000000000000000000000000000000000000000000000000000000006001600160a01b03168152602090f35b823461029c57604036600319011261029c576105aa610fd0565b60406105b4610fea565b9260018060a01b03809316815260046020522091165f52602052602060ff60405f2054166040519015158152f35b823461029c57602036600319011261029c576020906040906001600160a01b0361060a610fd0565b1681528083522054604051908152f35b823461029c57606036600319011261029c57610634610fd0565b67ffffffffffffffff6024351161025f5736602360243501121561025f5767ffffffffffffffff602435600401351161025f57366024606081356004013502813501011161025f5760443567ffffffffffffffff811161095c5761069c903690600401611000565b90507f00000000000000000000000000000000000000000000000000000000000000006001600160a01b03163303610b69576106d6611122565b604051631006976960e11b81526020816004816001600160a01b0387165afa908115610b5e578491610b2f575b506005811015610b1b57600303610b09576001600160a01b03821683526003602052604083205460ff16610af7576001600160a01b0382168352602083905260408320548015610ae557806024356004013503610ac1575015610aaf57815b60243560040135811061099a57506001600160a01b038116808352600360209081526040808520805460ff19166001179055805160046024350135815242928101929092527f576837885dec54f3afcf668edade4c8bbb4066ae677bda9964082e012f21ccfc91a26040516327793f8760e01b81526020816004816001600160a01b0386165afa90811561098f578391610960575b507f00000000000000000000000000000000000000000000000000000000000000006001600160a01b03163b1561095c5760405191631de6f0f960e31b8352606483019060018060a01b0316600484015260606024840152602435600401359052828260848101602480350193835b6024356004013581106109065750151560448301529192509081900381837f00000000000000000000000000000000000000000000000000000000000000006001600160a01b03165af180156108fb576108e3575b5060017f9b779b17422d0df92223018b32b4d1fa46e071723d6817e2486d003becc55f005580f35b67ffffffffffffffff811161046257604052816108bb565b6040513d84823e3d90fd5b909350915083356001600160a01b038116908190036109585781526020840135908115158203610958576060809160019315156020820152604087013560408201520194019101928592859294610866565b8680fd5b8280fd5b610982915060203d602011610988575b61097a818361104a565b81019061106c565b836107f7565b503d610970565b6040513d85823e3d90fd5b6001600160a01b038216835260016020526040832080549190600160401b831015610a9b5760018301808255831015610a87578452602084209160248035606084020101356001600160a01b0381168103610a83578160011b84015493604460608502602435010135918215158303610a7f576001600160a81b03199095166001600160a01b039586161791151560a01b60ff60a01b1691909117600192831b91909101908155602435606084020160640135908201559183168452602084905260408420600490610a6d90839061109c565b5001805460ff19168317905501610762565b8780fd5b8580fd5b634e487b7160e01b85526032600452602485fd5b634e487b7160e01b85526041600452602485fd5b604051630965ee1160e41b8152600490fd5b60449060405190637565d1fb60e11b82526004820152602435600401356024820152fd5b60405163f8cb399f60e01b8152600490fd5b604051636f44774160e11b8152600490fd5b6040516315f98b7f60e01b8152600490fd5b634e487b7160e01b84526021600452602484fd5b610b51915060203d602011610b57575b610b49818361104a565b810190611084565b84610703565b503d610b3f565b6040513d86823e3d90fd5b6040516323c6d84560e21b8152600490fd5b83903461025f57608036600319011261025f57610b96610fd0565b90610b9f610fea565b67ffffffffffffffff9190604435838111610a8357610bc2903690600401611000565b6358e6309f60e01b84523360048501526024946001600160a01b039460208188817f00000000000000000000000000000000000000000000000000000000000000008a165afa908115610f70578991610fb1575b5015610f9f578115610f8d5760643515610f7b57604051631006976960e11b81526020816004818b8a165afa908115610f70578991610f51575b506005811015610f3e57610b0957848716885287602052604088209586549660405194610c7c8661102e565b8787168652838511610f2b578a9060405195610ca26020601f19601f840116018861104a565b808752368183011161095c57806020928389013786010152602085019384526064356040860152426060860152896080860152600160401b881015610f185787610cf19160018201815561109c565b939093610f0557868551166bffffffffffffffffffffffff60a01b85541617845551908151928311610ef35750610d2b60018401546110c9565b601f8111610eaf575b5060209089601f8411600114610e19578795929484604098957fe52338b3ea5a9f111729cbe6650f7aa5ba0cab8a50ce0be81a819361cfed43d79a9760809560049592610e0e575b50508160011b915f199060031b1c19161760018201555b878401516002820155606084015160038201550191015115159060ff199160ff83835416911617905582881689526002602052848920610dd66064358254611101565b9055828816895260046020528489208383168a526020526001858a20918254161790558351956064358752602087015216941692a380f35b015190508e80610d7c565b50600184018a5260208a209190601f1984168b5b818110610e975750946001858a989560809560049560409c997fe52338b3ea5a9f111729cbe6650f7aa5ba0cab8a50ce0be81a819361cfed43d79e9b10610e7f575b505050811b016001820155610d93565b01515f1960f88460031b161c191690558e8080610e6f565b92936020600181928786015181550195019301610e2d565b600184018a5260208a20601f840160051c810160208510610eec575b601f830160051c82018110610ee1575050610d34565b8b8155600101610ecb565b5080610ecb565b634e487b7160e01b8a52604160045289fd5b50634e487b7160e01b8952600489905288fd5b50634e487b7160e01b8952604160045288fd5b634e487b7160e01b8b526041600452828bfd5b634e487b7160e01b895260216004528689fd5b610f6a915060203d602011610b5757610b49818361104a565b89610c50565b6040513d8b823e3d90fd5b60405163b38bf8b960e01b8152600490fd5b60405163226fe43760e01b8152600490fd5b604051637ec01e8960e01b8152600490fd5b610fca915060203d6020116109885761097a818361104a565b89610c16565b600435906001600160a01b0382168203610fe657565b5f80fd5b602435906001600160a01b0382168203610fe657565b9181601f84011215610fe65782359167ffffffffffffffff8311610fe65760208381860195010111610fe657565b60a0810190811067ffffffffffffffff82111761044e57604052565b90601f8019910116810190811067ffffffffffffffff82111761044e57604052565b90816020910312610fe657518015158103610fe65790565b90816020910312610fe657516005811015610fe65790565b80548210156110b5575f52600560205f20910201905f90565b634e487b7160e01b5f52603260045260245ffd5b90600182811c921680156110f7575b60208310146110e357565b634e487b7160e01b5f52602260045260245ffd5b91607f16916110d8565b9190820180921161110e57565b634e487b7160e01b5f52601160045260245ffd5b7f9b779b17422d0df92223018b32b4d1fa46e071723d6817e2486d003becc55f0060028154146111525760029055565b604051633ee5aeb560e01b8152600490fd5b6001600160a01b039190821633819003610f9f5760408051631006976960e11b81526004949060209081818881885afa90811561131b575f916112fe575b5060058110156112eb5786036112db57835f525f8152825f209081549182156112d1575f93845b848110611203575050507f9df50aacae8e83595ae95a2c45e9dad1b59f8daf26a3c3e20f5c7a01d5e9ca80949596508351928352820152a2565b61120d818461109c565b506002810180549182611226575b5050506001016111c9565b545f91829055895163a9059cbb60e01b83529085168d52602483815293989293917f0000000000000000000000000000000000000000000000000000000000000000861690889060448180855af16001805f51148216156112b3575b50828c52156112a35750505060019161129a91611101565b95905f8061121b565b635274afe760e01b8252818e0152fd5b8115166112c857813b15153d1516165f611282565b823d5f823e3d90fd5b5050505050509050565b8251634f86642560e11b81528690fd5b602187634e487b7160e01b5f525260245ffd5b6113159150823d8411610b5757610b49818361104a565b5f6111a2565b84513d5f823e3d90fdfea2646970667358221220b3e016ac51a646eb0c0eb352f5b38974132692e7e2fb13d8f977af980348420c64736f6c63430008140033","linkReferences":{}},"methodIdentifiers":{"USDT()":"c54e44eb","commitPosition(address,address,bytes,uint256)":"02cb1948","factory()":"c45a0155","getEncryptedPosition(address,uint256)":"dff82966","getRevealedPositions(address)":"c4236297","getTotalCommitted(address)":"d229ec79","hasBet(address,address)":"6aa96bb9","hasRevealed(address)":"b9a53013","oracleAgent()":"7d618bb6","payoutDistributor()":"b3371047","positionCount(address)":"42fd3880","refundAll(address)":"9b632829","revealPositions(address,(address,bool,uint256)[],bytes)":"1af4ad51"},"id":12}