{"abi":[{"type":"constructor","inputs":[{"name":"_usdt","type":"address","internalType":"address"},{"name":"_oracleAgent","type":"address","internalType":"address"},{"name":"_marketMakerAgent","type":"address","internalType":"address"},{"name":"_protocolTreasury","type":"address","internalType":"address"}],"stateMutability":"nonpayable"},{"type":"function","name":"USDT","inputs":[],"outputs":[{"name":"","type":"address","internalType":"address"}],"stateMutability":"view"},{"type":"function","name":"allMarkets","inputs":[{"name":"","type":"uint256","internalType":"uint256"}],"outputs":[{"name":"","type":"address","internalType":"address"}],"stateMutability":"view"},{"type":"function","name":"createMarket","inputs":[{"name":"question","type":"string","internalType":"string"},{"name":"deadline","type":"uint256","internalType":"uint256"},{"name":"category","type":"string","internalType":"string"},{"name":"resolutionSourcesHash","type":"bytes32","internalType":"bytes32"}],"outputs":[{"name":"marketAddress","type":"address","internalType":"address"}],"stateMutability":"nonpayable"},{"type":"function","name":"getMarkets","inputs":[{"name":"offset","type":"uint256","internalType":"uint256"},{"name":"limit","type":"uint256","internalType":"uint256"}],"outputs":[{"name":"markets","type":"address[]","internalType":"address[]"}],"stateMutability":"view"},{"type":"function","name":"getMarketsByCreator","inputs":[{"name":"creator","type":"address","internalType":"address"}],"outputs":[{"name":"","type":"address[]","internalType":"address[]"}],"stateMutability":"view"},{"type":"function","name":"isMarket","inputs":[{"name":"","type":"address","internalType":"address"}],"outputs":[{"name":"","type":"bool","internalType":"bool"}],"stateMutability":"view"},{"type":"function","name":"isValidMarket","inputs":[{"name":"market","type":"address","internalType":"address"}],"outputs":[{"name":"","type":"bool","internalType":"bool"}],"stateMutability":"view"},{"type":"function","name":"marketMakerAgent","inputs":[],"outputs":[{"name":"","type":"address","internalType":"address"}],"stateMutability":"view"},{"type":"function","name":"marketsByCreator","inputs":[{"name":"","type":"address","internalType":"address"},{"name":"","type":"uint256","internalType":"uint256"}],"outputs":[{"name":"","type":"address","internalType":"address"}],"stateMutability":"view"},{"type":"function","name":"oracleAgent","inputs":[],"outputs":[{"name":"","type":"address","internalType":"address"}],"stateMutability":"view"},{"type":"function","name":"owner","inputs":[],"outputs":[{"name":"","type":"address","internalType":"address"}],"stateMutability":"view"},{"type":"function","name":"pause","inputs":[],"outputs":[],"stateMutability":"nonpayable"},{"type":"function","name":"paused","inputs":[],"outputs":[{"name":"","type":"bool","internalType":"bool"}],"stateMutability":"view"},{"type":"function","name":"payoutDistributor","inputs":[],"outputs":[{"name":"","type":"address","internalType":"address"}],"stateMutability":"view"},{"type":"function","name":"positionVault","inputs":[],"outputs":[{"name":"","type":"address","internalType":"address"}],"stateMutability":"view"},{"type":"function","name":"protocolTreasury","inputs":[],"outputs":[{"name":"","type":"address","internalType":"address"}],"stateMutability":"view"},{"type":"function","name":"renounceOwnership","inputs":[],"outputs":[],"stateMutability":"nonpayable"},{"type":"function","name":"setVaultAndDistributor","inputs":[{"name":"_positionVault","type":"address","internalType":"address"},{"name":"_payoutDistributor","type":"address","internalType":"address"}],"outputs":[],"stateMutability":"nonpayable"},{"type":"function","name":"totalMarkets","inputs":[],"outputs":[{"name":"","type":"uint256","internalType":"uint256"}],"stateMutability":"view"},{"type":"function","name":"totalMarketsCreated","inputs":[],"outputs":[{"name":"","type":"uint256","internalType":"uint256"}],"stateMutability":"view"},{"type":"function","name":"transferOwnership","inputs":[{"name":"newOwner","type":"address","internalType":"address"}],"outputs":[],"stateMutability":"nonpayable"},{"type":"function","name":"unpause","inputs":[],"outputs":[],"stateMutability":"nonpayable"},{"type":"function","name":"updateTreasury","inputs":[{"name":"newTreasury","type":"address","internalType":"address"}],"outputs":[],"stateMutability":"nonpayable"},{"type":"event","name":"FactoryPaused","inputs":[{"name":"by","type":"address","indexed":false,"internalType":"address"}],"anonymous":false},{"type":"event","name":"FactoryUnpaused","inputs":[{"name":"by","type":"address","indexed":false,"internalType":"address"}],"anonymous":false},{"type":"event","name":"MarketCreated","inputs":[{"name":"marketAddress","type":"address","indexed":true,"internalType":"address"},{"name":"creator","type":"address","indexed":true,"internalType":"address"},{"name":"question","type":"string","indexed":false,"internalType":"string"},{"name":"deadline","type":"uint256","indexed":false,"internalType":"uint256"},{"name":"category","type":"string","indexed":false,"internalType":"string"},{"name":"resolutionSourcesHash","type":"bytes32","indexed":false,"internalType":"bytes32"},{"name":"marketIndex","type":"uint256","indexed":true,"internalType":"uint256"}],"anonymous":false},{"type":"event","name":"OwnershipTransferred","inputs":[{"name":"previousOwner","type":"address","indexed":true,"internalType":"address"},{"name":"newOwner","type":"address","indexed":true,"internalType":"address"}],"anonymous":false},{"type":"event","name":"TreasuryUpdated","inputs":[{"name":"oldTreasury","type":"address","indexed":false,"internalType":"address"},{"name":"newTreasury","type":"address","indexed":false,"internalType":"address"}],"anonymous":false},{"type":"event","name":"VaultAndDistributorSet","inputs":[{"name":"positionVault","type":"address","indexed":false,"internalType":"address"},{"name":"payoutDistributor","type":"address","indexed":false,"internalType":"address"}],"anonymous":false},{"type":"error","name":"MarketLib__DeadlineTooSoon","inputs":[{"name":"provided","type":"uint256","internalType":"uint256"},{"name":"minimum","type":"uint256","internalType":"uint256"}]},{"type":"error","name":"MarketLib__EmptyQuestion","inputs":[]},{"type":"error","name":"MarketLib__InvalidCategory","inputs":[{"name":"category","type":"string","internalType":"string"}]},{"type":"error","name":"MarketLib__QuestionTooLong","inputs":[{"name":"length","type":"uint256","internalType":"uint256"},{"name":"maxLength","type":"uint256","internalType":"uint256"}]},{"type":"error","name":"OwnableInvalidOwner","inputs":[{"name":"owner","type":"address","internalType":"address"}]},{"type":"error","name":"OwnableUnauthorizedAccount","inputs":[{"name":"account","type":"address","internalType":"address"}]},{"type":"error","name":"ProphetFactory__AlreadyInitialized","inputs":[]},{"type":"error","name":"ProphetFactory__InvalidOffset","inputs":[]},{"type":"error","name":"ProphetFactory__LimitTooHigh","inputs":[]},{"type":"error","name":"ProphetFactory__NotInitialized","inputs":[]},{"type":"error","name":"ProphetFactory__Paused","inputs":[]},{"type":"error","name":"ProphetFactory__ZeroAddress","inputs":[]},{"type":"error","name":"ReentrancyGuardReentrantCall","inputs":[]}],"bytecode":{"object":"0x60e034620001af57601f6200343738819003918201601f191683019291906001600160401b03841183851017620001b3578160809284926040968752833981010312620001af576200005181620001c7565b906200006060208201620001c7565b906200007c606062000074868401620001c7565b9201620001c7565b91331562000198575f80546001600160a01b0319808216339081178455885191966001600160a01b039490938516907f8be0079c531659141344cd1fd0a4f28419497f9722a3daafe3b4186f6b6457e09080a360017f9b779b17422d0df92223018b32b4d1fa46e071723d6817e2486d003becc55f00558287161562000189575081831615620001785781841615620001785716938415620001675760805260a05260c05260035416176003555161325a9081620001dd82396080518181816102b30152610b1f015260a0518181816105f70152610abf015260c05181818161026d0152610ae70152f35b8551631dcdddaf60e21b8152600490fd5b8651631dcdddaf60e21b8152600490fd5b631dcdddaf60e21b8152600490fd5b8451631e4fbdf760e01b81525f6004820152602490fd5b5f80fd5b634e487b7160e01b5f52604160045260245ffd5b51906001600160a01b0382168203620001af5756fe608080604052600436101562000013575f80fd5b5f3560e01c90816313112f6914620008e65750806313ba3d14146200088857806327b3d42a14620008695780633f4ba83a146200081457806352d84d1e14620007cd57806354bb1dd914620006e957806358e6309f14620006815780635c975abb14620006c25780636ec934da1462000681578063715018a614620006265780637d618bb614620005e05780637f51bb1f1462000541578063803db96d146200051757806380968d4814620003db5780638162486b14620003bc5780638456cb59146200035f5780638da5cb5b146200033657806398654aff146200030c578063b337104714620002e2578063c54e44eb146200029c578063c792adb61462000256578063e99c80bd14620001c65763f2fde38b1462000131575f80fd5b34620001c2576020366003190112620001c2576200014e62000ef0565b6200015862000fac565b6001600160a01b03908116908115620001aa575f54826bffffffffffffffffffffffff60a01b8216175f55167f8be0079c531659141344cd1fd0a4f28419497f9722a3daafe3b4186f6b6457e05f80a3005b604051631e4fbdf760e01b81525f6004820152602490fd5b5f80fd5b34620001c257602080600319360112620001c2576001600160a01b0380620001ed62000ef0565b165f526006825260405f209160405180928285549283815201945f52825f20925f915b8383106200023c5762000238866200022b818a038262001006565b6040519182918262000f67565b0390f35b845481168752958101956001948501949092019162000210565b34620001c2575f366003190112620001c2576040517f00000000000000000000000000000000000000000000000000000000000000006001600160a01b03168152602090f35b34620001c2575f366003190112620001c2576040517f00000000000000000000000000000000000000000000000000000000000000006001600160a01b03168152602090f35b34620001c2575f366003190112620001c2576002546040516001600160a01b039091168152602090f35b34620001c2575f366003190112620001c2576001546040516001600160a01b039091168152602090f35b34620001c2575f366003190112620001c2575f546040516001600160a01b039091168152602090f35b34620001c2575f366003190112620001c2576200037b62000fac565b6003805460ff60a01b1916600160a01b1790556040513381527ff7ab4f18771ba1e5f8db30e61ceed7bc8096937655edc7b3cae25a61921f4a1e90602090a1005b34620001c2575f366003190112620001c2576020600454604051908152f35b34620001c2576040366003190112620001c257602460043581356064811162000505576004549081831015620004f35762000417908362000ff8565b90808211620004ea575b50818103908111620004d757620004388162001029565b9162000448604051938462001006565b818352601f19620004598362001029565b019060209136838601375f5b8381106200047d576040518062000238878262000f67565b620004936200048d828462000ff8565b62000f07565b919054918651821015620004c45760031b9190911c6001600160a01b0316600582901b860184015260010162000465565b87634e487b7160e01b5f5260326004525ffd5b82634e487b7160e01b5f5260116004525ffd5b90508362000421565b60405163106e09a160e21b8152600490fd5b60405163fd5ab35960e01b8152600490fd5b34620001c2575f366003190112620001c2576003546040516001600160a01b039091168152602090f35b34620001c2576020366003190112620001c2576200055e62000ef0565b6200056862000fac565b6001600160a01b03818116918215620005ce57600354604080516001600160a01b0394831685168152929093166020830152917f4ab5be82436d353e61ca18726e984e561f5c1cc7c6d38b29d2553c790434705a91a16001600160a01b03191617600355005b604051631dcdddaf60e21b8152600490fd5b34620001c2575f366003190112620001c2576040517f00000000000000000000000000000000000000000000000000000000000000006001600160a01b03168152602090f35b34620001c2575f366003190112620001c2576200064262000fac565b5f80546001600160a01b0319811682556001600160a01b03167f8be0079c531659141344cd1fd0a4f28419497f9722a3daafe3b4186f6b6457e08280a3005b34620001c2576020366003190112620001c2576001600160a01b03620006a662000ef0565b165f526005602052602060ff60405f2054166040519015158152f35b34620001c2575f366003190112620001c257602060ff60035460a01c166040519015158152f35b34620001c2576040366003190112620001c2576200070662000ef0565b6001600160a01b039060243590828216808303620001c2576200072862000fac565b6001549380851615801590620007bf575b620007ad578216938415620005ce578115620005ce576001600160a01b0319908116949094176001556002805490941617909255604080516001600160a01b0393841681529190921660208201527fe6d09845e642ab4018b4164f02f973d56e2c7844d984041996e34e67b4ddc6e39190a1005b60405163288129c160e21b8152600490fd5b508060025416151562000739565b34620001c2576020366003190112620001c257600435600454811015620001c257620007fb60209162000f07565b905460405160039290921b1c6001600160a01b03168152f35b34620001c2575f366003190112620001c2576200083062000fac565b60ff60a01b19600354166003557f5dd33ddbee1b2bb2cfe2e04a15fcc4e2071c141d15e24d1fe1b5d6b80f355c0c6020604051338152a1005b34620001c2575f366003190112620001c2576020600754604051908152f35b34620001c2576040366003190112620001c257620008a562000ef0565b6024359060018060a01b038091165f52600660205260405f208054831015620001c257602092620008d69162000f51565b9190546040519260031b1c168152f35b34620001c2576080366003190112620001c25760043567ffffffffffffffff8111620001c2576200091c90369060040162000ebf565b9160443567ffffffffffffffff8111620001c2576200094090369060040162000ebf565b93909160027f9b779b17422d0df92223018b32b4d1fa46e071723d6817e2486d003becc55f00541462000eb0575060027f9b779b17422d0df92223018b32b4d1fa46e071723d6817e2486d003becc55f00556001546001600160a01b03168015801562000e9c575b62000e8a5760035460ff8160a01c1662000e7857821562000e665761011880841162000e485750610e10420180421162000d1c57806024351062000e28575067ffffffffffffffff861162000d305760405162000a10601f8801601f19166020018262001006565b8681523687860111620001c2576020810190878683375f602089830101525190207f35006686fd78b85ed3fb52493d70cb3f7732177a19f352814df621b506c237a4811415908162000dfc575b8162000dd0575b8162000da4575b8162000d78575b5062000d4f5760018060a01b036002541660405192836121e281011067ffffffffffffffff6121e28601111762000d30576121e2620010438539306121e285019081526001600160a01b037f0000000000000000000000000000000000000000000000000000000000000000811660208301527f000000000000000000000000000000000000000000000000000000000000000081166040830152606082019290925260808101929092527f0000000000000000000000000000000000000000000000000000000000000000811660a08301529190911660c08201523360e08201526101806101008201819052829162000b9a9162000b749101858862000fd8565b6024356101206121e2850101526121e2830181036101406121e285010152878662000fd8565b6064356101606121e28401015203905ff092831562000d4457600454600160401b81101562000d305780600162000bd5920160045562000f07565b81546001600160a01b0387811660039390931b83811b91901b19909116179091555f908152600560209081526040808320805460ff19166001179055338352600690915290208054600160401b81101562000d305762000c3b9160018201815562000f51565b81546001600160a01b0387811660039390931b92831b921b1916179055600754925f19841462000d1c576001840180600755841162000d1c5760209562000c9362000ca9936040519560808752608087019162000fd8565b9160243588860152848303604086015262000fd8565b606435606083015233916001600160a01b038516917f83c15be2ca1e165b960c7d960cc25c028c230aa28f19f5bca198bad509a98558919081900390a460017f9b779b17422d0df92223018b32b4d1fa46e071723d6817e2486d003becc55f00556040516001600160a01b039091168152f35b634e487b7160e01b5f52601160045260245ffd5b634e487b7160e01b5f52604160045260245ffd5b6040513d5f823e3d90fd5b604051633cca410360e21b8152602060048201528062000d7460248201898862000fd8565b0390fd5b7f094ba9aeec106987a8ca126b2258fee673170ef6ab195733b8278914dba73075915014158762000a72565b7f2af4c2fb0d9965fa818b9c58b2744b328ab67b082ec92907629457399dacdb35811415915062000a6b565b7f244cf72cb284fc7d430637a0d0fe497a88146c8eb8832a06e8aaf72bcb0f75c8811415915062000a64565b7fecf68b55a3148ada593e183bf15435fbd3f76364946ed2169f5e36e27bc9eafd811415915062000a5d565b60449060405190632900a0eb60e11b825260243560048301526024820152fd5b83604491604051916304d7983760e01b835260048301526024820152fd5b60405163a875bd2560e01b8152600490fd5b604051639e6f7b2760e01b8152600490fd5b604051632bb79de760e01b8152600490fd5b506002546001600160a01b031615620009a8565b633ee5aeb560e01b8152600490fd5b9181601f84011215620001c25782359167ffffffffffffffff8311620001c25760208381860195010111620001c257565b600435906001600160a01b0382168203620001c257565b60045481101562000f3d5760045f527f8a35acfbc15ff81a39ae7d344fd709f28e8600b4aa8c65c6b64bfe7fe36bd19b01905f90565b634e487b7160e01b5f52603260045260245ffd5b805482101562000f3d575f5260205f2001905f90565b602090816040818301928281528551809452019301915f5b82811062000f8e575050505090565b83516001600160a01b03168552938101939281019260010162000f7f565b5f546001600160a01b0316330362000fc057565b60405163118cdaa760e01b8152336004820152602490fd5b908060209392818452848401375f828201840152601f01601f1916010190565b9190820180921162000d1c57565b90601f8019910116810190811067ffffffffffffffff82111762000d3057604052565b67ffffffffffffffff811162000d305760051b6020019056fe6101c0604052346200051257620021e2803803806200001e8162000516565b92833961018082828101031262000512576200003a826200053c565b62000048602084016200053c565b9162000057604085016200053c565b9062000066606086016200053c565b62000074608087016200053c565b6200008260a088016200053c565b6200009060c089016200053c565b916200009f60e08a016200053c565b6101008a01519094906001600160401b0381116200051257620000c890878c01908c0162000551565b966101208b0151966101408c015160018060401b03811162000512578c620000f891610160938201910162000551565b9b0151996001998a7f9b779b17422d0df92223018b32b4d1fa46e071723d6817e2486d003becc55f005560805260a05260c05260e05261010052610120526101405261016052610180526101a092835280519060018060401b038211620004fe575f918254918483811c93168015620004f3575b6020841014620004df578190601f938481116200048a575b50602090848311600114620004265785926200041a575b50505f19600383901b1c191690841b1782555b8451916001600160401b038311620004065783548481811c91168015620003fb575b6020821014620003e7578281116200039d575b5060209183116001146200033b579482939495926200032f575b50505f19600383901b1c191690821b1790555b60ff1960025416600255604051611c209182620005c283396080518261058e015260a0518281816101b2015281816108b901528181610a1e01528181610cdb0152610fd6015260c0518281816105060152610839015260e051828181610b3f01528181610df20152818161106e01526110e101526101005182818161061901526109ac0152610120518281816102990152818161035f0152818161054a0152818161072a015281816107bb0152818161085d015281816108dd01528181610da50152818161110301526115180152610140518281816107970152610c9701526101605182818161140001526115e9015261018051828181610d5c0152818161119d015281816112b3015281816113a90152611a52015251816113150152f35b015190505f80620001fd565b90601f19831684835260208320925b8181106200038657509583859697106200036d575b505050811b01905562000210565b01515f1960f88460031b161c191690555f80806200035f565b87830151845592850192602092830192016200034a565b848252602082208380860160051c82019260208710620003dd575b0160051c019085905b828110620003d1575050620001e3565b838155018590620003c1565b92508192620003b8565b634e487b7160e01b82526022600452602482fd5b90607f1690620001d0565b634e487b7160e01b81526041600452602490fd5b015190505f806200019b565b858052602086208794509190601f198416875b818110620004715750841162000458575b505050811b018255620001ae565b01515f1960f88460031b161c191690555f80806200044a565b8284015185558996909401936020938401930162000439565b909150848052602085208480850160051c82019260208610620004d5575b918891869594930160051c01915b828110620004c657505062000184565b878155859450889101620004b6565b92508192620004a8565b634e487b7160e01b84526022600452602484fd5b92607f16926200016c565b634e487b7160e01b5f52604160045260245ffd5b5f80fd5b6040519190601f01601f191682016001600160401b03811183821017620004fe57604052565b51906001600160a01b03821682036200051257565b919080601f84011215620005125782516001600160401b038111620004fe5760209062000587601f8201601f1916830162000516565b9281845282828701011162000512575f5b818110620005ad5750825f9394955001015290565b85810183015184820184015282016200059856fe6080604081815260049081361015610015575f80fd5b5f92833560e01c90816302d05d3f146115d55750806313403447146114b9578063136f10161461147a5780631bfc5e021461145b578063200d2ed21461143257806323341a05146113555780632375665014611338578063248527f3146112fd57806327793f87146112d657806329dcb0cf1461129b5780633fad9ae01461127d5780634ac8eb5f1461125f578063534db0e214611236578063571dc452146112175780636237c7f71461117457806364ff1cb314610f9657806365024da614610d0a5780637d618bb614610cc6578063803db96d14610c8257806383c44a6614610c5e57806385af5d3514610c3f5780639349d05114610b6e57806398654aff14610b2a578063999a1642146109db578063b337104714610997578063b6707fb6146105bd578063c45a015514610579578063c54e44eb14610535578063c792adb6146104f1578063c8b58dc51461047d578063ca593dad1461045e578063d8812a131461043a578063ef430aa6146104015763ffecfe8b14610197575f80fd5b346103fd5760203660031901126103fd576101b06116a9565b7f0000000000000000000000000000000000000000000000000000000000000000926001600160a01b039081851633036103ec5760029460ff86541660058110156103d95786036103ca578260075416156103bb5760ff199360018560095416176009555f1461032c5750845461ff0060ff8260081c161560081b169061ff00191617855561023f8154611abe565b5190611388918281029281840414901517156103195750916003916127107fa4acb9df7f70b3988e02696551c758c0501984856f33a81371a86a3e376811a6959404906102be610291836008546116e9565b8260075416837f000000000000000000000000000000000000000000000000000000000000000016611839565b600754169084519081527fd0f09e0ef7ecb6045de08da31349d7a2240f9e1119b6ef1ea9dd5b26d00d8e1060203092a35b84541617928390555160089290921c60ff1615158252426020830152309180604081015b0390a280f35b601190634e487b7160e01b5f525260245ffd5b7fa4acb9df7f70b3988e02696551c758c0501984856f33a81371a86a3e376811a6949391509161038460039360085490837f000000000000000000000000000000000000000000000000000000000000000016611839565b6007541660085484519081527fb71648944e0587c53dbf15e84af38e1d84ba55cc989f8cae8d1eb05beb9c9fb760203092a36102ef565b50835163448c835f60e01b8152fd5b508351632000760360e21b8152fd5b634e487b7160e01b885260218352602488fd5b83516001621bb8dd60e31b03198152fd5b8280fd5b8382346104365781600319360112610436576104329061041f6119a1565b9051918291602083526020830190611639565b0390f35b5080fd5b83823461043657816003193601126104365760209060ff6009541690519015158152f35b8382346104365781600319360112610436576020906005549051908152f35b5082346104ee57806003193601126104ee5760ff600254169260058410156104db5760206002851484816104ce575b816104ba575b519015158152f35b6007546001600160a01b03161591506104b2565b60055442111591506104ac565b634e487b7160e01b825260219052602490fd5b80fd5b838234610436578160031936011261043657517f00000000000000000000000000000000000000000000000000000000000000006001600160a01b03168152602090f35b838234610436578160031936011261043657517f00000000000000000000000000000000000000000000000000000000000000006001600160a01b03168152602090f35b838234610436578160031936011261043657517f00000000000000000000000000000000000000000000000000000000000000006001600160a01b03168152602090f35b50346103fd57806003193601126103fd5767ffffffffffffffff8235818111610993576105ed90369085016116b8565b9160243590811161098f5761060590369086016116b8565b9061060e61180a565b6001600160a01b03957f0000000000000000000000000000000000000000000000000000000000000000871633036109815760ff60025416600581101561096e576003036109605782850361095257610668869154611abe565b8051806108b4575b5060208101888151918261080f575b50505001868151918261076d575b5050508695875b8581106106e15788887f738f18d610d0656b817ed217bc72afb5aec108c09f356495b533e2da046270f88989815193845260208401523092a260015f80516020611bcb8339815191525580f35b6106ec818585611898565b356106fa575b600101610694565b96610706888787611898565b3582811681036107695760019161074f610761926107258c8989611898565b3590867f000000000000000000000000000000000000000000000000000000000000000016611839565b61075a8a8787611898565b35906116e9565b9790506106f2565b8980fd5b7ffeb2c7c51697d22e9aa290e5a55c2faa6cc7629e5485718b07c466e34f54c300916080916107e07f00000000000000000000000000000000000000000000000000000000000000009586847f000000000000000000000000000000000000000000000000000000000000000016611839565b5193895194855289602086015260088a860152671c1c9bdd1bd8dbdb60c21b60608601521692a25f868161068d565b7ffeb2c7c51697d22e9aa290e5a55c2faa6cc7629e5485718b07c466e34f54c300916080916108827f00000000000000000000000000000000000000000000000000000000000000009586847f000000000000000000000000000000000000000000000000000000000000000016611839565b51938651948552866020860152600b878601526a36b0b935b2ba36b0b5b2b960a91b60608601521692a25f888161067f565b6109027f000000000000000000000000000000000000000000000000000000000000000091828b7f000000000000000000000000000000000000000000000000000000000000000016611839565b7ffeb2c7c51697d22e9aa290e5a55c2faa6cc7629e5485718b07c466e34f54c30060808a8451938651948552866020860152600687860152656f7261636c6560d01b60608601521692a25f610670565b8551634154c95760e11b8152fd5b8551637c6f529b60e11b8152fd5b634e487b7160e01b895260218252602489fd5b85516354a9666160e01b8152fd5b8580fd5b8480fd5b838234610436578160031936011261043657517f00000000000000000000000000000000000000000000000000000000000000006001600160a01b03168152602090f35b5090346103fd5760603660031901126103fd576109f66116a9565b9160243560443567ffffffffffffffff811161098f57610a199036908501611677565b9490507f00000000000000000000000000000000000000000000000000000000000000006001600160a01b03163303610b18576002549460ff86166005811015610b0557600103610af55715610ae657151593816003554260065562015180420193844211610ad357506002908460055561ff008660081b169061ffff19161717600255815193845260208401528201527ffd97318e127b16b74c63acff4a04334b9ab491b8f2ffc20707c45cbf13df4d3360603092a280f35b634e487b7160e01b875260119052602486fd5b505051631364228160e31b8152fd5b50505051637c857f7160e01b8152fd5b634e487b7160e01b885260218652602488fd5b5050516001621bb8dd60e31b03198152fd5b838234610436578160031936011261043657517f00000000000000000000000000000000000000000000000000000000000000006001600160a01b03168152602090f35b5090346103fd57826003193601126103fd576002549060ff82166005811015610c2c57600203610c1e57600554421115610c10576007546001600160a01b0316610c02575060ff19166003176002819055905160089190911c60ff161515815242602082015230907fa4acb9df7f70b3988e02696551c758c0501984856f33a81371a86a3e376811a6908060408101610313565b825163a91c3b5b60e01b8152fd5b82516306117a9960e01b8152fd5b8251632000760360e21b8152fd5b634e487b7160e01b855260218252602485fd5b8382346104365781600319360112610436576020906006549051908152f35b838234610436578160031936011261043657602090610c7b611a50565b9051908152f35b838234610436578160031936011261043657517f00000000000000000000000000000000000000000000000000000000000000006001600160a01b03168152602090f35b838234610436578160031936011261043657517f00000000000000000000000000000000000000000000000000000000000000006001600160a01b03168152602090f35b5090346103fd57816003193601126103fd57803567ffffffffffffffff8111610f9257610d3a9036908301611677565b9060243592610d4761180a565b60ff600254166005811015610f7f57610f71577f0000000000000000000000000000000000000000000000000000000000000000421015610f6357620f42408410610f55578215610f47576001600160a01b03918690610dcb8630337f00000000000000000000000000000000000000000000000000000000000000008816611781565b610dd68684546116e9565b8355338252602093600a8552878320600160ff198254161790557f00000000000000000000000000000000000000000000000000000000000000001694853b156103fd5787516259632960e31b815230858201523360248201526080604482015291839183918291610e4d91608484019190611754565b896064830152038183895af18015610f3d57610f29575b5050816024938651948580926285fa7160e71b825230868301525afa928315610f1f578693610ef0575b505f198301928311610edd575083519283528201527f61e034d80d9bd9b8dcd5d07434c03615017de4a6a229fe18bb93863bd20341a833923092a360015f80516020611bcb8339815191525580f35b634e487b7160e01b865260119052602485fd5b9092508181813d8311610f18575b610f088183611732565b8101031261098f5751915f610e8e565b503d610efe565b85513d88823e3d90fd5b610f329061170a565b61098f57855f610e64565b87513d84823e3d90fd5b8451631364228160e31b8152fd5b84516326f9a6d560e21b8152fd5b8451630c35d3d360e01b8152fd5b845163376f7bc960e01b8152fd5b634e487b7160e01b875260218252602487fd5b8380fd5b5082903461043657602036600319011261043657823567ffffffffffffffff81116103fd57610fc89036908501611677565b9093906001600160a01b03907f0000000000000000000000000000000000000000000000000000000000000000821633036111615760025460ff8116600581101561114e5784811461113e5760010361112e576110608697857f69571ef5701bc1cb2a5b4e5ad988ffb80e2b3d603e7cd8918a27fc61d54f2ab29360ff19161760025586519182916020835230956020840191611754565b0390a28154806110db575b507f000000000000000000000000000000000000000000000000000000000000000016803b156110d6576024849284519586938492639b63282960e01b845230908401525af19081156110cd57506110c1575080f35b6110ca9061170a565b80f35b513d84823e3d90fd5b505050fd5b611128907f0000000000000000000000000000000000000000000000000000000000000000837f000000000000000000000000000000000000000000000000000000000000000016611839565b8561106b565b8451637c857f7160e01b81528490fd5b8551630e081d4160e31b81528590fd5b634e487b7160e01b875260218552602487fd5b83516001621bb8dd60e31b031981528390fd5b5090346103fd57826003193601126103fd576002549060ff82166005811015610c2c57611209577f000000000000000000000000000000000000000000000000000000000000000042106111fb575060019060ff191617600255514281527f8a026f0b097fdcfe809810fb54c34c3533c62365f31022492eb067e65519869b60203092a280f35b8251638f6e807760e01b8152fd5b825163376f7bc960e01b8152fd5b8382346104365781600319360112610436576020906008549051908152f35b83823461043657816003193601126104365760075490516001600160a01b039091168152602090f35b5090346103fd57826003193601126103fd5760209250549051908152f35b8382346104365781600319360112610436576104329061041f6118bc565b838234610436578160031936011261043657602090517f00000000000000000000000000000000000000000000000000000000000000008152f35b83823461043657816003193601126104365760209060ff60025460081c1690519015158152f35b838234610436578160031936011261043657602090517f00000000000000000000000000000000000000000000000000000000000000008152f35b838234610436578160031936011261043657602090610c7b611a8c565b5091346104ee57806003193601126104ee57506113fe6113a692600254925492600554600354906113846118bc565b9560ff61138f6119a1565b946113d787519a8b9a610120808d528c0190611639565b977f000000000000000000000000000000000000000000000000000000000000000060208c01528a01838316611618565b60081c1615156060880152608087015260a086015260c085015283820360e0850152611639565b7f00000000000000000000000000000000000000000000000000000000000000006001600160a01b03166101008301520390f35b83823461043657816003193601126104365760209061145960ff6002541691518092611618565bf35b8382346104365781600319360112610436576020906003549051908152f35b5090346103fd5760203660031901126103fd57356001600160a01b038116908190036103fd57818360ff9260209552600a855220541690519015158152f35b50346103fd57826003193601126103fd576114d261180a565b60ff6002541660058110156115c2576002036115b55760055442116115a8576007546001600160a01b039290831661159a575061153d611510611a8c565b8093309033907f000000000000000000000000000000000000000000000000000000000000000016611781565b336bffffffffffffffffffffffff60a01b6007541617600755816008555190815233907f1288ffc9982cc1fb5d4f688c32cec5a69f33ee50fdd218186e48a813caea75db60203092a360015f80516020611bcb8339815191525580f35b905163a91c3b5b60e01b8152fd5b5163aeab0d9360e01b8152fd5b51632000760360e21b8152fd5b634e487b7160e01b845260218352602484fd5b8490346104365781600319360112610436577f00000000000000000000000000000000000000000000000000000000000000006001600160a01b03168152602090f35b9060058210156116255752565b634e487b7160e01b5f52602160045260245ffd5b91908251928382525f5b848110611663575050825f602080949584010152601f8019910116010190565b602081830181015184830182015201611643565b9181601f840112156116a55782359167ffffffffffffffff83116116a557602083818601950101116116a557565b5f80fd5b6004359081151582036116a557565b9181601f840112156116a55782359167ffffffffffffffff83116116a5576020808501948460051b0101116116a557565b919082018092116116f657565b634e487b7160e01b5f52601160045260245ffd5b67ffffffffffffffff811161171e57604052565b634e487b7160e01b5f52604160045260245ffd5b90601f8019910116810190811067ffffffffffffffff82111761171e57604052565b908060209392818452848401375f828201840152601f01601f1916010190565b919082039182116116f657565b6040516323b872dd60e01b5f9081526001600160a01b03938416600452938316602452604494909452909160209060648180855af160015f51148116156117eb575b836040525f606052156117d557505050565b635274afe760e01b835216600482015260249150fd5b600181151661180157813b15153d1516166117c3565b833d5f823e3d90fd5b5f80516020611bcb83398151915260028154146118275760029055565b604051633ee5aeb560e01b8152600490fd5b60405163a9059cbb60e01b5f9081526001600160a01b039384166004526024949094529260209060448180855af160015f5114811615611882575b83604052156117d557505050565b600181151661180157813b15153d151616611874565b91908110156118a85760051b0190565b634e487b7160e01b5f52603260045260245ffd5b604051905f805490600182811c90808416938415611997575b602094858410811461198357838852879493929181156119635750600114611908575b505061190692500383611732565b565b5f8080527f290decd9548b62a8d60345a988386fc84ba6bc95484008f6362f93160ef3e56395935091905b81831061194b57505061190693508201015f806118f8565b85548884018501529485019487945091830191611933565b91505061190694925060ff191682840152151560051b8201015f806118f8565b634e487b7160e01b85526022600452602485fd5b91607f16916118d5565b604051905f60019081549182811c90808416938415611a46575b6020948584108114611983578388528794939291811561196357506001146119eb57505061190692500383611732565b5f8181527fb10e2d527612073b26eecdfd717e6a320cf44b4afac2b0732d9fcbe2b7fa0cf695935091905b818310611a2e57505061190693508201015f806118f8565b85548884018501529485019487945091830191611a16565b91607f16916119bb565b7f000000000000000000000000000000000000000000000000000000000000000080421015611a8757611a84904290611774565b90565b505f90565b6004546101f4908181029181830414901517156116f65761271090046302faf08080821115611ab9575090565b905090565b906040519160a0830183811067ffffffffffffffff82111761171e576040525f928381526020810190848252604081018581526060820192868452608083019287845280978615611ba2576127109081611b1789611bb4565b04835281611b2489611bb4565b0484526032880290888204603203611b8e5750048352519051611b6192611b58929091611b50916116e9565b9051906116e9565b80845284611774565b90525190808211611b70575050565b604492506040519163bb22134560e01b835260048301526024820152fd5b634e487b7160e01b81526011600452602490fd5b60405163edfdf80d60e01b8152600490fd5b906064820291808304606414901517156116f65756fe9b779b17422d0df92223018b32b4d1fa46e071723d6817e2486d003becc55f00a264697066735822122031361f6aa4cd2d60be103909032d7e02023e2f8c42a166123d55de36b76d9b9664736f6c63430008140033a2646970667358221220fa87f7ec95e685087b727cca0cfc45734f222d062c1eea8a1583937f076f1a7964736f6c63430008140033","linkReferences":{}},"methodIdentifiers":{"USDT()":"c54e44eb","allMarkets(uint256)":"52d84d1e","createMarket(string,uint256,string,bytes32)":"13112f69","getMarkets(uint256,uint256)":"80968d48","getMarketsByCreator(address)":"e99c80bd","isMarket(address)":"6ec934da","isValidMarket(address)":"58e6309f","marketMakerAgent()":"c792adb6","marketsByCreator(address,uint256)":"13ba3d14","oracleAgent()":"7d618bb6","owner()":"8da5cb5b","pause()":"8456cb59","paused()":"5c975abb","payoutDistributor()":"b3371047","positionVault()":"98654aff","protocolTreasury()":"803db96d","renounceOwnership()":"715018a6","setVaultAndDistributor(address,address)":"54bb1dd9","totalMarkets()":"8162486b","totalMarketsCreated()":"27b3d42a","transferOwnership(address)":"f2fde38b","unpause()":"3f4ba83a","updateTreasury(address)":"7f51bb1f"},"id":35}