{"abi":[{"type":"constructor","inputs":[{"name":"_usdt","type":"address","internalType":"address"},{"name":"_oracleAgent","type":"address","internalType":"address"},{"name":"_marketMakerAgent","type":"address","internalType":"address"},{"name":"_protocolTreasury","type":"address","internalType":"address"}],"stateMutability":"nonpayable"},{"type":"function","name":"USDT","inputs":[],"outputs":[{"name":"","type":"address","internalType":"address"}],"stateMutability":"view"},{"type":"function","name":"allMarkets","inputs":[{"name":"","type":"uint256","internalType":"uint256"}],"outputs":[{"name":"","type":"address","internalType":"address"}],"stateMutability":"view"},{"type":"function","name":"createMarket","inputs":[{"name":"question","type":"string","internalType":"string"},{"name":"deadline","type":"uint256","internalType":"uint256"},{"name":"category","type":"string","internalType":"string"},{"name":"resolutionSourcesHash","type":"bytes32","internalType":"bytes32"}],"outputs":[{"name":"marketAddress","type":"address","internalType":"address"}],"stateMutability":"nonpayable"},{"type":"function","name":"creationBondAmount","inputs":[],"outputs":[{"name":"","type":"uint256","internalType":"uint256"}],"stateMutability":"view"},{"type":"function","name":"getMarkets","inputs":[{"name":"offset","type":"uint256","internalType":"uint256"},{"name":"limit","type":"uint256","internalType":"uint256"}],"outputs":[{"name":"markets","type":"address[]","internalType":"address[]"}],"stateMutability":"view"},{"type":"function","name":"getMarketsByCreator","inputs":[{"name":"creator","type":"address","internalType":"address"}],"outputs":[{"name":"","type":"address[]","internalType":"address[]"}],"stateMutability":"view"},{"type":"function","name":"isMarket","inputs":[{"name":"","type":"address","internalType":"address"}],"outputs":[{"name":"","type":"bool","internalType":"bool"}],"stateMutability":"view"},{"type":"function","name":"isValidMarket","inputs":[{"name":"market","type":"address","internalType":"address"}],"outputs":[{"name":"","type":"bool","internalType":"bool"}],"stateMutability":"view"},{"type":"function","name":"marketMakerAgent","inputs":[],"outputs":[{"name":"","type":"address","internalType":"address"}],"stateMutability":"view"},{"type":"function","name":"marketsByCreator","inputs":[{"name":"","type":"address","internalType":"address"},{"name":"","type":"uint256","internalType":"uint256"}],"outputs":[{"name":"","type":"address","internalType":"address"}],"stateMutability":"view"},{"type":"function","name":"oracleAgent","inputs":[],"outputs":[{"name":"","type":"address","internalType":"address"}],"stateMutability":"view"},{"type":"function","name":"owner","inputs":[],"outputs":[{"name":"","type":"address","internalType":"address"}],"stateMutability":"view"},{"type":"function","name":"pause","inputs":[],"outputs":[],"stateMutability":"nonpayable"},{"type":"function","name":"paused","inputs":[],"outputs":[{"name":"","type":"bool","internalType":"bool"}],"stateMutability":"view"},{"type":"function","name":"payoutDistributor","inputs":[],"outputs":[{"name":"","type":"address","internalType":"address"}],"stateMutability":"view"},{"type":"function","name":"positionVault","inputs":[],"outputs":[{"name":"","type":"address","internalType":"address"}],"stateMutability":"view"},{"type":"function","name":"protocolTreasury","inputs":[],"outputs":[{"name":"","type":"address","internalType":"address"}],"stateMutability":"view"},{"type":"function","name":"renounceOwnership","inputs":[],"outputs":[],"stateMutability":"nonpayable"},{"type":"function","name":"setVaultAndDistributor","inputs":[{"name":"_positionVault","type":"address","internalType":"address"},{"name":"_payoutDistributor","type":"address","internalType":"address"}],"outputs":[],"stateMutability":"nonpayable"},{"type":"function","name":"totalMarkets","inputs":[],"outputs":[{"name":"","type":"uint256","internalType":"uint256"}],"stateMutability":"view"},{"type":"function","name":"totalMarketsCreated","inputs":[],"outputs":[{"name":"","type":"uint256","internalType":"uint256"}],"stateMutability":"view"},{"type":"function","name":"transferOwnership","inputs":[{"name":"newOwner","type":"address","internalType":"address"}],"outputs":[],"stateMutability":"nonpayable"},{"type":"function","name":"unpause","inputs":[],"outputs":[],"stateMutability":"nonpayable"},{"type":"function","name":"updateCreationBond","inputs":[{"name":"newAmount","type":"uint256","internalType":"uint256"}],"outputs":[],"stateMutability":"nonpayable"},{"type":"function","name":"updateTreasury","inputs":[{"name":"newTreasury","type":"address","internalType":"address"}],"outputs":[],"stateMutability":"nonpayable"},{"type":"event","name":"CreationBondAmountUpdated","inputs":[{"name":"oldAmount","type":"uint256","indexed":false,"internalType":"uint256"},{"name":"newAmount","type":"uint256","indexed":false,"internalType":"uint256"}],"anonymous":false},{"type":"event","name":"FactoryPaused","inputs":[{"name":"by","type":"address","indexed":false,"internalType":"address"}],"anonymous":false},{"type":"event","name":"FactoryUnpaused","inputs":[{"name":"by","type":"address","indexed":false,"internalType":"address"}],"anonymous":false},{"type":"event","name":"MarketCreated","inputs":[{"name":"marketAddress","type":"address","indexed":true,"internalType":"address"},{"name":"creator","type":"address","indexed":true,"internalType":"address"},{"name":"question","type":"string","indexed":false,"internalType":"string"},{"name":"deadline","type":"uint256","indexed":false,"internalType":"uint256"},{"name":"category","type":"string","indexed":false,"internalType":"string"},{"name":"resolutionSourcesHash","type":"bytes32","indexed":false,"internalType":"bytes32"},{"name":"marketIndex","type":"uint256","indexed":true,"internalType":"uint256"}],"anonymous":false},{"type":"event","name":"OwnershipTransferred","inputs":[{"name":"previousOwner","type":"address","indexed":true,"internalType":"address"},{"name":"newOwner","type":"address","indexed":true,"internalType":"address"}],"anonymous":false},{"type":"event","name":"TreasuryUpdated","inputs":[{"name":"oldTreasury","type":"address","indexed":false,"internalType":"address"},{"name":"newTreasury","type":"address","indexed":false,"internalType":"address"}],"anonymous":false},{"type":"event","name":"VaultAndDistributorSet","inputs":[{"name":"positionVault","type":"address","indexed":false,"internalType":"address"},{"name":"payoutDistributor","type":"address","indexed":false,"internalType":"address"}],"anonymous":false},{"type":"error","name":"MarketLib__DeadlineTooSoon","inputs":[{"name":"provided","type":"uint256","internalType":"uint256"},{"name":"minimum","type":"uint256","internalType":"uint256"}]},{"type":"error","name":"MarketLib__EmptyQuestion","inputs":[]},{"type":"error","name":"MarketLib__InvalidCategory","inputs":[{"name":"category","type":"string","internalType":"string"}]},{"type":"error","name":"MarketLib__QuestionTooLong","inputs":[{"name":"length","type":"uint256","internalType":"uint256"},{"name":"maxLength","type":"uint256","internalType":"uint256"}]},{"type":"error","name":"OwnableInvalidOwner","inputs":[{"name":"owner","type":"address","internalType":"address"}]},{"type":"error","name":"OwnableUnauthorizedAccount","inputs":[{"name":"account","type":"address","internalType":"address"}]},{"type":"error","name":"ProphetFactory__AlreadyInitialized","inputs":[]},{"type":"error","name":"ProphetFactory__BondTransferFailed","inputs":[]},{"type":"error","name":"ProphetFactory__InvalidOffset","inputs":[]},{"type":"error","name":"ProphetFactory__LimitTooHigh","inputs":[]},{"type":"error","name":"ProphetFactory__NotInitialized","inputs":[]},{"type":"error","name":"ProphetFactory__Paused","inputs":[]},{"type":"error","name":"ProphetFactory__ZeroAddress","inputs":[]},{"type":"error","name":"ReentrancyGuardReentrantCall","inputs":[]},{"type":"error","name":"SafeERC20FailedOperation","inputs":[{"name":"token","type":"address","internalType":"address"}]}],"bytecode":{"object":"0x60e034620001d957601f62003b8e38819003918201601f191683019291906001600160401b03841183851017620001dd578160809284926040968752833981010312620001d9576200005181620001f1565b906200006060208201620001f1565b906200007c606062000074868401620001f1565b9201620001f1565b913315620001c2575f80546001600160a01b0319808216339081178455885191966001600160a01b039490938516907f8be0079c531659141344cd1fd0a4f28419497f9722a3daafe3b4186f6b6457e09080a360017f9b779b17422d0df92223018b32b4d1fa46e071723d6817e2486d003becc55f00556298968060045582871615620001b3575081831615620001a25781841615620001a25716938415620001915760805260a05260c05260035416176003555161398790816200020782396080518181816102cb01528181610b9f01528181610e0201528181610e4801528181610e8801528181610ef40152610f4f015260a05181818161060e0152610b3f015260c0518181816102850152610b670152f35b8551631dcdddaf60e21b8152600490fd5b8651631dcdddaf60e21b8152600490fd5b631dcdddaf60e21b8152600490fd5b8451631e4fbdf760e01b81525f6004820152602490fd5b5f80fd5b634e487b7160e01b5f52604160045260245ffd5b51906001600160a01b0382168203620001d95756fe608080604052600436101562000013575f80fd5b5f3560e01c9081630184251b14620010f85750806313112f69146200095457806313ba3d1414620008f657806327b3d42a14620008d757806335ac9f9c14620008805780633f4ba83a146200082b57806352d84d1e14620007e457806354bb1dd9146200070057806358e6309f14620006985780635c975abb14620006d95780636ec934da1462000698578063715018a6146200063d5780637d618bb614620005f75780637f51bb1f1462000558578063803db96d146200052e57806380968d4814620003f35780638162486b14620003d45780638456cb5914620003775780638da5cb5b146200034e57806398654aff1462000324578063b337104714620002fa578063c54e44eb14620002b4578063c792adb6146200026e578063e99c80bd14620001de5763f2fde38b1462000149575f80fd5b34620001da576020366003190112620001da576200016662001145565b6200017062001201565b6001600160a01b03908116908115620001c2575f54826bffffffffffffffffffffffff60a01b8216175f55167f8be0079c531659141344cd1fd0a4f28419497f9722a3daafe3b4186f6b6457e05f80a3005b604051631e4fbdf760e01b81525f6004820152602490fd5b5f80fd5b34620001da57602080600319360112620001da576001600160a01b03806200020562001145565b165f526007825260405f209160405180928285549283815201945f52825f20925f915b8383106200025457620002508662000243818a03826200125b565b60405191829182620011bc565b0390f35b845481168752958101956001948501949092019162000228565b34620001da575f366003190112620001da576040517f00000000000000000000000000000000000000000000000000000000000000006001600160a01b03168152602090f35b34620001da575f366003190112620001da576040517f00000000000000000000000000000000000000000000000000000000000000006001600160a01b03168152602090f35b34620001da575f366003190112620001da576002546040516001600160a01b039091168152602090f35b34620001da575f366003190112620001da576001546040516001600160a01b039091168152602090f35b34620001da575f366003190112620001da575f546040516001600160a01b039091168152602090f35b34620001da575f366003190112620001da576200039362001201565b6003805460ff60a01b1916600160a01b1790556040513381527ff7ab4f18771ba1e5f8db30e61ceed7bc8096937655edc7b3cae25a61921f4a1e90602090a1005b34620001da575f366003190112620001da576020600554604051908152f35b34620001da576040366003190112620001da5760246004358135606481116200051c576005805491828410156200050a576200043090846200124d565b9180831162000501575b50828203918211620004ee5762000451826200127e565b926200046160405194856200125b565b828452601f1962000472846200127e565b019060209136838701375f5b848110620004965760405180620002508882620011bc565b620004ac620004a682846200124d565b6200115c565b919054918751821015620004db5760031b9190911c6001600160a01b031681851b87018401526001016200047e565b88634e487b7160e01b5f5260326004525ffd5b83634e487b7160e01b5f5260116004525ffd5b9150846200043a565b60405163106e09a160e21b8152600490fd5b60405163fd5ab35960e01b8152600490fd5b34620001da575f366003190112620001da576003546040516001600160a01b039091168152602090f35b34620001da576020366003190112620001da576200057562001145565b6200057f62001201565b6001600160a01b03818116918215620005e557600354604080516001600160a01b0394831685168152929093166020830152917f4ab5be82436d353e61ca18726e984e561f5c1cc7c6d38b29d2553c790434705a91a16001600160a01b03191617600355005b604051631dcdddaf60e21b8152600490fd5b34620001da575f366003190112620001da576040517f00000000000000000000000000000000000000000000000000000000000000006001600160a01b03168152602090f35b34620001da575f366003190112620001da576200065962001201565b5f80546001600160a01b0319811682556001600160a01b03167f8be0079c531659141344cd1fd0a4f28419497f9722a3daafe3b4186f6b6457e08280a3005b34620001da576020366003190112620001da576001600160a01b03620006bd62001145565b165f526006602052602060ff60405f2054166040519015158152f35b34620001da575f366003190112620001da57602060ff60035460a01c166040519015158152f35b34620001da576040366003190112620001da576200071d62001145565b6001600160a01b039060243590828216808303620001da576200073f62001201565b6001549380851615801590620007d6575b620007c4578216938415620005e5578115620005e5576001600160a01b0319908116949094176001556002805490941617909255604080516001600160a01b0393841681529190921660208201527fe6d09845e642ab4018b4164f02f973d56e2c7844d984041996e34e67b4ddc6e39190a1005b60405163288129c160e21b8152600490fd5b508060025416151562000750565b34620001da576020366003190112620001da57600435600554811015620001da57620008126020916200115c565b905460405160039290921b1c6001600160a01b03168152f35b34620001da575f366003190112620001da576200084762001201565b60ff60a01b19600354166003557f5dd33ddbee1b2bb2cfe2e04a15fcc4e2071c141d15e24d1fe1b5d6b80f355c0c6020604051338152a1005b34620001da576020366003190112620001da57600435620008a062001201565b7faeaf1777d7f42d3d66bda2acbc325a91ebfb781c27aea3b75baa370d2eea0ce860406004548151908152836020820152a1600455005b34620001da575f366003190112620001da576020600854604051908152f35b34620001da576040366003190112620001da576200091362001145565b6024359060018060a01b038091165f52600760205260405f208054831015620001da576020926200094491620011a6565b9190546040519260031b1c168152f35b34620001da576080366003190112620001da5760043567ffffffffffffffff8111620001da576200098a90369060040162001114565b9060443567ffffffffffffffff8111620001da57620009ae90369060040162001114565b9260027f9b779b17422d0df92223018b32b4d1fa46e071723d6817e2486d003becc55f005414620010e65760027f9b779b17422d0df92223018b32b4d1fa46e071723d6817e2486d003becc55f00556001546001600160a01b0316158015620010d2575b620010c05760ff60035460a01c16620010ae5780156200109c576101188082116200107e5750610e10420180421162000dad5780602435106200105e575067ffffffffffffffff841162000dc15760405162000a79601f8601601f1916602001826200125b565b8481523685840111620001da576020810190858483375f602087830101525190207f35006686fd78b85ed3fb52493d70cb3f7732177a19f352814df621b506c237a4811415908162001032575b8162001006575b8162000fda575b8162000fae575b5062000f8257600454928362000ecf575b600154600254600354604051926001600160a01b03918216928216911667ffffffffffffffff6126ba85019081119085111762000dc1576126ba620012988539306126ba85019081526001600160a01b037f0000000000000000000000000000000000000000000000000000000000000000811660208301527f000000000000000000000000000000000000000000000000000000000000000081166040830152606082019290925260808101929092527f00000000000000000000000000000000000000000000000000000000000000001660a082015260c08101919091523360e08201526101a06101008201819052829162000c189162000bf2910186866200122d565b6024356101206126ba850101526126ba830181036101406126ba8501015288876200122d565b6064356101606126ba84010152866101806126ba8401015203905ff093841562000ec4578062000dd5575b50600554600160401b81101562000dc15780600162000c6692016005556200115c565b81546001600160a01b0387811660039390931b83811b91901b19909116179091555f908152600660209081526040808320805460ff19166001179055338352600790915290208054600160401b81101562000dc15762000ccc91600182018155620011a6565b81546001600160a01b0387811660039390931b92831b921b1916179055600854925f19841462000dad576001840180600855841162000dad5760209562000d2462000d3a93604051956080875260808701916200122d565b916024358886015284830360408601526200122d565b606435606083015233916001600160a01b038516917f83c15be2ca1e165b960c7d960cc25c028c230aa28f19f5bca198bad509a98558919081900390a460017f9b779b17422d0df92223018b32b4d1fa46e071723d6817e2486d003becc55f00556040516001600160a01b039091168152f35b634e487b7160e01b5f52601160045260245ffd5b634e487b7160e01b5f52604160045260245ffd5b6040519063a9059cbb60e01b5f5260018060a01b03861660045260245260205f6044818060018060a01b037f0000000000000000000000000000000000000000000000000000000000000000165af160015f511481161562000e7a575b8160405262000c43575b635274afe760e01b81527f00000000000000000000000000000000000000000000000000000000000000006001600160a01b03166004820152602490fd5b600181151662000ebb573d157f00000000000000000000000000000000000000000000000000000000000000006001600160a01b03163b1515161662000e32565b503d5f823e3d90fd5b6040513d5f823e3d90fd5b6040516323b872dd60e01b5f90815233600452306024526044869052602090606481807f00000000000000000000000000000000000000000000000000000000000000006001600160a01b03165af160015f511481161562000f41575b816040525f6060521562000e3c575062000aec565b600181151662000ebb573d157f00000000000000000000000000000000000000000000000000000000000000006001600160a01b03163b1515161662000f2c565b508262000faa604051928392633cca410360e21b84526020600485015260248401916200122d565b0390fd5b7f094ba9aeec106987a8ca126b2258fee673170ef6ab195733b8278914dba73075915014158562000adb565b7f2af4c2fb0d9965fa818b9c58b2744b328ab67b082ec92907629457399dacdb35811415915062000ad4565b7f244cf72cb284fc7d430637a0d0fe497a88146c8eb8832a06e8aaf72bcb0f75c8811415915062000acd565b7fecf68b55a3148ada593e183bf15435fbd3f76364946ed2169f5e36e27bc9eafd811415915062000ac6565b60449060405190632900a0eb60e11b825260243560048301526024820152fd5b60449250604051916304d7983760e01b835260048301526024820152fd5b60405163a875bd2560e01b8152600490fd5b604051639e6f7b2760e01b8152600490fd5b604051632bb79de760e01b8152600490fd5b506002546001600160a01b03161562000a12565b604051633ee5aeb560e01b8152600490fd5b34620001da575f366003190112620001da576020906004548152f35b9181601f84011215620001da5782359167ffffffffffffffff8311620001da5760208381860195010111620001da57565b600435906001600160a01b0382168203620001da57565b600554811015620011925760055f527f036b6384b5eca791c62761152d0c79bb0604c104a5fb6f4eb0703f3154bb3db001905f90565b634e487b7160e01b5f52603260045260245ffd5b805482101562001192575f5260205f2001905f90565b602090816040818301928281528551809452019301915f5b828110620011e3575050505090565b83516001600160a01b031685529381019392810192600101620011d4565b5f546001600160a01b031633036200121557565b60405163118cdaa760e01b8152336004820152602490fd5b908060209392818452848401375f828201840152601f01601f1916010190565b9190820180921162000dad57565b90601f8019910116810190811067ffffffffffffffff82111762000dc157604052565b67ffffffffffffffff811162000dc15760051b6020019056fe6101e0604052346200058057620026ba803803806200001e8162000584565b9283396101a082828101031262000580576200003a82620005aa565b906200004960208401620005aa565b926200005860408201620005aa565b916200006760608301620005aa565b6200007560808401620005aa565b6200008360a08501620005aa565b6200009160c08601620005aa565b91620000a060e08701620005aa565b6101008701519094906001600160401b0381116200058057620000c990878901908901620005bf565b976101208801519661014089015160018060401b0381116200058057620000f5918a01908a01620005bf565b9a6101806101608a01519901519a60017f9b779b17422d0df92223018b32b4d1fa46e071723d6817e2486d003becc55f005560805260a05260c05260e05261010052610120526101405261016052610180526101a0526101c091825280519060018060401b0382116200056c575f91825491600183811c9316801562000561575b60208410146200054d578190601f93848111620004fa575b506020908483116001146200049257859262000486575b50508160011b915f199060031b1c19161782555b8351916001600160401b0383116200047257600154600181811c9116801562000467575b602082101462000453578281116200040b575b506020918311600114620003875793829394926200037b575b50508160011b915f199060031b1c1916176001555b600160ff19600254161760025560405161208a9182620006308339608051826105aa015260a0518281816101d3015281816108d601528181610a3e01528181610cff01528181610ffb0152611d9d015260c0518281816105240152610856015260e051828181610b6801528181610e19015281816110bd015261112d01526101005182818161063701526109cc0152610120518281816102ad015281816103810152818161056701528181610747015281816107d80152818161087a015281816108fa01528181610dcc0152818161114f015281816111a20152818161161a0152611c7b0152610140518281816107b401528181610cbc0152611180015261016051828181611502015281816116eb0152611c55015261018051828181610d830152818161122c015281816113b7015281816114ab0152611bb601526101a0518261141701525181818161108c015281816113340152611c240152f35b015190505f8062000209565b60018152601f198316947fb10e2d527612073b26eecdfd717e6a320cf44b4afac2b0732d9fcbe2b7fa0cf692915b868110620003f25750836001959610620003d9575b505050811b016001556200021e565b01515f1960f88460031b161c191690555f8080620003ca565b91926020600181928685015181550194019201620003b5565b60018252602082208380860160051c8201926020871062000449575b0160051c01905b8181106200043d5750620001f0565b8281556001016200042e565b9250819262000427565b634e487b7160e01b82526022600452602482fd5b90607f1690620001dd565b634e487b7160e01b81526041600452602490fd5b015190505f80620001a5565b858052602086209250601f198416865b818110620004e15750908460019594939210620004c8575b505050811b018255620001b9565b01515f1960f88460031b161c191690555f8080620004ba565b92936020600181928786015181550195019301620004a2565b909150848052602085208480850160051c8201926020861062000543575b9085949392910160051c01905b8181106200053457506200018e565b86815584935060010162000525565b9250819262000518565b634e487b7160e01b84526022600452602484fd5b92607f169262000176565b634e487b7160e01b5f52604160045260245ffd5b5f80fd5b6040519190601f01601f191682016001600160401b038111838210176200056c57604052565b51906001600160a01b03821682036200058057565b919080601f84011215620005805782516001600160401b0381116200056c57602090620005f5601f8201601f1916830162000584565b9281845282828701011162000580575f5b8181106200061b5750825f9394955001015290565b85810183015184820184015282016200060656fe608060409080825260049182361015610016575f80fd5b5f91823560e01c90816302d05d3f146116d75750806313403447146115b9578063136f10161461157a5780631bfc5e021461155c578063200d2ed21461153457806323341a0514611456578063237566501461143a578063248527f31461140057806327793f87146113da57806329dcb0cf146113a057806329ef5e58146113745780633fad9ae014611357578063459d6e4f1461131d5780634ac8eb5f146112ff578063534db0e2146112d7578063571dc452146112b95780636237c7f71461120057806364ff1cb314610fbd57806365024da614610d2e5780637d618bb614610ceb578063803db96d14610ca857806383c44a6614610c8557806385af5d3514610c675780639349d05114610b9757806398654aff14610b54578063999a1642146109fb578063b3371047146109b8578063b6707fb6146105d9578063c45a015514610596578063c54e44eb14610553578063c792adb614610510578063c8b58dc51461049c578063ca593dad1461047e578063d8812a131461045b578063ef430aa6146104275763ffecfe8b146101ae575f80fd5b34610423576020366003190112610423576101c76117b5565b6001600160a01b0393907f000000000000000000000000000000000000000000000000000000000000000085811633036104105760ff6002541660078110156103fd576003036103ed578560075416156103dd5760ff199160018360095416176009555f14610352575060025461ff0060ff8260081c161560081b169061ff001916176002556102578254611f28565b51946113889586810296818804149015171561033f576127107fa4acb9df7f70b3988e02696551c758c0501984856f33a81371a86a3e376811a694959604906102d26102a5836008546117f5565b8260075416837f000000000000000000000000000000000000000000000000000000000000000016611961565b600754169085519081527fd0f09e0ef7ecb6045de08da31349d7a2240f9e1119b6ef1ea9dd5b26d00d8e1060203092a35b600254161791826002555180610331309460ff429160081c1683602090939291936040810194151581520152565b0390a261033c611c22565b80f35b601183634e487b7160e01b5f525260245ffd5b946103a67fa4acb9df7f70b3988e02696551c758c0501984856f33a81371a86a3e376811a694959660085490837f000000000000000000000000000000000000000000000000000000000000000016611961565b6007541660085485519081527fb71648944e0587c53dbf15e84af38e1d84ba55cc989f8cae8d1eb05beb9c9fb760203092a3610303565b835163448c835f60e01b81528390fd5b8351632000760360e21b81528390fd5b634e487b7160e01b865260218452602486fd5b83516001621bb8dd60e31b031981528390fd5b5080fd5b503461042357816003193601126104235761045790610444611ac9565b905191829160208352602083019061173b565b0390f35b503461042357816003193601126104235760209060ff6009541690519015158152f35b50346104235781600319360112610423576020906005549051908152f35b50903461050d578060031936011261050d5760ff600254169260078410156104fa5760206003851484816104ed575b816104d9575b519015158152f35b6007546001600160a01b03161591506104d1565b60055442111591506104cb565b634e487b7160e01b825260219052602490fd5b80fd5b5034610423578160031936011261042357517f00000000000000000000000000000000000000000000000000000000000000006001600160a01b03168152602090f35b5034610423578160031936011261042357517f00000000000000000000000000000000000000000000000000000000000000006001600160a01b03168152602090f35b5034610423578160031936011261042357517f00000000000000000000000000000000000000000000000000000000000000006001600160a01b03168152602090f35b508290346109b457806003193601126109b45767ffffffffffffffff82358181116109b05761060b90369085016117c4565b916024359081116109ac5761062390369086016117c4565b9061062c611932565b6001600160a01b03957f00000000000000000000000000000000000000000000000000000000000000008716330361099e5760ff60025416600781101561098b57810361097d5782850361096f57610685869154611f28565b8051806108d1575b5060208101888151918261082c575b50505001868151918261078a575b5050508695875b8581106106fe5788887f738f18d610d0656b817ed217bc72afb5aec108c09f356495b533e2da046270f88989815193845260208401523092a260015f805160206120358339815191525580f35b6107098185856119c0565b35610717575b6001016106b1565b966107238887876119c0565b3582811681036107865760019161076c61077e926107428c89896119c0565b3590867f000000000000000000000000000000000000000000000000000000000000000016611961565b6107778a87876119c0565b35906117f5565b97905061070f565b8980fd5b7ffeb2c7c51697d22e9aa290e5a55c2faa6cc7629e5485718b07c466e34f54c300916080916107fd7f00000000000000000000000000000000000000000000000000000000000000009586847f000000000000000000000000000000000000000000000000000000000000000016611961565b5193895194855289602086015260088a860152671c1c9bdd1bd8dbdb60c21b60608601521692a28786816106aa565b7ffeb2c7c51697d22e9aa290e5a55c2faa6cc7629e5485718b07c466e34f54c3009160809161089f7f00000000000000000000000000000000000000000000000000000000000000009586847f000000000000000000000000000000000000000000000000000000000000000016611961565b51938651948552866020860152600b878601526a36b0b935b2ba36b0b5b2b960a91b60608601521692a289888161069c565b61091f7f000000000000000000000000000000000000000000000000000000000000000091828b7f000000000000000000000000000000000000000000000000000000000000000016611961565b7ffeb2c7c51697d22e9aa290e5a55c2faa6cc7629e5485718b07c466e34f54c30060808a8451938651948552866020860152600687860152656f7261636c6560d01b60608601521692a28961068d565b8551634154c95760e11b8152fd5b8551637c6f529b60e11b8152fd5b634e487b7160e01b895260218252602489fd5b85516354a9666160e01b8152fd5b8580fd5b8480fd5b8280fd5b5034610423578160031936011261042357517f00000000000000000000000000000000000000000000000000000000000000006001600160a01b03168152602090f35b5082346109b45760603660031901126109b457610a166117b5565b9160243560443567ffffffffffffffff81116109ac57610a399036908501611783565b9094907f00000000000000000000000000000000000000000000000000000000000000006001600160a01b03163303610b44576002549560ff87166007811015610b3157600203610b215790610a90918484611cd1565b15610b1257151593816003554260065562015180420193844211610aff57506003908460055561ff008660081b169061ffff19161717600255815193845260208401528201527ffd97318e127b16b74c63acff4a04334b9ab491b8f2ffc20707c45cbf13df4d3360603092a280f35b634e487b7160e01b875260119052602486fd5b505051631364228160e31b8152fd5b8451637c857f7160e01b81528690fd5b634e487b7160e01b895260218752602489fd5b50505051631fe4472360e31b8152fd5b5034610423578160031936011261042357517f00000000000000000000000000000000000000000000000000000000000000006001600160a01b03168152602090f35b5082346109b457826003193601126109b45760025460ff81166007811015610c5457600303610c4557600554421115610c36576007546001600160a01b0316610c275760ff1916176002819055905160089190911c60ff161515815242602082015230907fa4acb9df7f70b3988e02696551c758c0501984856f33a81371a86a3e376811a6908060408101610331565b50905163a91c3b5b60e01b8152fd5b5090516306117a9960e01b8152fd5b509051632000760360e21b8152fd5b634e487b7160e01b855260218352602485fd5b50346104235781600319360112610423576020906006549051908152f35b5034610423578160031936011261042357602090610ca1611bb4565b9051908152f35b5034610423578160031936011261042357517f00000000000000000000000000000000000000000000000000000000000000006001600160a01b03168152602090f35b5034610423578160031936011261042357517f00000000000000000000000000000000000000000000000000000000000000006001600160a01b03168152602090f35b5082346109b457816003193601126109b457803567ffffffffffffffff8111610fb957610d5e9036908301611783565b9060243592610d6b611932565b60ff600254166007811015610fa657600103610f98577f0000000000000000000000000000000000000000000000000000000000000000421015610f8a57620f42408410610f7c578215610f6e576001600160a01b03918690610df28630337f000000000000000000000000000000000000000000000000000000000000000088166118a9565b610dfd8684546117f5565b8355338252602093600a8552878320600160ff198254161790557f00000000000000000000000000000000000000000000000000000000000000001694853b156109b45787516259632960e31b815230858201523360248201526080604482015291839183918291610e749160848401919061187c565b896064830152038183895af18015610f6457610f50575b5050816024938651948580926285fa7160e71b825230868301525afa928315610f46578693610f17575b505f198301928311610f04575083519283528201527f61e034d80d9bd9b8dcd5d07434c03615017de4a6a229fe18bb93863bd20341a833923092a360015f805160206120358339815191525580f35b634e487b7160e01b865260119052602485fd5b9092508181813d8311610f3f575b610f2f818361185a565b810103126109ac57519186610eb5565b503d610f25565b85513d88823e3d90fd5b610f5990611816565b6109ac578587610e8b565b87513d84823e3d90fd5b8451631364228160e31b8152fd5b84516326f9a6d560e21b8152fd5b8451630c35d3d360e01b8152fd5b845163376f7bc960e01b8152fd5b634e487b7160e01b875260218252602487fd5b8380fd5b503461042357602036600319011261042357823567ffffffffffffffff81116109b457610fed9036908501611783565b9093906001600160a01b03907f0000000000000000000000000000000000000000000000000000000000000000821633036104105760025460ff811660078110156111ed57600581146111dd576002036111cd57611087869760057f69571ef5701bc1cb2a5b4e5ad988ffb80e2b3d603e7cd8918a27fc61d54f2ab29360ff1916176002558651918291602083523095602084019161187c565b0390a27f00000000000000000000000000000000000000000000000000000000000000008061117a575b50815480611127575b507f000000000000000000000000000000000000000000000000000000000000000016803b15611122576024849284519586938492639b63282960e01b845230908401525af19081156111195750611110575080f35b61033c90611816565b513d84823e3d90fd5b505050fd5b611174907f0000000000000000000000000000000000000000000000000000000000000000837f000000000000000000000000000000000000000000000000000000000000000016611961565b5f6110ba565b6111c7907f0000000000000000000000000000000000000000000000000000000000000000837f000000000000000000000000000000000000000000000000000000000000000016611961565b5f6110b1565b8451637c857f7160e01b81528490fd5b8551630e081d4160e31b81528590fd5b634e487b7160e01b875260218552602487fd5b5082346109b457826003193601126109b4576002549060ff821660078110156112a657600103611298577f0000000000000000000000000000000000000000000000000000000000000000421061128a575060029060ff191617600255514281527f8a026f0b097fdcfe809810fb54c34c3533c62365f31022492eb067e65519869b60203092a280f35b8251638f6e807760e01b8152fd5b825163376f7bc960e01b8152fd5b634e487b7160e01b855260218252602485fd5b50346104235781600319360112610423576020906008549051908152f35b503461042357816003193601126104235760075490516001600160a01b039091168152602090f35b5082346109b457826003193601126109b45760209250549051908152f35b5034610423578160031936011261042357602090517f00000000000000000000000000000000000000000000000000000000000000008152f35b5034610423578160031936011261042357610457906104446119e4565b5034610423578160031936011261042357602090611390611b78565b90519061139c81611779565b8152f35b5034610423578160031936011261042357602090517f00000000000000000000000000000000000000000000000000000000000000008152f35b503461042357816003193601126104235760209060ff60025460081c1690519015158152f35b5034610423578160031936011261042357602090517f00000000000000000000000000000000000000000000000000000000000000008152f35b5034610423578160031936011261042357602090610ca1611bf0565b5091903461050d578060031936011261050d57506115006114a892600254925492600554600354906114866119e4565b9560ff611491611ac9565b946114d987519a8b9a610120808d528c019061173b565b977f000000000000000000000000000000000000000000000000000000000000000060208c01528a0183831661171a565b60081c1615156060880152608087015260a086015260c085015283820360e085015261173b565b7f00000000000000000000000000000000000000000000000000000000000000006001600160a01b03166101008301520390f35b503461042357816003193601126104235760209061155a60ff600254169151809261171a565bf35b50346104235781600319360112610423576020906003549051908152f35b5082346109b45760203660031901126109b457356001600160a01b038116908190036109b457818360ff9260209552600a855220541690519015158152f35b508290346109b457826003193601126109b4576115d4611932565b60ff6002541660078110156116c4576003036116b75760055442116116aa576007546001600160a01b039290831661169c575061163f611612611bf0565b8093309033907f0000000000000000000000000000000000000000000000000000000000000000166118a9565b336bffffffffffffffffffffffff60a01b6007541617600755816008555190815233907f1288ffc9982cc1fb5d4f688c32cec5a69f33ee50fdd218186e48a813caea75db60203092a360015f805160206120358339815191525580f35b905163a91c3b5b60e01b8152fd5b5163aeab0d9360e01b8152fd5b51632000760360e21b8152fd5b634e487b7160e01b845260218352602484fd5b8390346104235781600319360112610423577f00000000000000000000000000000000000000000000000000000000000000006001600160a01b03168152602090f35b9060078210156117275752565b634e487b7160e01b5f52602160045260245ffd5b91908251928382525f5b848110611765575050825f602080949584010152601f8019910116010190565b602081830181015184830182015201611745565b6004111561172757565b9181601f840112156117b15782359167ffffffffffffffff83116117b157602083818601950101116117b157565b5f80fd5b6004359081151582036117b157565b9181601f840112156117b15782359167ffffffffffffffff83116117b1576020808501948460051b0101116117b157565b9190820180921161180257565b634e487b7160e01b5f52601160045260245ffd5b67ffffffffffffffff811161182a57604052565b634e487b7160e01b5f52604160045260245ffd5b6060810190811067ffffffffffffffff82111761182a57604052565b90601f8019910116810190811067ffffffffffffffff82111761182a57604052565b908060209392818452848401375f828201840152601f01601f1916010190565b9190820391821161180257565b6040516323b872dd60e01b5f9081526001600160a01b03938416600452938316602452604494909452909160209060648180855af160015f5114811615611913575b836040525f606052156118fd57505050565b635274afe760e01b835216600482015260249150fd5b600181151661192957813b15153d1516166118eb565b833d5f823e3d90fd5b5f80516020612035833981519152600281541461194f5760029055565b604051633ee5aeb560e01b8152600490fd5b60405163a9059cbb60e01b5f9081526001600160a01b039384166004526024949094529260209060448180855af160015f51148116156119aa575b83604052156118fd57505050565b600181151661192957813b15153d15161661199c565b91908110156119d05760051b0190565b634e487b7160e01b5f52603260045260245ffd5b604051905f805490600182811c90808416938415611abf575b6020948584108114611aab5783885287949392918115611a8b5750600114611a30575b5050611a2e9250038361185a565b565b5f8080527f290decd9548b62a8d60345a988386fc84ba6bc95484008f6362f93160ef3e56395935091905b818310611a73575050611a2e93508201015f80611a20565b85548884018501529485019487945091830191611a5b565b915050611a2e94925060ff191682840152151560051b8201015f80611a20565b634e487b7160e01b85526022600452602485fd5b91607f16916119fd565b604051905f60019081549182811c90808416938415611b6e575b6020948584108114611aab5783885287949392918115611a8b5750600114611b13575050611a2e9250038361185a565b5f8181527fb10e2d527612073b26eecdfd717e6a320cf44b4afac2b0732d9fcbe2b7fa0cf695935091905b818310611b56575050611a2e93508201015f80611a20565b85548884018501529485019487945091830191611b3e565b91607f1691611ae3565b6004546402540be400811015611bae57633b9aca00811015611ba8576305f5e1001115611ba3575f90565b600190565b50600290565b50600390565b7f000000000000000000000000000000000000000000000000000000000000000080421015611beb57611be890429061189c565b90565b505f90565b6004546101f4908181029181830414901517156118025761271090046302faf08080821115611c1d575090565b905090565b7f000000000000000000000000000000000000000000000000000000000000000080611c4b5750565b6001600160a01b037f0000000000000000000000000000000000000000000000000000000000000000611ca183827f00000000000000000000000000000000000000000000000000000000000000008516611961565b60405192835216907f681d1ef9341f6c23fce4142535ac171a0b421bcaee4df95f2fdfd429f2556f1160203092a3565b908315611dcd576040519060208201923060601b8452151560f81b6034830152603582015260358152611d038161183e565b51902060405160208101917f19457468657265756d205369676e6564204d6573736167653a0a3332000000008352603c820152603c8152611d438161183e565b51902067ffffffffffffffff831161182a5760405190611d6d601f8501601f19166020018361185a565b83825236848401116117b1575f602085611d9b96611d92968387013784010152611dd5565b90929192611e9d565b7f00000000000000000000000000000000000000000000000000000000000000006001600160a01b0390811691161490565b505050505f90565b8151919060418303611e0557611dfe9250602082015190606060408401519301515f1a90611e0f565b9192909190565b50505f9160029190565b91907f7fffffffffffffffffffffffffffffff5d576e7357a4501ddfe92f46681b20a08411611e9257926020929160ff6080956040519485521684840152604083015260608201525f92839182805260015afa15611e865780516001600160a01b03811615611e7d57918190565b50809160019190565b604051903d90823e3d90fd5b5050505f9160039190565b611ea681611779565b80611eaf575050565b611eb881611779565b60018103611ed25760405163f645eedf60e01b8152600490fd5b611edb81611779565b60028103611efc5760405163fce698f760e01b815260048101839052602490fd5b80611f08600392611779565b14611f105750565b602490604051906335e2f38360e21b82526004820152fd5b906040519160a0830183811067ffffffffffffffff82111761182a576040525f92838152602081019084825260408101858152606082019286845260808301928784528097861561200c576127109081611f818961201e565b04835281611f8e8961201e565b0484526032880290888204603203611ff85750048352519051611fcb92611fc2929091611fba916117f5565b9051906117f5565b8084528461189c565b90525190808211611fda575050565b604492506040519163bb22134560e01b835260048301526024820152fd5b634e487b7160e01b81526011600452602490fd5b60405163edfdf80d60e01b8152600490fd5b906064820291808304606414901517156118025756fe9b779b17422d0df92223018b32b4d1fa46e071723d6817e2486d003becc55f00a26469706673582212205d9946e2e95e9a6d8b9772b0defae412ff03cbd116ed9273100f07f752d2f93864736f6c63430008140033a26469706673582212203eaa3519f9f431e27a6268999083e547130e90c6405bb656f4ccd8eebfab112064736f6c63430008140033","linkReferences":{}},"methodIdentifiers":{"USDT()":"c54e44eb","allMarkets(uint256)":"52d84d1e","createMarket(string,uint256,string,bytes32)":"13112f69","creationBondAmount()":"0184251b","getMarkets(uint256,uint256)":"80968d48","getMarketsByCreator(address)":"e99c80bd","isMarket(address)":"6ec934da","isValidMarket(address)":"58e6309f","marketMakerAgent()":"c792adb6","marketsByCreator(address,uint256)":"13ba3d14","oracleAgent()":"7d618bb6","owner()":"8da5cb5b","pause()":"8456cb59","paused()":"5c975abb","payoutDistributor()":"b3371047","positionVault()":"98654aff","protocolTreasury()":"803db96d","renounceOwnership()":"715018a6","setVaultAndDistributor(address,address)":"54bb1dd9","totalMarkets()":"8162486b","totalMarketsCreated()":"27b3d42a","transferOwnership(address)":"f2fde38b","unpause()":"3f4ba83a","updateCreationBond(uint256)":"35ac9f9c","updateTreasury(address)":"7f51bb1f"},"id":36}