{"abi":[{"type":"constructor","inputs":[{"name":"_usdt","type":"address","internalType":"address"},{"name":"_oracleAgent","type":"address","internalType":"address"},{"name":"_marketMakerAgent","type":"address","internalType":"address"},{"name":"_protocolTreasury","type":"address","internalType":"address"}],"stateMutability":"nonpayable"},{"type":"function","name":"USDT","inputs":[],"outputs":[{"name":"","type":"address","internalType":"address"}],"stateMutability":"view"},{"type":"function","name":"allMarkets","inputs":[{"name":"","type":"uint256","internalType":"uint256"}],"outputs":[{"name":"","type":"address","internalType":"address"}],"stateMutability":"view"},{"type":"function","name":"createMarket","inputs":[{"name":"question","type":"string","internalType":"string"},{"name":"deadline","type":"uint256","internalType":"uint256"},{"name":"category","type":"string","internalType":"string"},{"name":"resolutionSourcesHash","type":"bytes32","internalType":"bytes32"}],"outputs":[{"name":"marketAddress","type":"address","internalType":"address"}],"stateMutability":"nonpayable"},{"type":"function","name":"creationBondAmount","inputs":[],"outputs":[{"name":"","type":"uint256","internalType":"uint256"}],"stateMutability":"view"},{"type":"function","name":"getMarkets","inputs":[{"name":"offset","type":"uint256","internalType":"uint256"},{"name":"limit","type":"uint256","internalType":"uint256"}],"outputs":[{"name":"markets","type":"address[]","internalType":"address[]"}],"stateMutability":"view"},{"type":"function","name":"getMarketsByCreator","inputs":[{"name":"creator","type":"address","internalType":"address"}],"outputs":[{"name":"","type":"address[]","internalType":"address[]"}],"stateMutability":"view"},{"type":"function","name":"isMarket","inputs":[{"name":"","type":"address","internalType":"address"}],"outputs":[{"name":"","type":"bool","internalType":"bool"}],"stateMutability":"view"},{"type":"function","name":"isValidMarket","inputs":[{"name":"market","type":"address","internalType":"address"}],"outputs":[{"name":"","type":"bool","internalType":"bool"}],"stateMutability":"view"},{"type":"function","name":"marketMakerAgent","inputs":[],"outputs":[{"name":"","type":"address","internalType":"address"}],"stateMutability":"view"},{"type":"function","name":"marketsByCreator","inputs":[{"name":"","type":"address","internalType":"address"},{"name":"","type":"uint256","internalType":"uint256"}],"outputs":[{"name":"","type":"address","internalType":"address"}],"stateMutability":"view"},{"type":"function","name":"oracleAgent","inputs":[],"outputs":[{"name":"","type":"address","internalType":"address"}],"stateMutability":"view"},{"type":"function","name":"owner","inputs":[],"outputs":[{"name":"","type":"address","internalType":"address"}],"stateMutability":"view"},{"type":"function","name":"pause","inputs":[],"outputs":[],"stateMutability":"nonpayable"},{"type":"function","name":"paused","inputs":[],"outputs":[{"name":"","type":"bool","internalType":"bool"}],"stateMutability":"view"},{"type":"function","name":"payoutDistributor","inputs":[],"outputs":[{"name":"","type":"address","internalType":"address"}],"stateMutability":"view"},{"type":"function","name":"positionVault","inputs":[],"outputs":[{"name":"","type":"address","internalType":"address"}],"stateMutability":"view"},{"type":"function","name":"protocolTreasury","inputs":[],"outputs":[{"name":"","type":"address","internalType":"address"}],"stateMutability":"view"},{"type":"function","name":"renounceOwnership","inputs":[],"outputs":[],"stateMutability":"nonpayable"},{"type":"function","name":"setVaultAndDistributor","inputs":[{"name":"_positionVault","type":"address","internalType":"address"},{"name":"_payoutDistributor","type":"address","internalType":"address"}],"outputs":[],"stateMutability":"nonpayable"},{"type":"function","name":"totalMarkets","inputs":[],"outputs":[{"name":"","type":"uint256","internalType":"uint256"}],"stateMutability":"view"},{"type":"function","name":"totalMarketsCreated","inputs":[],"outputs":[{"name":"","type":"uint256","internalType":"uint256"}],"stateMutability":"view"},{"type":"function","name":"transferOwnership","inputs":[{"name":"newOwner","type":"address","internalType":"address"}],"outputs":[],"stateMutability":"nonpayable"},{"type":"function","name":"unpause","inputs":[],"outputs":[],"stateMutability":"nonpayable"},{"type":"function","name":"updateCreationBond","inputs":[{"name":"newAmount","type":"uint256","internalType":"uint256"}],"outputs":[],"stateMutability":"nonpayable"},{"type":"function","name":"updateTreasury","inputs":[{"name":"newTreasury","type":"address","internalType":"address"}],"outputs":[],"stateMutability":"nonpayable"},{"type":"event","name":"CreationBondAmountUpdated","inputs":[{"name":"oldAmount","type":"uint256","indexed":false,"internalType":"uint256"},{"name":"newAmount","type":"uint256","indexed":false,"internalType":"uint256"}],"anonymous":false},{"type":"event","name":"FactoryPaused","inputs":[{"name":"by","type":"address","indexed":false,"internalType":"address"}],"anonymous":false},{"type":"event","name":"FactoryUnpaused","inputs":[{"name":"by","type":"address","indexed":false,"internalType":"address"}],"anonymous":false},{"type":"event","name":"MarketCreated","inputs":[{"name":"marketAddress","type":"address","indexed":true,"internalType":"address"},{"name":"creator","type":"address","indexed":true,"internalType":"address"},{"name":"question","type":"string","indexed":false,"internalType":"string"},{"name":"deadline","type":"uint256","indexed":false,"internalType":"uint256"},{"name":"category","type":"string","indexed":false,"internalType":"string"},{"name":"resolutionSourcesHash","type":"bytes32","indexed":false,"internalType":"bytes32"},{"name":"marketIndex","type":"uint256","indexed":true,"internalType":"uint256"}],"anonymous":false},{"type":"event","name":"OwnershipTransferred","inputs":[{"name":"previousOwner","type":"address","indexed":true,"internalType":"address"},{"name":"newOwner","type":"address","indexed":true,"internalType":"address"}],"anonymous":false},{"type":"event","name":"TreasuryUpdated","inputs":[{"name":"oldTreasury","type":"address","indexed":false,"internalType":"address"},{"name":"newTreasury","type":"address","indexed":false,"internalType":"address"}],"anonymous":false},{"type":"event","name":"VaultAndDistributorSet","inputs":[{"name":"positionVault","type":"address","indexed":false,"internalType":"address"},{"name":"payoutDistributor","type":"address","indexed":false,"internalType":"address"}],"anonymous":false},{"type":"error","name":"MarketLib__DeadlineTooSoon","inputs":[{"name":"provided","type":"uint256","internalType":"uint256"},{"name":"minimum","type":"uint256","internalType":"uint256"}]},{"type":"error","name":"MarketLib__EmptyQuestion","inputs":[]},{"type":"error","name":"MarketLib__InvalidCategory","inputs":[{"name":"category","type":"string","internalType":"string"}]},{"type":"error","name":"MarketLib__QuestionTooLong","inputs":[{"name":"length","type":"uint256","internalType":"uint256"},{"name":"maxLength","type":"uint256","internalType":"uint256"}]},{"type":"error","name":"OwnableInvalidOwner","inputs":[{"name":"owner","type":"address","internalType":"address"}]},{"type":"error","name":"OwnableUnauthorizedAccount","inputs":[{"name":"account","type":"address","internalType":"address"}]},{"type":"error","name":"ProphetFactory__AlreadyInitialized","inputs":[]},{"type":"error","name":"ProphetFactory__BondTransferFailed","inputs":[]},{"type":"error","name":"ProphetFactory__InvalidOffset","inputs":[]},{"type":"error","name":"ProphetFactory__LimitTooHigh","inputs":[]},{"type":"error","name":"ProphetFactory__NotInitialized","inputs":[]},{"type":"error","name":"ProphetFactory__Paused","inputs":[]},{"type":"error","name":"ProphetFactory__ZeroAddress","inputs":[]},{"type":"error","name":"ReentrancyGuardReentrantCall","inputs":[]},{"type":"error","name":"SafeERC20FailedOperation","inputs":[{"name":"token","type":"address","internalType":"address"}]}],"bytecode":{"object":"0x60e034620001d957601f6200515038819003918201601f191683019291906001600160401b03841183851017620001dd578160809284926040968752833981010312620001d9576200005181620001f1565b906200006060208201620001f1565b906200007c606062000074868401620001f1565b9201620001f1565b913315620001c2575f80546001600160a01b0319808216339081178455885191966001600160a01b039490938516907f8be0079c531659141344cd1fd0a4f28419497f9722a3daafe3b4186f6b6457e09080a360017f9b779b17422d0df92223018b32b4d1fa46e071723d6817e2486d003becc55f00556298968060045582871615620001b3575081831615620001a25781841615620001a25716938415620001915760805260a05260c052600354161760035551614f4990816200020782396080518181816102cb01528181610b9f01528181610e0201528181610e4801528181610e8801528181610ef40152610f4f015260a05181818161060e0152610b3f015260c0518181816102850152610b670152f35b8551631dcdddaf60e21b8152600490fd5b8651631dcdddaf60e21b8152600490fd5b631dcdddaf60e21b8152600490fd5b8451631e4fbdf760e01b81525f6004820152602490fd5b5f80fd5b634e487b7160e01b5f52604160045260245ffd5b51906001600160a01b0382168203620001d95756fe608080604052600436101562000013575f80fd5b5f3560e01c9081630184251b14620010f85750806313112f69146200095457806313ba3d1414620008f657806327b3d42a14620008d757806335ac9f9c14620008805780633f4ba83a146200082b57806352d84d1e14620007e457806354bb1dd9146200070057806358e6309f14620006985780635c975abb14620006d95780636ec934da1462000698578063715018a6146200063d5780637d618bb614620005f75780637f51bb1f1462000558578063803db96d146200052e57806380968d4814620003f35780638162486b14620003d45780638456cb5914620003775780638da5cb5b146200034e57806398654aff1462000324578063b337104714620002fa578063c54e44eb14620002b4578063c792adb6146200026e578063e99c80bd14620001de5763f2fde38b1462000149575f80fd5b34620001da576020366003190112620001da576200016662001145565b6200017062001201565b6001600160a01b03908116908115620001c2575f54826bffffffffffffffffffffffff60a01b8216175f55167f8be0079c531659141344cd1fd0a4f28419497f9722a3daafe3b4186f6b6457e05f80a3005b604051631e4fbdf760e01b81525f6004820152602490fd5b5f80fd5b34620001da57602080600319360112620001da576001600160a01b03806200020562001145565b165f526007825260405f209160405180928285549283815201945f52825f20925f915b8383106200025457620002508662000243818a03826200125b565b60405191829182620011bc565b0390f35b845481168752958101956001948501949092019162000228565b34620001da575f366003190112620001da576040517f00000000000000000000000000000000000000000000000000000000000000006001600160a01b03168152602090f35b34620001da575f366003190112620001da576040517f00000000000000000000000000000000000000000000000000000000000000006001600160a01b03168152602090f35b34620001da575f366003190112620001da576002546040516001600160a01b039091168152602090f35b34620001da575f366003190112620001da576001546040516001600160a01b039091168152602090f35b34620001da575f366003190112620001da575f546040516001600160a01b039091168152602090f35b34620001da575f366003190112620001da576200039362001201565b6003805460ff60a01b1916600160a01b1790556040513381527ff7ab4f18771ba1e5f8db30e61ceed7bc8096937655edc7b3cae25a61921f4a1e90602090a1005b34620001da575f366003190112620001da576020600554604051908152f35b34620001da576040366003190112620001da5760246004358135606481116200051c576005805491828410156200050a576200043090846200124d565b9180831162000501575b50828203918211620004ee5762000451826200127e565b926200046160405194856200125b565b828452601f1962000472846200127e565b019060209136838701375f5b848110620004965760405180620002508882620011bc565b620004ac620004a682846200124d565b6200115c565b919054918751821015620004db5760031b9190911c6001600160a01b031681851b87018401526001016200047e565b88634e487b7160e01b5f5260326004525ffd5b83634e487b7160e01b5f5260116004525ffd5b9150846200043a565b60405163106e09a160e21b8152600490fd5b60405163fd5ab35960e01b8152600490fd5b34620001da575f366003190112620001da576003546040516001600160a01b039091168152602090f35b34620001da576020366003190112620001da576200057562001145565b6200057f62001201565b6001600160a01b03818116918215620005e557600354604080516001600160a01b0394831685168152929093166020830152917f4ab5be82436d353e61ca18726e984e561f5c1cc7c6d38b29d2553c790434705a91a16001600160a01b03191617600355005b604051631dcdddaf60e21b8152600490fd5b34620001da575f366003190112620001da576040517f00000000000000000000000000000000000000000000000000000000000000006001600160a01b03168152602090f35b34620001da575f366003190112620001da576200065962001201565b5f80546001600160a01b0319811682556001600160a01b03167f8be0079c531659141344cd1fd0a4f28419497f9722a3daafe3b4186f6b6457e08280a3005b34620001da576020366003190112620001da576001600160a01b03620006bd62001145565b165f526006602052602060ff60405f2054166040519015158152f35b34620001da575f366003190112620001da57602060ff60035460a01c166040519015158152f35b34620001da576040366003190112620001da576200071d62001145565b6001600160a01b039060243590828216808303620001da576200073f62001201565b6001549380851615801590620007d6575b620007c4578216938415620005e5578115620005e5576001600160a01b0319908116949094176001556002805490941617909255604080516001600160a01b0393841681529190921660208201527fe6d09845e642ab4018b4164f02f973d56e2c7844d984041996e34e67b4ddc6e39190a1005b60405163288129c160e21b8152600490fd5b508060025416151562000750565b34620001da576020366003190112620001da57600435600554811015620001da57620008126020916200115c565b905460405160039290921b1c6001600160a01b03168152f35b34620001da575f366003190112620001da576200084762001201565b60ff60a01b19600354166003557f5dd33ddbee1b2bb2cfe2e04a15fcc4e2071c141d15e24d1fe1b5d6b80f355c0c6020604051338152a1005b34620001da576020366003190112620001da57600435620008a062001201565b7faeaf1777d7f42d3d66bda2acbc325a91ebfb781c27aea3b75baa370d2eea0ce860406004548151908152836020820152a1600455005b34620001da575f366003190112620001da576020600854604051908152f35b34620001da576040366003190112620001da576200091362001145565b6024359060018060a01b038091165f52600760205260405f208054831015620001da576020926200094491620011a6565b9190546040519260031b1c168152f35b34620001da576080366003190112620001da5760043567ffffffffffffffff8111620001da576200098a90369060040162001114565b9060443567ffffffffffffffff8111620001da57620009ae90369060040162001114565b9260027f9b779b17422d0df92223018b32b4d1fa46e071723d6817e2486d003becc55f005414620010e65760027f9b779b17422d0df92223018b32b4d1fa46e071723d6817e2486d003becc55f00556001546001600160a01b0316158015620010d2575b620010c05760ff60035460a01c16620010ae5780156200109c576101188082116200107e5750610e10420180421162000dad5780602435106200105e575067ffffffffffffffff841162000dc15760405162000a79601f8601601f1916602001826200125b565b8481523685840111620001da576020810190858483375f602087830101525190207f35006686fd78b85ed3fb52493d70cb3f7732177a19f352814df621b506c237a4811415908162001032575b8162001006575b8162000fda575b8162000fae575b5062000f8257600454928362000ecf575b600154600254600354604051926001600160a01b03918216928216911667ffffffffffffffff613c7c85019081119085111762000dc157613c7c62001298853930613c7c85019081526001600160a01b037f0000000000000000000000000000000000000000000000000000000000000000811660208301527f000000000000000000000000000000000000000000000000000000000000000081166040830152606082019290925260808101929092527f00000000000000000000000000000000000000000000000000000000000000001660a082015260c08101919091523360e08201526101a06101008201819052829162000c189162000bf2910186866200122d565b602435610120613c7c85010152613c7c83018103610140613c7c8501015288876200122d565b606435610160613c7c8401015286610180613c7c8401015203905ff093841562000ec4578062000dd5575b50600554600160401b81101562000dc15780600162000c6692016005556200115c565b81546001600160a01b0387811660039390931b83811b91901b19909116179091555f908152600660209081526040808320805460ff19166001179055338352600790915290208054600160401b81101562000dc15762000ccc91600182018155620011a6565b81546001600160a01b0387811660039390931b92831b921b1916179055600854925f19841462000dad576001840180600855841162000dad5760209562000d2462000d3a93604051956080875260808701916200122d565b916024358886015284830360408601526200122d565b606435606083015233916001600160a01b038516917f83c15be2ca1e165b960c7d960cc25c028c230aa28f19f5bca198bad509a98558919081900390a460017f9b779b17422d0df92223018b32b4d1fa46e071723d6817e2486d003becc55f00556040516001600160a01b039091168152f35b634e487b7160e01b5f52601160045260245ffd5b634e487b7160e01b5f52604160045260245ffd5b6040519063a9059cbb60e01b5f5260018060a01b03861660045260245260205f6044818060018060a01b037f0000000000000000000000000000000000000000000000000000000000000000165af160015f511481161562000e7a575b8160405262000c43575b635274afe760e01b81527f00000000000000000000000000000000000000000000000000000000000000006001600160a01b03166004820152602490fd5b600181151662000ebb573d157f00000000000000000000000000000000000000000000000000000000000000006001600160a01b03163b1515161662000e32565b503d5f823e3d90fd5b6040513d5f823e3d90fd5b6040516323b872dd60e01b5f90815233600452306024526044869052602090606481807f00000000000000000000000000000000000000000000000000000000000000006001600160a01b03165af160015f511481161562000f41575b816040525f6060521562000e3c575062000aec565b600181151662000ebb573d157f00000000000000000000000000000000000000000000000000000000000000006001600160a01b03163b1515161662000f2c565b508262000faa604051928392633cca410360e21b84526020600485015260248401916200122d565b0390fd5b7f094ba9aeec106987a8ca126b2258fee673170ef6ab195733b8278914dba73075915014158562000adb565b7f2af4c2fb0d9965fa818b9c58b2744b328ab67b082ec92907629457399dacdb35811415915062000ad4565b7f244cf72cb284fc7d430637a0d0fe497a88146c8eb8832a06e8aaf72bcb0f75c8811415915062000acd565b7fecf68b55a3148ada593e183bf15435fbd3f76364946ed2169f5e36e27bc9eafd811415915062000ac6565b60449060405190632900a0eb60e11b825260243560048301526024820152fd5b60449250604051916304d7983760e01b835260048301526024820152fd5b60405163a875bd2560e01b8152600490fd5b604051639e6f7b2760e01b8152600490fd5b604051632bb79de760e01b8152600490fd5b506002546001600160a01b03161562000a12565b604051633ee5aeb560e01b8152600490fd5b34620001da575f366003190112620001da576020906004548152f35b9181601f84011215620001da5782359167ffffffffffffffff8311620001da5760208381860195010111620001da57565b600435906001600160a01b0382168203620001da57565b600554811015620011925760055f527f036b6384b5eca791c62761152d0c79bb0604c104a5fb6f4eb0703f3154bb3db001905f90565b634e487b7160e01b5f52603260045260245ffd5b805482101562001192575f5260205f2001905f90565b602090816040818301928281528551809452019301915f5b828110620011e3575050505090565b83516001600160a01b031685529381019392810192600101620011d4565b5f546001600160a01b031633036200121557565b60405163118cdaa760e01b8152336004820152602490fd5b908060209392818452848401375f828201840152601f01601f1916010190565b9190820180921162000dad57565b90601f8019910116810190811067ffffffffffffffff82111762000dc157604052565b67ffffffffffffffff811162000dc15760051b6020019056fe6101e060405234620005c65762003c7c803803806200001e81620005ca565b9283396101a0828281010312620005c6576200003a82620005f0565b906200004960208401620005f0565b926200005860408201620005f0565b916200006760608301620005f0565b6200007560808401620005f0565b6200008360a08501620005f0565b6200009160c08601620005f0565b91620000a060e08701620005f0565b6101008701519094906001600160401b038111620005c657620000c99087890190890162000605565b976101208801519661014089015160018060401b038111620005c657620000f5918a01908a0162000605565b9a6101806101608a01519901519a60017f9b779b17422d0df92223018b32b4d1fa46e071723d6817e2486d003becc55f005560805260a05260c05260e05261010052610120526101405261016052610180526101a0526101c091825280519060018060401b038211620005b2575f91825491600183811c93168015620005a7575b602084101462000593578190601f9384811162000540575b50602090848311600114620004d8578592620004cc575b50508160011b915f199060031b1c19161782555b8351916001600160401b038311620004b857600154600181811c91168015620004ad575b6020821014620004995782811162000451575b506020918311600114620003cd579382939492620003c1575b50508160011b915f199060031b1c1916176001555b600160ff196002541617600255604051613606918262000676833960805182610a58015260a05182818161028d01528181610de101528181610f9d015281816115a701528181611a5f015261332f015260c0518281816107a101528181610d400152612822015260e0518281816110c80152818161187b01528181611b220152611b92015261010051828181610b170152610ecf01526101205182818161037c015281816104520152818161060a0152818161088c01528181610a1401528181610c3101528181610cc201528181610d6401528181610e0801528181611246015281816116c20152818161181f01528181611bb401528181611c0701528181611f4d015281816123ed015281816128d9015261320d015261014051828181610c9e015281816115630152611be50152610160518281816122b4015281816124b901526131e701526101805182818161112a015281816117d601528181611cc201528181611ec3015281816120e50152818161225d0152612db501526101a0518261214701525181818161082901528181611af001528181611e5001526131b60152f35b015190505f8062000209565b60018152601f198316947fb10e2d527612073b26eecdfd717e6a320cf44b4afac2b0732d9fcbe2b7fa0cf692915b8681106200043857508360019596106200041f575b505050811b016001556200021e565b01515f1960f88460031b161c191690555f808062000410565b91926020600181928685015181550194019201620003fb565b60018252602082208380860160051c820192602087106200048f575b0160051c01905b818110620004835750620001f0565b82815560010162000474565b925081926200046d565b634e487b7160e01b82526022600452602482fd5b90607f1690620001dd565b634e487b7160e01b81526041600452602490fd5b015190505f80620001a5565b858052602086209250601f198416865b8181106200052757509084600195949392106200050e575b505050811b018255620001b9565b01515f1960f88460031b161c191690555f808062000500565b92936020600181928786015181550195019301620004e8565b909150848052602085208480850160051c8201926020861062000589575b9085949392910160051c01905b8181106200057a57506200018e565b8681558493506001016200056b565b925081926200055e565b634e487b7160e01b84526022600452602484fd5b92607f169262000176565b634e487b7160e01b5f52604160045260245ffd5b5f80fd5b6040519190601f01601f191682016001600160401b03811183821017620005b257604052565b51906001600160a01b0382168203620005c657565b919080601f84011215620005c65782516001600160401b038111620005b2576020906200063b601f8201601f19168301620005ca565b92818452828287010111620005c6575f5b818110620006615750825f9394955001015290565b85810183015184820184015282016200064c56fe60806040818152600480361015610014575f80fd5b5f92833560e01c90816302d05d3f146124a557508063134034471461238b578063136f10161461234d5780631584b5e51461232e5780631bfc5e021461230f578063200d2ed2146122e657806323341a051461220957806323756650146121ec5780632466f0521461216a578063248527f31461212f57806327793f871461210857806329dcb0cf146120cd57806329ef5e58146120a05780633438f6a214611e915780633fad9ae014611e73578063459d6e4f14611e385780634ac8eb5f14611e1b578063534db0e214611df057806356bc793e14611db7578063571dc45214611d985780635986ac2d14611d4f5780636237c7f714611c975780636259c6d014611c7857806364ff1cb314611a1f57806365024da61461178257806367351cd71461163357806372a9fa6e146116145780637bf9c972146115d65780637d618bb614611592578063803db96d1461154e578063818fa9411461151557806383c44a66146114f157806385af5d35146114d257806387827e2f146114ab5780639349d051146113ec57806397b734a2146110f757806398654aff146110b3578063999a164214610f5b578063a5498fb714610f3c578063b2670d7414610f1d578063b2d6d4f114610efe578063b337104714610eba578063b6707fb614610aba578063c21ca04214610a87578063c45a015514610a43578063c54e44eb146109ff578063c57fed13146107d0578063c792adb61461078c578063c8b58dc514610715578063ca593dad146106f6578063cb7bc80514610556578063d8812a1314610532578063ef430aa6146104f95763ffecfe8b14610272575f80fd5b346104f55760203660031901126104f55761028b612551565b7f000000000000000000000000000000000000000000000000000000000000000091906001600160a01b0380841633036104e25760ff6002541660078110156104cf576003036104bf57600893818554861c16156104af5760ff1992600184600a541617600a555f1461041f575060025461ff0060ff82871c1615861b169061ff0019161760025561031d83546134ba565b516113889081810291818304149015171561040c57916103fe93916127107fa4acb9df7f70b3988e02696551c758c0501984856f33a81371a86a3e376811a6969404906103a161036f836009546125e2565b83600b55828754881c16837f000000000000000000000000000000000000000000000000000000000000000016612795565b8454851c169087519081527fd0f09e0ef7ecb6045de08da31349d7a2240f9e1119b6ef1ea9dd5b26d00d8e1060203092a35b600254161793846002555191829160ff309642921c1683602090939291936040810194151581520152565b0390a26104096131b4565b80f35b601184634e487b7160e01b5f525260245ffd5b916103fe93916104777fa4acb9df7f70b3988e02696551c758c0501984856f33a81371a86a3e376811a6969460095490837f000000000000000000000000000000000000000000000000000000000000000016612795565b8354841c1660095487519081527fb71648944e0587c53dbf15e84af38e1d84ba55cc989f8cae8d1eb05beb9c9fb760203092a36103d3565b855163448c835f60e01b81528490fd5b8451632000760360e21b81528390fd5b634e487b7160e01b875260218452602487fd5b84516001621bb8dd60e31b031981528390fd5b8280fd5b50503461052e578160031936011261052e5761052a90610517612cc8565b9051918291602083526020830190612509565b0390f35b5080fd5b50503461052e578160031936011261052e5760209060ff600a541690519015158152f35b5091903461052e578160031936011261052e5761057161271f565b6002549260ff841660078110156106e35781036106d5573383526020936013855260ff83852054166106c65760081c60ff16156106b5573383526011845281832054925b831561069a5733815260138552828120805460ff1916600117905560025460081c60ff161561068d5733815260118552828120555b600f549081841161067f57508261060091612689565b600f5561063782337f00000000000000000000000000000000000000000000000000000000000000006001600160a01b0316612795565b8051828152828482015233907fc1a07987eb54bbaf4416054c8c792d90f3ee6549b386d56a650b7bbedbfae865833092a360015f805160206135b18339815191525551908152f35b825163067a0eb960e21b8152fd5b60128552828120556105ea565b6001604493519263506f633f60e11b84528301526024820152fd5b3383526012845281832054926105b5565b509051633f6193d760e11b8152fd5b9051637c6f529b60e11b8152fd5b634e487b7160e01b845260218252602484fd5b50503461052e578160031936011261052e576020906006549051908152f35b50913461078957806003193601126107895760ff60025416926007841015610776576020600385148481610769575b81610752575b519015158152f35b60088054901c6001600160a01b031615915061074a565b6006544211159150610744565b634e487b7160e01b825260219052602490fd5b80fd5b50503461052e578160031936011261052e57517f00000000000000000000000000000000000000000000000000000000000000006001600160a01b03168152602090f35b50346104f55760203660031901126104f5578035916107ed61271f565b60ff6002541660078110156109ec576001036109df5782156109d257600d5480158015906109c7575b80156109bc575b6109ae5761084d6005547f00000000000000000000000000000000000000000000000000000000000000006125e2565b9261087361086a610861600f5480976125e2565b601054906125e2565b600954906125e2565b83516370a0823160e01b815230838201526020816024817f00000000000000000000000000000000000000000000000000000000000000006001600160a01b03165afa9081156109a4578790899261096b575b506108d191926125e2565b1161095d575090610946610907857f0a3d9f04a6d16dff1994b69eb1d7200c0ca46d00b2ca683d039e13679b9cb32f95946125e2565b9182600d556109268661091c81600e546125e2565b9586600e556125e2565b600f55519283923096846040919493926060820195825260208201520152565b0390a260015f805160206135b18339815191525580f35b82516326f9a6d560e21b8152fd5b9150506020813d821161099c575b8161098660209383612647565b810103126109985751866108d16108c6565b5f80fd5b3d9150610979565b85513d8a823e3d90fd5b505163f89d2efb60e01b8152fd5b50600f54151561081d565b50600e541515610816565b516326f9a6d560e21b8152fd5b5163376f7bc960e01b8152fd5b634e487b7160e01b855260218352602485fd5b50503461052e578160031936011261052e57517f00000000000000000000000000000000000000000000000000000000000000006001600160a01b03168152602090f35b50503461052e578160031936011261052e57517f00000000000000000000000000000000000000000000000000000000000000006001600160a01b03168152602090f35b82843461078957816003193601126107895750610aae610aa5612551565b60243590612ed7565b82519182526020820152f35b5090346104f557806003193601126104f55767ffffffffffffffff8235818111610eb657610aeb90369085016125b1565b91602435908111610eb257610b0390369086016125b1565b90610b0c61271f565b6001600160a01b03957f000000000000000000000000000000000000000000000000000000000000000087163303610ea45760ff600254166007811015610e91578103610e8357828503610e7557610b658691546134ba565b8051600b5480610e56575b5080610dbb575b50602081018881519182610d16575b505050018681519182610c74575b5050508695875b858110610be85788887f738f18d610d0656b817ed217bc72afb5aec108c09f356495b533e2da046270f88989815193845260208401523092a260015f805160206135b18339815191525580f35b610bf38185856127f4565b35610c01575b600101610b9b565b96610c0d8887876127f4565b358281168103610c7057600191610c56610c6892610c2c8c89896127f4565b3590867f000000000000000000000000000000000000000000000000000000000000000016612795565b610c618a87876127f4565b35906125e2565b979050610bf9565b8980fd5b7ffeb2c7c51697d22e9aa290e5a55c2faa6cc7629e5485718b07c466e34f54c30091608091610ce77f00000000000000000000000000000000000000000000000000000000000000009586847f000000000000000000000000000000000000000000000000000000000000000016612795565b5193895194855289602086015260088a860152671c1c9bdd1bd8dbdb60c21b60608601521692a25f8681610b94565b7ffeb2c7c51697d22e9aa290e5a55c2faa6cc7629e5485718b07c466e34f54c30091608091610d897f00000000000000000000000000000000000000000000000000000000000000009586847f000000000000000000000000000000000000000000000000000000000000000016612795565b51938651948552866020860152600b878601526a36b0b935b2ba36b0b5b2b960a91b60608601521692a25f8881610b86565b7ffeb2c7c51697d22e9aa290e5a55c2faa6cc7629e5485718b07c466e34f54c30060808a7f0000000000000000000000000000000000000000000000000000000000000000610e2d8582847f000000000000000000000000000000000000000000000000000000000000000016612795565b8651948552866020860152600687860152656f7261636c6560d01b60608601521692a25f610b77565b818110610e67575050885b5f610b70565b610e7091612689565b610e61565b8551634154c95760e11b8152fd5b8551637c6f529b60e11b8152fd5b634e487b7160e01b895260218252602489fd5b85516354a9666160e01b8152fd5b8580fd5b8480fd5b50503461052e578160031936011261052e57517f00000000000000000000000000000000000000000000000000000000000000006001600160a01b03168152602090f35b50503461052e578160031936011261052e57602090600b549051908152f35b50503461052e578160031936011261052e57602090600d549051908152f35b50503461052e578160031936011261052e57602090600f549051908152f35b50346104f55760603660031901126104f557610f75612551565b9160243560443567ffffffffffffffff8111610eb257610f989036908501612583565b9094907f00000000000000000000000000000000000000000000000000000000000000006001600160a01b031633036110a3576002549560ff87166007811015611090576002036110805790610fef918484613263565b156110715715159381600355426007556201518042019384421161105e57506003908460065561ff008660081b169061ffff19161717600255815193845260208401528201527ffd97318e127b16b74c63acff4a04334b9ab491b8f2ffc20707c45cbf13df4d3360603092a280f35b634e487b7160e01b875260119052602486fd5b505051631364228160e31b8152fd5b8451637c857f7160e01b81528690fd5b634e487b7160e01b895260218752602489fd5b50505051631fe4472360e31b8152fd5b50503461052e578160031936011261052e57517f00000000000000000000000000000000000000000000000000000000000000006001600160a01b03168152602090f35b5091903461052e5761110836612560565b939061111261271f565b60ff6002541660078110156113d9576001036113c9577f00000000000000000000000000000000000000000000000000000000000000004210156113b95780156113a9578215611398573382526011602052838220545b81811061137b575061117b8184612ed7565b509480861061135f5750841561134f576111958184612faf565b916111a08684612689565b92841561134757600d545b851561133e5783600e545b831191821561132b575b50508015611320575b611310576020976111dc856010546125e2565b6010556111eb82600f54612689565b600f556111f98582546125e2565b90558585156112d45761123b9233815260118a5220611219848254612689565b90556112308161122b85600d546125e2565b612689565b600d55600e54612689565b600e555b61127385337f00000000000000000000000000000000000000000000000000000000000000006001600160a01b0316612795565b7f22a0dd5b506ffd304d9c98f549999a8dc872a70a06dcaf816a163a50beeaa5ad845193151593806112ba3395893096846040919493926060820195825260208201520152565b0390a460015f805160206135b18339815191525551908152f35b6113089233815260128a52206112eb848254612689565b90556112fd8161122b85600e546125e2565b600e55600d54612689565b600d5561123f565b855163067a0eb960e21b81528890fd5b50600f5481116111c9565b61133592506125e2565b8111835f6111c0565b83600d546111b6565b600e546111ab565b835163067a0eb960e21b81528690fd5b866044918787519263f8e803eb60e01b84528301526024820152fd5b845163506f633f60e11b8152808801929092526024820152604490fd5b338252601260205283822054611169565b83516326f9a6d560e21b81528690fd5b8351630c35d3d360e01b81528690fd5b835163376f7bc960e01b81528690fd5b634e487b7160e01b835260218752602483fd5b50346104f557826003193601126104f55760025460ff811660078110156109ec5760030361149c5760065442111561148d5760088054901c6001600160a01b031661147e5760ff1916176002819055905160089190911c60ff161515815242602082015230907fa4acb9df7f70b3988e02696551c758c0501984856f33a81371a86a3e376811a69080604081016103fe565b50905163a91c3b5b60e01b8152fd5b5090516306117a9960e01b8152fd5b509051632000760360e21b8152fd5b82843461078957816003193601126107895750610aae6114c9612551565b60243590612e21565b50503461052e578160031936011261052e576020906007549051908152f35b50503461052e578160031936011261052e5760209061150e612db3565b9051908152f35b50346104f55760203660031901126104f557356001600160a01b038116908190036104f557828291602094526011845220549051908152f35b50503461052e578160031936011261052e57517f00000000000000000000000000000000000000000000000000000000000000006001600160a01b03168152602090f35b50503461052e578160031936011261052e57517f00000000000000000000000000000000000000000000000000000000000000006001600160a01b03168152602090f35b50346104f55760203660031901126104f557356001600160a01b038116908190036104f557818360ff92602095526013855220541690519015158152f35b50503461052e578160031936011261052e57602090600e549051908152f35b5090346104f557826003193601126104f55761164d61271f565b60ff60025416600781101561176f576005036117625733835260209260118452611682828220546012865283832054906125e2565b9081156117455733815260118552808381205560128552828120558060011c92600f54908185116117375750836116b891612689565b600f556116ef83337f00000000000000000000000000000000000000000000000000000000000000006001600160a01b0316612795565b8151908152828482015233907f1ce54e43741e1fbade3f0641dc49018c6f00e871153f97e7b38b02c5162c63ed833092a360015f805160206135b18339815191525551908152f35b835163067a0eb960e21b8152fd5b83604491600185519263506f633f60e11b84528301526024820152fd5b516373f38b1560e11b8152fd5b634e487b7160e01b845260218352602484fd5b50346104f557816003193601126104f557803567ffffffffffffffff8111611a1b576117b19036908301612583565b90602435926117be61271f565b60ff600254166007811015611a08576001036119fa577f00000000000000000000000000000000000000000000000000000000000000004210156119ec57620f424084106119de5782156119d0576001600160a01b039186906118458630337f00000000000000000000000000000000000000000000000000000000000000008816612696565b6118508684546125e2565b835561185e866005546125e2565b600555338252602093600c8552878320600160ff198254161790557f00000000000000000000000000000000000000000000000000000000000000001694853b156104f55787516259632960e31b8152308582015233602482015260806044820152918391839182916118d691608484019190612669565b896064830152038183895af180156119c6576119b2575b5050816024938651948580926285fa7160e71b825230868301525afa9283156119a8578693611979575b505f198301928311611966575083519283528201527f61e034d80d9bd9b8dcd5d07434c03615017de4a6a229fe18bb93863bd20341a833923092a360015f805160206135b18339815191525580f35b634e487b7160e01b865260119052602485fd5b9092508181813d83116119a1575b6119918183612647565b810103126109985751915f611917565b503d611987565b85513d88823e3d90fd5b6119bb90612603565b610eb257855f6118ed565b87513d84823e3d90fd5b8451631364228160e31b8152fd5b84516326f9a6d560e21b8152fd5b8451630c35d3d360e01b8152fd5b845163376f7bc960e01b8152fd5b634e487b7160e01b875260218252602487fd5b8380fd5b5091903461052e57602036600319011261052e57823567ffffffffffffffff81116104f557611a519036908501612583565b9093906001600160a01b03907f000000000000000000000000000000000000000000000000000000000000000082163303611c655760025460ff81166007811015611c525760058114611c4257600203611c3257611aeb869760057f69571ef5701bc1cb2a5b4e5ad988ffb80e2b3d603e7cd8918a27fc61d54f2ab29360ff19161760025586519182916020835230956020840191612669565b0390a27f000000000000000000000000000000000000000000000000000000000000000080611bdf575b5060055480611b8c575b507f000000000000000000000000000000000000000000000000000000000000000016803b15611b87576024849284519586938492639b63282960e01b845230908401525af1908115611b7e5750611b75575080f35b61040990612603565b513d84823e3d90fd5b505050fd5b611bd9907f0000000000000000000000000000000000000000000000000000000000000000837f000000000000000000000000000000000000000000000000000000000000000016612795565b5f611b1f565b611c2c907f0000000000000000000000000000000000000000000000000000000000000000837f000000000000000000000000000000000000000000000000000000000000000016612795565b5f611b15565b8451637c857f7160e01b81528490fd5b8551630e081d4160e31b81528590fd5b634e487b7160e01b875260218552602487fd5b83516001621bb8dd60e31b031981528390fd5b50503461052e578160031936011261052e576020906005549051908152f35b50346104f557826003193601126104f5576002549060ff82166007811015611d3c57600103611d2e577f00000000000000000000000000000000000000000000000000000000000000004210611d20575060029060ff191617600255514281527f8a026f0b097fdcfe809810fb54c34c3533c62365f31022492eb067e65519869b60203092a280f35b8251638f6e807760e01b8152fd5b825163376f7bc960e01b8152fd5b634e487b7160e01b855260218252602485fd5b83823461052e57602036600319011261052e57356001600160a01b038116810361052e57611d8490611d7f61271f565b612818565b60015f805160206135b18339815191525580f35b50503461052e578160031936011261052e576020906009549051908152f35b50346104f55760203660031901126104f557356001600160a01b038116908190036104f557828291602094526012845220549051908152f35b50503461052e578160031936011261052e5760088054915191901c6001600160a01b03168152602090f35b50346104f557826003193601126104f55760209250549051908152f35b50503461052e578160031936011261052e57602090517f00000000000000000000000000000000000000000000000000000000000000008152f35b50503461052e578160031936011261052e5761052a90610517612be5565b5091903461052e57611ea236612560565b93611eab61271f565b60ff60025416600781101561208d576001036113c9577f00000000000000000000000000000000000000000000000000000000000000004210156113b957620f424082106113a957600d54158015612083575b61134f57611f0c8284612e21565b509480861061135f5750841561134f57606482028281046064148315171561207057602096929161271086920493611f448585612689565b90611f7a8530337f00000000000000000000000000000000000000000000000000000000000000006001600160a01b0316612696565b611f86866010546125e2565b601055611f9582600f546125e2565b600f55611fa38582546125e2565b9055338252600c8952828220805460ff191660011790558786156120405790611fd5611fe09261122b83600d546125e2565b600d55600e546125e2565b600e553381526011885220611ff68682546125e2565b90555b7f66eaa0596a93ff44a74cb67dd2cdec46e3a5091ee63312caf313189d016789de845193151593806112ba3395893096846040919493926060820195825260208201520152565b61122b82611fd561205394600d546125e2565b600e5533815260128852206120698682546125e2565b9055611ff9565b634e487b7160e01b825260118752602482fd5b50600e5415611efe565b634e487b7160e01b825260218752602482fd5b50503461052e578160031936011261052e576020906120bd612d77565b9051906120c981612547565b8152f35b50503461052e578160031936011261052e57602090517f00000000000000000000000000000000000000000000000000000000000000008152f35b50503461052e578160031936011261052e5760209060ff60025460081c1690519015158152f35b50503461052e578160031936011261052e57602090517f00000000000000000000000000000000000000000000000000000000000000008152f35b50346104f55760203660031901126104f557356001600160a01b03811691908290036104f55761010092600d5492600e5491600f5491601054908252601160205284808320549260126020522054926121c1612f32565b969095815198895260208901528701526060860152608085015260a084015260c083015260e0820152f35b50503461052e578160031936011261052e5760209061150e612def565b508234610789578060031936011261078957506122b261225a9260025492549260065460035490612238612be5565b9560ff612243612cc8565b9461228b87519a8b9a610120808d528c0190612509565b977f000000000000000000000000000000000000000000000000000000000000000060208c01528a018383166124e8565b60081c1615156060880152608087015260a086015260c085015283820360e0850152612509565b7f00000000000000000000000000000000000000000000000000000000000000006001600160a01b03166101008301520390f35b50503461052e578160031936011261052e5760209061230d60ff60025416915180926124e8565bf35b50503461052e578160031936011261052e576020906003549051908152f35b50503461052e578160031936011261052e576020906010549051908152f35b50346104f55760203660031901126104f557356001600160a01b038116908190036104f557818360ff9260209552600c855220541690519015158152f35b5090346104f557826003193601126104f5576123a561271f565b60ff60025416600781101561176f5760030361249857600654421161248b57600880546001600160a01b0393911c831661247d57506124126123e5612def565b8093309033907f000000000000000000000000000000000000000000000000000000000000000016612696565b60088054610100600160a81b0319163380831b610100600160a81b031691909117909155600983905590519182529030907f1288ffc9982cc1fb5d4f688c32cec5a69f33ee50fdd218186e48a813caea75db90602090a360015f805160206135b18339815191525580f35b905163a91c3b5b60e01b8152fd5b5163aeab0d9360e01b8152fd5b51632000760360e21b8152fd5b84903461052e578160031936011261052e577f00000000000000000000000000000000000000000000000000000000000000006001600160a01b03168152602090f35b9060078210156124f55752565b634e487b7160e01b5f52602160045260245ffd5b91908251928382525f5b848110612533575050825f602080949584010152601f8019910116010190565b602081830181015184830182015201612513565b600411156124f557565b60043590811515820361099857565b606090600319011261099857600435801515810361099857906024359060443590565b9181601f840112156109985782359167ffffffffffffffff8311610998576020838186019501011161099857565b9181601f840112156109985782359167ffffffffffffffff8311610998576020808501948460051b01011161099857565b919082018092116125ef57565b634e487b7160e01b5f52601160045260245ffd5b67ffffffffffffffff811161261757604052565b634e487b7160e01b5f52604160045260245ffd5b6060810190811067ffffffffffffffff82111761261757604052565b90601f8019910116810190811067ffffffffffffffff82111761261757604052565b908060209392818452848401375f828201840152601f01601f1916010190565b919082039182116125ef57565b6040516323b872dd60e01b5f9081526001600160a01b03938416600452938316602452604494909452909160209060648180855af160015f5114811615612700575b836040525f606052156126ea57505050565b635274afe760e01b835216600482015260249150fd5b600181151661271657813b15153d1516166126d8565b833d5f823e3d90fd5b5f805160206135b1833981519152600281541461273c5760029055565b604051633ee5aeb560e01b8152600490fd5b906064820291808304606414901517156125ef57565b818102929181159184041417156125ef57565b8115612781570490565b634e487b7160e01b5f52601260045260245ffd5b60405163a9059cbb60e01b5f9081526001600160a01b039384166004526024949094529260209060448180855af160015f51148116156127de575b83604052156126ea57505050565b600181151661271657813b15153d1516166127d0565b91908110156128045760051b0190565b634e487b7160e01b5f52603260045260245ffd5b6001600160a01b037f000000000000000000000000000000000000000000000000000000000000000081163303612bd35760025460ff811692600784101590816124f5576004928386141580612bc5575b612bb45760085460ff8116612ba357858316926040968751986307cf7f2760e51b8a5230888b01526020998a816024818a5afa908115612b99575f91612b6c575b5015612b60575f96612b4d57600514958615612b2d5750600d54600e5480821015612b2657505b935b601054917f0000000000000000000000000000000000000000000000000000000000000000169489516370a0823160e01b8152308a8201528b816024818a5afa9b8c15612b1c575f9c612aeb575b5050600f91825491828111612ae4575b8c811115612ade57508b985b6129488a869e612689565b808611612ad5575b50600161295d8e8c6125e2565b60ff199098161760085515612a3557505061297a87600d54612689565b600d5561298987600e54612689565b600e558054875f918181115f14612a2d576129a49250612689565b905b555b885f918181115f14612a26576129be9250612689565b60105581612a15575b505050803b15610998575f9283604492865197889586946389b6634d60e01b865285015260248401525af1908115612a0c5750612a015750565b612a0a90612603565b565b513d5f823e3d90fd5b612a1e92612795565b5f80806129c7565b50506129be565b5050906129a6565b60081c60ff1615612a8c57508054875f918181115f14612a8457612a599250612689565b905b55600d54865f918181115f14612a7d57612a759250612689565b600d556129a8565b5050612a75565b505090612a5b565b875f918181115f14612acd57612aa29250612689565b905b55600e54865f918181115f14612ac657612abe9250612689565b600e556129a8565b5050612abe565b505090612aa4565b9c506001612950565b9861293d565b5081612931565b81819d92939d3d8311612b15575b612b038183612647565b81010312610789575051995f80612921565b503d612af9565b8b513d5f823e3d90fd5b90506128d1565b5060ff8460081c165f14612b4557600d545b936128d3565b600e54612b3f565b634e487b7160e01b875260218852602487fd5b50505050505050505050565b908b82813d8311612b92575b612b828183612647565b810103126107895750515f6128aa565b503d612b78565b8a513d5f823e3d90fd5b6040516312f6295560e21b81528590fd5b604051632555689560e01b81528490fd5b505f92506005861415612869565b604051637ebbc72760e01b8152600490fd5b604051905f805490600182811c90808416938415612cbe575b6020948584108114612caa5783885287949392918115612c8a5750600114612c2f575b5050612a0a92500383612647565b5f8080527f290decd9548b62a8d60345a988386fc84ba6bc95484008f6362f93160ef3e56395935091905b818310612c72575050612a0a93508201015f80612c21565b85548884018501529485019487945091830191612c5a565b915050612a0a94925060ff191682840152151560051b8201015f80612c21565b634e487b7160e01b85526022600452602485fd5b91607f1691612bfe565b604051905f60019081549182811c90808416938415612d6d575b6020948584108114612caa5783885287949392918115612c8a5750600114612d12575050612a0a92500383612647565b5f8181527fb10e2d527612073b26eecdfd717e6a320cf44b4afac2b0732d9fcbe2b7fa0cf695935091905b818310612d55575050612a0a93508201015f80612c21565b85548884018501529485019487945091830191612d3d565b91607f1691612ce2565b6004546402540be400811015612dad57633b9aca00811015612da7576305f5e1001115612da2575f90565b600190565b50600290565b50600390565b7f000000000000000000000000000000000000000000000000000000000000000080421015612dea57612de7904290612689565b90565b505f90565b6004546101f4908181029181830414901517156125ef5761271090046302faf08080821115612e1c575090565b905090565b8115808015612ecd575b8015612ec3575b612eba57606483029083820460641417156125ef57612710612e5691048093612689565b600d5490600e5492612e688484612764565b9015612ea957612e8690612e8083612e8c95966125e2565b90612f80565b926125e2565b5f919081811115612ea457612ea19250612689565b91565b505091565b612e8690612e8083612e8c956125e2565b5050505f905f90565b50600e5415612e32565b50600d5415612e2b565b9080158015612f28575b8015612f1e575b612f1657612ef591612faf565b60648102818104606414821517156125ef57612710612ea191048092612689565b50505f905f90565b50600e5415612ee8565b50600d5415612ee1565b600d5490612f43600e5480936125e2565b918215612f765761271092838202918083048514901517156125ef57612f6891612777565b918281039081116125ef5790565b5061138891508190565b908115612fa9575f1982019182116125ef57612f9b91612777565b600181018091116125ef5790565b50505f90565b8115801561308a575b8015613080575b612fa957612fec8291805f1461307757600d54905b1561306957612fe7600e549384926125e2565b6125e2565b91612ff78380612764565b906001600160fe1b03811681036125ef5761301e926130189160021b612764565b90612689565b9061302882613094565b916130338380612764565b10613049575b9061304391612689565b60011c90565b600182018092111561303957634e487b7160e01b5f52601160045260245ffd5b612fe7600d549384926125e2565b600e5490612fd4565b50600e5415612fbf565b50600d5415612fb8565b6001808211156131b057613151908083600160801b81101561319e575b80600160401b6004921015613191575b640100000000811015613184575b62010000811015613177575b61010081101561316b575b601081101561315f575b1015613158575b600302811c6131068185612777565b01811c6131138185612777565b01811c6131208185612777565b01811c61312d8185612777565b01811c61313a8185612777565b01811c6131478185612777565b01901c8092612777565b8111900390565b811b6130f7565b811c9160021b916130f0565b60081c91811b916130e6565b60101c9160081b916130db565b60201c9160101b916130cf565b60401c9160201b916130c1565b50600160401b9050608084901c6130b1565b5090565b7f0000000000000000000000000000000000000000000000000000000000000000806131dd5750565b6001600160a01b037f000000000000000000000000000000000000000000000000000000000000000061323383827f00000000000000000000000000000000000000000000000000000000000000008516612795565b60405192835216907f681d1ef9341f6c23fce4142535ac171a0b421bcaee4df95f2fdfd429f2556f1160203092a3565b90831561335f576040519060208201923060601b8452151560f81b60348301526035820152603581526132958161262b565b51902060405160208101917f19457468657265756d205369676e6564204d6573736167653a0a3332000000008352603c820152603c81526132d58161262b565b51902067ffffffffffffffff831161261757604051906132ff601f8501601f191660200183612647565b8382523684840111610998575f60208561332d96613324968387013784010152613367565b9092919261342f565b7f00000000000000000000000000000000000000000000000000000000000000006001600160a01b0390811691161490565b505050505f90565b8151919060418303613397576133909250602082015190606060408401519301515f1a906133a1565b9192909190565b50505f9160029190565b91907f7fffffffffffffffffffffffffffffff5d576e7357a4501ddfe92f46681b20a0841161342457926020929160ff6080956040519485521684840152604083015260608201525f92839182805260015afa156134185780516001600160a01b0381161561340f57918190565b50809160019190565b604051903d90823e3d90fd5b5050505f9160039190565b61343881612547565b80613441575050565b61344a81612547565b600181036134645760405163f645eedf60e01b8152600490fd5b61346d81612547565b6002810361348e5760405163fce698f760e01b815260048101839052602490fd5b8061349a600392612547565b146134a25750565b602490604051906335e2f38360e21b82526004820152fd5b906040519160a0830183811067ffffffffffffffff821117612617576040525f92838152602081019084825260408101858152606082019286845260808301928784528097861561359e5761271090816135138961274e565b048352816135208961274e565b048452603288029088820460320361358a575004835251905161355d9261355492909161354c916125e2565b9051906125e2565b80845284612689565b9052519080821161356c575050565b604492506040519163bb22134560e01b835260048301526024820152fd5b634e487b7160e01b81526011600452602490fd5b60405163edfdf80d60e01b8152600490fdfe9b779b17422d0df92223018b32b4d1fa46e071723d6817e2486d003becc55f00a2646970667358221220634ac95f8a5d15f44b7ccef632c53c83acc91067e5754508357decdcbb30778764736f6c63430008140033a2646970667358221220d98115c67bc39c69db235c126ae8fdeb10cb99fb86b94abaead57a6d00e24a1264736f6c63430008140033","linkReferences":{}},"methodIdentifiers":{"USDT()":"c54e44eb","allMarkets(uint256)":"52d84d1e","createMarket(string,uint256,string,bytes32)":"13112f69","creationBondAmount()":"0184251b","getMarkets(uint256,uint256)":"80968d48","getMarketsByCreator(address)":"e99c80bd","isMarket(address)":"6ec934da","isValidMarket(address)":"58e6309f","marketMakerAgent()":"c792adb6","marketsByCreator(address,uint256)":"13ba3d14","oracleAgent()":"7d618bb6","owner()":"8da5cb5b","pause()":"8456cb59","paused()":"5c975abb","payoutDistributor()":"b3371047","positionVault()":"98654aff","protocolTreasury()":"803db96d","renounceOwnership()":"715018a6","setVaultAndDistributor(address,address)":"54bb1dd9","totalMarkets()":"8162486b","totalMarketsCreated()":"27b3d42a","transferOwnership(address)":"f2fde38b","unpause()":"3f4ba83a","updateCreationBond(uint256)":"35ac9f9c","updateTreasury(address)":"7f51bb1f"},"id":40}